:100000000C9437000C945F000C945F000C945F001C
:100010000C945F000C945F000C945F000C945F00E4
:100020000C945F000C945F000C945F000C945F00D4
:100030000C945F000C945F000C945F000C945F00C4
:100040000C94E4060C945F000C9429090C94770935
:100050000C945F000C945F000C945F000C945F00A4
:100060000C945F000C945F0063041306E30A1124F0
:100070001FBECFEFD8E0DEBFCDBF11E0A0E0B1E002
:10008000E8E0FFE102C005900D92AA3EB107D9F762
:1000900014E0AAEEB1E001C01D92A73BB107E1F761
:1000A00010E0CEE6D0E004C02297FE010E947E0F51
:1000B000C836D107C9F70E94390B0C94820F0C94F3
:1000C0000000CF92DF92EF92FF920F931F936C018B
:1000D000FC01E68AF78A008F118F71836083538356
:1000E000428335832483C801B70120E030E040E239
:1000F00051E40E946E0DF601628F738F848F958F8D
:10010000C801B70120E030E040E05FE30E94BD0E8F
:10011000F601668377838087918780EE9EE2A5E66D
:10012000B2E482A393A3A4A3B5A31F910F91FF9060
:10013000EF90DF90CF9008958F929F92AF92BF92F1
:10014000CF92DF92EF92FF920F931F938C0188273B
:1001500077FD8095982F0E94090EF801268937892E
:10016000408D518D0E94BD0E20E030E040E85AE302
:100170000E94BD0EF80126813781408551850E947D
:10018000050DF801228D338D448D558D0E946E0D25
:100190006B017C01F801868C978CA0A0B1A0A50111
:1001A00094010E946A0D88239CF4A5019401505883
:1001B000C701B6010E94B90E181654F40F2EF0E0D4
:1001C000CF2EF0E0DF2EF0E0EF2EF0E0FF2EF02D4E
:1001D000B601C7011F910F91FF90EF90DF90CF9074
:1001E000BF90AF909F908F900895FC01228533853A
:1001F00044855585B901CA010895FC0126853785D6
:1002000040895189B901CA010895FC0122893389C5
:1002100044895589B901CA010895DF92EF92FF928E
:100220000F931F93CF93DF93D62E862F0E94D10773
:1002300061E070E080E090E00E943A07EE24FF2445
:100240008701C0E0D0E08D2D0E94D107AA2797FD3D
:10025000A095BA2FE80EF91E0A1F1B1F2196C53064
:10026000D10589F7C801B70125E030E040E050E052
:100270000E94610FC901DF91CF911F910F91FF90F3
:10028000EF90DF9008950F931F938C01FC01608124
:1002900071810E940D01BC01C8010E949C00F801FF
:1002A000628773878487958762817381C8010E9402
:1002B0000D01BC01C8010E949C00F8016687778788
:1002C000808B918B64817581C8010E940D01BC01F6
:1002D000C8010E949C00F801628B738B848B958B04
:1002E0001F910F910895FC017183608324833583EE
:1002F000468357830895AF92BF92CF92DF92EF92D9
:10030000FF920F931F9300D000D0882777FD809530
:10031000982F24E630E040E050E0EDB7FEB72183AF
:1003200032834383548328E83FEF4FEF5FEFF8E7D2
:10033000EF2EF12C012D112DECE9AE2EEFEFBE2E9C
:10034000EFEFCE2EEFEFDE2E0E94BC0C0F900F9041
:100350000F900F90CB011F910F91FF90EF90DF90C6
:10036000CF90BF90AF9008950F931F93CF93DF93DB
:100370008C01EB01FC01828193810E944301C13019
:10038000D10571F0C230D10589F0CD2B19F020E0F4
:1003900030E020C0F801828193810E94F5000BC0FB
:1003A000F801828193810E94FD0005C0F8018281DD
:1003B00093810E94050120E030E048EC52E40E9465
:1003C000BD0E0E94D60D9B01AC01C801B9010E946F
:1003D0007B019C01C901DF91CF911F910F9108957D
:1003E000BF92CF92DF92EF92FF920F931F93DF9312
:1003F000CF93CDB7DEB727970FB6F894DEBF0FBE09
:10040000CDBF8C017B0160E070E00E94B401C82E7A
:100410006AE070E080E090E00E943A07C80161E085
:1004200070E00E94B401D82E6AE070E080E090E0B5
:100430000E943A07C80162E070E00E94B401182FE0
:100440006AE070E080E090E00E943A07FE01319699
:1004500087E0DF011D928A95E9F7C982DA821B8362
:1004600087010A571E4FBE2C3F2DAF01D801B7019F
:1004700066577E4F88E0C82ED12CCC0EDD1EED9045
:10048000FC901197FA018081F70180838D919C91F6
:100490001197019611969C938E938017910721F4E2
:1004A000BC9211963C9311972FB7F894FB01808171
:1004B00091810196918380832FBF4F5F5F4F4C15D1
:1004C0005D05E9F627960FB6F894DEBF0FBECDBFE7
:1004D000CF91DF911F910F91FF90EF90DF90CF9020
:1004E000BF900895AF92BF92CF92DF92EF92FF92AA
:1004F0000F931F936C0186E290E00E94480BB82E88
:10050000A92ED601ED91FC91119761814281238141
:100510001496ED90FD900D911C91179770E050E0AE
:1005200030E00E946100F601B282A3821F910F9118
:10053000FF90EF90DF90CF90BF90AF900895DC01D7
:100540001D96ED91FC911E97A081B18112962D917F
:100550003C911397CF0150E0F901099508951F933D
:10056000CF93DF93EC011AE01CC0ED85FE85A081DE
:10057000B18114962D913C911597CF01F901099500
:10058000892B79F0ED85FE85A081B18116962D919C
:100590003C911797CF01F9010995803411F481E05E
:1005A00003C0115010F780E0DF91CF911F910895A3
:1005B0000F931F93DF93CF9300D0CDB7DEB78C019D
:1005C0008BE289836A83D8011D96ED91FC911E9779
:1005D000A081B18112962D913C911397CF01BE015C
:1005E0006F5F7F4F42E050E0F9010995C8010E941A
:1005F000AF020F900F90CF91DF911F910F9108954F
:1006000064E40E94D802089563E40E94D802089529
:100610000F931F93CF93DF93EC016B8B0E94AF027C
:10062000882339F100E01AE01CC0ED85FE85A08129
:10063000B18114962D913C911597CF01F90109953F
:10064000892B79F0AD85BE85ED91FC9111970680DF
:10065000F781E02DCD010995FE01E00FF11D848B9E
:100660000F5F115010F78C898B3219F481E08B8F5A
:1006700001C01B8E9E012D5E3F4FC901DF91CF91BE
:100680001F910F910895CF93DF93EC018FB7F894EA
:10069000E989FA89E657FE4F208131818FBF232BEC
:1006A00051F049895A899E012A5D3F4F81E090E0CF
:1006B00061E40E94F403E881F9810084F185E02D72
:1006C000CE01A696BE0143E10995DF91CF91089531
:1006D0000F931F938C0162E50E94D802F80180A15C
:1006E00091A10E94DD051F910F910895AF92BF92D5
:1006F000CF92DF92EF92FF920F931F936C01CB0189
:100700005A0140ED51E0F6015183408312A213A239
:1007100014A215A276876587B382A282328B218BC1
:10072000178F068FF1A2E0A240E052EC61E070E08A
:100730000E94B209F601A585B685ED91FC9111974D
:100740000284F385E02DCD010995F601B58EA48EC6
:100750001F910F91FF90EF90DF90CF90BF90AF90DF
:100760000895FC015583448371836083308B278710
:100770000895FC01738362830895CB010E944303B3
:100780000895FB01833079F0843018F48130A0F0B3
:1007900005C0863068F0863079F405C08785908979
:1007A0000E94DD050895878590890E94DA050895E5
:1007B000878590890E94D60508950F931F938A011B
:1007C000FA0167839187808781E082830E942C07EA
:1007D000F80163837483858396838AE090E0918334
:1007E00080831F910F910895CF92DF92EF92FF9235
:1007F0000F931F93CF93DF938A01E901A9010E9410
:10080000DD03CE010B96FC0183E0DF011D928A958A
:10081000E9F7198A2FB7F894F801E657FE4F80815F
:1008200091812FBF089708F445C086E8E82E81E043
:10083000F82EE00EF11ED02EC12EBE01655F7F4F57
:10084000D801A857BE4FAF016396ED91FC91119767
:1008500031911196FC93EE93EE15FF0521F4DC9295
:100860001196CC9211972FB7F894FA01808191815B
:100870000197918380832FBFFB013193BF01EC1758
:10088000FD0719F7F801E857FE4F80819181019625
:10089000918380838E159F0511F4D082C1822FB77A
:1008A000F894F801E657FE4F80819181019791837A
:1008B00080832FBFDF91CF911F910F91FF90EF9019
:1008C000DF90CF900895AF92BF92CF92DF92EF92D8
:1008D000FF920F931F930BE713E02FEEC22E21E040
:1008E000D22E91E9E92E94E0F92E8EEEA82E81E029
:1008F000B82EC801B601A70195010E94B1038CE88A
:1009000093E063EA71E020E030E040EA50E40E94C6
:10091000730184E993E0B70141E050E0960175016D
:100920000E9476031F910F91FF90EF90DF90CF9080
:10093000BF90AF9008950E942C072091EA0130915A
:10094000EB014091EC015091ED01621B730B840BA4
:10095000950B663971058105910508F443C00E9425
:100960002C076093EA017093EB018093EC01909364
:10097000ED018DEC93E061E00E94BC068091FE03E6
:100980009091FF0360E071E00E94A60C8091FE034D
:100990009091FF0367E071E00E94A60C8091FE0336
:1009A0009091FF0367E071E00E94A60C8091FE0326
:1009B0009091FF0367E071E00E94A60C8DEC93E03C
:1009C0000E9414068091FE039091FF0367E071E09E
:1009D0000E94A60C8091FE039091FF0369E071E0F4
:1009E0000E94A90C8DEC93E00E94E0068091FE032A
:1009F0009091FF0360E171E00E94A60C8091FE03DC
:100A00009091FF0368E171E00E94A90C65E070E03D
:100A100080E090E00E943A076AE070E080E090E0B9
:100A20000E943A078DEC93E063E00E9449068CE84F
:100A300093E06FEE71E00E94F0018FB7F89460913F
:100A4000790370917A038FBF81E994E04AE050E026
:100A50000E94240C64E670E080E090E00E943A0777
:100A60000895EF92FF920F931F930DEC13E031E97D
:100A7000E32E34E0F32EC801B70120E032EC41E070
:100A800050E00E94B30660ED77E080E090E00E94C5
:100A90003A07C8010E94E0068091FE039091FF038F
:100AA0006FE171E00E94A90C6AE070E080E090E0E4
:100AB0000E943A07C80161E041E00E94A106C80116
:100AC0000E94E0068091FE039091FF036FE271E0C7
:100AD0000E94A60C8091FE039091FF0368E171E0F3
:100AE0000E94A90C65E070E080E090E00E943A0767
:100AF0006AE070E080E090E00E943A07C80161E09F
:100B00000E944906C70140E052EC61E070E00E949B
:100B1000B2092FB7F8948FEE91E09093760380930B
:100B2000750390937803809377032FBF81E00E9431
:100B3000CE070DEC13E0C8010E94E0068091FE0391
:100B40009091FF0367E371E00E94A60C8091FE0381
:100B50009091FF0368E171E00E94A90C65E070E0EC
:100B600080E090E00E943A076AE070E080E090E068
:100B70000E943A07C80162E00E9449068CE893E0AF
:100B80000E94720281E994E06FE371E00E94A90C77
:100B90008BE793E067EA71E00E94B90381E08093FC
:100BA000EE011F910F91FF90EF900895FC0181E0FD
:100BB00080830895FC0110820895E0E0F0E009953B
:100BC0000895DF93CF9300D0CDB7DEB72091B30463
:100BD0003091B404CE0101962115310529F4875BCB
:100BE00094409A83898318C0AC01421B530BE09157
:100BF000B504F091B60420E030E008C08081918116
:100C00000296280F391F0280F381E02D3097B1F74B
:100C1000240F351F3A83298389819A810F900F9081
:100C2000CF91DF91089508950F931F93FC0101A9BF
:100C300012A90E94E105BC01C8014AE050E00E94EF
:100C4000930C1F910F910895FF920F931F938C01A6
:100C5000F62EFC0181A992A965E971E00E94A60C1B
:100C6000F80181A992A96F2D4AE050E00E94410C41
:100C7000F80181A992A96CE971E00E94A90C62E3D4
:100C800070E080E090E00E943A071F910F91FF9082
:100C90000895FF920F931F93CF93DF938C01F62E4D
:100CA000DC0115968C91882309F442C0D801D196B5
:100CB000ED91FC91D297A081B18114962D913C9138
:100CC0001597CF01F9010995892B81F320C0D8012F
:100CD000D196ED91FC91D297A081B18116962D917C
:100CE0003C911797CF01F9010995EC0183369105E5
:100CF00039F086379105F1F08835910541F405C04A
:100D0000C8016F2D0E94240615C0F8011582D80174
:100D1000D196ED91FC91D297A081B18114962D913D
:100D20003C911597CF01F9010995181619067CF227
:100D3000C3E6D0E0CE01DF91CF911F910F91FF90DC
:100D400008951F93CF93DF93EC01142F662331F0A6
:100D500081E08D83CE0160E00E9449061D83DF9112
:100D6000CF911F910895FC0172AB61ABCB01BA0129
:100D7000A9010E94B2090895CF93DF93EC01662385
:100D800039F015C063E070E080E090E00E943A071F
:100D90000E942C0729813A814B815C81621B730B75
:100DA000840B950B623371058105910558F30E9400
:100DB0002C0769837A838B839C83DF91CF9108957D
:100DC00060E00E94BC0608951F920F920FB60F922A
:100DD00011242F933F938F939F93AF93BF93809151
:100DE000040490910504A0910604B0910704309189
:100DF00008040196A11DB11D232F2D5F2D3720F072
:100E00002D570196A11DB11D209308048093040461
:100E100090930504A0930604B09307048091000406
:100E200090910104A0910204B09103040196A11DC8
:100E3000B11D8093000490930104A0930204B09329
:100E40000304BF91AF919F918F913F912F910F908C
:100E50000FBE0F901F9018958FB7F894209104043F
:100E60003091050440910604509107048FBFB901E9
:100E7000CA0108959B01AC017FB7F89480910004EA
:100E800090910104A0910204B091030466B5A89B5F
:100E900005C06F3F19F00196A11DB11D7FBFBA2F8C
:100EA000A92F982F8827860F911DA11DB11D62E0E3
:100EB000880F991FAA1FBB1F6A95D1F7BC012DC0CF
:100EC000FFB7F8948091000490910104A09102046E
:100ED000B0910304E6B5A89B05C0EF3F19F0019659
:100EE000A11DB11DFFBFBA2FA92F982F88278E0FE4
:100EF000911DA11DB11DE2E0880F991FAA1FBB1F04
:100F0000EA95D1F7861B970B885E9340C8F2215073
:100F100030404040504068517C4F2115310541051B
:100F2000510571F60895789484B5826084BD84B5C6
:100F3000816084BD85B5826085BD85B5816085BDD4
:100F4000EEE6F0E0808181608083E1E8F0E01082ED
:100F5000808182608083808181608083E0E8F0E02E
:100F6000808181608083E1EBF0E080818460808318
:100F7000E0EBF0E0808181608083EAE7F0E080814F
:100F800084608083808182608083808181608083AF
:100F90008081806880831092C10008958093C5018C
:100FA0000895982F8E3008F09E5097708091C5015B
:100FB0008295880F880F807C892B80937C0080919C
:100FC0007A00806480937A0080917A0086FDFCCF5D
:100FD0002091780040917900942F80E030E0282B18
:100FE000392BC90108950F931F93CF93DF93BC0151
:100FF0008230910510F462E070E0E091B504F09168
:10100000B60440E050E0A0E0B0E024C080819181CF
:1010100086179707D0F08617970771F4828193811E
:10102000109729F013969C938E9312972CC090934F
:10103000B6048093B50427C04115510519F08417F3
:10104000950718F48D01AC01EF01DF0182819381D6
:101050009C01F9013097D1F641155105F9F0CA010B
:10106000861B970B8430910580F48A819B81011542
:10107000110521F0F8019383828304C09093B60494
:101080008093B504FE01329645C0FE01E80FF91FBA
:10109000619371930297998388833CC08091B304D4
:1010A0009091B404892B41F48091C8019091C901B9
:1010B0009093B4048093B3044091CA015091CB0142
:1010C0004115510541F44DB75EB78091C60190912D
:1010D000C701481B590B2091B3043091B404241765
:1010E0003507B0F4CA01821B930B8617970780F06F
:1010F000AB014E5F5F4F8417950750F0420F531FAF
:101100005093B4044093B304F9016193719302C006
:10111000E0E0F0E0CF01DF91CF911F910F910895B2
:10112000CF93DF939C01009709F48FC0EC012297C5
:101130001B821A826091B5047091B6046115710525
:1011400081F488819981820F931F2091B30430919B
:10115000B4042817390739F5D093B404C093B30405
:1011600074C0DB0140E050E0AC17BD0708F1BB8361
:10117000AA83FE0121913191E20FF31FAE17BF0741
:1011800079F48D919C911197280F391F2E5F3F4F55
:101190003983288312968D919C9113979B838A8320
:1011A0004115510571F4D093B604C093B5044DC0F8
:1011B00012968D919C911397AD01009711F0DC016F
:1011C000D3CFDA011396DC93CE931297FA012191D3
:1011D0003191E20FF31FCE17DF0769F488819981FF
:1011E000280F391F2E5F3F4FFA01318320838A81F8
:1011F0009B8193838283E0E0F0E0DB0112968D9186
:101200009C911397009719F0BC01FD01F6CFAB013B
:101210004E5F5F4FDB018D919C91840F951F209154
:10122000B3043091B4042817390779F4309729F4BE
:101230001092B6041092B50402C01382128242507A
:1012400050405093B4044093B304DF91CF9108957C
:1012500008951F920F920FB60F9211242F933F9370
:101260004F938F939F93EF93FF938091C00082FDE4
:101270001DC04091C6002091490430914A042F5F5F
:101280003F4F2F73307080914B0490914C0428177E
:10129000390771F0E0914904F0914A04E75FFB4F90
:1012A000408330934A042093490402C08091C600D1
:1012B000FF91EF919F918F914F913F912F910F90BF
:1012C0000FBE0F901F901895E0919D04F0919E0421
:1012D000E05CFF4F8191919120813181821B930BC2
:1012E0008F739070892B11F00E94280908951F9226
:1012F0000F920FB60F9211242F933F938F939F93CA
:10130000EF93FF9320918D0430918E0480918F0490
:10131000909190042817390731F48091C1008F7D96
:101320008093C10014C0E0918F04F0919004E35BBE
:10133000FB4F208180918F049091900401968F73D0
:1013400090709093900480938F042093C600FF9137
:10135000EF919F918F913F912F910F900FBE0F9022
:101360001F901895AF92BF92DF92EF92FF920F936A
:101370001F93CF93DF93EC017A018B01DD24403082
:1013800081EE580780E0680780E0780711F0DD24DF
:10139000D39491E0A92EB12CEC89FD89DD2069F070
:1013A000C50108A002C0880F991F0A94E2F7808344
:1013B00060E079E08DE390E005C0108260E874E8B9
:1013C0008EE190E0A80197010E943F0F215030402C
:1013D00040405040569547953795279580E12030FD
:1013E000380720F0DD2011F0DD24D6CFE889F98917
:1013F0003083EA89FB89208319A2EE89FF89408125
:1014000021E030E0C9010C8C02C0880F991F0A94BA
:10141000E2F7482B4083EE89FF894081C9010D8C9A
:1014200002C0880F991F0A94E2F7482B4083EE8987
:10143000FF894081C9010E8C02C0880F991F0A9450
:10144000E2F7482B4083EE89FF8980810F8C02C030
:10145000220F331F0A94E2F7209528232083DF917F
:10146000CF911F910F91FF90EF90DF90BF90AF90C1
:101470000895DC011C96ED91FC911D97E05CFF4FF7
:101480002191319180819181281B390B2F7330700C
:10149000C9010895DC011C96ED91FC911D97E05C5B
:1014A000FF4F20813181E054F040DF01AE5BBF4F40
:1014B0008D919C9111972817390719F42FEF3FEF61
:1014C00007C08D919C91E80FF91F8081282F30E093
:1014D000C9010895DC011C96ED91FC911D97E05C1B
:1014E000FF4F20813181E054F040DF01AE5BBF4F00
:1014F0008D919C9111972817390719F42FEF3FEF21
:1015000010C08D919C911197E80FF91F20818D914A
:101510009C91119701968F73907011969C938E9366
:1015200030E0C9010895DC0191968C919197882350
:1015300039F05496ED91FC915597808186FFF9CF53
:1015400091961C920895CF93DF93EC01EE85FF8571
:10155000E05CFF4F20813181E054F0402F5F3F4F2E
:101560002F733070DF01AE5BBF4F8D919C9111974F
:1015700028173907D1F3E05CFF4F80819181E05457
:10158000F040E80FF91F6083EE85FF85E05CFF4FB8
:1015900031832083EE89FF89208181E090E00F8CE8
:1015A00002C0880F991F0A94E2F7282B208381E05C
:1015B00089A3EC89FD8980818064808381E090E04B
:1015C000DF91CF910895109294041092930488EEC5
:1015D00093E0A0E0B0E08093950490939604A093EC
:1015E0009704B09398048EED91E0909392048093C9
:1015F000910489E094E090939E0480939D048DE48F
:1016000094E09093A00480939F0485EC90E09093E5
:10161000A2048093A10484EC90E09093A4048093AE
:10162000A30480EC90E09093A6048093A50481EC41
:1016300090E09093A8048093A70482EC90E09093AC
:10164000AA048093A90486EC90E09093AC04809364
:10165000AB0484E08093AD0483E08093AE0487E024
:101660008093AF0485E08093B00481E08093B1045F
:101670000895CF93DF930E9493070E943105C4E63B
:10168000D9E00E949B042097E1F30E946409F9CFFE
:101690000E94F3070895CF92DF92EF92FF920F938B
:1016A0001F93CF93DF937C016B018A01C0E0D0E0F0
:1016B0000FC0D6016D916D01D701ED91FC910190A4
:1016C000F081E02DC7010995C80FD91F01501040C6
:1016D0000115110571F7CE01DF91CF911F910F9187
:1016E000FF90EF90DF90CF900895EF92FF920F93CD
:1016F0001F938C01DC01ED91FC910190F081E02DB4
:101700006DE009957C01D801ED91FC910190F0818B
:10171000E02DC8016AE009959C012E0D3F1DC9010D
:101720001F910F91FF90EF900895CF93DF93EC01FD
:101730006115710519F420E030E00FC0DB010D9058
:101740000020E9F71197A61BB70BE881F981028009
:10175000F381E02DAD0109959C01C901DF91CF9185
:1017600008954F925F927F928F929F92AF92BF9215
:10177000CF92DF92EF92FF920F931F93DF93CF935D
:10178000CDB7DEB7A1970FB6F894DEBF0FBECDBFC1
:101790002C01742ECB01223008F42AE019A231E288
:1017A000C32ED12CCC0EDD1E822E9924AA24BB245C
:1017B000672D752FA50194010E943F0F79018A01C1
:1017C000C801B701A50194010E94200F472D461BB7
:1017D0000894C108D1084A3014F4405D01C0495C46
:1017E000F6014083E114F1040105110521F07E2C7E
:1017F0005F2DC801DDCFC201B6010E94950BA196F5
:101800000FB6F894DEBF0FBECDBFCF91DF911F9111
:101810000F91FF90EF90DF90CF90BF90AF909F908F
:101820008F907F905F904F900895DC0121153105D6
:1018300041F4ED91FC910190F081E02D642F099528
:1018400008950E94B10B0895CF92DF92EF92FF921C
:101850000F931F936C017B019A0100E010E0B80127
:10186000A7010E94150C8C01C6010E94750B080F80
:10187000191FC8011F910F91FF90EF90DF90CF903B
:101880000895EF92FF920F931F939A01E62EFF2483
:1018900000E010E0B801A7010E94150C1F910F9104
:1018A000FF90EF900895CF92DF92EF92FF920F9307
:1018B0001F93CF93DF93EC016A017B012115310562
:1018C00041F4E881F9810190F081E02D642F0995C0
:1018D0001FC02A303105D1F477FF17C0E881F981A4
:1018E0000190F081E02D6DE209958C014427552788
:1018F000BA014C195D096E097F09CE012AE00E94E8
:10190000B10B9801280F391F04C02AE00E94B10BC7
:101910009C01C901DF91CF911F910F91FF90EF9032
:10192000DF90CF900895EF92FF920F931F937B016A
:101930009A010027F7FC0095102FB801A7010E941B
:10194000530C1F910F91FF90EF9008950E94950BFB
:101950000895EF92FF920F931F937C010E94950BC5
:101960008C01C7010E94750B080F191FC8011F9138
:101970000F91FF90EF9008952F923F924F925F92B8
:101980006F927F928F929F92AF92BF92CF92DF928F
:10199000EF92FF920F931F93DF93CF93CDB7DEB7F4
:1019A0003B014C0119012A016D897E898F89988D2F
:1019B0006A197B098C099D09621A730A840A950ABF
:1019C000A40193010E94200FE218F30804091509ED
:1019D000A80197010E94610F2A0D3B1D4C1D5D1D42
:1019E000B901CA01CF91DF911F910F91FF90EF9044
:1019F000DF90CF90BF90AF909F908F907F906F902F
:101A00005F904F903F902F9008955058BB27AA2782
:101A10000ED075C166D130F06BD120F031F49F3F0C
:101A200011F41EF45BC10EF4E095E7FB51C1E92F00
:101A300077D180F3BA17620773078407950718F008
:101A400071F49EF58FC10EF4E0950B2EBA2FA02DE8
:101A50000B01B90190010C01CA01A0011124FF275B
:101A6000591B99F0593F50F4503E68F11A16F04056
:101A7000A22F232F342F4427585FF3CF4695379555
:101A80002795A795F0405395C9F77EF41F16BA0B1A
:101A9000620B730B840BBAF09150A1F0FF0FBB1FC8
:101AA000661F771F881FC2F70EC0BA0F621F731F11
:101AB000841F48F4879577956795B795F7959E3F6E
:101AC00008F0B3CF9395880F08F09927EE0F9795FC
:101AD00087950895D9D008F481E008950CD00FC1FE
:101AE00007D140F0FED030F021F45F3F19F0F0C094
:101AF000511139C1F3C014D198F39923C9F3552377
:101B0000B1F3951B550BBB27AA27621773078407F0
:101B100038F09F5F5F4F220F331F441FAA1FA9F3A6
:101B200033D00E2E3AF0E0E830D091505040E69598
:101B3000001CCAF729D0FE2F27D0660F771F881FF9
:101B4000BB1F261737074807AB07B0E809F0BB0BE8
:101B5000802DBF01FF2793585F4F2AF09E3F51050C
:101B600068F0B6C000C15F3FECF3983EDCF38695A9
:101B700077956795B795F7959F5FC9F7880F911D82
:101B80009695879597F90895E1E0660F771F881F6E
:101B9000BB1F621773078407BA0720F0621B730B21
:101BA000840BBA0BEE1F88F7E095089504D0689473
:101BB000B111D9C00895BCD088F09F5790F0B92FCB
:101BC0009927B751A0F0D1F0660F771F881F991F92
:101BD0001AF0BA95C9F712C0B13081F0C3D0B1E0A4
:101BE0000895C0C0672F782F8827B85F39F0B93FB4
:101BF000CCF3869577956795B395D9F73EF4909594
:101C00008095709561957F4F8F4F9F4F0895E89411
:101C100009C097FB3EF490958095709561957F4F34
:101C20008F4F9F4F9923A9F0F92F96E9BB279395E2
:101C3000F695879577956795B795F111F8CFFAF4F2
:101C4000BB0F11F460FF1BC06F5F7F4F8F4F9F4F23
:101C500016C0882311F096E911C0772321F09EE881
:101C6000872F762F05C0662371F096E8862F70E0E7
:101C700060E02AF09A95660F771F881FDAF7880FC1
:101C80009695879597F90895990F0008550FAA0B17
:101C9000E0E8FEEF16161706E807F907C0F012167F
:101CA0001306E407F50798F0621B730B840B950B82
:101CB00039F40A2661F0232B242B252B21F40895D7
:101CC0000A2609F4A140A6958FEF811D811D089574
:101CD00097F99F6780E870E060E008959FEF80ECDF
:101CE000089500240A941616170618060906089582
:101CF00000240A9412161306140605060895092EE8
:101D00000394000C11F4882352F0BB0F40F4BF2B56
:101D100011F460FF04C06F5F7F4F8F4F9F4F089596
:101D200057FD9058440F551F59F05F3F71F047958C
:101D3000880F97FB991F61F09F3F79F08795089571
:101D4000121613061406551FF2CF4695F1DF08C090
:101D5000161617061806991FF1CF869571056105AD
:101D600008940895E894BB2766277727CB0197F955
:101D700008958ADF08F48FEF08950BD0C0CFB1DF4C
:101D800028F0B6DF18F0952309F0A2CFA7CF1124D1
:101D9000EACFC6DFA0F3959FD1F3950F50E0551F12
:101DA000629FF001729FBB27F00DB11D639FAA27B0
:101DB000F00DB11DAA1F649F6627B00DA11D661FFF
:101DC000829F2227B00DA11D621F739FB00DA11D20
:101DD000621F839FA00D611D221F749F3327A00DDA
:101DE000611D231F849F600D211D822F762F6A2F76
:101DF00011249F5750408AF0E1F088234AF0EE0FFB
:101E0000FF1FBB1F661F771F881F91505040A9F707
:101E10009E3F510570F05CCFA6CF5F3FECF3983E3C
:101E2000DCF3869577956795B795F795E7959F5F6E
:101E3000C1F7FE2B880F911D9695879597F9089508
:101E4000629FD001739FF001829FE00DF11D649F9E
:101E5000E00DF11D929FF00D839FF00D749FF00D2A
:101E6000659FF00D9927729FB00DE11DF91F639FCB
:101E7000B00DE11DF91FBD01CF0111240895A1E2AC
:101E80001A2EAA1BBB1BFD010DC0AA1FBB1FEE1FF4
:101E9000FF1FA217B307E407F50720F0A21BB30B3F
:101EA000E40BF50B661F771F881F991F1A9469F7BB
:101EB00060957095809590959B01AC01BD01CF0117
:101EC000089597FB092E05260ED057FD04D0D7DFC5
:101ED0000AD0001C38F450954095309521953F4F1D
:101EE0004F4F5F4F0895F6F79095809570956195E7
:101EF0007F4F8F4F9F4F0895EE0FFF1F0590F49176
:081F0000E02D0994F894FFCFD5
:101F0800564D4450525F007C005F564D445052007D
:101F1800564D4450455F33005F564D44504500567A
:101F28004D4450565F317C315F564D4450560056F3
:101F38004D4450455F3100564D4450455F32005383
:101F48006574757020436F6D706C6574652E0045FF
:101F580072726F723A20417474656D707420746F78
:101F680020736574206120726561642D6F6E6C79D1
:101F7800207661726961626C65206F722064617499
:101F8800612074797065206E6F7420737570706F3E
:101F98007274656400564D4450435F005F564D446B
:101FA8005043000300010252C1037B0302C1037BBB
:101FB8000303C1037B0304C1037B0305C1037B0344
:101FC80010BD039403018000B70400000000000066
:101FD80004030003680308039F0200000000A30A2B
:0A1FE8004B0B390A6A0A4A0A930AF1
:00000001FF
