:100000000C9463000C948B000C948B000C948B006C
:100010000C948B000C948B000C948B000C948B0034
:100020000C948B000C948B000C948B000C948B0024
:100030000C948B000C948B000C948B000C948B0014
:100040000C94CE060C948B000C9463080C94B108AD
:100050000C948B000C948B000C948B000C948B00F4
:100060000C948B000C948B000000000024002700EF
:100070002A0000000000250028002B0000000000DE
:1000800023002600290004040404040404040202DA
:100090000202020203030303030301020408102007
:1000A0004080010204081020010204081020000012
:1000B0000007000201000003040600000000000029
:1000C00000004D021D0A11241FBECFEFD8E0DEBF95
:1000D000CDBF11E0A0E0B1E0E8E2FDE102C0059093
:1000E0000D92A638B107D9F714E0A6E8B1E001C037
:1000F0001D92A931B107E1F710E0C6ECD0E004C0D1
:100100002297FE010E948E0EC23CD107C9F70E94C1
:10011000730A0C94920E0C940000FC0181818934C6
:1001200019F08F3421F402C060E001C061E08081E9
:100130000E94CF070895FC016083418313821282DD
:100140000E948D0008958F929F92AF92BF92CF929E
:10015000DF92EF92FF920F931F935C017A018B0164
:1001600069018DE290E00E94820A982E892EB801E2
:10017000A70196010E941602F5019482858281E012
:100180001F910F91FF90EF90DF90CF90BF90AF90B5
:100190009F908F9008950F931F93182F092F49E474
:1001A0000E949B00812F902F40E050E060E87FE3A9
:1001B0002AE531E00E94A3001F910F9108950F934B
:1001C0001F938C01BC016C5F7F4F0E94C901C80165
:1001D00062E30E94DD01FC01D8015F969C938E933F
:1001E0005E978489811181E01F910F9108950E948B
:1001F000C4010895FC01CB0122E731E03183208363
:10020000758F648F178E168E40E052EC61E070E0BF
:100210000E94EC080895FC01558344837183608338
:10022000308B27870895FC01738362830895CF93F1
:10023000DF93EB012FB7F894E881F981E657FE4F81
:10024000808191812FBF6A5F7F4F892B29F0888140
:1002500099810E945A01BC01EC81FD81A081B1818C
:10026000EB014991BE0112962D913C911397CF015C
:1002700050E0F9010995DF91CF910895FB0183309A
:1002800079F0843018F48130A0F005C0863068F031
:10029000863079F405C0878590890E94CA06089542
:1002A000878590890E94C7060895878590890E9456
:1002B000C3060895BF92CF92DF92EF92FF920F9301
:1002C0001F93CF93DF93AC01CB010196FC0187E034
:1002D000DF011D928A95E9F72FB7F894FA01E657E6
:1002E000FE4F808191812FBF079708F442C086E8B6
:1002F000E82E81E0F82EE40EF51EC42EB52EEB019B
:1003000030E0DA01A857BE4F8F01ED91FC911197B3
:10031000D1901196FC93EE93EE15FF0521F4CC924B
:100320001196BC9211972FB7F894F80180819181B2
:100330000197918380832FBFD9823F5F2196373009
:1003400021F7FA01E857FE4F808191810196918350
:1003500080838E159F0511F4C082B1822FB7F89467
:10036000FA01E657FE4F8081918101979183808346
:100370002FBFCB01DF91CF911F910F91FF90EF9095
:10038000DF90CF90BF900895FC017683658344830E
:100390000895CF93DF93FC01A281B3818D919C914D
:1003A0001197658176814481EC01EA81FB81CD0161
:1003B00050E00995DF91CF9108950F931F93CF934C
:1003C000DF93EC01062F10E026C0AA81BB81ED91DE
:1003D000FC9111970680F781E02DCD010995FE0172
:1003E000E10FF11D87838B8D8F5F8B8F1F5FEA81FC
:1003F000FB81A081B18114962D913C911597CF017D
:10040000F9010995892B09F764E670E080E090E036
:100410000E9416070150002351F79E01295F3F4FAC
:10042000C901DF91CF911F910F910895CF93DF9371
:10043000FC0114A640A751A762A773A780E090E033
:10044000A0E0B0E080839183A283B383848395830B
:10045000A683B78380879187A287B3878487958790
:10046000A687B787808B918BA28BB38BEF0140E07F
:1004700050E0F901E40FF51F80819181A281B381E1
:100480008C8B9D8BAE8BBF8B4C5F5F4F2496443122
:10049000510579F7DF91CF9108950F931F9303EFE3
:1004A00013E083E193E067E871E0A80126E831E01A
:1004B0000E940B0184E293E0B8010E94FA0084E4F8
:1004C00093E06EE271E020E030E040EA50E40E9408
:1004D000AA021F910F91089584E493E067E871E008
:1004E0000E94A5040895EF92FF920F931F9381E05D
:1004F0000E94AA0703EF13E0C80140E052EC61E05C
:1005000070E00E94EC08C80160E071E00E94EB0A14
:1005100084E4E82E83E0F82EC7010E944B06C70151
:100520000E94330583E193E065E371E00E941301CB
:10053000C80165E171E00E94EB0AC80163E271E065
:100540000E94EB0A81E0809386011F910F91FF903A
:10055000EF900895FC0171836083118E108E228FBD
:10056000338F448F558F0895AF92BF92CF92DF9211
:10057000EF92FF920F931F938B01FC01628D738D9D
:10058000848D958D23E333E343E550E40E94E10C31
:100590009801442737FD4095542F00D000D084E6C1
:1005A00090E0A0E0B0E0EDB7FEB781839283A38333
:1005B000B483CA01B90120E030E040E050E0E12C12
:1005C000F4E0FF2E012D112DECE9AE2EEFEFBE2E43
:1005D000EFEFCE2EEFEFDE2E0E94FE0A0F900F906F
:1005E0000F900F90CB011F910F91FF90EF90DF9034
:1005F000CF90BF90AF900895AF92BF92CF92DF920D
:10060000EF92FF920F931F93FC018B01818D882342
:1006100009F051C0628D738D848D958D23E333E392
:1006200043E550E40E94E10C9801442737FD4095D2
:10063000542F882301F500D000D080E293E0A0E0A1
:10064000B0E0EDB7FEB781839283A383B483CA0180
:10065000B90120E030E040E050E0E12CF4E0FF2E72
:10066000012D112DE7ECAE2EECEFBE2EEFEFCE2ECE
:10067000EFEFDE2E70C000D000D080E496E0A0E066
:10068000B0E0EDB7FEB781839283A383B483CA0140
:10069000B90120E030E040E050E0E12CB4E0FB2E76
:1006A000012D112DA0EEAA2EACEFBA2EAFEFCA2E5F
:1006B000AFEFDA2E50C0628D738D848D958D23E35C
:1006C00033E343E550E40E94E10C9801442737FDF1
:1006D0004095542F882301F500D000D08EEC90E097
:1006E000A0E0B0E0EDB7FEB781839283A383B4832B
:1006F000CA01B90120E030E040E050E0E12CF4E034
:10070000FF2E012D112DE2E3AE2EEFEFBE2EEFEF07
:10071000CE2EEFEFDE2E1FC000D000D083EA91E096
:10072000A0E0B0E0EDB7FEB781839283A383B483EA
:10073000CA01B90120E030E040E050E0E12CB4E033
:10074000FB2E012D112DACEFAA2EAEEFBA2EAFEF7E
:10075000CA2EAFEFDA2E0E94FE0A0F900F900F9074
:100760000F90CB011F910F91FF90EF90DF90CF90F2
:10077000BF90AF9008952F923F924F925F926F92E9
:100780007F928F929F92AF92BF92CF92DF92EF9221
:10079000FF920F931F93DF93CF9300D000D000D030
:1007A000CDB7DEB79E838D838B015A8349833C830B
:1007B0002B83FC01628D738D848D958D23E333E350
:1007C00043E550E40E94E10C882319F088E893E1A6
:1007D00002C084EE9CE01C01442437FC4094542C5D
:1007E00000D000D0B801882777FD8095982F612C24
:1007F000A4E07A2E812C912CEDB7FEB76182728233
:100800008382948220E030E040E050E08201710178
:10081000AA24BB2465010E94FE0AED81FE81758732
:10082000648729813A81B901882777FD8095982FBF
:10083000EDB7FEB7618272828382948220E030E05D
:1008400040E050E00E94FE0AED81FE8177876687D6
:100850002B813C81B901882777FD8095982FEDB7D2
:10086000FEB7618272828382948220E030E040E0B1
:1008700050E00E94FE0AED81FE81718B608B0F902B
:100880000F900F900F9026960FB6F894DEBF0FBE14
:10089000CDBFCF91DF911F910F91FF90EF90DF902F
:1008A000CF90BF90AF909F908F907F906F905F9010
:1008B0004F903F902F900895FC01862F618F61E04B
:1008C000682783850E940E080895FC016130710538
:1008D00069F06230710579F0672B19F020E030E0A3
:1008E00011C00190F081E02D848109C00190F08158
:1008F000E02D858104C00190F081E02D86810E9469
:10090000AD079C01C9010895CF93DF93EC016130DD
:10091000710559F06230710559F0672B19F020E02C
:1009200030E00FC060E070E005C061E070E002C040
:1009300062E070E00E946504BC01CE010E94B40236
:100940009C01C901DF91CF910895BF92CF92DF92B0
:10095000EF92FF920F931F93DF93CF93CDB7DEB744
:1009600027970FB6F894DEBF0FBECDBF8C017B0179
:1009700060E070E00E948404C82E6AE070E080E0CD
:1009800090E00E941607C80161E070E00E948404B4
:10099000D82E6AE070E080E090E00E941607C8015F
:1009A00062E070E00E948404182F6AE070E080E04A
:1009B00090E00E941607FE01319687E0DF011D924C
:1009C0008A95E9F7C982DA821B8387010A571E4F8D
:1009D000BE2C3F2DAF01D801B70166577E4F88E08E
:1009E000C82ED12CCC0EDD1EED90FC901197FA0193
:1009F0008081F70180838D919C91119701961196CA
:100A00009C938E938017910721F4BC9211963C938E
:100A100011972FB7F894FB01808191810196918302
:100A200080832FBF4F5F5F4F4C155D05E9F627961A
:100A30000FB6F894DEBF0FBECDBFCF91DF911F91EF
:100A40000F91FF90EF90DF90CF90BF9008950F939C
:100A50001F938C010E946504BC01C8010E94FC0226
:100A60001F910F9108952F923F924F925F926F9234
:100A70007F928F929F92AF92BF92CF92DF92EF922E
:100A8000FF920F931F93DF93CF9300D000D0CDB789
:100A9000DEB71C010F2EF0E0EF2EF0E0FF2EF0E0AD
:100AA0000F2FF0E01F2FF02D27013801E982FA8285
:100AB0000B831C83CC24DD2446C0C10160E070E0C0
:100AC0000E942705AA2797FDA095BA2FBC01CD014A
:100AD0000E94800D9B01AC01C801B7010E947D0CF2
:100AE0007B018C01C10161E070E00E942705AA270B
:100AF00097FDA095BA2FBC01CD010E94800D9B01EE
:100B0000AC01C301B2010E947D0C2B013C01C1016B
:100B100062E070E00E942705AA2797FDA095BA2FF2
:100B2000BC01CD010E94800D9B01AC0169817A81DD
:100B30008B819C810E947D0C69837A838B839C834B
:100B40000894C11CD11CB601882777FD8095982F89
:100B50000E94800D20E030E44CE955E40E94E10C55
:100B600087FDABCFD10159968C918823C9F5C80177
:100B7000B70120E030E44CE955E40E94E50C9B010C
:100B8000AC0160E070E081ED94E40E947C0C0E9476
:100B90004D0D4B015C01C301B20120E030E44CE992
:100BA00055E40E94E50C9B01AC0160E070EE80ED25
:100BB00094E40E947C0C0E944D0D6B017C016981C4
:100BC0007A818B819C8120E030E44CE955E40E94DD
:100BD000E50C9B01AC0160E070E88AEE94E438C05B
:100BE000C801B70120E030E44CE955E40E94E50C6F
:100BF0009B01AC0160E070E48EEC94E40E947C0CFC
:100C00000E944D0D4B015C01C301B20120E030E4B4
:100C10004CE955E40E94E50C9B01AC0160E070E4F6
:100C20008EEC94E40E947C0C0E944D0D6B017C01C3
:100C300069817A818B819C8120E030E44CE955E424
:100C40000E94E50C9B01AC0160E070E289E195E453
:100C50000E947C0C0E944D0D8B019C01C101B401CE
:100C6000A60198010E94BB030F900F900F900F9068
:100C7000CF91DF911F910F91FF90EF90DF90CF9078
:100C8000BF90AF909F908F907F906F905F904F90AC
:100C90003F902F900895EF92FF920F931F938C0136
:100CA00089E090E00E94820AF82EE92ED801ED91A9
:100CB000FC9164810E94CB00F801F282E38289E01A
:100CC00090E00E94820AF82EE92ED801ED91FC9165
:100CD00065810E94CB00F801F482E58289E090E012
:100CE0000E94820AF82EE92ED801ED91FC916681CE
:100CF0000E94CB00F801F682E7820190F081E02D9E
:100D00008381D8011B968C931B97918119969C9394
:100D10001997908118969C93189792811A969C9394
:100D200061E00E94CF07F801818561E00E94CF0752
:100D3000D80118968C9161E00E94CF07F801828556
:100D400061E00E94CF07D80118968C9161E00E9463
:100D50000E08F801818560E00E940E08D8015896BF
:100D60001C92C80160E070E040E050E020E030E01C
:100D70000E94BB03C80161E00E945C041F910F91B7
:100D8000FF90EF900895FC0181E080830895FC01BD
:100D900010820895E0E0F0E0099508951F920F9207
:100DA0000FB60F9211242F933F938F939F93AF937E
:100DB000BF938091660390916703A0916803B091FF
:100DC000690330916A030196A11DB11D232F2D5F88
:100DD0002D3720F02D570196A11DB11D20936A03D8
:100DE0008093660390936703A0936803B0936903AD
:100DF0008091620390916303A0916403B0916503B5
:100E00000196A11DB11D8093620390936303A0938B
:100E10006403B0936503BF91AF919F918F913F9110
:100E20002F910F900FBE0F901F9018959B01AC0152
:100E30007FB7F8948091620390916303A09164035B
:100E4000B091650366B5A89B05C06F3F19F0019688
:100E5000A11DB11D7FBFBA2FA92F982F8827860FFC
:100E6000911DA11DB11D62E0880F991FAA1FBB1F14
:100E70006A95D1F7BC012DC0FFB7F8948091620349
:100E800090916303A0916403B0916503E6B5A89BBC
:100E900005C0EF3F19F00196A11DB11DFFBFBA2F8C
:100EA000A92F982F88278E0F911DA11DB11DE2E05B
:100EB000880F991FAA1FBB1FEA95D1F7861B970BB6
:100EC000885E9340C8F22150304040405040685105
:100ED0007C4F211531054105510571F6089578942F
:100EE00084B5826084BD84B5816084BD85B582602F
:100EF00085BD85B5816085BDEEE6F0E080818160CD
:100F00008083E1E8F0E010828081826080838081CC
:100F100081608083E0E8F0E0808181608083E1EBA4
:100F2000F0E0808184608083E0EBF0E0808181608C
:100F30008083EAE7F0E08081846080838081826042
:100F4000808380818160808380818068808310922B
:100F5000C1000895809353010895982F8E3008F0B2
:100F60009E509770809153018295880F880F807CE6
:100F7000892B80937C0080917A00806480937A0032
:100F800080917A0086FDFCCF209178004091790015
:100F9000942F80E030E0282B392BC9010895CF939E
:100FA000DF93482F50E0CA0186569F4FFC013491D1
:100FB0004A575F4FFA018491882369F190E0880FC6
:100FC000991FFC01E859FF4FA591B491FC01EE581F
:100FD000FF4FC591D491662351F42FB7F8948C91AB
:100FE000932F909589238C93888189230BC062303D
:100FF00061F42FB7F8948C91932F909589238C935B
:101000008881832B88832FBF06C09FB7F8948C916B
:10101000832B8C939FBFDF91CF910895482F50E091
:10102000CA0182559F4FFC012491CA0186569F4FE9
:10103000FC0194914A575F4FFA013491332309F42C
:1010400040C0222351F1233071F0243028F42130A4
:10105000A1F0223011F514C02630B1F02730C1F0D4
:101060002430D9F404C0809180008F7703C0809130
:1010700080008F7D8093800010C084B58F7702C080
:1010800084B58F7D84BD09C08091B0008F7703C087
:101090008091B0008F7D8093B000E32FF0E0EE0FE1
:1010A000FF1FEE58FF4FA591B4912FB7F894662318
:1010B00021F48C919095892302C08C91892B8C937B
:1010C0002FBF089508951F920F920FB60F9211240B
:1010D0002F933F934F938F939F93EF93FF93809121
:1010E000C00082FD1DC04091C6002091AB0330912D
:1010F000AC032F5F3F4F2F7330708091AD03909101
:10110000AE032817390771F0E091AB03F091AC03FF
:10111000E559FC4F40833093AC032093AB0302C0EE
:101120008091C600FF91EF919F918F914F913F91D8
:101130002F910F900FBE0F901F901895E091FF0315
:10114000F0910004E05CFF4F819191912081318109
:10115000821B930B8F739070892B11F00E94620891
:1011600008951F920F920FB60F9211242F933F9361
:101170008F939F93EF93FF932091EF033091F003B0
:101180008091F1039091F2032817390731F480918F
:10119000C1008F7D8093C10014C0E091F103F091F4
:1011A000F203E155FC4F20818091F1039091F2030D
:1011B00001968F7390709093F2038093F1032093C4
:1011C000C600FF91EF919F918F913F912F910F90CA
:1011D0000FBE0F901F901895AF92BF92DF92EF92C3
:1011E000FF920F931F93CF93DF93EC017A018B0152
:1011F000DD24403081EE580780E0680780E0780702
:1012000011F0DD24D39491E0A92EB12CEC89FD8955
:10121000DD2069F0C50108A002C0880F991F0A945B
:10122000E2F7808360E079E08DE390E005C0108212
:1012300060E874E88EE190E0A80197010E944F0EEB
:10124000215030404040504056954795379527955E
:1012500080E12030380720F0DD2011F0DD24D6CFEA
:10126000E889F9893083EA89FB89208319A2EE890C
:10127000FF89408121E030E0C9010C8C02C0880F59
:10128000991F0A94E2F7482B4083EE89FF89408139
:10129000C9010D8C02C0880F991F0A94E2F7482BF0
:1012A0004083EE89FF894081C9010E8C02C0880FFE
:1012B000991F0A94E2F7482B4083EE89FF898081C9
:1012C0000F8C02C0220F331F0A94E2F720952823C7
:1012D0002083DF91CF911F910F91FF90EF90DF90CE
:1012E000BF90AF900895DC011C96ED91FC911D9785
:1012F000E05CFF4F2191319180819181281B390B56
:101300002F733070C9010895DC011C96ED91FC919A
:101310001D97E05CFF4F20813181E054F040DF01F8
:10132000AE5BBF4F8D919C9111972817390719F427
:101330002FEF3FEF07C08D919C91E80FF91F80813F
:10134000282F30E0C9010895DC011C96ED91FC9135
:101350001D97E05CFF4F20813181E054F040DF01B8
:10136000AE5BBF4F8D919C9111972817390719F4E7
:101370002FEF3FEF10C08D919C911197E80FF91F4F
:1013800020818D919C91119701968F739070119689
:101390009C938E9330E0C9010895DC0191968C9165
:1013A0009197882339F05496ED91FC91559780815F
:1013B00086FFF9CF91961C920895CF93DF93EC01AD
:1013C000EE85FF85E05CFF4F20813181E054F040E5
:1013D0002F5F3F4F2F733070DF01AE5BBF4F8D919A
:1013E0009C91119728173907D1F3E05CFF4F80815A
:1013F0009181E054F040E80FF91F6083EE85FF858E
:10140000E05CFF4F31832083EE89FF89208181E0FA
:1014100090E00F8C02C0880F991F0A94E2F7282BE6
:10142000208381E089A3EC89FD89808180648083A9
:1014300081E090E0DF91CF9108951092F603109231
:10144000F50388EE93E0A0E0B0E08093F70390937B
:10145000F803A093F903B093FA038AE791E090931D
:10146000F4038093F3038BE693E09093000480935E
:10147000FF038FEA93E0909302048093010485ECCC
:1014800090E0909304048093030484EC90E09093A4
:1014900006048093050480EC90E090930804809308
:1014A000070481EC90E090930A048093090482EC95
:1014B00090E090930C0480930B0486EC90E0909362
:1014C0000E0480930D0484E080930F0483E08093E6
:1014D000100487E08093110485E08093120481E07A
:1014E000809313040895CF93DF930E946F070E94A7
:1014F0007302CEE9D8E00E946C022097E1F30E94CB
:101500009E08F9CF0E94470B0895CF92DF92EF9289
:10151000FF920F931F93CF93DF937C016B018A019E
:10152000C0E0D0E00FC0D6016D916D01D701ED9103
:10153000FC910190F081E02DC7010995C80FD91FDA
:10154000015010400115110571F7CE01DF91CF91C7
:101550001F910F91FF90EF90DF90CF900895EF9241
:10156000FF920F931F938C01DC01ED91FC91019090
:10157000F081E02D6DE009957C01D801ED91FC91A1
:101580000190F081E02DC8016AE009959C012E0DC3
:101590003F1DC9011F910F91FF90EF900895CF93C8
:1015A000DF93EC016115710519F420E030E00FC004
:1015B000DB010D900020E9F71197A61BB70BE8811E
:1015C000F9810280F381E02DAD0109959C01C901EB
:1015D000DF91CF910895EF92FF920F931F937C01BB
:1015E0000E94CF0A8C01C7010E94AF0A080F191F81
:1015F000C8011F910F91FF90EF9008952F923F9295
:101600004F925F926F927F928F929F92AF92BF9212
:10161000CF92DF92EF92FF920F931F93DF93CF93BE
:10162000CDB7DEB73B014C0119012A016D897E89D6
:101630008F89988D6A197B098C099D09621A730A32
:10164000840A950AA40193010E94300EE218F3085F
:1016500004091509A80197010E94710E2A0D3B1D6E
:101660004C1D5D1DB901CA01CF91DF911F910F91F2
:10167000FF90EF90DF90CF90BF90AF909F908F90B2
:101680007F906F905F904F903F902F9008950F93B1
:101690001F93CF93DF93BC018230910510F462E079
:1016A00070E0E0911704F091180440E050E0A0E0F1
:1016B000B0E024C08081918186179707D0F086170B
:1016C000970771F482819381109729F013969C9368
:1016D0008E9312972CC0909318048093170427C000
:1016E0004115510519F08417950718F48D01AC01C7
:1016F000EF01DF01828193819C01F9013097D1F6DE
:1017000041155105F9F0CA01861B970B84309105EC
:1017100080F48A819B810115110521F0F8019383E2
:10172000828304C09093180480931704FE013296BC
:1017300045C0FE01E80FF91F6193719302979983E9
:1017400088833CC08091150490911604892B41F444
:10175000809156019091570190931604809315043F
:1017600040915801509159014115510541F44DB72F
:101770005EB78091540190915501481B590B2091FF
:1017800015043091160424173507B0F4CA01821BE2
:10179000930B8617970780F0AB014E5F5F4F84175E
:1017A000950750F0420F531F5093160440931504B1
:1017B000F9016193719302C0E0E0F0E0CF01DF91A5
:1017C000CF911F910F910895CF93DF939C010097C4
:1017D00009F48FC0EC0122971B821A8260911704D2
:1017E000709118046115710581F488819981820FC7
:1017F000931F20911504309116042817390739F5E5
:10180000D0931604C093150474C0DB0140E050E08F
:10181000AC17BD0708F1BB83AA83FE01219131916A
:10182000E20FF31FAE17BF0779F48D919C911197CA
:10183000280F391F2E5F3F4F3983288312968D91D1
:101840009C9113979B838A834115510571F4D09322
:101850001804C09317044DC012968D919C91139754
:10186000AD01009711F0DC01D3CFDA011396DC93C0
:10187000CE931297FA0121913191E20FF31FCE1707
:10188000DF0769F488819981280F391F2E5F3F4F48
:10189000FA01318320838A819B8193838283E0E0F4
:1018A000F0E0DB0112968D919C911397009719F04F
:1018B000BC01FD01F6CFAB014E5F5F4FDB018D91A7
:1018C0009C91840F951F20911504309116042817C0
:1018D000390779F4309729F41092180410921704FC
:1018E00002C013821282425050405093160440931B
:1018F0001504DF91CF9108955058BB27AA270ED029
:1019000075C166D130F06BD120F031F49F3F11F4F6
:101910001EF45BC10EF4E095E7FB51C1E92F77D1CE
:1019200080F3BA17620773078407950718F071F4FC
:101930009EF58FC10EF4E0950B2EBA2FA02D0B0152
:10194000B90190010C01CA01A0011124FF27591B04
:1019500099F0593F50F4503E68F11A16F040A22F0A
:10196000232F342F4427585FF3CF4695379527957B
:10197000A795F0405395C9F77EF41F16BA0B620B7A
:10198000730B840BBAF09150A1F0FF0FBB1F661FC1
:10199000771F881FC2F70EC0BA0F621F731F841F04
:1019A00048F4879577956795B795F7959E3F08F02A
:1019B000B3CF9395880F08F09927EE0F97958795E9
:1019C0000895D9D008F481E008950CD00FC107D153
:1019D00040F0FED030F021F45F3F19F0F0C051111B
:1019E00039C1F3C014D198F39923C9F35523B1F346
:1019F000951B550BBB27AA2762177307840738F07E
:101A00009F5F5F4F220F331F441FAA1FA9F333D0DC
:101A10000E2E3AF0E0E830D091505040E695001C90
:101A2000CAF729D0FE2F27D0660F771F881FBB1F4C
:101A3000261737074807AB07B0E809F0BB0B802D26
:101A4000BF01FF2793585F4F2AF09E3F510568F072
:101A5000B6C000C15F3FECF3983EDCF38695779506
:101A60006795B795F7959F5FC9F7880F911D969574
:101A7000879597F90895E1E0660F771F881FBB1FD0
:101A8000621773078407BA0720F0621B730B840B7D
:101A9000BA0BEE1F88F7E095089504D06894B11151
:101AA000D9C00895BCD088F09F5790F0B92F9927DE
:101AB000B751A0F0D1F0660F771F881F991F1AF059
:101AC000BA95C9F712C0B13081F0C3D0B1E0089522
:101AD000C0C0672F782F8827B85F39F0B93FCCF3A3
:101AE000869577956795B395D9F73EF4909580954F
:101AF000709561957F4F8F4F9F4F0895E89409C06F
:101B000097FB3EF490958095709561957F4F8F4F30
:101B10009F4F9923A9F0F92F96E9BB279395F69546
:101B2000879577956795B795F111F8CFFAF4BB0FC4
:101B300011F460FF1BC06F5F7F4F8F4F9F4F16C028
:101B4000882311F096E911C0772321F09EE8872FB2
:101B5000762F05C0662371F096E8862F70E060E06E
:101B60002AF09A95660F771F881FDAF7880F9695E7
:101B7000879597F90895990F0008550FAA0BE0E88B
:101B8000FEEF16161706E807F907C0F0121613063F
:101B9000E407F50798F0621B730B840B950B39F47F
:101BA0000A2661F0232B242B252B21F408950A26E5
:101BB00009F4A140A6958FEF811D811D089597F925
:101BC0009F6780E870E060E008959FEF80EC0895E3
:101BD00000240A941616170618060906089500240C
:101BE0000A9412161306140605060895092E039486
:101BF000000C11F4882352F0BB0F40F4BF2B11F4FA
:101C000060FF04C06F5F7F4F8F4F9F4F089557FD58
:101C10009058440F551F59F05F3F71F04795880F5A
:101C200097FB991F61F09F3F79F0879508951216F1
:101C300013061406551FF2CF4695F1DF08C016169D
:101C400017061806991FF1CF86957105610508944E
:101C50000895E894BB2766277727CB0197F9089565
:101C6000629FD001739FF001829FE00DF11D649F80
:101C7000E00DF11D929FF00D839FF00D749FF00D0C
:101C8000659FF00D9927729FB00DE11DF91F639FAD
:101C9000B00DE11DF91FBD01CF0111240895A1E28E
:101CA0001A2EAA1BBB1BFD010DC0AA1FBB1FEE1FD6
:101CB000FF1FA217B307E407F50720F0A21BB30B21
:101CC000E40BF50B661F771F881F991F1A9469F79D
:101CD00060957095809590959B01AC01BD01CF01F9
:101CE000089597FB092E05260ED057FD04D0D7DFA7
:101CF0000AD0001C38F450954095309521953F4FFF
:101D00004F4F5F4F0895F6F79095809570956195C8
:101D10007F4F8F4F9F4F0895EE0FFF1F0590F49157
:081D2000E02D0994F894FFCFB7
:101D28004D4D413733363131204472697665722022
:101D3800494E49540043616C6C6261636B73207354
:101D4800657400436F6E6E656374696E67000304A3
:101D58000506000102523E011303023E011303036C
:101D68003E011303043E011303053E01130310173C
:101D7800011303018000190400003108AC3CA69B44
:101D8800C43D0681153EA69BC43D3108AC3C00000D
:101D98000000F700DF0000000000DD09850A730974
:061DA800A4098409CD0925
:00000001FF
