S0170000434C4153535F4A4F59535449434B312E7372656397
S11300008EC00000A7C00000A5C00000A3C000006F
S1130010A1C000009FC000009DC000009BC0000064
S113002099C0000097C0000095C000003AC60000C7
S113003091C000008FC000008DC000008BC0000084
S113004089C0000087C0000085C0000083C0000094
S113005081C000007FC000007DC000007FC100009F
S113006079C0000077C0000075C0000073C00000B4
S113007071C0000026034A006F0079007300740009
S1130080690063006B000000180346007200610001
S11300906E0063006900730020005000610070006E
S11300A069006E0065006100750000000403090426
S11300B009022200010100C032090400000103000A
S11300C00000092111010001223A000705810308FB
S11300D000051201100100000008EB034320010099
S11300E00102000105010904A1010901A10009306F
S11300F009310932169CFF26640036FFFF460100D1
S1130100950375088102C005091901290815002500
S113011001750195088102750095018101C01124C2
S11301201FBECFEFD2E0DEBFCDBF11E0A0E0B1E053
S1130130E4E2F1E102C005900D92A031B107D9F7D4
S113014021E0A0E1B1E001C01D92AA3AB207E1F7B3
S113015092D0E6C755CF292F332723303105B1F08C
S11301604CF42130310509F439C02230310509F04D
S11301703AC007C02132310539F12232310549F143
S113018032C0E2E2F0E080EB90E031C099278130A8
S1130190910561F08230910581F0892B21F5ECEA1B
S11301A0F0E0E491F0E08CEA90E021C0E8E8F0E0CF
S11301B0E491F0E088E890E01AC0E4E7F0E0E4912C
S11301C0F0E084E790E013C0E9E0F0E082EC90E036
S11301D00EC0EAE3F0E084EE90E009C0E2E1F0E072
S11301E082ED90E004C0E0E0F0E080E090E0DA012D
S11301F08D939C93CF010895E0919A01F0919B0116
S11302008191F0939B01E0939A01E859F14031F414
S113021028E131E030939B0120939A012FB7F894A1
S113022090919C01915090939C012FBF0895CF937E
S1130230DF9384B7877F84BF28E10FB6F8942093B7
S11302406000109260000FBE80E190E09093CD00BA
S11302508093CC0086E08093CA0082E08093C8003B
S1130260C9ECD0E02883539A5A9A0CD588E988833C
S1130270DF91CF910895DBDF2FB7F89488E191E007
S1130280909399018093980190939B0180939A0194
S11302902FBF789480E091E0E3D109D7FBCF089594
S11302A0089580E091E0C7D1E2EEF0E080818460BF
S11302B08083089580E091E089C080910E0190913F
S11302C00F01009729F0019790930F0180930E017D
S11302D00895EF92FF920F931F93CF93DF9300D073
S11302E000D0CDB7DEB779019FB7F89480919C0117
S11302F09FBF8830A0F080DF89837EDF8A837CDF24
S11303008B837ADF8C838093170189818093140116
S11303108A81809315018B81809316016DDF809112
S1130320140190911501A0911601B0911701F701E4
S113033080839183A283B38384E090E0F801918366
S1130340808380E00F900F900F900F90DF91CF91FA
S11303501F910F91FF90EF90089508951F920F92AF
S11303600FB60F9211242F938F939F93EF93FF93C4
S11303708091CE009091A1019430F1F4E091980124
S1130380F09199018083E0919801F0919901CF0156
S1130390019690939901809398018859914021F492
S11303A088E191E0928381839FB7F89480919C01C6
S11303B08F5F80939C019FBFFF91EF919F918F91DD
S11303C02F910F900FBE0F901F9018956F927F92F0
S11303D08F929F92AF92BF92CF92DF92EF92FF9251
S11303E00F931F93CF93DF9300D01F92CDB7DEB747
S11303F07C01ADB6BEB68091E80083FF05C1F7016C
S1130400808190E02091A6013091A7012817390737
S113041009F0FAC08091A301833009F49CC030F440
S1130420813071F0823009F0EFC0D2C08A3009F413
S1130430B7C08B3009F4A0C0893009F0E5C04BC0C7
S11304408091A201813A09F0DFC08DB69EB61A826E
S113045019828091A4011091A5018B83F701408535
S11304608DB79EB7841B91090FB6F8949EBF0FBE3B
S11304708DBFCDB6DEB6EFEFCE1ADE0A360150E000
S113048060E070E0C60145D6412F41508E010F5FF8
S11304901F4F9601BE016D5F7F4FC7011ADFF70141
S11304A0268137812115310529F0408550E0B601B8
S11304B0C90126D61092E9008091E800877F8093D5
S11304C0E80069817A81C301DBD18091E8008B77F0
S11304D08093E80038C08091A201813209F094C071
S11304E08DB69EB60091A8011091A9017090A40147
S11304F06090A5018DB79EB7801B910B0FB6F89441
S11305009EBF0FBE8DBFCDB6DEB6EFEFCE1ADE0AAC
S11305108091E800877F8093E800B801C60110D27B
S11305208091E8008E778093E80021E0711001C08B
S113053020E030E0021B130B2C0D3D1D462D4150D5
S1130540672DC7010ADF882D992D0FB6F8949EBF39
S11305500FBE8DBF59C08091A201813A09F054C0E9
S11305608091E800877F8093E8008091E80080FF15
S1130570FCCFF701818540C08091A201813209F04E
S113058043C08091E800877F8093E800EFD2909188
S1130590A40181E0911101C080E0F701818734C09A
S11305A08091A201813281F58091E800877F809358
S11305B0E800DCD28091A4019091A501882736E05F
S11305C0969587953A95E1F7F701958784871CC03E
S11305D08091A201813AC1F48091E800877F8093E1
S11305E0E8008091E80080FFFCCFF70184859585C1
S11305F096958795969587958093F1008091E8006C
S11306008E778093E800B2D20FB6F894BEBE0FBEC8
S1130610ADBE0F900F900F90DF91CF911F910F916E
S1130620FF90EF90DF90CF90BF90AF909F908F900E
S11306307F906F9008959C01275F3F4FF90127E059
S1130640DF011D922A95E9F721E0FC01218724EFBF
S113065031E03587248723E0248361E0019648C292
S11306604F925F926F927F928F929F92AF92BF92BE
S1130670CF92DF92EF92FF920F931F93CF93DF936A
S113068000D01F92CDB7DEB77C01ADB6BEB6809167
S1130690A101843009F08DC08091E4009091E500BF
S11306A0F701228533852817390709F482C081812F
S11306B08F708093E9008091E80085FF7AC06DB661
S11306C07EB640858DB79EB7841B91090FB6F8940A
S11306D09EBF0FBE8DBFCDB6DEB6EFEFCE1ADE0ADB
S11306E01B821A821982460150E060E070E0C60164
S11306F010D58E010F5F1F4F960140E0BE016D5F64
S11307007F4FC701E6DD582EF70184859585892B37
S113071031F001E010E086859785892B11F000E027
S113072010E0F701C680D780C114D10489F0498153
S11307305A81B601C401D7D444244394009709F4E0
S1130740412CF701408550E0B401C601D9D401C061
S1130750412C89819A81892BF1F0511004C04110F8
S113076002C000FF18C0F7018485958597878687A6
S113077081818F708093E9008B8181118093F100D6
S113078069817A8140E050E0C4012CD08091E80076
S11307908E778093E8008091E4009091E500F70162
S11307A093878287862D972D0FB6F8949EBF0FBE30
S11307B08DBF0FB6F894BEBE0FBEADBE0F900F90A6
S11307C00F90DF91CF911F910F91FF90EF90DF90E9
S11307D0CF90BF90AF909F908F907F906F905F90DD
S11307E04F900895BF92CF92DF92EF92FF920F93B2
S11307F01F93CF93DF937C018B01EA01D8D1B82EEC
S1130800811133C0209731F028813981021B130BE9
S1130810E20EF31EC12CD12C23C08091E80085FD8B
S113082015C08091E8008E778093E80040D420972B
S113083049F0888199818C0D9D1D9983888325E0D9
S1130840B22E13C0B4D1882359F00EC0F7018191A0
S11308507F018093F10001501109FFEFCF1ADF0AE5
S113086001151105D1F601C0B82E8B2DDF91CF9162
S11308701F910F91FF90EF90DF90CF90BF9008955C
S11308802091A8013091A9012617370748F0611576
S1130890710539F42091E8002E772093E80001C017
S11308A0B9019C0180E034C09091A101992309F41D
S11308B043C0953009F442C09091E80093FD3AC0DA
S11308C09091E80092FD30C09091E80090FF20C024
S11308D08091F20090E0F901821B930B05C02191F5
S11308E02093F100615071099F01280F391F611590
S11308F0710519F02830310590F381E02830310575
S113090009F080E09091E8009E779093E8009F01C1
S11309106115710549F68111C7CF06C08091A10107
S1130920882351F0853051F08091E80082FFF6CFA2
S113093080E0089581E0089582E0089583E00895B9
S11309406115710529F42091E8002B772093E800C4
S11309509C0121C08091A101882381F1853041F15E
S11309608091E80083FD26C08091E80082FFF2CFE9
S1130970F90107C08091F10081939F0161507109D1
S113098029F09F018091F2008111F4CF8091E80059
S11309908B778093E80061157105E1F68091E8009A
S11309A080FD0AC08091A101882341F08530B1F710
S11309B083E0089581E0089580E0089582E0089539
S11309C02091A8013091A9012617370748F0611535
S11309D0710539F42091E8002E772093E80001C0D6
S11309E0B9019C0180E035C09091A101992309F4DB
S11309F044C0953009F443C09091E80093FD3BC096
S1130A009091E80092FD31C09091E80090FF21C0E0
S1130A108091F20090E0F901821B930B06C02491AF
S1130A202093F1003196615071099C012E0F3F1FF4
S1130A306115710519F02830310588F381E02830FB
S1130A40310509F080E09091E8009E779093E800EA
S1130A509F016115710541F68111C6CF06C08091D1
S1130A60A101882351F0853051F08091E80082FF84
S1130A70F6CF80E0089581E0089582E0089583E050
S1130A800895982F2CC09093E900981739F070912D
S1130A90EC002091ED005091F00003C0242F762F3C
S1130AA050E021FD02C09F5F1AC03091EB003E7FF1
S1130AB03093EB003091ED003D7F3093ED003091A9
S1130AC0EB0031603093EB007093EC002093ED0069
S1130AD05093F0002091EE0027FDE5CF07C095303C
S1130AE090F28F708093E90081E0089580E008958A
S1130AF00F931F93CF93DF93062FEC0110E02EC0CA
S1130B009881911103C01F5F259628C02C81E9812B
S1130B10FA816B81892F8F70853010F080E021C0BD
S1130B20223010F056E001C052E028E030E040E00E
S1130B3003C04F5F220F331F2E173F07D0F3429598
S1130B40407F452B991F9927991F6295660F660F61
S1130B50607C692B96DF8111D6CFE0CF1013D0CF04
S1130B6081E0DF91CF911F910F9108958091A201AF
S1130B7087FD05C08091E80080FF0EC012C08091FF
S1130B80E80082FD05C08091A1018111F8CF08958C
S1130B908091E8008B7708C08091A1018111EACF90
S1130BA008958091E8008E778093E80008958091FD
S1130BB0E4009091E50045E62091EC0020FD1FC083
S1130BC023C02091A101222391F0253091F020919E
S1130BD0EB0025FD10C02091E4003091E5002817BA
S1130BE0390751F34150C90139F784E0089582E08F
S1130BF0089583E0089581E0089580E008952091A8
S1130C00E80020FFDECFF9CF2091E80022FFD9CF02
S1130C10F4CF41D043D08091D8008F778093D8000F
S1130C208091D80080688093D8008091D8008F7D0F
S1130C308093D80084E089BD86E089BD09B400FEB4
S1130C40FDCF1092A10110929D0110929F0110926C
S1130C509E0142E060E080E014DF8091E1008E7F3D
S1130C608093E1008091E20081608093E2008091B2
S1130C70E20088608093E2008091E0008E7F8093A0
S1130C80E0000895E3E6F0E080818E7F808381E0D8
S1130C908093A001BECF1092E20008951092E1006B
S1130CA008951F920F920FB60F9211242F933F9322
S1130CB04F935F936F937F938F939F93AF93BF9360
S1130CC0EF93FF938091E10082FF0AC08091E200DC
S1130CD082FF06C08091E1008B7F8093E100EDDA12
S1130CE08091E10080FF17C08091E20080FF13C073
S1130CF08091E2008E7F8093E2008091E200806127
S1130D008093E2008091D80080628093D80019BC5F
S1130D101092A101C5DA8091E10084FF2FC0809177
S1130D20E20084FF2BC084E089BD86E089BD09B45C
S1130D3000FEFDCF8091D8008F7D8093D8008091F4
S1130D40E1008F7E8093E1008091E2008F7E8093AA
S1130D50E2008091E20081608093E20080919D0135
S1130D60882311F084E007C08091E30087FF02C06C
S1130D7083E001C081E08093A10191DA8091E100D8
S1130D8083FF22C08091E20083FF1EC08091E100B6
S1130D90877F8093E10082E08093A10110929D01FE
S1130DA08091E1008E7F8093E1008091E2008E7F4C
S1130DB08093E2008091E20080618093E20042E04F
S1130DC060E080E05EDE72D1FF91EF91BF91AF9160
S1130DD09F918F917F916F915F914F913F912F914F
S1130DE00F900FBE0F901F9018951F93CF93DF9312
S1130DF0CDB7DEB7AC970FB6F894DEBF0FBECDBF4C
S1130E00E2EAF1E08091F100819321E0EA3AF2070D
S1130E10C9F750DA8091E80083FF30C18091A201C4
S1130E209091A301953009F487C038F49130B1F161
S1130E3070F0933009F022C131C0983009F4F3C046
S1130E40993009F4FFC0963009F018C19BC080386E
S1130E5021F0823809F012C108C080919E0190915E
S1130E609F01992389F082600FC08091A60190911F
S1130E70A7018F7099278093E9008091EB0085FB8F
S1130E80882780F91092E9009091E800977F909369
S1130E90E8008093F1001092F100D0C0882319F08B
S1130EA0823009F0EBC08F7121F0823009F0E6C086
S1130EB00BC08091A401813009F0E0C0933009F0A7
S1130EC080E080939F012FC08091A40181112BC0E9
S1130ED08091A6019091A7018F709927009709F43A
S1130EE0CDC08093E9002091EB0020FF1CC020912D
S1130EF0A301233021F48091EB00806212C0909111
S1130F00EB0090619093EB0021E030E001C0220FF0
S1130F108A95EAF72093EA001092EA008091EB00A8
S1130F2088608093EB001092E9008091E800877F4D
S1130F308093E8001BDEA2C08111A0C08091A401AF
S1130F409091A5018F779927182F9091E3009078BD
S1130F50982B9093E3008091E800877F8093E800CA
S1130F6005DE8091E80080FFFCCF8091E30080687B
S1130F708093E300112311F083E001C082E08093A9
S1130F80A1017CC08058823008F078C08091A4010F
S1130F909091A5018C3D23E0920771F583E08A834B
S1130FA08AE289834FB7F894DE01139620E03EE08D
S1130FB051E2E32FF0E050935700E49120FF03C087
S1130FC0E295EF703F5FEF708E2F90E0EA3010F003
S1130FD0C79601C0C0968D939D932F5F243149F726
S1130FE04FBF8091E800877F8093E8006AE270E059
S1130FF0CE01019645DC11C0AE01455D5F4F6091A5
S1131000A601A9D80097D1F12091E800277F209369
S1131010E800BC018BA59CA5D3DC8091E8008B770C
S11310208093E8002BC0803849F58091E800877FE1
S11310308093E80080919D018093F1008091E80005
S11310408E7776CF81111AC09091A4019230B0F4BA
S11310508091E800877F8093E80090939D0186DD6E
S113106080919D01811104C08091E30087FF02C03B
S113107084E001C081E08093A10113D98091E8004C
S113108083FF0AC08091E800877F8093E800809105
S1131090EB0080628093EB00AC960FB6F894DEBF51
S11310A00FBECDBFDF91CF911F9108950895CF93C7
S11310B08091A1018823A9F08091E9008F7090911B
S11310C0EC0090FF02C090E801C090E0C92FC82B4B
S11310D01092E9008091E80083FD87DECF70C09311
S11310E0E900CF910895FB01DC0104C08D910190CA
S11310F0801921F441505040C8F7881B990B08957A
S1131100FB01DC0102C001900D9241505040D8F720
S11311100895DC0101C06D9341505040E0F70895FB
S1071120F894FFCF6D
S11311240081080000011001040000000000000018
S9030000FC
