:1000000003C100002EC100002CC100002AC1000065
:1000100028C1000026C1000024C1000022C1000048
:1000200020C100001EC100001CC100001AC1000058
:1000300018C1000016C1000014C1000012C1000068
:1000400010C100000EC100000CC100000AC1000078
:1000500008C1000006C1000004C1000023C3000065
:1000600000C1000012C5000054C60000FAC0000024
:10007000F8C00000F6C00000F4C00000F2C00000AC
:10008000F0C00000EEC00000ECC00000EAC00000BC
:100090003CC500007DC60000E4C00000E2C00000D6
:1000A000E0C00000DEC00000DCC00000DAC00000DC
:1000B000D8C00000D6C00000D4C00000D2C00000EC
:1000C000D0C00000CEC00000CCC000005EC5000063
:1000D0009EC60000C6C0000098C50000D7C600003C
:1000E000C0C0000000002100240027002A002D00CD
:1000F0003000330001010000040107010A01000083
:100100002200250028002B002E00310034000201BF
:100110000000050108010B0100002000230026005B
:1001200029002C002F00320000010000030106010D
:10013000090105050505070508080808020202026D
:100140000A0A080804040404010101010101010173
:100150000303030303030303040707070C0C0C0C3E
:100160000C0C0C0C02020202060606060606060627
:100170000B0B0B0B0B0B0B0B0102102020080810B4
:100180002040102040800201020108040201010207
:1001900004081020408080402010080402018004E0
:1001A000020180402010080402010804020101023B
:1001B0000408102040800102040810204080000044
:1001C000090A02080B0C0D070603040100000000D9
:1001D000000000000000000000000000000000001F
:1001E0000000000000000000000011100F000000DF
:1001F00000000000000000000000000000000000FF
:1002000000000000F302B50811241FBECFEFD1E2B9
:10021000DEBFCDBF00E00CBF12E0A0E0B2E0E4E939
:10022000F4E100E00BBF02C007900D92AC31B107C2
:10023000D9F71BBE16E0ACE1B2E001C01D92A73CAD
:10024000B107E1F712E0C8E0D2E004C02297FE0156
:100250000E94440AC430D107C9F70E94EB090C94EC
:10026000480ACECEFC017183608350A747A308954E
:100270008AE060E0D7C38AE061E0D4C388E08EBD45
:100280000DB407FEFDCF8EB588E061E0CBC31F93B0
:10029000142F60646EBD0DB407FEFDCF8EB585E0F2
:1002A00090E0A1D21EBC0DB407FEFDCF8EB585E057
:1002B00090E099D21EBD0DB407FEFDCF8EB581E052
:1002C00090E091D21F9108951F9360626EBD0DB4AE
:1002D00007FEFDCF8EB51EBC0DB407FEFDCF8EB55B
:1002E00085E090E080D21EBC0DB407FEFDCF1EB5A8
:1002F00081E090E078D2812F1F910895FF920F93B3
:100300001F93CF93DF93EC018CA1882389F589A1FA
:10031000882371F11BA21AA2FF24F39426C081E066
:1003200090E061D20F2D10E0B8016C5F7F4FCE01DD
:10033000CBDF20E030E08770813011F021E030E049
:10034000002E02C0220F331F0A94E2F78BA1822BEA
:100350008BA390E002C0959587950A95E2F780FF00
:1003600003C08AA18F5F8AA3F39489A18F15B8F681
:10037000DF91CF911F910F91FF9008950F931F93DD
:10038000CF93DF938C0174DF61E070E080E090E058
:10039000D1D186E08EBD0DB407FEFDCF8EB58AE0CB
:1003A00090E021D281E18EBD0DB407FEFDCF8EB568
:1003B0006AE070E080E090E0BDD1C80161E070E0EB
:1003C00045EE65DFC80161E070E07EDFC80164E1F1
:1003D00070E040E05CDFC80164E170E075DFC801F7
:1003E00063E070E040EC53DFC80163E070E06CDF75
:1003F000C80160E070E068DFF80180A390E08F71D1
:1004000090708131910591F0823191051CF44097F3
:1004100089F406C08231910559F04E9759F408C00D
:1004200084E0F80181A3C5E0D0E007C086E0F9CF01
:1004300088E0F7CFF80111A2F6CFC801BE0140E66F
:1004400026DF2196CD30D105C1F7C80157DFC8019D
:1004500015DF80E18EBD0DB407FEFDCF8EB50BDF3D
:10046000DF91CF911F910F9108958AE061E027D22B
:1004700086E061E024D289E061E021D288E061E099
:100480001ED282E060E01BD282E061E0CBD2F3DEDC
:1004900061E070E080E090E04DC1EF92FF920F9339
:1004A0001F938C017B01E1DFD7D0D8019796ED91A6
:1004B000FC9198978181D7D0D8019796ED91FC91C6
:1004C00098978281DED0D8019796ED91FC9198970C
:1004D0008081D2D0C801F70119951F910F91FF902B
:1004E000EF9008950F931F938C01BC016C5F7F4FB9
:1004F0002DD0C80162E33ED0FC01D8015F969C93E9
:100500008E935E978489811181E01F910F910895E8
:1005100018C00895FC01CB0128E032E0318320832C
:10052000758F648F178E168E40E052EC61E070E09C
:10053000ECC4FC01558344837183608333A322A3FD
:100540000895FC017683658344830895CF93DF93F8
:10055000FC01A281B3818D919C9111976581768177
:100560004481EC01EA81FB81CD0150E01995DF91D6
:10057000CF9108950F931F93CF93DF93EC01062F34
:1005800010E025C0AA81BB81ED91FC9111970680F6
:10059000F781E02DCD011995FE01E10FF11D878353
:1005A0008B8D8F5F8B8F1F5FEA81FB81A081B18173
:1005B00014962D913C911597CF01F9011995892B2E
:1005C00009F764E670E080E090E0B4D001500023C9
:1005D00059F79E01295F3F4FC901DF91CF911F91CC
:1005E0000F9108950895EF92FF920F931F938DE15D
:1005F000E82E82E0F82E0FE316E089EA93E0B701D7
:10060000A8012CE132E095DF8DEC93E0B80182DFA8
:100610008DEE93E0B70140E052E024DE1F910F9190
:10062000FF90EF9008952FB7F8948DE192E09093AA
:10063000A4038093A3039093A6038093A5032FBFE5
:100640008FE396E040E052EC61E070E05ED48DEE26
:1006500093E06EEB71E021CF8CB580618CBD8CB5E1
:1006600080648CBD0895882319F48CB5806202C023
:100670008CB58F7D8CBD08959CB5937F982B9CBDC8
:1006800008952CB5382F33702C7F322B3CBD2DB5FF
:1006900090E0959587959595879581702E7F822B13
:1006A0008DBD08951F920F920FB60F9211242F93B4
:1006B0003F938F939F93AF93BF9380911A04909130
:1006C0001B04A0911C04B0911D0430911E040196DE
:1006D000A11DB11D232F2D5F2D3720F02D57019621
:1006E000A11DB11D20931E0480931A0490931B0436
:1006F000A0931C04B0931D048091160490911704DC
:10070000A0911804B09119040196A11DB11D809308
:10071000160490931704A0931804B0931904BF9182
:10072000AF919F918F913F912F910F900FBE0F909E
:100730001F9018959B01AC017FB7F8948091160427
:1007400090911704A0911804B091190466B5A89B64
:1007500005C06F3F19F00196A11DB11D7FBFBA2FD3
:10076000A92F982F8827860F911DA11DB11D62E02A
:10077000880F991FAA1FBB1F6A95D1F7BC012DC016
:10078000FFB7F8948091160490911704A091180473
:10079000B0911904E6B5A89B05C0EF3F19F001968A
:1007A000A11DB11DFFBFBA2FA92F982F88278E0F2B
:1007B000911DA11DB11DE2E0880F991FAA1FBB1F4B
:1007C000EA95D1F7861B970B885E9340C8F22150BB
:1007D00030404040504068517C4F21153105410563
:1007E000510571F60895019739F0880F991F880F08
:1007F000991F02970197F1F70895789484B5826064
:1008000084BD84B5816084BD85B5826085BD85B5B4
:10081000816085BDEEE6F0E0808181608083E1E863
:10082000F0E010828081826080838081816080839B
:10083000E0E8F0E0808181608083E1EBF0E080819E
:1008400084608083E0EBF0E0808181608083E1E977
:10085000F0E0808182608083808181608083E0E934
:10086000F0E0808181608083E1EAF0E08081826055
:100870008083808181608083E0EAF0E08081816014
:100880008083E1E2F1E08081826080838081816009
:100890008083E0E2F1E0808181608083EAE7F0E03C
:1008A0008081846080838081826080838081816098
:1008B00080838081806880831092C1000895CF93E7
:1008C000DF93482F50E0CA0188589E4FFC013491B5
:1008D0004E5C5E4FFA018491882369F190E0880FA5
:1008E000991FFC01EC51FF4FA591B491FC01E2501E
:1008F000FF4FC591D491662351F42FB7F8948C9192
:10090000932F909589238C93888189230BC0623023
:1009100061F42FB7F8948C91932F909589238C9341
:100920008881832B88832FBF06C09FB7F8948C9152
:10093000832B8C939FBFDF91CF910895893009F469
:1009400049C08A30A0F4843051F1853040F48230BF
:1009500079F1833000F5813009F063C026C087301B
:1009600079F1883098F5863009F05BC025C08D306C
:1009700009F442C08E3028F48B30B1F18C30C0F5D0
:100980002DC0803109F442C0813109F445C08F3057
:1009900009F047C037C0809180008F7703C08091F5
:1009A00080008F7D80938000089584B58F7702C08A
:1009B00084B58F7D84BD08958091B0008F7703C08A
:1009C0008091B0008F7D8093B00008958091900059
:1009D0008F7707C0809190008F7D03C08091900039
:1009E000877F8093900008958091A0008F7707C043
:1009F0008091A0008F7D03C08091A000877F8093AD
:100A0000A0000895809120018F7703C0809120017C
:100A10008F7D80932001089580912001877F8093AE
:100A200020010895FF920F931F93F62E482F50E058
:100A3000CA0182549E4FFC012491CA0188589E4FDE
:100A4000FC0114914E5C5E4FFA0104910023C1F049
:100A5000222311F0822F72DFE02FF0E0EE0FFF1F54
:100A6000E250FF4FA591B4919FB7F894FF2021F475
:100A70008C911095812302C08C91812B8C939FBF08
:100A80001F910F91FF90089508951F920F920FB636
:100A90000F920BB60F9211242F933F934F938F9386
:100AA0009F93EF93FF938091C00082FD1DC0409102
:100AB000C60020915F04309160042F5F3F4F2F7379
:100AC000307080916104909162042817390771F0A9
:100AD000E0915F04F0916004E15EFB4F408330934E
:100AE000600420935F0402C08091C600FF91EF91E3
:100AF0009F918F914F913F912F910F900BBE0F902F
:100B00000FBE0F901F90189508951F920F920FB669
:100B10000F920BB60F9211242F933F934F938F9305
:100B20009F93EF93FF938091C80082FD1DC0409179
:100B3000CE002091E7043091E8042F5F3F4F2F73E0
:100B400030708091E9049091EA042817390771F018
:100B5000E091E704F091E804E955FB4F40833093BE
:100B6000E8042093E70402C08091CE00FF91EF914A
:100B70009F918F914F913F912F910F900BBE0F90AE
:100B80000FBE0F901F90189508951F920F920FB6E9
:100B90000F920BB60F9211242F933F934F938F9385
:100BA0009F93EF93FF938091D00082FD1DC04091F1
:100BB000D60020916F05309170052F5F3F4F2F7346
:100BC000307080917105909172052817390771F086
:100BD000E0916F05F0917005E15DFA4F408330932D
:100BE000700520936F0502C08091D600FF91EF91B0
:100BF0009F918F914F913F912F910F900BBE0F902E
:100C00000FBE0F901F90189508951F920F920FB668
:100C10000F920BB60F9211242F933F934F938F9304
:100C20009F93EF93FF938091300182FD1DC040910F
:100C300036012091F7053091F8052F5F3F4F2F7354
:100C400030708091F9059091FA052817390771F0F5
:100C5000E091F705F091F805E954FA4F408330939D
:100C6000F8052093F70502C080913601FF91EF91BE
:100C70009F918F914F913F912F910F900BBE0F90AD
:100C80000FBE0F901F901895E0914B06F0914C0607
:100C9000E05CFF4F8191919120813181821B930B08
:100CA0008F739070892B09F0EFDEE0916D06F09163
:100CB0006E06E05CFF4F8191919120813181821B12
:100CC000930B8F739070892B09F01EDFE0918F06D4
:100CD000F0919006E05CFF4F8191919120813181EC
:100CE000821B930B8F739070892B09F04DDFE0917D
:100CF000B106F091B206E05CFF4F819191912081A5
:100D00003181821B930B8F739070892B09F07CCFFC
:100D100008951F920F920FB60F920BB60F921124E7
:100D20002F933F938F939F93EF93FF932091A3046F
:100D30003091A4048091A5049091A6042817390746
:100D400031F48091C1008F7D8093C10014C0E09187
:100D5000A504F091A604ED59FB4F20818091A504D4
:100D60009091A60401968F7390709093A60480933F
:100D7000A5042093C600FF91EF919F918F913F9121
:100D80002F910F900BBE0F900FBE0F901F901895D4
:100D90001F920F920FB60F920BB60F9211242F9342
:100DA0003F938F939F93EF93FF9320912B05309167
:100DB0002C0580912D0590912E052817390731F4C7
:100DC0008091C9008F7D8093C90014C0E0912D05EA
:100DD000F0912E05E551FB4F208180912D059091DA
:100DE0002E0501968F73907090932E0580932D059C
:100DF0002093CE00FF91EF919F918F913F912F9182
:100E00000F900BBE0F900FBE0F901F9018951F9262
:100E10000F920FB60F920BB60F9211242F933F93A0
:100E20008F939F93EF93FF932091B3053091B40577
:100E30008091B5059091B6052817390731F4809156
:100E4000D1008F7D8093D10014C0E091B505F09161
:100E5000B605ED58FA4F20818091B5059091B60501
:100E600001968F7390709093B6058093B50520938B
:100E7000D600FF91EF919F918F913F912F910F900D
:100E80000BBE0F900FBE0F901F9018951F920F92E0
:100E90000FB60F920BB60F9211242F933F938F939F
:100EA0009F93EF93FF9320913B0630913C068091F6
:100EB0003D0690913E062817390731F480913101A3
:100EC0008F7D8093310114C0E0913D06F0913E0684
:100ED000E550FA4F208180913D0690913E060196A3
:100EE0008F73907090933E0680933D062093360159
:100EF000FF91EF919F918F913F912F910F900BBE9A
:100F00000F900FBE0F901F901895AF92BF92DF9277
:100F1000EF92FF920F931F93CF93DF93EC017A012F
:100F20008B01DD24403081EE580780E0680780E0C7
:100F3000780711F0DD24D39491E0A92EB12CEC892F
:100F4000FD89DD2069F0C50108A002C0880F991F46
:100F50000A94E2F7808360E079E08DE390E005C0D9
:100F6000108260E874E88EE190E0A801970168D2F1
:100F70002150304040405040569547953795279531
:100F800080E12030380720F0DD2011F0DD24D7CFBC
:100F9000E889F9893083EA89FB89208319A2EE89DF
:100FA000FF89408121E030E0C9010C8C02C0880F2C
:100FB000991F0A94E2F7482B4083EE89FF8940810C
:100FC000C9010D8C02C0880F991F0A94E2F7482BC3
:100FD0004083EE89FF894081C9010E8C02C0880FD1
:100FE000991F0A94E2F7482B4083EE89FF8980819C
:100FF0000F8C02C0220F331F0A94E2F7209528239A
:101000002083DF91CF911F910F91FF90EF90DF90A0
:10101000BF90AF900895DC011C96ED91FC911D9757
:10102000E05CFF4F2191319180819181281B390B28
:101030002F733070C9010895DC011C96ED91FC916D
:101040001D97E05CFF4F20813181E054F040DF01CB
:10105000AE5BBF4F8D919C9111972817390719F4FA
:101060002FEF3FEF07C08D919C91E80FF91F808112
:10107000282F30E0C9010895DC011C96ED91FC9108
:101080001D97E05CFF4F20813181E054F040DF018B
:10109000AE5BBF4F8D919C9111972817390719F4BA
:1010A0002FEF3FEF10C08D919C911197E80FF91F22
:1010B00020818D919C91119701968F73907011965C
:1010C0009C938E9330E0C9010895DC0191968C9138
:1010D0009197882339F05496ED91FC915597808132
:1010E00086FFF9CF91961C920895CF93DF93EC0180
:1010F000EE85FF85E05CFF4F20813181E054F040B8
:101100002F5F3F4F2F733070DF01AE5BBF4F8D916C
:101110009C91119728173907D1F3E05CFF4F80812C
:101120009181E054F040E80FF91F6083EE85FF8560
:10113000E05CFF4F31832083EE89FF89208181E0CD
:1011400090E00F8C02C0880F991F0A94E2F7282BB9
:10115000208381E089A3EC89FD898081806480837C
:1011600081E090E0DF91CF9108951F9310924206A5
:101170001092410628EE33E040E050E02093430611
:1011800030934406409345065093460660E172E072
:101190007093400660933F068FE194E090934C0675
:1011A00080934B0683E694E090934E0680934D0621
:1011B00085EC90E09093500680934F0684EC90E08D
:1011C000909352068093510680EC90E090935406E1
:1011D0008093530681EC90E09093560680935506D9
:1011E00082EC90E0909358068093570686EC90E04E
:1011F00090935A068093590614E010935B06B3E06F
:10120000B0935C06A7E0A0935D06F5E0F0935E0660
:10121000E1E0E0935F06109264061092630620936B
:101220006506309366064093670650936806709390
:1012300062066093610687EA94E090936E0680935D
:101240006D068BEE94E09093700680936F068DECA4
:1012500090E090937206809371068CEC90E09093EE
:1012600074068093730688EC90E0909376068093E2
:10127000750689EC90E090937806809377068AEC67
:1012800090E090937A06809379068EEC90E09093AC
:101290007C0680937B0610937D06B0937E06A09318
:1012A0007F06F0938006E0938106109286061092E6
:1012B00085062093870630938806409389065093CD
:1012C0008A0670938406609383068FE295E090937C
:1012D000900680938F0683E795E090939206809323
:1012E000910685ED90E0909394068093930684EDAB
:1012F00090E0909396068093950680ED90E0909311
:1013000098068093970681ED90E090939A068093DB
:10131000990682ED90E090939C0680939B0686ED63
:1013200090E090939E0680939D0610939F06B09345
:10133000A006A093A106F093A206E093A306109244
:10134000A8061092A7062093A9063093AA064093F8
:10135000AB065093AC067093A6066093A50687EB88
:1013600095E09093B2068093B1068BEF95E0909351
:10137000B4068093B30685E391E09093B60680931C
:10138000B50684E391E09093B8068093B70680E3B6
:1013900091E09093BA068093B90681E391E090932F
:1013A000BC068093BB0682E391E09093BE068093D7
:1013B000BD0686E391E09093C0068093BF0610932C
:1013C000C106B093C206A093C306F093C406E0938F
:1013D000C5061F910895CF93DF930FDA24D9C4E493
:1013E000D6E000D92097E9F34FDCFBCFCF92DF9214
:1013F000EF92FF920F931F93CF93DF937C016B01CA
:101400008A01C0E0D0E00FC0D6016D916D01D70117
:10141000ED91FC910190F081E02DC7011995C80F65
:10142000D91F015010400115110571F7CE01DF9150
:10143000CF911F910F91FF90EF90DF90CF90089583
:10144000A1E21A2EAA1BBB1BFD010DC0AA1FBB1FC8
:10145000EE1FFF1FA217B307E407F50720F0A21B3A
:10146000B30BE40BF50B661F771F881F991F1A94A7
:1014700069F760957095809590959B01AC01BD01D1
:10148000CF010895EE0FFF1F0590F491E02D199400
:04149000F894FFCFFE
:101494000401010A0000000088027202000000003A
:0C14A4007508F6090B083C081C086508D8
:00000001FF
