:100000004FC100007AC1000078C1000076C1000035
:1000100074C1000072C1000070C100006EC1000018
:100020006CC100006AC1000068C1000066C1000028
:1000300064C1000062C1000060C100005EC1000038
:100040005CC100005AC1000058C1000056C1000048
:1000500054C1000052C1000050C100000C94490975
:100060004CC100000C945B0A0C949F0B46C100002D
:1000700044C1000042C1000040C100003EC1000078
:100080003CC100003AC1000038C1000036C1000088
:100090000C949B0A0C94DE0B30C100002EC10000B2
:1000A0002CC100002AC1000028C1000026C10000A8
:1000B00024C1000022C1000020C100001EC10000B8
:1000C0001CC100001AC1000018C100000C94DB0A1A
:1000D0000C941D0C12C100000C941B0B0C945C0CB6
:1000E0000CC1000025730D0A003F0D0A0041542B7E
:1000F00052455345540D0A0041542B4F52474C0D65
:100100000A0041542B414444523F0D0A00494E51CC
:10011000430D0A0041542B414444523D0041542BAD
:100120004C494E4B3D0041542B444953430D0A006A
:1001300041542B454E534E4946463D0041542B45B4
:1001400058534E4946463D0041542B4E414D453D86
:100150000041542B524E414D453F0D0A0041542B56
:10016000524F4C453D0030003100320041542B438A
:100170004C4153533D00300041542B4941433D0015
:100180003933386233330041542B4941433D0041F8
:10019000542B505357443D0041542B554152543D2C
:1001A0000041542B434D4F44453D00300032004147
:1001B000542B42494E443D0041542B504F4C415228
:1001C0003D0041542B44454641554C540D0A0041D5
:1001D000542B50494F3D0041542B4D50494F3D0049
:1001E00041542B49505343414E3D0041542B534EF3
:1001F0004946463D0041542B53454E4D3D00415428
:100200002B524D5341443D0041542B524D534144D8
:100210000D0A0041542B4144434E3F0D0A00415406
:100220002B4D5241443F0D0A0041542B535441542D
:10023000453F0D0A0041542B494E49540D0A0041D7
:10024000542B494E510D0A00E400E900ED00F8007E
:1002500002010D0114011D01260130013C0148017C
:1002600051015D01660168016A016C017601780146
:10027000800187018F019801A101AB01AD01AF01A0
:10028000B801C201CF01D701E001EB01F501FE0188
:10029000080213021E02290235023F020F08CB0D8D
:1002A00011241FBECFEFD1E2DEBFCDBF00E00CBFF7
:1002B00012E0A0E0B2E0E2E6F5E200E00BBF02C02F
:1002C00007900D92A234B107D9F71BBE15E0A2E446
:1002D000B2E001C01D92A93EB107E1F712E0C0EA09
:1002E000D2E004C02297FE010E947412CC39D107DB
:1002F000C9F70E94010F0C94AF1282CEFB01DC0102
:1003000002C001900D9241505040D8F708956817EF
:10031000790768F4FB01DC01E40FF51FA40FB51F9A
:1003200002C002900E9241505040D8F70895E6CF97
:10033000FB01DC018D91019080190110D9F3990B1B
:100340000895FB01DC0101900D920020E1F7089572
:10035000AEE0B0E0EEEAF1E00C9486120E891F895F
:1003600086E08C831A8309838FEF9FE79E838D83BA
:100370009E01265E3F4FCE010196688D798DA901C1
:100380000AD02F813885020F131FF80110822E9694
:10039000E4E00C94A212ABE0B0E0E1EDF1E00C94EB
:1003A00078123C012B015A01FC01178216828381CD
:1003B00081FD03C06FEF7FEFB9C19AE0892E1E0166
:1003C0000894211C311CF3012381F20123FD859146
:1003D00023FF81912F01882309F4A5C1853239F4C7
:1003E00023FD859123FF81912F01853221F490E037
:1003F000B301B7D1E8CF982FFF24EE249924FFE171
:10040000FF15D0F09B3269F09C3228F4903259F0FD
:10041000933291F40EC09D3249F0903369F441E07B
:1004200024C052E0F52A84E0F82A28C098E0F92A8E
:1004300025C0E0E1FE2A22C0F7FC29C0892F8053A5
:100440008A3070F4F6FE05C0989C902C1124980E0A
:1004500015C0E89CE02C1124E80EF0E2FF2A0EC043
:100460009E3229F4F6FC5FC140E4F42A07C09C36B2
:1004700019F450E8F52A02C0983649F4F20123FD38
:10048000959123FF91912F01992309F0B8CF892FDE
:100490008554833018F08052833038F444E050E0C3
:1004A000A40EB51E5FE359830FC0933631F0933726
:1004B00079F0933509F052C01FC0F501808189831E
:1004C00042E050E0A40EB51E610101E010E011C051
:1004D000F501C080D180F6FC03C06FEF7FEF02C052
:1004E000692D70E042E050E0A40EB51EC6012ED189
:1004F0008C015FE7F52213C0F501C080D180F6FCC6
:1005000003C06FEF7FEF02C0692D70E042E050E062
:10051000A40EB51EC6010FD18C0150E8F52AF3FEDA
:1005200006C018C080E290E0B3011BD1EA948E2D82
:1005300090E008171907B0F30DC0F601F7FC85919C
:10054000F7FE81916F0190E0B3010BD1E110EA94C5
:10055000015010400115110581F7E2C0943611F0E9
:10056000993661F5F7FE08C0F5012081318142819D
:10057000538184E090E00AC0F501808191819C0163
:10058000442737FD4095542F82E090E0A80EB91E15
:100590009FE6F92257FF09C0509540953095219567
:1005A0003F4F4F4F5F4FE0E8FE2ACA01B901A1015A
:1005B0002AE030E002D1D82ED2183FC0953729F476
:1005C0001F2D1F7E2AE030E01DC01F2D197F9F3692
:1005D00061F0903720F4983509F0A5C00FC090372E
:1005E00039F0983709F09FC004C028E030E00AC015
:1005F000106114FD146020E130E004C014FD1660A9
:1006000020E132E017FF08C0F5016081718182812D
:10061000938144E050E008C0F50180819181BC01E4
:1006200080E090E042E050E0A40EB51EA101C5D0EC
:10063000D82ED2188FE7F82EF122F6FE0BC05EEF0F
:10064000F522D91438F4F4FE07C0F2FC05C08FEE91
:10065000F82202C01D2D01C0192DF4FE0DC0FE01AF
:10066000ED0DF11D8081803319F499EEF92208C057
:100670001F5FF2FE05C003C08F2D867809F01F5F53
:100680000F2DF3FC13C0F0FE0EC01E1510F09D2CB4
:100690000AC09D2C9E0C911A1E2D05C080E290E090
:1006A000B3015FD01F5F1E15C8F304C01E1510F400
:1006B000E11A01C0EE2404FF0EC080E390E0B30114
:1006C00050D002FF1BC001FD03C088E790E00EC0C0
:1006D00088E590E00BC0802F867881F001FF02C092
:1006E0008BE201C080E2F7FC8DE290E0B30139D0EB
:1006F00005C080E390E0B30134D09A94D914C8F3D4
:10070000DA94F101ED0DF11D808190E0B30129D063
:10071000DD20B1F705C080E290E0B30122D0EA9479
:10072000EE20C9F750CEF30166817781CB012B967D
:10073000E2E10C949412FC010590615070400110AC
:10074000D8F7809590958E0F9F1F0895FC016150FA
:10075000704001900110D8F7809590958E0F9F1FE3
:1007600008950F931F93CF93DF938C01EB018B813F
:1007700081FF1BC082FF0DC02E813F818C819D8136
:100780002817390764F4E881F9810193F983E88334
:1007900006C0E885F985802F1995892B31F48E8163
:1007A0009F8101969F838E8302C00FEF1FEFC801C8
:1007B000DF91CF911F910F910895FA01AA27283058
:1007C00051F1203181F1E8946F936E7F6E5F7F4F1E
:1007D0008F4F9F4FAF4FB1E03ED0B4E03CD0670F9A
:1007E000781F891F9A1FA11D680F791F8A1F911DED
:1007F000A11D6A0F711D811D911DA11D20D009F43D
:1008000068943F912AE0269F11243019305D31937E
:10081000DEF6CF010895462F4770405D4193B3E067
:100820000FD0C9F7F6CF462F4F70405D4A3318F00E
:10083000495D31FD4052419302D0A9F7EACFB4E0BF
:10084000A6959795879577956795BA95C9F7009777
:100850006105710508959B01AC010A2E0694579518
:10086000479537952795BA95C9F7620F731F841F6F
:10087000951FA01D0895FC01868D978D08950F93F7
:100880001F938C01BC016C5F7F4F7DD3C80162E375
:100890008ED3FC01D8015F969C938E935E978489DA
:1008A000811181E01F910F91089568C30895FC01A3
:1008B000CB012DE232E031832083758F648F178E58
:1008C000168E40E855E260E070E00C949B0CFC0151
:1008D000A589B689ED91FC9111970190F081E02DE9
:1008E000CD01199508950F931F93FC01462F8C019C
:1008F000095A1F4F4A5085899689B80150E00E94D5
:10090000600FC8011F910F9108950F931F938C01E1
:100910006AE0E9DFBC01C8018C599F4F4AE050E012
:10092000F6DC0F5A1F4FD801ED91FC9182E090E068
:10093000968385831F910F9108950F931F938C01C8
:100940006BE0D1DFBC01C8018C599F4F4BE050E0F8
:10095000DEDC0F5A1F4FD801ED91FC9181E090E051
:10096000968385831F910F9108950F931F938C0198
:1009700065E1B9DFBC01C8018C599F4F45E150E0EA
:10098000C6DC0F5A1F4FD801ED91FC9116821582DB
:100990001F910F910895CF92DF92EF92FF920F93E4
:1009A0001F93CF93DF93EC011AE091E5E92EF12C30
:1009B000EC0EFD1E81E0C82ED12C01E037C0ED8980
:1009C000FE89A081B18114962D913C911597CF019C
:1009D000F9011995892B29F1ED89FE89A081B18151
:1009E00016962D913C911797CF01F90119958334F3
:1009F00091F4D701ED91FC91148213820083AD89AB
:100A0000BE89ED91FC9111970190F081E02DCD010F
:100A100065E0199506C0D701ED91FC91D482C3829F
:100A2000108264E670E080E090E089D4115038F6DE
:100A3000DF91CF911F910F91FF90EF90DF90CF90BA
:100A40000895CF92DF92EF92FF920F931F93DF935F
:100A5000CF93CDB7DEB77C01CDB6DEB68DB79EB7EE
:100A60000A970FB6F8949EBF0FBE8DBF0DB71EB785
:100A70000F5F1F4FF70185899689B8014AE050E062
:100A80000E94600FC701B8014AE050E040DCF70166
:100A90008281823041F0833019F0813049F406C000
:100AA000C70163DF05C0C70148DF02C0C7012DDFF2
:100AB0000FB6F894DEBE0FBECDBECF91DF911F9171
:100AC0000F91FF90EF90DF90CF9008951F93CF93F9
:100AD000DF93EC011AE014C0ED89FE89A081B18199
:100AE00014962D913C911597CF01F90119950B970B
:100AF00010F0CE01A6DF64E670E080E090E01FD445
:100B0000115050F7DF91CF911F9108950F931F93CC
:100B10008C01FC01A589B689ED91FC91119701909A
:100B2000F081E02DCD0160E11995C801CFDF1F9163
:100B30000F910895CF93DF93EC01C15BDF4F888164
:100B4000998159D09A918A91CD54D040813591059F
:100B500019F4CE01DBDF02C0CE01B8DFDF91CF9107
:100B60000895EF92FF920F931F937C01CB0163E5F1
:100B700070E0E60EF71EF7011082118212821382D6
:100B80006DEA7FEFE60EF71EF701968B858B6DE41D
:100B900070E0E60EF71EF7014193519321933193D4
:100BA0007F01118300832FEA3FEFE20EF31E40E046
:100BB00056E960E070E0BFD6F701A589B689ED91EE
:100BC000FC9111970284F385E02DCD011995F70171
:100BD000108E178A1F910F91FF90EF900895FC01DE
:100BE0007383628355834483118210820895FC01CC
:100BF000718360830895FF920F931F93CF93DF93C8
:100C0000EC01EA81FB81A081B18114962D913C9188
:100C10001597CF01F9011995892B21F1EA81FB8103
:100C2000A081B18116962D913C911797CF01F901C2
:100C30001995082F10E085E0F82E0AC0801739F4C6
:100C4000638174810180F281E02D802F19951F5FEF
:100C50001F9DC0011124E881F981E80FF91F8081EF
:100C60008F3F61F7DF91CF911F910F91FF90089512
:100C7000DB01843459F08235F9F0833491F5149610
:100C8000ED91FC9115971482138208C01496ED9192
:100C9000FC91159781E090E09483838312960D90E8
:100CA000BC91A02DED91FC9111970190F081E02D68
:100CB000CD0160E4199508951496ED91FC91159776
:100CC00082E090E09483838312960D90BC91A02DD6
:100CD000ED91FC9111970190F081E02DCD0160E440
:100CE00019950895FC01518340837383628333A374
:100CF00022A30895FB0119950895CF93DF93EC018A
:100D0000EAA1FBA1A081B18112962D913C9113978C
:100D1000CF01F9011995882359F08AA19BA1ABDD78
:100D200060E072E005DB9C0180E0232B09F481E0A8
:100D3000DF91CF910895CF93DF93AC01EC0124961E
:100D40008EE1DE011D928A95E9F7FA012081318159
:100D5000260F311DF90185919491DA01FC018491EE
:100D600014968C931497119631968823C1F7CE016F
:100D7000DF91CF910895EF92FF920F931F93DF932E
:100D8000CF93CDB7DEB727970FB6F894DEBF0FBE6F
:100D9000CDBF8C0162E0CFDFBC017E010894E11C75
:100DA000F11CC7010E942110F801A2A1B3A1ED918D
:100DB000FC91119769817A810190F081E02DCD013C
:100DC0004D811995C80199DF182FC7010E943A106B
:100DD000812F27960FB6F894DEBF0FBECDBFCF91FF
:100DE000DF911F910F91FF90EF900895AF92BF9206
:100DF000CF92DF92EF92FF920F931F93DF93CF93E7
:100E0000CDB7DEB761970FB6F894DEBF0FBECDBF8A
:100E10007C015B016BE08FDFBC016E010894C11C9B
:100E2000D11CC6010E942110C70160E084DF00D000
:100E300000D0EDB7FEB731968E01085F1F4FADB7FA
:100E4000BEB712961C930E93119793838283B5823B
:100E5000A4827EDAEDB7FEB736960FB6F894FEBFE1
:100E60000FBEEDBFC601B8010E94E30FF701A2A1BA
:100E7000B3A1ED91FC91119769817A810190F08184
:100E8000E02DCD014D811995C70137DF182FC6011F
:100E90000E943A10812F61960FB6F894DEBF0FBE04
:100EA000CDBFCF91DF911F910F91FF90EF90DF9019
:100EB000CF90BF90AF900895DF92EF92FF920F9383
:100EC0001F93DF93CF93CDB7DEB727970FB6F89474
:100ED000DEBF0FBECDBF8C01D62E6DE02CDFBC0176
:100EE0007E010894E11CF11CC7010E942110C80179
:100EF0006D2D21DFBC01C7010E94E30FF801A2A103
:100F0000B3A1ED91FC91119769817A810190F081F3
:100F1000E02DCD014D811995F801A2A1B3A1ED916C
:100F2000FC9111970280F381E02DCD011995C80144
:100F3000E4DE182FC7010E943A10812F27960FB6C2
:100F4000F894DEBF0FBECDBFCF91DF911F910F91FF
:100F5000FF90EF90DF900895CF93DF93EC016A81CB
:100F60007B8144DF882339F0CE0160E3A5DF88234D
:100F700011F0CE0100DFDF91CF910895FC0176835F
:100F8000658344830895CF93DF93FC01A281B381ED
:100F90008D919C911197658176814481EC01EA8164
:100FA000FB81CD0150E01995DF91CF9108950F930A
:100FB0001F93CF93DF93EC01062F10E025C0AA8189
:100FC000BB81ED91FC9111970680F781E02DCD0159
:100FD0001995FE01E10FF11D87838B8D8F5F8B8F3C
:100FE0001F5FEA81FB81A081B18114962D913C9114
:100FF0001597CF01F9011995892B09F764E670E07F
:1010000080E090E09CD10150002359F79E01295FB8
:101010003F4FC901DF91CF911F910F9108958F929A
:101020009F92AF92BF92CF92DF92EF92FF920F9377
:101030001F93109253021092540210925502109274
:10104000560242E4842E42E0942E87E592E0B401F9
:10105000CBD039E5A32E32E0B32E0FE715E027E41D
:10106000C22E22E0D22EC501B801A601B8DD9FE54F
:10107000E92E92E0F92EC701B80119DC8FE792E062
:1010800063E072E048E452E097012CDE83EAE82E48
:1010900082E0F82EC701B80141E550E095018601D4
:1010A00060DD8CE293E0B401A601970103E512E054
:1010B0003ED01F910F91FF90EF90DF90CF90BF90A7
:1010C000AF909F908F90089580914702882349F0B8
:1010D00083EA92E02FDD8CE293E05BD087E592E03B
:1010E00096D064E670E080E090E029C18FE792E05E
:1010F0006CEA77E0FFDD68E873E180E090E01FD103
:1011000089E592E064E172E072DD83EA92E043DC1B
:1011100087E592E06DD081E08093470287E492E01A
:101120007ED0892B19F487E492E075C008950F935F
:101130001F93FC015383428335832483718360832F
:10114000178306831F910F910895FC01F894A481E1
:10115000B58120813181C901FC011B968AE00D9087
:1011600001928150E1F7789408950F931F938C01B9
:10117000FC018481958161E0AADB64E670E080E097
:1011800090E0DDD0F8018281938145D01F910F91CD
:101190000895CF93DF93EC018E819F815BD08823EC
:1011A00059F08C819D8166E092DB8C819D8161E0AC
:1011B0008EDB8A819B812FD0EA81FB81858196819C
:1011C0008130910541F08230910541F0892B49F43D
:1011D000CE01BBDF06C0CE01C8DF03C08E819F8178
:1011E0002DD0DF91CF910895FC0171836083089524
:1011F0008DE595E040E855E260E070E09CC3FC01BD
:10120000608171818DE595E045E050E005C6FC0107
:1012100060817181F4CFE0E0F0E019950895DF93EB
:10122000CF930F920F92CDB7DEB79E01285E354067
:10123000C9010F900F90CF91DF9108950F931F93E5
:101240008C016FD0F80160837183828393831F9137
:101250000F910895CF93DF93EC0163D028813981FA
:101260004A815B81621B730B840B950B695E734033
:101270008040904010F480E009C081E090E0A0E060
:10128000B0E088839983AA83BB8381E0DF91CF910B
:1012900008951F920F920FB60F9211242F933F9330
:1012A0008F939F93AF93BF938091380390913903AD
:1012B000A0913A03B0913B0330913C030196A11DEC
:1012C000B11D232F2D5F2D3720F02D570196A11D25
:1012D000B11D20933C038093380390933903A0936E
:1012E0003A03B0933B038091340390913503A0916E
:1012F0003603B09137030196A11DB11D80933403CD
:1013000090933503A0933603B0933703BF91AF9109
:101310009F918F913F912F910F900FBE0F901F9033
:1013200018958FB7F8942091380330913903409184
:101330003A0350913B038FBFB901CA0108959B0145
:10134000AC017FB7F8948091340390913503A0915C
:101350003603B091370366B5A89B05C06F3F19F0FF
:101360000196A11DB11D7FBFBA2FA92F982F8827E5
:10137000860F911DA11DB11D62E0880F991FAA1F44
:10138000BB1F6A95D1F7BC012DC0FFB7F8948091BF
:10139000340390913503A0913603B0913703E6B53D
:1013A000A89B05C0EF3F19F00196A11DB11DFFBF1D
:1013B000BA2FA92F982F88278E0F911DA11DB11D1F
:1013C000E2E0880F991FAA1FBB1FEA95D1F7861B81
:1013D000970B885E9340C8F2215030404040504007
:1013E00068517C4F211531054105510571F608956D
:1013F000789484B5826084BD84B5816084BD85B5F0
:10140000826085BD85B5816085BDEEE6F0E08081B6
:1014100081608083E1E8F0E01082808182608083D7
:10142000808181608083E0E8F0E08081816080835A
:10143000E1EBF0E0808184608083E0EBF0E080818C
:1014400081608083E1E9F0E0808182608083808137
:1014500081608083E0E9F0E0808181608083E1EA5F
:10146000F0E0808182608083808181608083E0EA17
:10147000F0E0808181608083E1E2F1E08081826040
:101480008083808181608083E0E2F1E080818160FF
:101490008083EAE7F0E080818460808380818260DD
:1014A00080838081816080838081806880831092C6
:1014B000C100089508951F920F920FB60F920BB6B8
:1014C0000F9211242F933F934F938F939F93EF93FA
:1014D000FF938091C00082FD1DC04091C600209105
:1014E0007D0330917E032F5F3F4F2F7330708091CB
:1014F0007F03909180032817390771F0E0917D03F5
:10150000F0917E03E35CFC4F408330937E03209395
:101510007D0302C08091C600FF91EF919F918F9152
:101520004F913F912F910F900BBE0F900FBE0F90D8
:101530001F90189508951F920F920FB60F920BB639
:101540000F9211242F933F934F938F939F93EF9379
:10155000FF938091C80082FD1DC04091CE00209174
:101560000504309106042F5F3F4F2F733070809138
:101570000704909108042817390771F0E0910504D9
:10158000F0910604EB53FC4F408330930604209304
:10159000050402C08091CE00FF91EF919F918F9141
:1015A0004F913F912F910F900BBE0F900FBE0F9058
:1015B0001F90189508951F920F920FB60F920BB6B9
:1015C0000F9211242F933F934F938F939F93EF93F9
:1015D000FF938091D00082FD1DC04091D6002091E4
:1015E0008D0430918E042F5F3F4F2F7330708091A8
:1015F0008F04909190042817390771F0E0918D04C1
:10160000F0918E04E35BFB4F408330938E04209374
:101610008D0402C08091D600FF91EF919F918F9130
:101620004F913F912F910F900BBE0F900FBE0F90D7
:101630001F90189508951F920F920FB60F920BB638
:101640000F9211242F933F934F938F939F93EF9378
:10165000FF938091300182FD1DC0409136012091A1
:101660001505309116052F5F3F4F2F733070809115
:101670001705909118052817390771F0E0911505A5
:10168000F0911605EB52FB4F4083309316052093E3
:10169000150502C080913601FF91EF919F918F91C6
:1016A0004F913F912F910F900BBE0F900FBE0F9057
:1016B0001F901895E0916905F0916A05E05CFF4F75
:1016C0008191919120813181821B930B8F73907056
:1016D000892B09F0EFDEE0918B05F0918C05E05C41
:1016E000FF4F8191919120813181821B930B8F73E8
:1016F0009070892B09F01EDFE091AD05F091AE05E9
:10170000E05CFF4F8191919120813181821B930B8D
:101710008F739070892B09F04DDFE091CF05F09128
:10172000D005E05CFF4F8191919120813181821B36
:10173000930B8F739070892B09F07CCF08951F92C3
:101740000F920FB60F920BB60F9211242F933F9367
:101750008F939F93EF93FF932091C1033091C20326
:101760008091C3039091C4032817390731F4809105
:10177000C1008F7D8093C10014C0E091C303F0913C
:10178000C403EF57FC4F20818091C3039091C403A1
:1017900001968F7390709093C4038093C30320933A
:1017A000C600FF91EF919F918F913F912F910F90E4
:1017B0000BBE0F900FBE0F901F9018951F920F92A7
:1017C0000FB60F920BB60F9211242F933F938F9366
:1017D0009F93EF93FF932091490430914A048091A5
:1017E0004B0490914C042817390731F48091C900BB
:1017F0008F7D8093C90014C0E0914B04F0914C049C
:10180000E75FFB4F208180914B0490914C0401963F
:101810008F73907090934C0480934B042093CE0070
:10182000FF91EF919F918F913F912F910F900BBE60
:101830000F900FBE0F901F9018951F920F920FB62A
:101840000F920BB60F9211242F933F938F939F9378
:10185000EF93FF932091D1043091D2048091D3046F
:101860009091D4042817390731F48091D1008F7DED
:101870008093D10014C0E091D304F091D404EF56CA
:10188000FB4F20818091D3049091D40401968F73F3
:1018900090709093D4048093D3042093D600FF914A
:1018A000EF919F918F913F912F910F900BBE0F90D1
:1018B0000FBE0F901F9018951F920F920FB60F92A8
:1018C0000BB60F9211242F933F938F939F93EF9317
:1018D000FF932091590530915A0580915B059091B5
:1018E0005C052817390731F4809131018F7D809391
:1018F000310114C0E0915B05F0915C05E75EFA4FA1
:10190000208180915B0590915C0501968F739070AA
:1019100090935C0580935B0520933601FF91EF91D6
:101920009F918F913F912F910F900BBE0F900FBE03
:101930000F901F901895AF92BF92DF92EF92FF9297
:101940000F931F93CF93DF93EC017A018B01DD247A
:10195000403081EE580780E0680780E0780711F09A
:10196000DD24D39491E0A92EB12CEC89FD89DD20F2
:1019700069F0C50108A002C0880F991F0A94E2F718
:10198000808360E079E08DE390E005C0108260E83C
:1019900074E88EE190E0A801970182D52150304093
:1019A00040405040569547953795279580E1203027
:1019B000380720F0DD2011F0DD24D7CFE889F98940
:1019C0003083EA89FB89208319A2EE89FF8940814F
:1019D00021E030E0C9010C8C02C0880F991F0A94E5
:1019E000E2F7482B4083EE89FF894081C9010D8CC5
:1019F00002C0880F991F0A94E2F7482B4083EE89B2
:101A0000FF894081C9010E8C02C0880F991F0A947A
:101A1000E2F7482B4083EE89FF8980810F8C02C05A
:101A2000220F331F0A94E2F7209528232083DF91A9
:101A3000CF911F910F91FF90EF90DF90BF90AF90EB
:101A40000895DC011C96ED91FC911D97E05CFF4F21
:101A50002191319180819181281B390B2F73307036
:101A6000C9010895DC011C96ED91FC911D97E05C85
:101A7000FF4F20813181E054F040DF01AE5BBF4F6A
:101A80008D919C9111972817390719F42FEF3FEF8B
:101A900007C08D919C91E80FF91F8081282F30E0BD
:101AA000C9010895DC011C96ED91FC911D97E05C45
:101AB000FF4F20813181E054F040DF01AE5BBF4F2A
:101AC0008D919C9111972817390719F42FEF3FEF4B
:101AD00010C08D919C911197E80FF91F20818D9175
:101AE0009C91119701968F73907011969C938E9391
:101AF00030E0C9010895DC0191968C91919788237B
:101B000039F05496ED91FC915597808186FFF9CF7D
:101B100091961C920895CF93DF93EC01EE85FF859B
:101B2000E05CFF4F20813181E054F0402F5F3F4F58
:101B30002F733070DF01AE5BBF4F8D919C91119779
:101B400028173907D1F3E05CFF4F80819181E05481
:101B5000F040E80FF91F6083EE85FF85E05CFF4FE2
:101B600031832083EE89FF89208181E090E00F8C12
:101B700002C0880F991F0A94E2F7282B208381E086
:101B800089A3EC89FD8980818064808381E090E075
:101B9000DF91CF9108951F931092600510925F0519
:101BA00028EE33E040E050E0209361053093620579
:101BB000409363055093640565E372E070935E059E
:101BC00060935D058DE393E090936A0580936905CA
:101BD00081E893E090936C0580936B0585EC90E031
:101BE00090936E0580936D0584EC90E09093700562
:101BF00080936F0580EC90E090937205809371055F
:101C000081EC90E0909374058093730582EC90E0F2
:101C1000909376058093750586EC90E09093780517
:101C20008093770514E010937905B3E0B0937A05BB
:101C3000A7E0A0937B05F5E0F0937C05E1E0E0935D
:101C40007D051092820510928105209383053093C3
:101C500084054093850550938605709380056093B5
:101C60007F0585EC93E090938C0580938B0589E04C
:101C700094E090938E0580938D058DEC90E0909389
:101C8000900580938F058CEC90E090939205809363
:101C9000910588EC90E0909394058093930589ECEE
:101CA00090E090939605809395058AEC90E0909350
:101CB0009805809397058EEC90E090939A05809319
:101CC000990510939B05B0939C05A0939D05F093F7
:101CD0009E05E0939F051092A4051092A305209302
:101CE000A5053093A6054093A7055093A8057093CA
:101CF000A2056093A1058DE494E09093AE058093D6
:101D0000AD0581E994E09093B0058093AF0585ED32
:101D100090E09093B2058093B10584ED90E09093AC
:101D2000B4058093B30580ED90E09093B605809361
:101D3000B50581ED90E09093B8058093B70582EDED
:101D400090E09093BA058093B90586ED90E090936A
:101D5000BC058093BB051093BD05B093BE05A09351
:101D6000BF05F093C005E093C1051092C60510921F
:101D7000C5052093C7053093C8054093C905509306
:101D8000CA057093C4056093C30585ED94E09093F4
:101D9000D0058093CF0589E195E09093D20580939B
:101DA000D10585E391E09093D4058093D30584E336
:101DB00091E09093D6058093D50580E391E09093D0
:101DC000D8058093D70581E391E09093DA0580935D
:101DD000D90582E391E09093DC058093DB0586E3EF
:101DE00091E09093DE058093DD051093DF05B093BD
:101DF000E005A093E105F093E205E093E3051F9170
:101E00000895CF93DF93F4DA71D9CAE5DBE05CD9AA
:101E10002097E9F34FDCFBCFCF92DF92EF92FF9256
:101E20000F931F93CF93DF937C016B018A01C0E076
:101E3000D0E00FC0D6016D916D01D701ED91FC91FD
:101E40000190F081E02DC7011995C80FD91F0150ED
:101E500010400115110571F7CE01DF91CF911F914F
:101E60000F91FF90EF90DF90CF900895CF93DF9385
:101E7000EC0157DA688779878A879B87E881F9813F
:101E80000680F781E02DCE0119959C0197FF14C0C3
:101E900048DA288539854A855B85621B730B840B7C
:101EA000950B2C813D814E815F81621773078407FA
:101EB000950720F32FEF3FEFC901DF91CF910895F0
:101EC000CF92DF92EF92FF920F931F93CF93DF9306
:101ED0006C018B017A01C0E0D0E008C0C601C6DF0A
:101EE00097FD07C0F80181938F012196CE15DF057C
:101EF000A8F3CE01DF91CF911F910F91FF90EF904A
:101F0000DF90CF9008950F931F93CF93DF93EC0151
:101F10008B016F5F7F4F88819981E5D1009711F424
:101F200080E005C0998388831B830A8381E0DF9169
:101F3000CF911F910F910895CF93DF93EC0188818A
:101F40009981892B29F08A819B818617970758F4FC
:101F5000CE01D9DF882341F08C819D81892B19F432
:101F6000E881F981108281E0DF91CF910895EF92AD
:101F7000FF920F931F93CF93DF93EC017B016C8152
:101F80007D81E114F104B9F04115510591F08A0108
:101F9000060F171FB801D0DF882369F08881998167
:101FA0002C813D81820F931FB7010E94A1011D83E7
:101FB0000C8381E001C080E0DF91CF911F910F91F0
:101FC000FF90EF9008956115710511F480E0089578
:101FD000DB010D900020E9F71197A61BB70BAD01AF
:101FE000C6CFCF93DF93EC0188819981009709F0E8
:101FF000E2D0198218821D821C821B821A82DF9114
:10200000CF910895EF92FF920F931F93CF93DF9399
:10201000EC017B018A01BA018FDF882319F4CE011C
:10202000E0DF07C01D830C8388819981B7010E947E
:10203000A101CE01DF91CF911F910F91FF90EF9001
:102040000895CF93DF93EC01198218821B821A82C4
:102050001D821C821E826115710549F0DB010D9005
:102060000020E9F71197A61BB70BAD01CBDFDF917D
:10207000CF910895FC01808191819DC00F931F93A2
:10208000CF93DF93BC018230910510F462E070E0E1
:10209000E091E705F091E80540E050E0A0E0B0E015
:1020A00024C08081918186179707D0F08617970703
:1020B00071F482819381109729F013969C938E93EB
:1020C00012972CC09093E8058093E70527C041152F
:1020D000510519F08417950718F48D01AC01EF0133
:1020E000DF01828193819C01F9013097D1F641157E
:1020F0005105F9F0CA01861B970B8430910580F4D5
:102100008A819B810115110521F0F8019383828357
:1021100004C09093E8058093E705FE01329645C020
:10212000FE01E80FF91F61937193029799838883E9
:102130003CC08091E5059091E605892B41F48091A2
:102140002502909126029093E6058093E505409143
:102150002702509128024115510541F44DB75EB751
:102160008091230290912402481B590B2091E50590
:102170003091E60524173507B0F4CA01821B930B92
:102180008617970780F0AB014E5F5F4F8417950766
:1021900050F0420F531F5093E6054093E505F901B7
:1021A0006193719302C0E0E0F0E0CF01DF91CF9145
:1021B0001F910F910895CF93DF939C01009709F42D
:1021C0008FC0EC0122971B821A826091E705709103
:1021D000E8056115710581F488819981820F931F4B
:1021E0002091E5053091E6052817390739F5D09398
:1021F000E605C093E50574C0DB0140E050E0AC1794
:10220000BD0708F1BB83AA83FE0121913191E20F42
:10221000F31FAE17BF0779F48D919C911197280F8A
:10222000391F2E5F3F4F3983288312968D919C91E1
:1022300013979B838A834115510571F4D093E80568
:10224000C093E7054DC012968D919C911397AD01F7
:10225000009711F0DC01D3CFDA011396DC93CE9313
:102260001297FA0121913191E20FF31FCE17DF0788
:1022700069F488819981280F391F2E5F3F4FFA0139
:10228000318320838A819B8193838283E0E0F0E025
:10229000DB0112968D919C911397009719F0BC0168
:1022A000FD01F6CFAB014E5F5F4FDB018D919C913D
:1022B000840F951F2091E5053091E6052817390711
:1022C00079F4309729F41092E8051092E70502C0DE
:1022D00013821282425050405093E6054093E50528
:1022E000DF91CF9108956F927F928F929F92AF92DC
:1022F000BF92CF92DF92EF92FF920F931F93CF93F3
:10230000DF938C01009721F4CB01B8DE8C01B8C0BB
:102310008EEFE82E8FEFF82EE00EF11E4801860EAC
:10232000971E8E149F0408F4A9C0D7014D915C91AB
:10233000119746175707B0F04530510508F4A0C073
:10234000CA0104978617970708F49AC04250504074
:10235000461B570BF401419351936D937C93CF012E
:102360002ADF8EC05B01A41AB50A3801640E751EFF
:10237000A091E705B091E805E0E0F0E0CC24DD2491
:1023800047C0A615B705A9F5CD91DC911197CE01EF
:1023900002968A159B0568F1CE018A199B0902965F
:1023A00012962C91129713963C91059758F0F401D0
:1023B00022833383CA19DB09D183C083D7016D938C
:1023C0007C9309C04E5F5F4F4C0F5D1FF701518337
:1023D0004083C901FC01C114D10431F0D601139628
:1023E000FC93EE9312974CC0F093E805E093E70559
:1023F00047C08D919C911197E817F90708F4FC01EB
:102400006D0112968C91129713969C919C01D901A3
:10241000109709F0B6CF8091E5059091E6058615F5
:102420009705E9F4E617F707D0F4209127023091D9
:1024300028022115310541F42DB73EB780912302C2
:1024400090912402281B390B82169306B8F49092BF
:10245000E6058092E505F7017183608311C0CB0129
:102460000DDEEC01009751F0D7014D915C91B80160
:102470000E947E01C8019FDE8E0102C000E010E0D4
:10248000C801DF91CF911F910F91FF90EF90DF90E6
:10249000CF90BF90AF909F908F907F906F90089556
:1024A000A1E21A2EAA1BBB1BFD010DC0AA1FBB1F58
:1024B000EE1FFF1FA217B307E407F50720F0A21BCA
:1024C000B30BE40BF50B661F771F881F991F1A9437
:1024D00069F760957095809590959B01AC01BD0161
:1024E000CF010895EE0FFF1F0590F491E02D199490
:1024F0002F923F924F925F926F927F928F929F9214
:10250000AF92BF92CF92DF92EF92FF920F931F9301
:10251000CF93DF93CDB7DEB7CA1BDB0B0FB6F894B2
:10252000DEBF0FBECDBF19942A88398848885F84E2
:102530006E847D848C849B84AA84B984C884DF8063
:10254000EE80FD800C811B81AA81B981CE0FD11D47
:102550000FB6F894DEBF0FBECDBFED010895F8941D
:02256000FFCFAB
:102562004F4B00426C7565746F6F7468204D6173D8
:1025720074657200433806590244380659025238CB
:102582000659028000E90500000000000055043FE2
:1025920004000000008B0D0C0F210D520D320D7B3B
:0225A2000D002A
:00000001FF
