:100000000C9447010C946F010C946F010C946F01D8
:100010000C946F010C946F010C946F010C946F01A0
:100020000C946F010C946F010C946F010C946F0190
:100030000C946F010C946F010C946F010C946F0180
:100040000C941D0F0C946F010C94B2100C940011C1
:100050000C946F010C946F010C946F010C946F0160
:100060000C946F010C946F0141542B46534D3D008D
:1000700046534D5F5452414E535F5553425F434F79
:100080004D5F424C450D0A0046534D5F4849445F61
:100090005553425F434F4D5F424C455F41540D0AFB
:1000A0000041542B524F4C453D00524F4C455F434D
:1000B000454E5452414C0D0A00524F4C455F50453D
:1000C000524950484552414C0D0A0041542B4D496C
:1000D0004E5F494E54455256414C3D00313000323E
:1000E000300041542B4D41585F494E5445525641C2
:1000F0004C3D0031300034300041542B55415254B6
:100100003D0041542B42494E443D0041542B434D48
:100110004F44453D00554E495155450D0A00414E4D
:10012000594F4E450D0A0041542B4D41433D3F0D63
:100130000A0041542B4E414D453D0041542B524540
:1001400053544152540D0A0041542B5345545449C1
:100150004E473D0044454641554C540D0A00444528
:10016000465045524950484552414C0D0A004445BD
:100170004643454E5452414C0D0A0041542B4942CE
:100180004541434F4E533D004F4E0D0A004F4646EA
:100190000D0A0041542B56455253494F4E3D3F0DD9
:1001A0000A0041542B525353493D3F0D0A0041541C
:1001B0002B4D414A4F523D0041542B4D494E4F5219
:1001C0003D0041542B50415353574F523D00415431
:1001D0002B5458504F5745523D003F0D0A002B2BD2
:1001E0002B0025730D0A00DE01DA01E201680070C0
:1001F000008800A100AA00B900CB00DC00DF00E20B
:1002000000F300F600F90002010B0115011E0127A1
:100210000132013B01480154015E016E017B0188FE
:10022000018D01AE01B801CE01A2019301C201000E
:10023000000000240027002A0000000000250028FC
:10024000002B000000000023002600290004040405
:10025000040404040402020202020203030303036F
:10026000030102040810204080010204081020014C
:10027000020408102000000007000201000003042F
:1002800006000000000000000000B3096C121124F9
:100290001FBECFEFD8E0DEBFCDBF11E0A0E0B1E0E0
:1002A000E8EFF1E302C005900D92A837B107D9F746
:1002B00014E0A8E7B1E001C01D92A333B107E1F754
:1002C00012E0CEE8D2E004C02297FE010E94BF18DF
:1002D000CA38D107C9F70E94C2120C94FA180C94BC
:1002E0000000FB01DC0105900D920020E1F708956C
:1002F000FB01DC0102C001900D9241505040D8F743
:100300000895FB01DC018D91019080190110D9F352
:10031000990B0895FB01DC0101900D920020E1F79B
:100320000895AEE0B0E0E7E9F1E00C94D1180D8952
:100330001E8986E08C831A8309838FEF9FE79E8353
:100340008D839E01275E3F4FCE0101966F89788D88
:10035000A9010E94B5012F813885020F131FF801F2
:1003600010822E96E4E00C94ED18ABE0B0E0EBEBDD
:10037000F1E00C94C3183C012B015A01FC011782D7
:100380001682838181FD03C06FEF7FEFC6C19AE0C3
:10039000892E1E010894211C311CF3012381F201D6
:1003A00023FD859123FF81912F01882309F4B2C198
:1003B000853239F423FD859123FF81912F01853208
:1003C00029F490E0B3010E94A803E7CF982FFF24FF
:1003D000EE249924FFE1FF15D0F09B3269F09C32A6
:1003E00028F4903259F0933291F40EC09D3249F0C6
:1003F000903369F441E024C052E0F52A84E0F82A01
:1004000028C098E0F92A25C0E0E1FE2A22C0F7FCC6
:1004100029C0892F80538A3070F4F6FE05C0989C5D
:10042000902C1124980E15C0E89CE02C1124E80EA5
:10043000F0E2FF2A0EC09E3229F4F6FC6BC140E4C4
:10044000F42A07C09C3619F450E8F52A02C0983601
:1004500049F4F20123FD959123FF91912F019923F6
:1004600009F0B8CF892F8554833018F0805283303B
:1004700038F444E050E0A40EB51E5FE359830FC08A
:10048000933631F0933779F0933509F056C020C098
:10049000F5018081898342E050E0A40EB51E610120
:1004A00001E010E012C0F501C080D180F6FC03C06D
:1004B0006FEF7FEF02C0692D70E042E050E0A40EC4
:1004C000B51EC6010E949D038C015FE7F52214C092
:1004D000F501C080D180F6FC03C06FEF7FEF02C052
:1004E000692D70E042E050E0A40EB51EC6010E94E6
:1004F00092038C0150E8F52AF3FE07C01AC080E28F
:1005000090E0B3010E94A803EA948E2D90E00817B2
:100510001907A8F30EC0F601F7FC8591F7FE81914B
:100520006F0190E0B3010E94A803E110EA9401502A
:1005300010400115110579F7EAC0943611F099368B
:1005400069F5F7FE08C0F5012081318142815381B0
:1005500084E090E00AC0F501808191819C014427EC
:1005600037FD4095542F82E090E0A80EB91E9FE61B
:10057000F92257FF09C050954095309521953F4F7E
:100580004F4F5F4FE0E8FE2ACA01B901A1012AE0FE
:1005900030E00E94D403D82ED21840C0953729F4F9
:1005A0001F2D1F7E2AE030E01DC01F2D197F9F36B2
:1005B00061F0903720F4983509F0ACC00FC0903747
:1005C00039F0983709F0A6C004C028E030E00AC02E
:1005D000106114FD146020E130E004C014FD1660C9
:1005E00020E132E017FF08C0F5016081718182814E
:1005F000938144E050E008C0F50180819181BC0105
:1006000080E090E042E050E0A40EB51EA1010E94FF
:10061000D403D82ED2188FE7F82EF122F6FE0BC0A5
:100620005EEFF522D91438F4F4FE07C0F2FC05C0E1
:100630008FEEF82202C01D2D01C0192DF4FE0DC051
:10064000FE01ED0DF11D8081803319F499EEF92240
:1006500008C01F5FF2FE05C003C08F2D867809F029
:100660001F5F0F2DF3FC14C0F0FE0FC01E1510F01D
:100670009D2C0BC09D2C9E0C911A1E2D06C080E255
:1006800090E0B3010E94A8031F5F1E15C0F304C0D1
:100690001E1510F4E11A01C0EE2404FF0FC080E320
:1006A00090E0B3010E94A80302FF1DC001FD03C03A
:1006B00088E790E00EC088E590E00BC0802F867838
:1006C00091F001FF02C08BE201C080E2F7FC8DE2F5
:1006D00090E0B3010E94A80306C080E390E0B3015C
:1006E0000E94A8039A94D914C0F3DA94F101ED0D95
:1006F000F11D808190E0B3010E94A803DD20A9F7DD
:1007000006C080E290E0B3010E94A803EA94EE20C4
:10071000C1F743CEF30166817781CB012B96E2E1ED
:100720000C94DF18FC010590615070400110D8F75F
:10073000809590958E0F9F1F0895FC016150704029
:1007400001900110D8F7809590958E0F9F1F089506
:100750000F931F93CF93DF938C01EB018B8181FF6C
:100760001BC082FF0DC02E813F818C819D81281787
:10077000390764F4E881F9810193F983E88306C0BD
:10078000E885F985802F0995892B31F48E819F8129
:1007900001969F838E8302C00FEF1FEFC801DF9188
:1007A000CF911F910F910895FA01AA27283051F196
:1007B000203181F1E8946F936E7F6E5F7F4F8F4F92
:1007C0009F4FAF4FB1E03ED0B4E03CD0670F781FF1
:1007D000891F9A1FA11D680F791F8A1F911DA11DD6
:1007E0006A0F711D811D911DA11D20D009F468940F
:1007F0003F912AE0269F11243019305D3193DEF6B7
:10080000CF010895462F4770405D4193B3E00FD06C
:10081000C9F7F6CF462F4F70405D4A3318F0495D57
:1008200031FD4052419302D0A9F7EACFB4E0A6953A
:100830009795879577956795BA95C9F7009761055C
:10084000710508959B01AC010A2E069457954795B2
:1008500037952795BA95C9F7620F731F841F951FA7
:10086000A01D08950F931F939B01FC010481158126
:1008700040E050E0CA01B9010E942517AB01BC015C
:10088000C8010E9442090E94F916CB011F910F91E5
:100890000895FC018181893419F08F3421F402C05C
:1008A00060E001C061E080810E941E100895FC019B
:1008B00060834183138212820E94490408958F92BB
:1008C0009F92AF92BF92CF92DF92EF92FF920F93DF
:1008D0001F935C017A018B0169018DE290E00E9417
:1008E000D112982E892EB801A70196010E940B09FA
:1008F000F5019482858281E01F910F91FF90EF9026
:10090000DF90CF90BF90AF909F908F9008950F93FE
:100910001F938C01FC0180810E94FC0FF8018283EF
:1009200093831F910F910895CF93DF93EC010E9461
:100930008704BC01CE010E9432049F838E83892BE1
:1009400019F081E0888701C018869E012A5F3F4F19
:10095000C901DF91CF9108950F931F93182F092F8D
:1009600049E40E945704812F902F40E050E060E856
:100970007FE32DE331E00E945F041F910F91089502
:10098000FC01868D978D08950F931F938C01BC01F8
:100990006C5F7F4F0E94BE08C80162E30E94D208CC
:1009A000FC01D8015F969C938E935E978489811198
:1009B00081E01F910F9108950E94B9080895FC01EC
:1009C000CB0125E531E031832083758F648F178E4D
:1009D000168E40E052EC61E070E00E943B110895F9
:1009E000CF93DF93DB01EC01ED85FE858081918162
:1009F0004D91EC012A813B81CF01BD0150E0F9010D
:100A00000995DF91CF9108951F93CF93DF93EC0168
:100A10001AE01CC0ED85FE85A081B18114962D9150
:100A20003C911597CF01F9010995892B79F0ED8556
:100A3000FE85A081B18116962D913C911797CF012B
:100A4000F9010995803411F481E003C0115010F7C9
:100A500080E0DF91CF911F9108950F931F938C0138
:100A6000FC01A585B685ED91FC9111970190F0816F
:100A7000E02DCD010995C8010E9404051F910F9139
:100A8000089564E40E942D05089563E40E942D05F5
:100A900008950F931F93CF93DF93EC016B8B0E940C
:100AA0000405882339F100E01AE01CC0ED85FE85BD
:100AB000A081B18114962D913C911597CF01F90138
:100AC0000995892B79F0AD85BE85ED91FC91119743
:100AD0000680F781E02DCD010995FE01E00FF11DA3
:100AE000848B0F5F115010F78C89833219F481E0E9
:100AF0008B8F01C01B8E9E012D5E3F4FC901DF9180
:100B0000CF911F910F910895CF93DF93EC018FB791
:100B1000F894E989FA89E657FE4F208131818FBF29
:100B2000BE016D5E7F4F232B29F089899A890E942F
:100B30004F0801C0CB01BC01E881F9810084F18537
:100B4000E02DCE010995DF91CF910895FC01848DB0
:100B5000958D019729F4868D978D0E94CF07089572
:100B6000CF010E94840508950F931F938C0162E5C5
:100B70000E942D05F80180A191A10E94190F1F91DB
:100B80000F910895AF92BF92CF92DF92EF92FF92B2
:100B90000F931F936C01CB015A014DE551E0F60113
:100BA0005183408376876587B382A282328B218B03
:100BB000178F068FF1A2E0A240E052EC61E070E0F6
:100BC0000E943B11F601A585B685ED91FC91119728
:100BD0000284F385E02DCD010995F601B58EA48E32
:100BE0001F910F91FF90EF90DF90CF90BF90AF904B
:100BF00008950F931F93FC01518340837383628395
:100C000035832483F80109951F910F910895CF939F
:100C1000DF93EC01EC81FD81A081B18112962D91D1
:100C20003C911397CF01F9010995882369F08C81D4
:100C30009D810E94C00460E071E00E9481019C01DE
:100C400080E0232B09F481E0DF91CF9108950F9389
:100C50001F93DF93CF93CDB7DEB76E970FB6F8949F
:100C6000DEBF0FBECDBFFC018E010F5F1F4F8EE1B7
:100C7000D8011D928A95E9F70190F081E02DE60FE9
:100C8000F11D65917491C8010E947101C8016E96B1
:100C90000FB6F894DEBF0FBECDBFCF91DF911F918D
:100CA0000F910895EF92FF920F931F93DF93CF93CD
:100CB000CDB7DEB727970FB6F894DEBF0FBECDBF16
:100CC0008C0166E10E942706BC017E010894E11CAC
:100CD000F11CC7010E94ED13F801A481B581ED91CB
:100CE000FC91119769817A810190F081E02DCD010D
:100CF0004D810995F801A481B581ED91FC91119781
:100D00000280F381E02DCD010995C8010E940706FC
:100D1000182FC7010E940714812F27960FB6F89449
:100D2000DEBF0FBECDBFCF91DF911F910F91FF901E
:100D3000EF900895DF92EF92FF920F931F93DF934E
:100D4000CF93CDB7DEB727970FB6F894DEBF0FBEAF
:100D5000CDBF8C01D62E67E10E942706BC017E0123
:100D60000894E11CF11CC7010E94ED13C8016D2D10
:100D70000E942706BC01C7010E94AA13F801A481A2
:100D8000B581ED91FC91119769817A810190F08193
:100D9000E02DCD014D810995F801A481B581ED913A
:100DA000FC9111970280F381E02DCD010995C801D6
:100DB0000E940706182FC7010E940714812F27964B
:100DC0000FB6F894DEBF0FBECDBFCF91DF911F915C
:100DD0000F91FF90EF90DF900895AF92BF92CF9266
:100DE000DF92EF92FF920F931F93DF93CF93CDB7D4
:100DF000DEB761970FB6F894DEBF0FBECDBF7C01A2
:100E00005B0165E10E942706BC016E010894C11CCC
:100E1000D11CC6010E94ED13C70162E00E942706A3
:100E200000D000D000D0EDB7FEB731968E01085F3C
:100E30001F4FADB7BEB712961C930E9311979383B5
:100E40008283B582A4820E949101EDB7FEB73696E7
:100E50000FB6F894FEBF0FBEEDBFC601B8010E94E9
:100E6000AA13F701A481B581ED91FC9111976981D5
:100E70007A810190F081E02DCD014D810995F70136
:100E8000A481B581ED91FC9111970280F381E02D51
:100E9000CD010995C7010E940706182FC6010E94BF
:100EA0000714812F61960FB6F894DEBF0FBECDBF39
:100EB000CF91DF911F910F91FF90EF90DF90CF9036
:100EC000BF90AF900895EF92FF920F931F93DF931F
:100ED000CF93CDB7DEB727970FB6F894DEBF0FBE1E
:100EE000CDBF8C0160E00E942706BC017E01089402
:100EF000E11CF11CC7010E94ED13F801A481B5812A
:100F0000ED91FC91119769817A810190F081E02D3A
:100F1000CD014D810995F801A481B581ED91FC9138
:100F200011970280F381E02DCD010995C8010E943F
:100F30000706182FC7010E940714812F27960FB6A6
:100F4000F894DEBF0FBECDBFCF91DF911F910F91FF
:100F5000FF90EF900895CF93DF93EC010E94630719
:100F60006A817B81CE010E94ED06882349F0CE0183
:100F700068E10E949A06882319F0CE010E94520669
:100F8000DF91CF910895FC01558344837183608381
:100F9000308B27870895FC01738362830895FF9245
:100FA0000F931F93CF93DF93EC01EC81FD81A08120
:100FB000B18114962D913C911597CF01F9010995B6
:100FC000892B21F1EC81FD81A081B18116962D91B3
:100FD0003C911797CF01F9010995082F10E085E0A2
:100FE000F82E0AC0801739F4638174810180F28180
:100FF000E02D802F09951F5F1F9DC0011124EA81FC
:10100000FB81E80FF91F80818F3F61F7DF91CF915E
:101010001F910F91FF900895CF93DF93EB012FB7AE
:10102000F894E881F981E657FE4F808191812FBFC6
:101030006A5F7F4F892B29F0888199810E944F0830
:10104000BC01EC81FD81A081B181EB014991BE0120
:1010500012962D913C911397CF0150E0F90109951B
:10106000DF91CF910895FB01833079F0843018F43B
:101070008130A0F005C0863068F0863079F405C074
:10108000878590890E94190F0895878590890E940D
:10109000160F0895878590890E94120F0895BF92B8
:1010A000CF92DF92EF92FF920F931F93CF93DF9334
:1010B000AC01CB010196FC0187E0DF011D928A950E
:1010C000E9F72FB7F894FA01E657FE4F8081918136
:1010D0002FBF079708F442C086E8E82E81E0F82E7B
:1010E000E40EF51EC42EB52EEB0130E0DA01A85750
:1010F000BE4F8F01ED91FC911197D1901196FC9309
:10110000EE93EE15FF0521F4CC921196BC92119747
:101110002FB7F894F80180819181019791838083A2
:101120002FBFD9823F5F2196373021F7FA01E85768
:10113000FE4F808191810196918380838E159F055A
:1011400011F4C082B1822FB7F894FA01E657FE4F2E
:10115000808191810197918380832FBFCB01DF91A3
:10116000CF911F910F91FF90EF90DF90CF90BF90A4
:101170000895FC017683658344830895CF93DF93BC
:10118000FC01A281B3818D919C911197658176813B
:101190004481EC01EA81FB81CD0150E00995DF91AA
:1011A000CF9108950F931F93CF93DF93EC01062FF8
:1011B00010E026C0AA81BB81ED91FC9111970680B9
:1011C000F781E02DCD010995FE01E10FF11D878327
:1011D0008B8D8F5F8B8F1F5FEA81FB81A081B18137
:1011E00014962D913C911597CF01F9010995892B02
:1011F00009F764E670E080E090E00E94650F01501E
:10120000002351F79E01295F3F4FC901DF91CF9124
:101210001F910F910895CF93DF93FC0114A640A76F
:1012200051A762A773A780E090E0A0E0B0E08083C0
:101230009183A283B38384839583A683B7838087B6
:101240009187A287B38784879587A687B787808B86
:10125000918BA28BB38BEF0140E050E0F901E40FDA
:10126000F51F80819181A281B3818C8B9D8BAE8B88
:10127000BF8B4C5F5F4F24964431510579F7DF9166
:10128000CF9108956F927F929F92AF92BF92CF922B
:10129000DF92EF92FF920F931F93CF93DF936C0136
:1012A000DC019C969C90892D90E0FC01EE0FFF1FC5
:1012B000EE0FFF1FEC0DFD1D40835183628373838E
:1012C00056010F2EF0E0EF2EF0E0FF2EF0E00F2F92
:1012D000F0E01F2FF02DC0E0D0E03C01CE01860DE4
:1012E000971D65E070E00E945918FC01EE0FFF1F8A
:1012F000EE0FFF1FEC0DFD1DD50154966D917D91F4
:101300008D919C91579720813181428153810E9418
:10131000D7179B01AC01C801B7010E9424167B01BD
:101320008C012196E4E0F0E0AE0EBF1EC530D10581
:10133000A9F6D60198962D913D914D915C919B9780
:101340000E948C169394F60194A6DF91CF911F9181
:101350000F91FF90EF90DF90CF90BF90AF909F9054
:101360007F906F9008958F929F92AF92BF92CF928D
:10137000DF92EF92FF920F931F9335E0832E33E0BD
:10138000932E29E7C22E21E0D22E9DE0E92E94E093
:10139000F92E88E7A82E81E0B82EC401B601A70176
:1013A00095010E94C30706E113E0C801B7010E943E
:1013B000DF0486E393E061E171E020E030E040EAA1
:1013C00050E40E942F0A84E593E063E071E047EE69
:1013D00051E098010BEA17E00E94F9058AE593E0D5
:1013E000B70141E050E09601840175010E94C205F9
:1013F0001F910F91FF90EF90DF90CF90BF90AF9033
:101400009F908F90089586E393E069E771E00E94D2
:10141000C00C80917801882321F08AE593E00E9436
:10142000A60508950F931F9381E00E94F90F06E32C
:1014300013E0C8010E949A0EC8010E94670D85E062
:1014400093E068E171E00E94CB078AE593E00E9497
:10145000450581E0809378011F910F910895FC016B
:1014600071836083118E108E228F338F448F558F3E
:101470000895AF92BF92CF92DF92EF92FF920F93B7
:101480001F938B01FC01628D738D848D958D23E3F9
:1014900033E343E550E40E9488169801442737FD62
:1014A0004095542F882339F400D000D084EE9CE07E
:1014B000A0E0B0E006C000D000D088E893E1A0E052
:1014C000B0E0EDB7FEB781839283A383B483CA01F2
:1014D000B90120E030E040E050E0E12CE4E0FE2EF5
:1014E000012D112DAA24BB2465010E94FE120F902C
:1014F0000F900F900F90CB011F910F91FF90EF90E5
:10150000DF90CF90BF90AF900895AF92BF92CF92EF
:10151000DF92EF92FF920F931F93FC018B01818D5D
:10152000882309F051C0628D738D848D958D23E3DE
:1015300033E343E550E40E9488169801442737FDC1
:101540004095542F882301F500D000D080E293E02D
:10155000A0E0B0E0EDB7FEB781839283A383B483AC
:10156000CA01B90120E030E040E050E0E12CB4E0F5
:10157000FB2E012D112DA7ECAA2EACEFBA2EAFEF4A
:10158000CA2EAFEFDA2E70C000D000D080E496E013
:10159000A0E0B0E0EDB7FEB781839283A383B4836C
:1015A000CA01B90120E030E040E050E0E12CF4E075
:1015B000FF2E012D112DE0EEAE2EECEFBE2EEFEF43
:1015C000CE2EEFEFDE2E50C0628D738D848D958D03
:1015D00023E333E343E550E40E948816980144274F
:1015E00037FD4095542F882301F500D000D08EECB4
:1015F00090E0A0E0B0E0EDB7FEB781839283A383D3
:10160000B483CA01B90120E030E040E050E0E12CB1
:1016100014E0F12E012D112DB2E3AB2EBFEFBB2E46
:10162000BFEFCB2EBFEFDB2E1FC000D000D083EA70
:1016300091E0A0E0B0E0EDB7FEB781839283A38391
:10164000B483CA01B90120E030E040E050E0E12C71
:10165000A4E0FA2E012D112DFCEFAF2EFEEFBF2ED0
:10166000FFEFCF2EFFEFDF2E0E94FE120F900F90A4
:101670000F900F90CB011F910F91FF90EF90DF9093
:10168000CF90BF90AF9008952F923F924F925F926C
:101690006F927F928F929F92AF92BF92CF92DF9282
:1016A000EF92FF920F931F93DF93CF9300D000D060
:1016B00000D0CDB7DEB79E838D838B015A834983DB
:1016C0003C832B83FC01628D738D848D958D23E388
:1016D00033E343E550E40E948816882319F088E834
:1016E00093E102C084EE9CE01C01442437FC40944A
:1016F000542C00D000D0B801882777FD8095982F12
:10170000612C14E0712E812C912CEDB7FEB7618213
:1017100072828382948220E030E040E050E08201D7
:101720007101AA24BB2465010E94FE12ED81FE8195
:101730007587648729813A81B901882777FD80956B
:10174000982FEDB7FEB7618272828382948220E087
:1017500030E040E050E00E94FE12ED81FE8177878C
:1017600066872B813C81B901882777FD8095982F6A
:10177000EDB7FEB7618272828382948220E030E00E
:1017800040E050E00E94FE12ED81FE81718B608B83
:101790000F900F900F900F9026960FB6F894DEBF23
:1017A0000FBECDBFCF91DF911F910F91FF90EF90B2
:1017B000DF90CF90BF90AF909F908F907F906F9071
:1017C0005F904F903F902F900895FC01862F618F7E
:1017D00061E0682783850E945D100895CF93DF93B1
:1017E000EC016130710541F06230710541F0672B09
:1017F000A9F48A819B8105C08C819D8102C08E8164
:101800009F810E949404FC018281882339F06081C9
:101810007181CE010E94390A9C0102C020E030E0B3
:10182000C901DF91CF910895AF92BF92CF92DF921D
:10183000EF92FF920F931F93CF93DF938C01EE24CF
:10184000FF24CC24DD24AA24BB24C0E0D0E0C801BE
:1018500060E070E00E94EE0BE80EF91EC80161E046
:1018600070E00E94EE0BC80ED91EC80162E070E065
:101870000E94EE0BA80EB91E2196CA30D10539F789
:10188000C7016AE070E00E9459188B01C6016AE046
:1018900070E00E945918EB01C5016AE070E00E94F7
:1018A0005918FB01C80117FF04C088279927801B1E
:1018B000910B64E670E0681B790B161617061CF096
:1018C000BC0164567040CE01D7FF04C08827992719
:1018D0008C1B9D0B24E630E0281B390B12161306D7
:1018E0001CF09C0124563040AF01F7FF04C0442790
:1018F00055274E1B5F0B84E690E0841B950B181652
:1019000019061CF0CA01845690406217730764F4EC
:10191000681779074CF4101611061CF02FEF3FEFF3
:1019200023C021E030E020C02617370764F42817D1
:1019300039074CF41C161D061CF02EEF3FEF14C0A7
:1019400022E030E011C08617970764F482179307EE
:101950004CF41E161F061CF02DEF3FEF05C023E0D0
:1019600030E002C020E030E0C901DF91CF911F914B
:101970000F91FF90EF90DF90CF90BF90AF900895C0
:10198000BF92CF92DF92EF92FF920F931F93DF935C
:10199000CF93CDB7DEB727970FB6F894DEBF0FBE53
:1019A000CDBF8C017B0160E070E00E94EE0BC82E81
:1019B000C80161E070E00E94EE0BD82EC80162E021
:1019C00070E00E94EE0BFE01319697E0DF011D9260
:1019D0009A95E9F7C982DA828B8387010A571E4FED
:1019E000BE2C3F2DAF01D801B70166577E4F88E06E
:1019F000C82ED12CCC0EDD1EED90FC901197FA0173
:101A00008081F70180838D919C91119701961196A9
:101A10009C938E938017910721F4BC9211963C936E
:101A200011972FB7F894FB018081918101969183E2
:101A300080832FBF4F5F5F4F4C155D05E9F62796FA
:101A40000FB6F894DEBF0FBECDBFCF91DF911F91CF
:101A50000F91FF90EF90DF90CF90BF900895CF93BC
:101A6000DF93EC016130710581F062307105B1F0F6
:101A7000672B19F0E0E0F0E01AC0E881F981848179
:101A80000E94FC0FEC85FD8507C0E881F981858106
:101A90000E94FC0FEE85FF85329607C0E881F98130
:101AA00086810E94FC0FE889F989E80FF91FCF01B0
:101AB000DF91CF9108950F931F938C010E942F0DFA
:101AC000BC01C8010E94850A1F910F9108952F92B1
:101AD0003F924F925F926F927F928F929F92AF92BE
:101AE000BF92CF92DF92EF92FF920F931F93DF93FB
:101AF000CF9300D000D0CDB7DEB71C010F2EF0E0A1
:101B0000EF2EF0E0FF2EF0E00F2FF0E01F2FF02D72
:101B100027013801E982FA820B831C83CC24DD245F
:101B200046C0C10160E070E00E945B0DAA2797FDEE
:101B3000A095BA2FBC01CD010E9427179B01AC01D3
:101B4000C801B7010E9424167B018C01C10161E02C
:101B500070E00E945B0DAA2797FDA095BA2FBC01EB
:101B6000CD010E9427179B01AC01C301B2010E9465
:101B700024162B013C01C10162E070E00E945B0D64
:101B8000AA2797FDA095BA2FBC01CD010E94271767
:101B90009B01AC0169817A818B819C810E94241612
:101BA00069837A838B839C830894C11CD11CB60102
:101BB000882777FD8095982F0E94271720E030E432
:101BC0004CE955E40E94881687FDABCFD1015996A8
:101BD0008C918823C9F5C801B70120E030E44CE9B5
:101BE00055E40E948C169B01AC0160E070E081ED31
:101BF00094E40E9423160E94F4164B015C01C30179
:101C0000B20120E030E44CE955E40E948C169B01BF
:101C1000AC0160E070EE80ED94E40E9423160E9417
:101C2000F4166B017C0169817A818B819C8120E0B3
:101C300030E44CE955E40E948C169B01AC0160E055
:101C400070E88AEE94E438C0C801B70120E030E4BF
:101C50004CE955E40E948C169B01AC0160E070E4F5
:101C60008EEC94E40E9423160E94F4164B015C0152
:101C7000C301B20120E030E44CE955E40E948C1627
:101C80009B01AC0160E070E48EEC94E40E942316AA
:101C90000E94F4166B017C0169817A818B819C81A1
:101CA00020E030E44CE955E40E948C169B01AC0125
:101CB00060E070E289E195E40E9423160E94F41628
:101CC0008B019C01C101B401A60198010E94440B43
:101CD000C1010E94140C1816190634F4C1010E94A7
:101CE000140C039739F40FC0C1010E94140C8D5FCE
:101CF0009F4F49F0C10160E070E040E050E020E01B
:101D000030E00E94440B0F900F900F900F90CF91F6
:101D1000DF911F910F91FF90EF90DF90CF90BF90D8
:101D2000AF909F908F907F906F905F904F903F907B
:101D30002F900895EF92FF920F931F938C0189E0EB
:101D400090E00E94D112F82EE92ED801ED91FC917D
:101D500064810E94AC04F801F282E38289E090E0A1
:101D60000E94D112F82EE92ED801ED91FC916581E7
:101D70000E94AC04F801F482E58289E090E00E94C0
:101D8000D112F82EE92ED801ED91FC9166810E94C6
:101D9000AC04F801F682E7820190F081E02D8381A6
:101DA000D8011B968C931B97918119969C93199738
:101DB000908118969C93189792811A969C9361E053
:101DC0000E941E10F801818561E00E941E10D8015A
:101DD00018968C9161E00E941E10F801828561E0E6
:101DE0000E941E10D80118968C9161E00E945D102F
:101DF000F801818560E00E945D10D80158961C9220
:101E0000C80160E070E040E050E020E030E00E9477
:101E1000440BC80161E00E94E50B1F910F91FF90F8
:101E2000EF900895FC0181E080830895FC01108209
:101E30000895E0E0F0E0099508951F920F920FB623
:101E40000F9211242F933F938F939F93AF93BF9340
:101E50008091800390918103A0918203B0918303CC
:101E6000309184030196A11DB11D232F2D5F2D37C5
:101E700020F02D570196A11DB11D2093840380935E
:101E8000800390938103A0938203B0938303809196
:101E90007C0390917D03A0917E03B0917F03019616
:101EA000A11DB11D80937C0390937D03A0937E03BD
:101EB000B0937F03BF91AF919F918F913F912F91ED
:101EC0000F900FBE0F901F9018959B01AC017FB72C
:101ED000F89480917C0390917D03A0917E03B09152
:101EE0007F0366B5A89B05C06F3F19F00196A11D41
:101EF000B11D7FBFBA2FA92F982F8827860F911D5C
:101F0000A11DB11D62E0880F991FAA1FBB1F6A9512
:101F1000D1F7BC012DC0FFB7F89480917C0390915C
:101F20007D03A0917E03B0917F03E6B5A89B05C019
:101F3000EF3F19F00196A11DB11DFFBFBA2FA92FC8
:101F4000982F88278E0F911DA11DB11DE2E0880FEB
:101F5000991FAA1FBB1FEA95D1F7861B970B885EB6
:101F60009340C8F2215030404040504068517C4F6F
:101F7000211531054105510571F60895789484B510
:101F8000826084BD84B5816084BD85B5826085BD75
:101F900085B5816085BDEEE6F0E08081816080835B
:101FA000E1E8F0E01082808182608083808181603E
:101FB0008083E0E8F0E0808181608083E1EBF0E005
:101FC000808184608083E0EBF0E0808181608083A9
:101FD000EAE7F0E080818460808380818260808392
:101FE0008081816080838081806880831092C100BD
:101FF0000895809336010895982F8E3008F09E50F2
:102000009770809136018295880F880F807C892B8C
:1020100080937C0080917A00806480937A00809124
:102020007A0086FDFCCF2091780040917900942FB2
:1020300080E030E0282B392BC9010895CF93DF933E
:10204000482F50E0CA018F599D4FFC013491435BEA
:102050005D4FFA018491882369F190E0880F991F00
:10206000FC01E15DFD4FA591B491FC01E75CFD4FE2
:10207000C591D491662351F42FB7F8948C91932F86
:10208000909589238C93888189230BC0623061F4F9
:102090002FB7F8948C91932F909589238C938881F6
:1020A000832B88832FBF06C09FB7F8948C91832B16
:1020B0008C939FBFDF91CF910895482F50E0CA01C4
:1020C0008B589D4FFC012491CA018F599D4FFC01F3
:1020D0009491435B5D4FFA013491332309F440C07E
:1020E000222351F1233071F0243028F42130A1F063
:1020F000223011F514C02630B1F02730C1F0243061
:10210000D9F404C0809180008F7703C08091800053
:102110008F7D8093800010C084B58F7702C084B516
:102120008F7D84BD09C08091B0008F7703C08091FE
:10213000B0008F7D8093B000E32FF0E0EE0FFF1F23
:10214000E75CFD4FA591B4912FB7F894662321F475
:102150008C919095892302C08C91892B8C932FBFF1
:10216000089508951F920F920FB60F9211242F9386
:102170003F934F938F939F93EF93FF938091C00072
:1021800082FD1DC04091C6002091C5033091C60359
:102190002F5F3F4F2F7330708091C7039091C8031A
:1021A0002817390771F0E091C503F091C603EB578A
:1021B000FC4F40833093C6032093C50302C0809137
:1021C000C600FF91EF919F918F914F913F912F9179
:1021D0000F900FBE0F901F901895E0911904F09189
:1021E0001A04E05CFF4F8191919120813181821B23
:1021F000930B8F739070892B11F00E94B11008958A
:102200001F920F920FB60F9211242F933F938F932B
:102210009F93EF93FF932091090430910A048091DA
:102220000B0490910C042817390731F48091C100F8
:102230008F7D8093C10014C0E0910B04F0910C04D9
:10224000E753FC4F208180910B0490910C04019680
:102250008F73907090930C0480930B042093C600AE
:10226000FF91EF919F918F913F912F910F900FBE12
:102270000F901F901895AF92BF92DF92EF92FF924E
:102280000F931F93CF93DF93EC017A018B01DD2431
:10229000403081EE580780E0680780E0780711F051
:1022A000DD24D39491E0A92EB12CEC89FD89DD20A9
:1022B00069F0C50108A002C0880F991F0A94E2F7CF
:1022C000808360E079E08DE390E005C0108260E8F3
:1022D00074E88EE190E0A80197010E946C182150EB
:1022E000304040405040569547953795279580E1BE
:1022F0002030380720F0DD2011F0DD24D6CFE8892A
:10230000F9893083EA89FB89208319A2EE89FF8944
:10231000408121E030E0C9010C8C02C0880F991F78
:102320000A94E2F7482B4083EE89FF894081C90176
:102330000D8C02C0880F991F0A94E2F7482B408346
:10234000EE89FF894081C9010E8C02C0880F991F58
:102350000A94E2F7482B4083EE89FF8980810F8C35
:1023600002C0220F331F0A94E2F72095282320830E
:10237000DF91CF911F910F91FF90EF90DF90BF9071
:10238000AF900895DC011C96ED91FC911D97E05CE7
:10239000FF4F2191319180819181281B390B2F733F
:1023A0003070C9010895DC011C96ED91FC911D97D8
:1023B000E05CFF4F20813181E054F040DF01AE5BF3
:1023C000BF4F8D919C9111972817390719F42FEF62
:1023D0003FEF07C08D919C91E80FF91F8081282F56
:1023E00030E0C9010895DC011C96ED91FC911D9728
:1023F000E05CFF4F20813181E054F040DF01AE5BB3
:10240000BF4F8D919C9111972817390719F42FEF21
:102410003FEF10C08D919C911197E80FF91F20811B
:102420008D919C91119701968F73907011969C934A
:102430008E9330E0C9010895DC0191968C919197BB
:10244000882339F05496ED91FC915597808186FF51
:10245000F9CF91961C920895CF93DF93EC01EE850E
:10246000FF85E05CFF4F20813181E054F0402F5F19
:102470003F4F2F733070DF01AE5BBF4F8D919C914A
:10248000119728173907D1F3E05CFF4F80819181C4
:10249000E054F040E80FF91F6083EE85FF85E05CB3
:1024A000FF4F31832083EE89FF89208181E090E016
:1024B0000F8C02C0880F991F0A94E2F7282B208303
:1024C00081E089A3EC89FD8980818064808381E03B
:1024D00090E0DF91CF9108951092100410920F04B4
:1024E00088EE93E0A0E0B0E0809311049093120492
:1024F000A0931304B09314048BE691E090930E0420
:1025000080930D0485E893E090931A048093190456
:1025100089EC93E090931C0480931B0485EC90E07D
:1025200090931E0480931D0484EC90E0909320040B
:1025300080931F0480EC90E0909322048093210408
:1025400081EC90E0909324048093230482EC90E04B
:10255000909326048093250486EC90E090932804C1
:102560008093270484E08093290483E080932A04E5
:1025700087E080932B0485E080932C0481E0809396
:102580002D040895CF93DF930E94BE0F0E94120A7C
:10259000CDEED0E10E94030A2097E1F30E94ED10F6
:1025A000F9CF0E940D140895CF92DF92EF92FF921F
:1025B0000F931F93CF93DF937C016B018A01C0E0DF
:1025C000D0E00FC0D6016D916D01D701ED91FC9166
:1025D0000190F081E02DC7010995C80FD91F015066
:1025E00010400115110571F7CE01DF91CF911F91B8
:1025F0000F91FF90EF90DF90CF9008952F923F9230
:102600004F925F926F927F928F929F92AF92BF9202
:10261000CF92DF92EF92FF920F931F93DF93CF93AE
:10262000CDB7DEB73B014C0119012A016D897E89C6
:102630008F89988D6A197B098C099D09621A730A22
:10264000840A950AA40193010E943A18E218F3083B
:1026500004091509A80197010E948E182A0D3B1D37
:102660004C1D5D1DB901CA01CF91DF911F910F91E2
:10267000FF90EF90DF90CF90BF90AF909F908F90A2
:102680007F906F905F904F903F902F9008950F93A1
:102690001F93CF93DF93EC018B016F5F7F4F888196
:1026A00099810E944215009711F480E005C099833A
:1026B00088831B830A8381E0DF91CF911F910F9163
:1026C0000895CF93DF93EC0188819981892B29F0BC
:1026D0008A819B818617970760F4CE010E94471379
:1026E000882341F08C819D81892B19F4E881F9813F
:1026F000108281E0DF91CF910895EF92FF920F93C6
:102700001F93CF93DF93EC017B016C817D81E114FA
:10271000F104C1F04115510599F08A01060F171F08
:10272000B8010E946113882369F0888199812C8106
:102730003D81820F931FB7010E948A011D830C8384
:1027400081E001C080E0DF91CF911F910F91FF9058
:10275000EF9008956115710511F480E00895DB0193
:102760000D900020E9F71197A61BB70BAD010E9451
:102770007D130895CF93DF93EC01888199810097B1
:1027800011F00E94AA14198218821D821C821B82D9
:102790001A82DF91CF910895EF92FF920F931F93CA
:1027A000CF93DF93EC017B018A01BA010E94611390
:1027B000882321F4CE010E94BA1307C01D830C8325
:1027C00088819981B7010E948A01CE01DF91CF9162
:1027D0001F910F91FF90EF900895CF93DF93EC013D
:1027E000198218821B821A821D821C821E82611528
:1027F000710551F0DB010D900020E9F71197A61B40
:10280000B70BAD010E94CC13DF91CF910895FC016D
:10281000808191810E94AA1408950F931F93CF93F2
:10282000DF93BC018230910510F462E070E0E0912A
:102830003104F091320440E050E0A0E0B0E024C068
:102840008081918186179707D0F08617970771F4DA
:1028500082819381109729F013969C938E931297FF
:102860002CC0909332048093310427C04115510548
:1028700019F08417950718F48D01AC01EF01DF0101
:10288000828193819C01F9013097D1F64115510560
:10289000F9F0CA01861B970B8430910580F48A8178
:1028A0009B810115110521F0F8019383828304C0F7
:1028B0009093320480933104FE01329645C0FE01AC
:1028C000E80FF91F619371930297998388833CC045
:1028D00080912F0490913004892B41F4809139012B
:1028E00090913A019093300480932F0440913B01E2
:1028F00050913C014115510541F44DB75EB78091AF
:10290000370190913801481B590B20912F043091C9
:10291000300424173507B0F4CA01821B930B8617C5
:10292000970780F0AB014E5F5F4F8417950750F01B
:10293000420F531F5093300440932F04F9016193C9
:10294000719302C0E0E0F0E0CF01DF91CF911F91E1
:102950000F910895CF93DF939C01009709F48FC0E6
:10296000EC0122971B821A8260913104709132042B
:102970006115710581F488819981820F931F2091DF
:102980002F04309130042817390739F5D0933004DB
:10299000C0932F0474C0DB0140E050E0AC17BD07CA
:1029A00008F1BB83AA83FE0121913191E20FF31F4D
:1029B000AE17BF0779F48D919C911197280F391F9D
:1029C0002E5F3F4F3983288312968D919C911397E8
:1029D0009B838A834115510571F4D0933204C093CF
:1029E00031044DC012968D919C911397AD010097C3
:1029F00011F0DC01D3CFDA011396DC93CE9312975A
:102A0000FA0121913191E20FF31FCE17DF0769F42C
:102A100088819981280F391F2E5F3F4FFA0131833A
:102A200020838A819B8193838283E0E0F0E0DB0155
:102A300012968D919C911397009719F0BC01FD019E
:102A4000F6CFAB014E5F5F4FDB018D919C91840F00
:102A5000951F20912F04309130042817390779F4FD
:102A6000309729F4109232041092310402C013827C
:102A70001282425050405093300440932F04DF9113
:102A8000CF9108956F927F928F929F92AF92BF9253
:102A9000CF92DF92EF92FF920F931F93CF93DF932A
:102AA0008C01009729F4CB010E940D148C01BBC04E
:102AB0008EEFE82E8FEFF82EE00EF11E4801860E05
:102AC000971E8E149F0408F4ACC0D7014D915C9101
:102AD000119746175707B8F04530510508F4A3C0C1
:102AE000CA0104978617970708F49DC042505040CA
:102AF000461B570BF401419351936D937C93CF0187
:102B00000E94AA1490C05B01A41AB50A3801640E91
:102B1000751EA0913104B0913204E0E0F0E0CC24C5
:102B2000DD2447C0A615B705A9F5CD91DC91119715
:102B3000CE0102968A159B0568F1CE018A199B0980
:102B4000029612962C91129713963C91059758F085
:102B5000F40122833383CA19DB09D183C083D701EF
:102B60006D937C9309C04E5F5F4F4C0F5D1FF70163
:102B700051834083C901FC01C114D10431F0D60155
:102B80001396FC93EE9312974EC0F0933204E093A9
:102B9000310449C08D919C911197E817F90708F409
:102BA000FC016D0112968C91129713969C919C01D9
:102BB000D901109709F0B6CF80912F04909130047D
:102BC00086159705E9F4E617F707D0F420913B0145
:102BD00030913C012115310541F42DB73EB780916C
:102BE000370190913801281B390B82169306C8F4DF
:102BF0009092300480922F04F7017183608313C098
:102C0000CB010E940D14EC01009759F0D7014D91B2
:102C10005C91B8010E947801C8010E94AA148E013B
:102C200002C000E010E0C801DF91CF911F910F9129
:102C3000FF90EF90DF90CF90BF90AF909F908F90DC
:102C40007F906F9008955058BB27AA270ED075C16A
:102C500066D130F06BD120F031F49F3F11F41EF4B7
:102C60005BC10EF4E095E7FB51C1E92F77D180F30A
:102C7000BA17620773078407950718F071F49EF579
:102C80008FC10EF4E0950B2EBA2FA02D0B01B901C8
:102C900090010C01CA01A0011124FF27591B99F0D2
:102CA000593F50F4503E68F11A16F040A22F232FDE
:102CB000342F4427585FF3CF469537952795A7952E
:102CC000F0405395C9F77EF41F16BA0B620B730BD5
:102CD000840BBAF09150A1F0FF0FBB1F661F771F46
:102CE000881FC2F70EC0BA0F621F731F841F48F4FB
:102CF000879577956795B795F7959E3F08F0B3CF81
:102D00009395880F08F09927EE0F9795879508956A
:102D1000D9D008F481E008950CD00FC107D140F05C
:102D2000FED030F021F45F3F19F0F0C0511139C1ED
:102D3000F3C014D198F39923C9F35523B1F3951B2C
:102D4000550BBB27AA2762177307840738F09F5FCC
:102D50005F4F220F331F441FAA1FA9F333D00E2E3B
:102D60003AF0E0E830D091505040E695001CCAF7A8
:102D700029D0FE2F27D0660F771F881FBB1F26176D
:102D800037074807AB07B0E809F0BB0B802DBF0140
:102D9000FF2793585F4F2AF09E3F510568F0B6C059
:102DA00000C15F3FECF3983EDCF38695779567951D
:102DB000B795F7959F5FC9F7880F911D96958795F1
:102DC00097F90895E1E0660F771F881FBB1F621710
:102DD00073078407BA0720F0621B730B840BBA0BCE
:102DE000EE1F88F7E095089504D06894B111D9C01A
:102DF0000895BCD088F09F5790F0B92F9927B7510C
:102E0000A0F0D1F0660F771F881F991F1AF0BA95AE
:102E1000C9F712C0B13081F0C3D0B1E00895C0C08D
:102E2000672F782F8827B85F39F0B93FCCF38695A4
:102E300077956795B395D9F73EF490958095709501
:102E400061957F4F8F4F9F4F0895E89409C097FB7E
:102E50003EF490958095709561957F4F8F4F9F4F71
:102E60009923A9F0F92F96E9BB279395F6958795B5
:102E700077956795B795F111F8CFFAF4BB0F11F478
:102E800060FF1BC06F5F7F4F8F4F9F4F16C088231F
:102E900011F096E911C0772321F09EE8872F762F55
:102EA00005C0662371F096E8862F70E060E02AF096
:102EB0009A95660F771F881FDAF7880F9695879582
:102EC00097F90895990F0008550FAA0BE0E8FEEF57
:102ED00016161706E807F907C0F012161306E407DE
:102EE000F50798F0621B730B840B950B39F40A26D7
:102EF00061F0232B242B252B21F408950A2609F4B5
:102F0000A140A6958FEF811D811D089597F99F67B8
:102F100080E870E060E008959FEF80EC0895002461
:102F20000A941616170618060906089500240A942E
:102F300012161306140605060895092E0394000CB4
:102F400011F4882352F0BB0F40F4BF2B11F460FF43
:102F500004C06F5F7F4F8F4F9F4F089557FD90586C
:102F6000440F551F59F05F3F71F04795880F97FB4D
:102F7000991F61F09F3F79F0879508951216130607
:102F80001406551FF2CF4695F1DF08C01616170636
:102F90001806991FF1CF869571056105089408956B
:102FA000E894BB2766277727CB0197F908950BD0C4
:102FB000C4CFB5DF28F0BADF18F0952309F0A6CF0B
:102FC000ABCF1124EECFCADFA0F3959FD1F3950FBD
:102FD00050E0551F629FF001729FBB27F00DB11D9D
:102FE000639FAA27F00DB11DAA1F649F6627B00D2D
:102FF000A11D661F829F2227B00DA11D621F739F16
:10300000B00DA11D621F839FA00D611D221F749F23
:103010003327A00D611D231F849F600D211D822F6A
:10302000762F6A2F11249F5750408AF0E1F08823B1
:103030004AF0EE0FFF1FBB1F661F771F881F9150BE
:103040005040A9F79E3F510570F060CFAACF5F3F77
:10305000ECF3983EDCF3869577956795B795F795F1
:10306000E7959F5FC1F7FE2B880F911D9695879579
:1030700097F90895629FD001739FF001829FE00D40
:10308000F11D649FE00DF11D929FF00D839FF00DE7
:10309000749FF00D659FF00D9927729FB00DE11D93
:1030A000F91F639FB00DE11DF91FBD01CF01112470
:1030B000089597FB092E07260AD077FD04D049D042
:1030C00006D000201AF4709561957F4F0895F6F7A9
:1030D000909581959F4F0895A1E21A2EAA1BBB1BC4
:1030E000FD010DC0AA1FBB1FEE1FFF1FA217B307D4
:1030F000E407F50720F0A21BB30BE40BF50B661FEA
:10310000771F881F991F1A9469F7609570958095AD
:1031100090959B01AC01BD01CF01089597FB092E4D
:1031200005260ED057FD04D0D7DF0AD0001C38F496
:1031300050954095309521953F4F4F4F5F4F0895E3
:10314000F6F790958095709561957F4F8F4F9F4FC3
:103150000895AA1BBB1B51E107C0AA1FBB1FA617DE
:10316000B70710F0A61BB70B881F991F5A95A9F730
:1031700080959095BC01CD010895EE0FFF1F05903D
:10318000F491E02D09942F923F924F925F926F92AB
:103190007F928F929F92AF92BF92CF92DF92EF92E7
:1031A000FF920F931F93CF93DF93CDB7DEB7CA1B68
:1031B000DB0B0FB6F894DEBF0FBECDBF09942A8893
:1031C000398848885F846E847D848C849B84AA843B
:1031D000B984C884DF80EE80FD800C811B81AA81C8
:1031E000B981CE0FD11D0FB6F894DEBF0FBECDBF93
:0831F000ED010895F894FFCFF2
:1031F8004F4B00414343454C45524F4D4554455272
:1032080000030405060001025233080503023308CF
:1032180005030333080503043308050305330805CC
:1032280003100C080503018000330400003108ACCA
:103238003CA69BC43D0681153EA69BC43D3108AC07
:103248003C00000000DC04C4040000000045054107
:1032580005B4054905F004000000002C12D412C280
:0832680011F311D3111C120037
:00000001FF
