:100000000C9463000C948B000C948B000C948B006C
:100010000C948B000C948B000C948B000C948B0034
:100020000C948B000C948B000C948B000C948B0024
:100030000C948B000C948B000C948B000C948B0014
:100040000C94E3020C948B000C945D040C94AB04B0
:100050000C948B000C948B000C948B000C948B00F4
:100060000C948B000C948B000000000024002700EF
:100070002A0000000000250028002B0000000000DE
:1000800023002600290004040404040404040202DA
:100090000202020203030303030301020408102007
:1000A0004080010204081020010204081020000012
:1000B0000007000201000003040600000000000029
:1000C00000007E02170611241FBECFEFD8E0DEBF6E
:1000D000CDBF11E0A0E0B1E0E0EAFDE002C0059094
:1000E0000D92AC31B107D9F713E0ACE1B1E001C03A
:1000F0001D92A93CB107E1F710E0C6ECD0E004C0C6
:100100002297FE010E94CA06C23CD107C9F70E948D
:100110006D060C94CE060C940000FC017183608384
:1001200050A747A308958AE060E00E94080408955C
:100130008AE061E00E940804089588E08EBD0DB455
:1001400007FEFDCF8EB588E061E00E9408040895A7
:100150001F93142F60646EBD0DB407FEFDCF8EB5E6
:1001600085E090E00E9484031EBC0DB407FEFDCF25
:100170008EB585E090E00E9484031EBD0DB407FE9D
:10018000FDCF8EB581E090E00E9484031F91089519
:100190001F9360626EBD0DB407FEFDCF8EB51EBC11
:1001A0000DB407FEFDCF8EB585E090E00E9484037C
:1001B0001EBC0DB407FEFDCF1EB581E090E00E948D
:1001C0008403812F1F910895FF920F931F93CF9364
:1001D000DF93EC018CA1882399F589A1882381F113
:1001E0001BA21AA2FF24F39428C081E090E00E9491
:1001F00084030F2D10E0B8016C5F7F4FCE010E9489
:10020000C80020E030E08770813011F021E030E05C
:10021000002E02C0220F331F0A94E2F78BA1822B1B
:100220008BA390E002C0959587950A95E2F780FF31
:1002300003C08AA18F5F8AA3F39489A18F15A8F6C2
:10024000DF91CF911F910F91FF9008950F931F930E
:10025000CF93DF938C010E94930061E070E080E017
:1002600090E00E942B0386E08EBD0DB407FEFDCF0B
:100270008EB58AE090E00E94840381E18EBD0DB4CA
:1002800007FEFDCF8EB56AE070E080E090E00E944E
:100290002B03C80161E070E045EE0E94A800C80190
:1002A00061E070E00E94C800C80164E170E040E0D5
:1002B0000E94A800C80164E170E00E94C800C80163
:1002C00063E070E040EC0E94A800C80163E070E0C9
:1002D0000E94C800C80160E070E00E94C800F801F8
:1002E00080A390E08F7190708131910591F08231FF
:1002F00091051CF4409789F406C08231910559F0AC
:100300004E9759F408C084E0F80181A3C5E0D0E01D
:1003100007C086E0F9CF88E0F7CFF80111A2F6CF49
:10032000C801BE0140E60E94A8002196CD30D1054B
:10033000B9F7C8010E94E400C8010E949D0080E155
:100340008EBD0DB407FEFDCF8EB50E949800DF91E3
:10035000CF911F910F9108958AE061E00E94C90337
:1003600086E061E00E94C90389E061E00E94C90360
:1003700088E061E00E94C90382E060E00E94C90356
:1003800082E061E00E9408040E94980061E070E051
:1003900080E090E00E942B030895EF92FF920F936C
:1003A0001F938C017B010E94AC010E94BD02D80109
:1003B0009796ED91FC91989781810E94C402D80193
:1003C0009796ED91FC91989782810E94D202D80174
:1003D0009796ED91FC91989780810E94CD02C8017B
:1003E000F70109951F910F91FF90EF9008950F93DA
:1003F0001F938C01BC016C5F7F4F0E943002C801CB
:1004000062E30E944402FC01D8015F969C938E93A4
:100410005E978489811181E01F910F9108950E9458
:100420002B020895FC01CB0128E031E031832083C9
:10043000758F648F178E168E40E052EC61E070E08D
:100440000E94E6040895FC01558344837183608310
:1004500033A322A30895FC01768365834483089522
:10046000CF93DF93FC01A281B3818D919C91119771
:10047000658176814481EC01EA81FB81CD0150E008
:100480000995DF91CF9108950F931F93CF93DF9339
:10049000EC01062F10E026C0AA81BB81ED91FC91F2
:1004A00011970680F781E02DCD010995FE01E10F3E
:1004B000F11D87838B8D8F5F8B8F1F5FEA81FB819F
:1004C000A081B18114962D913C911597CF01F9012E
:1004D0000995892B09F764E670E080E090E00E94BE
:1004E0002B030150002351F79E01295F3F4FC901A3
:1004F000DF91CF911F910F9108950895EF92FF9290
:100500000F931F938DE1E82E81E0F82E07EA13E0A8
:1005100089EA92E0B701A8012CE131E00E942302B0
:100520008DEC92E0B8010E9412028DEE92E0B701CC
:1005300040E051E00E948D001F910F91FF90EF90DD
:1005400008952FB7F8948DE191E09093A4028093E1
:10055000A3029093A6028093A5022FBF87EA93E09F
:1005600040E052EC61E070E00E94E6048DEE92E023
:1005700066E271E00E94CD0108958CB580618CBD6A
:100580008CB580648CBD0895882319F48CB5806285
:1005900002C08CB58F7D8CBD08959CB5937F982B40
:1005A0009CBD08952CB5382F33702C7F322B3CBD69
:1005B0002DB590E0959587959595879581702E7FBF
:1005C000822B8DBD08951F920F920FB60F921124AA
:1005D0002F933F938F939F93AF93BF9380911A0371
:1005E00090911B03A0911C03B0911D0330911E0339
:1005F0000196A11DB11D232F2D5F2D3720F02D5702
:100600000196A11DB11D20931E0380931A039093A0
:100610001B03A0931C03B0931D03809116039091BC
:100620001703A0911803B09119030196A11DB11DE4
:100630008093160390931703A0931803B0931903A4
:10064000BF91AF919F918F913F912F910F900FBECE
:100650000F901F9018959B01AC017FB7F894809183
:10066000160390911703A0911803B091190366B572
:10067000A89B05C06F3F19F00196A11DB11D7FBF5A
:10068000BA2FA92F982F8827860F911DA11DB11D64
:1006900062E0880F991FAA1FBB1F6A95D1F7BC01A2
:1006A0002DC0FFB7F8948091160390911703A09185
:1006B0001803B0911903E6B5A89B05C0EF3F19F0E8
:1006C0000196A11DB11DFFBFBA2FA92F982F882712
:1006D0008E0F911DA11DB11DE2E0880F991FAA1F69
:1006E000BB1FEA95D1F7861B970B885E9340C8F233
:1006F000215030404040504068517C4F2115310519
:100700004105510571F60895019739F0880F991F39
:10071000880F991F02970197F1F70895789484B58F
:10072000826084BD84B5816084BD85B5826085BDED
:1007300085B5816085BDEEE6F0E0808181608083D3
:10074000E1E8F0E0108280818260808380818160B6
:100750008083E0E8F0E0808181608083E1EBF0E07D
:10076000808184608083E0EBF0E080818160808321
:10077000EAE7F0E08081846080838081826080830A
:100780008081816080838081806880831092C10035
:100790000895CF93DF93482F50E0CA0186569F4FAC
:1007A000FC0134914A575F4FFA018491882369F123
:1007B00090E0880F991FFC01E859FF4FA591B49173
:1007C000FC01EE58FF4FC591D491662351F42FB729
:1007D000F8948C91932F909589238C938881892309
:1007E0000BC0623061F42FB7F8948C91932F9095E1
:1007F00089238C938881832B88832FBF06C09FB762
:10080000F8948C91832B8C939FBFDF91CF910895A7
:10081000482F50E0CA0182559F4FFC012491CA0124
:1008200086569F4FFC0194914A575F4FFA013491CD
:10083000332309F440C0222351F1233071F02430D6
:1008400028F42130A1F0223011F514C02630B1F087
:100850002730C1F02430D9F404C0809180008F7714
:1008600003C0809180008F7D8093800010C084B58C
:100870008F7702C084B58F7D84BD09C08091B000A0
:100880008F7703C08091B0008F7D8093B000E32FFD
:10089000F0E0EE0FFF1FEE58FF4FA591B4912FB778
:1008A000F894662321F48C919095892302C08C9151
:1008B000892B8C932FBF089508951F920F920FB626
:1008C0000F9211242F933F934F938F939F93EF9306
:1008D000FF938091C00082FD1DC04091C600209111
:1008E0005F03309160032F5F3F4F2F733070809113
:1008F0006103909162032817390771F0E0915F035B
:10090000F0916003E15EFC4F4083309360032093DD
:100910005F0302C08091C600FF91EF919F918F917C
:100920004F913F912F910F900FBE0F901F901895F0
:10093000E091B303F091B403E05CFF4F819191919A
:1009400020813181821B930B8F739070892B11F062
:100950000E945C0408951F920F920FB60F9211240B
:100960002F933F938F939F93EF93FF932091A30334
:100970003091A4038091A5039091A603281739070D
:1009800031F48091C1008F7D8093C10014C0E0914B
:10099000A503F091A603ED59FC4F20818091A5039A
:1009A0009091A60301968F7390709093A603809305
:1009B000A5032093C600FF91EF919F918F913F91E6
:1009C0002F910F900FBE0F901F901895AF92BF926E
:1009D000DF92EF92FF920F931F93CF93DF93EC017F
:1009E0007A018B01DD24403081EE580780E06807F2
:1009F00080E0780711F0DD24D39491E0A92EB12C8A
:100A0000EC89FD89DD2069F0C50108A002C0880FCE
:100A1000991F0A94E2F7808360E079E08DE390E02B
:100A200005C0108260E874E88EE190E0A8019701AB
:100A30000E94A606215030404040504056954795B0
:100A40003795279580E12030380720F0DD2011F020
:100A5000DD24D6CFE889F9893083EA89FB892083B0
:100A600019A2EE89FF89408121E030E0C9010C8C98
:100A700002C0880F991F0A94E2F7482B4083EE8941
:100A8000FF894081C9010D8C02C0880F991F0A940B
:100A9000E2F7482B4083EE89FF894081C9010E8C23
:100AA00002C0880F991F0A94E2F7482B4083EE8911
:100AB000FF8980810F8C02C0220F331F0A94E2F756
:100AC000209528232083DF91CF911F910F91FF90D4
:100AD000EF90DF90BF90AF900895DC011C96ED91F0
:100AE000FC911D97E05CFF4F2191319180819181B4
:100AF000281B390B2F733070C9010895DC011C9637
:100B0000ED91FC911D97E05CFF4F20813181E05415
:100B1000F040DF01AE5BBF4F8D919C91119728177C
:100B2000390719F42FEF3FEF07C08D919C91E80F23
:100B3000F91F8081282F30E0C9010895DC011C963F
:100B4000ED91FC911D97E05CFF4F20813181E054D5
:100B5000F040DF01AE5BBF4F8D919C91119728173C
:100B6000390719F42FEF3FEF10C08D919C91119729
:100B7000E80FF91F20818D919C91119701968F7339
:100B8000907011969C938E9330E0C9010895DC011A
:100B900091968C919197882339F05496ED91FC9120
:100BA0005597808186FFF9CF91961C920895CF9337
:100BB000DF93EC01EE85FF85E05CFF4F2081318102
:100BC000E054F0402F5F3F4F2F733070DF01AE5B7A
:100BD000BF4F8D919C91119728173907D1F3E05C95
:100BE000FF4F80819181E054F040E80FF91F60834E
:100BF000EE85FF85E05CFF4F31832083EE89FF891E
:100C0000208181E090E00F8C02C0880F991F0A9428
:100C1000E2F7282B208381E089A3EC89FD8980817C
:100C20008064808381E090E0DF91CF9108951092FD
:100C3000AA031092A90388EE93E0A0E0B0E08093AD
:100C4000AB039093AC03A093AD03B093AE0380E1EC
:100C500091E09093A8038093A7038FE193E0909392
:100C6000B4038093B30383E693E09093B603809339
:100C7000B50385EC90E09093B8038093B70384ECC0
:100C800090E09093BA038093B90380EC90E0909346
:100C9000BC038093BB0381EC90E09093BE038093F0
:100CA000BD0382EC90E09093C0038093BF0386EC79
:100CB00090E09093C2038093C10384E08093C303C8
:100CC00083E08093C40387E08093C50385E080932D
:100CD000C60381E08093C7030895CF93DF930E94FA
:100CE0008E030E94A102C8E9D4E00E947D022097F1
:100CF000E1F30E949804F9CFCF92DF92EF92FF9236
:100D00000F931F93CF93DF937C016B018A01C0E0A7
:100D1000D0E00FC0D6016D916D01D701ED91FC912E
:100D20000190F081E02DC7010995C80FD91F01502E
:100D300010400115110571F7CE01DF91CF911F9180
:100D40000F91FF90EF90DF90CF900895A1E21A2EBF
:100D5000AA1BBB1BFD010DC0AA1FBB1FEE1FFF1F5F
:100D6000A217B307E407F50720F0A21BB30BE40BAF
:100D7000F50B661F771F881F991F1A9469F76095F6
:100D80007095809590959B01AC01BD01CF010895B0
:100D9000EE0FFF1F0590F491E02D0994F894FFCF1A
:100DA0000401010A000000000F02F701000000002A
:0C0DB000D7057C066D059E057E05C70575
:00000001FF
