:100000000C9464000C948C000C948C000C948C0068
:100010000C948C000C948C000C948C000C948C0030
:100020000C948C000C948C000C948C000C948C0020
:100030000C948C000C948C000C948C000C948C0010
:100040000C94B0060C948C000C948B080C94D9087A
:100050000C948C000C948C000C948C000C948C00F0
:100060000C948C000C948C000000000024002700ED
:100070002A0000000000250028002B0000000000DE
:1000800023002600290004040404040404040202DA
:100090000202020203030303030301020408102007
:1000A0004080010204081020010204081020000012
:1000B0000007000201000003040600000000000029
:1000C000000002048505450A11241FBECFEFD8E0C9
:1000D000DEBFCDBF11E0A0E0B1E0EEE8F8E102C084
:1000E00005900D92A63FB107D9F714E0A6EFB1E055
:1000F00001C01D92AE3DB107E1F710E0C8ECD0E0C1
:1001000004C02297FE010E94410CC23CD107C9F7EE
:100110000E949B0A0C94450C0C940000FC01718316
:10012000608350A747A308958AE060E00E94E30738
:1001300008958AE061E00E94E307089588E08EBD9B
:100140000DB407FEFDCF8EB588E061E00E94E307A5
:1001500008951F93142F60646EBD0DB407FEFDCF8C
:100160008EB585E090E00E945F071EBC0DB407FECF
:10017000FDCF8EB585E090E00E945F071EBD0DB4F7
:1001800007FEFDCF8EB581E090E00E945F071F91D2
:1001900008951F9360626EBD0DB407FEFDCF8EB54E
:1001A0001EBC0DB407FEFDCF8EB584EF93E00E9418
:1001B000AC06809125049091260460E071E00E94D5
:1001C000E80B809125049091260468E071E00E947C
:1001D000EB0B65E070E080E090E00E9406076AE0CB
:1001E00070E080E090E00E94060784EF93E069E011
:1001F0000E94150685E090E00E945F071EBC0DB4CA
:1002000007FEFDCF1EB584EF93E00E94AC068091FF
:100210002504909126046FE071E00E94E80B809124
:1002200025049091260468E071E00E94EB0B65E0E4
:1002300070E080E090E00E9406076AE070E080E0F5
:1002400090E00E94060784EF93E068E00E941506A4
:1002500081E090E00E945F07812F1F910895FF9237
:100260000F931F93CF93DF93EC018CA1882399F513
:1002700089A1882381F11BA21AA2FF24F39428C02C
:1002800081E090E00E945F070F2D10E0B8016C5FE5
:100290007F4FCE010E94C90020E030E0877081309E
:1002A00011F021E030E0002E02C0220F331F0A942B
:1002B000E2F78BA1822B8BA390E002C095958795E6
:1002C0000A95E2F780FF03C08AA18F5F8AA3F394A7
:1002D00089A18F15A8F6DF91CF911F910F91FF9003
:1002E0000895EF92FF921F93CF93DF937C010E94BA
:1002F000940061E070E080E090E00E94060786E0F4
:100300008EBD0DB407FEFDCF8EB58AE090E00E9451
:100310005F0781E18EBD0DB407FEFDCF8EB56AE0AB
:1003200070E080E090E00E940607C70161E070E0A5
:1003300045EE0E94A900C70161E070E00E94C9007B
:10034000182F84EF93E00E94AC06809125049091D1
:10035000260467E171E00E94E80B809125049091EA
:1003600026046FE171E00E94E80B809125049091D2
:100370002604612F4AE050E00E94830B80912504FF
:100380009091260468E071E00E94EB0B65E070E05C
:1003900080E090E00E940607C70164E170E040E061
:1003A0000E94A900C70164E170E00E94C900182FF3
:1003B00084EF93E00E94AC0680912504909126047E
:1003C00061E271E00E94E80B80912504909126047F
:1003D0006FE171E00E94E80B809125049091260462
:1003E000612F4AE050E00E94830B80912504909198
:1003F000260468E071E00E94EB0B65E070E080E0AD
:1004000090E00E940607C70163E070E040EC0E94A4
:10041000A900C70163E070E00E94C900182F84EFB3
:1004200093E00E94AC06809125049091260469E235
:1004300071E00E94E80B80912504909126046FE101
:1004400071E00E94E80B8091250490912604612FB1
:100450004AE050E00E94830B80912504909126048D
:1004600068E071E00E94EB0B65E070E080E090E0F6
:100470000E940607C70160E070E00E94C900182FC3
:10048000F70180A384EF93E00E94AC0680912504DD
:100490009091260461E371E00E94E80B80912504AD
:1004A000909126046FE171E00E94E80B8091250491
:1004B00090912604612F4AE050E00E94830B8091C6
:1004C00025049091260468E071E00E94EB0B65E042
:1004D00070E080E090E00E9406076AE070E080E053
:1004E00090E00E94060784EF93E063E00E94150607
:1004F000F70180A190E08F7190708131910571F0CA
:10050000823191051CF4409779F406C0823191053F
:1005100049F04E9749F406C084E001C086E0F70137
:1005200081A304C088E0FBCFF70111A2F70111A15C
:1005300084EF93E00E94AC068091250490912604FC
:1005400069E371E00E94E80B8091250490912604F4
:100550006FE171E00E94E80B8091250490912604E0
:10056000612F4AE050E00E94830B80912504909116
:10057000260468E071E00E94EB0B65E070E080E02B
:1005800090E00E9406076AE070E080E090E00E9440
:10059000060784EF93E064E00E941506C5E0D0E012
:1005A000C701BE0140E60E94A9002196CD30D105C9
:1005B000B9F7C7010E942F0182E18EBD0DB407FE7D
:1005C000FDCF8EB5C7010E949E000E949900DF9169
:1005D000CF911F91FF90EF9008950F931F938C017F
:1005E000DC019796ED91FC919897838161E00E94E0
:1005F000A407D8019796ED91FC919897838161E0CB
:100600000E94E3078CE060E00E94A4078BE061E0B9
:100610000E94A4078DE061E00E94A40786E061E0EB
:100620000E94A40789E061E00E94A40788E061E0DD
:100630000E94A40782E060E00E94A40704EF13E098
:10064000C8010E94AC06809125049091260461E4C3
:1006500071E00E94E80B809125049091260468E0E7
:1006600071E00E94EB0B65E070E080E090E00E949A
:1006700006076AE070E080E090E00E940607C8018B
:1006800062E00E94150682E061E00E94E3070E949A
:10069000990061E070E080E090E00E9406071F9101
:1006A0000F910895EF92FF920F931F938C017B019E
:1006B0000E94ED020E942D05D8019796ED91FC91C4
:1006C000989781810E943405D8019796ED91FC910D
:1006D000989782810E944205D8019796ED91FC91EE
:1006E000989780810E943D05C801F70109951F91E7
:1006F0000F91FF90EF9008950F931F938C01BC0111
:100700006C5F7F4F0E94B503C80162E30E94C9037A
:10071000FC01D8015F969C938E935E97848981112A
:1007200081E01F910F9108950E94B0030895FC018C
:10073000CB0122EE31E031832083758F648F178ED9
:10074000168E40E052EC61E070E00E9414090895BA
:10075000FC01558344837183608333A322A30895EE
:10076000FC017683658344830895CF93DF93FC0176
:10077000A281B3818D919C9111976581768144818D
:10078000EC01EA81FB81CD0150E00995DF91CF9129
:1007900008950F931F93CF93DF93EC01062F10E082
:1007A00026C0AA81BB81ED91FC9111970680F7814B
:1007B000E02DCD010995FE01E10FF11D87838B8DA1
:1007C0008F5F8B8F1F5FEA81FB81A081B1811496BF
:1007D0002D913C911597CF01F9010995892B09F7C6
:1007E00064E670E080E090E00E940607015000237C
:1007F00051F79E01295F3F4FC901DF91CF911F91B2
:100800000F910895EF92FF920F931F938BEFE82EB5
:1008100081E0F82E08EB14E087E893E0B701A80127
:100820002AEF31E00E94A8038BEA93E0B8010E940E
:1008300097038BEC93E0B7014AED51E00E948E00E4
:100840001F910F91FF90EF9008950E94F80620915C
:10085000F6013091F7014091F8015091F901621BC6
:10086000730B840B950B663971058105910508F4AE
:1008700047C00E94F8066093F6017093F7018093D9
:10088000F8019093F90184EF93E061E00E948806FB
:10089000809125049091260465E571E00E94E80BA3
:1008A00080912504909126046CE571E00E94E80B8C
:1008B00084EF93E00E949605809125049091260490
:1008C0006CE571E00E94E80B80912504909126046C
:1008D0006CE571E00E94E80B84EF93E00E948605CE
:1008E00080912504909126046CE571E00E94E80B4C
:1008F00080912504909126046EE571E00E94EB0B37
:100900000895EF92FF920F931F9394EFE92E93E0D7
:10091000F92EC70168EB74E020E032EC41E050E0D2
:100920000E947F0660ED77E080E090E00E9406077D
:10093000C7010E94AC06809125049091260465E6CB
:1009400071E00E94EB0B6AE070E080E090E00E94B2
:100950000607C70161E041E00E946D06C7010E94E1
:10096000AC06809125049091260465E571E00E9413
:10097000E80B0CE511E08091250490912604B80164
:100980000E94E80B8091250490912604B8010E94F2
:10099000E80B8091250490912604B8010E94E80B91
:1009A000C7010E9486058091250490912604B80114
:1009B0000E94E80B80912504909126046EE571E079
:1009C0000E94EB0B6AE070E080E090E00E94060776
:1009D0002FB7F8948BEF91E090938203809381037B
:1009E00090938403809383032FBF88EB94E040E0CF
:1009F00052EC61E070E00E9414098BEC93E061E737
:100A000071E00E94520304EF13E0C8010E94AC069B
:100A1000809125049091260465E771E00E94E80B1F
:100A200080912504909126046DE771E00E94EB0B04
:100A300065E070E080E090E00E9406076AE070E008
:100A400080E090E00E940607C80161E00E94150660
:100A50001F910F91FF90EF9008958CB580618CBD30
:100A60008CB580648CBD0895882319F48CB58062A0
:100A700002C08CB58F7D8CBD08959CB5937F982B5B
:100A80009CBD08952CB5382F33702C7F322B3CBD84
:100A90002DB590E0959587959595879581702E7FDA
:100AA000822B8DBD0895DF93CF9300D0CDB7DEB7F5
:100AB0002091DA043091DB04CE0101962115310535
:100AC00029F48E5D94409A83898318C0AC01421B3F
:100AD000530BE091DC04F091DD0420E030E008C02D
:100AE000808191810296280F391F0280F381E02DC9
:100AF0003097B1F7240F351F3A83298389819A8172
:100B00000F900F90CF91DF91089508950F931F9349
:100B1000FC0101A912A90E945305BC01C8014AE0C9
:100B200050E00E94D50B1F910F910895CF92DF9254
:100B3000EF92FF920F931F93CF93DF93EC0180E02E
:100B4000EE24FF248701CC24DD240EC081E0E816CA
:100B5000F1040105110539F08E2D0E943708892B0B
:100B600011F081E001C080E090E00D2C02C0880F00
:100B7000991F0A94E2F7C82AD39488E0D81631F076
:100B80008DE0E816F1040105110579F489A99AA907
:100B90006C2D4AE050E00E94830B89A99AA96AEC67
:100BA00071E00E94E80BCC24DD2461E070E080E07D
:100BB00090E00E9406070894E11CF11C011D111D24
:100BC0008EE0E816F1040105110509F0BFCFDF91B1
:100BD000CF911F910F91FF90EF90DF90CF900895EC
:100BE000FF920F931F938C01F62EFC0181A992A90D
:100BF0006CEC71E00E94E80BF80181A992A96F2DBD
:100C00004AE050E00E94830BF80181A992A963EDAC
:100C100071E00E94EB0B62E370E080E090E00E94E4
:100C200006071F910F91FF900895FF920F931F9356
:100C3000CF93DF938C01F62EDC0115968C918823DF
:100C400009F442C0D801D196ED91FC91D297A081D0
:100C5000B18114962D913C911597CF01F901099519
:100C6000892B81F320C0D801D196ED91FC91D297C8
:100C7000A081B18116962D913C911797CF01F90172
:100C80000995EC018336910539F086379105F1F02D
:100C90008835910541F405C0C8016F2D0E94F0050B
:100CA00015C0F8011582D801D196ED91FC91D2972B
:100CB000A081B18114962D913C911597CF01F90136
:100CC0000995181619067CF2C3E6D0E0CE01DF9133
:100CD000CF911F910F91FF9008951F93CF93DF93B2
:100CE000EC01142F662331F081E08D83CE0160E0AA
:100CF0000E9415061D83DF91CF911F910895FC017D
:100D000072AB61ABCB01BA01A9010E94140908952D
:100D1000CF93DF93EC01662339F015C063E070E0F8
:100D200080E090E00E9406070E94F80629813A813F
:100D30004B815C81621B730B840B950B62337105D5
:100D40008105910558F30E94F80669837A838B83A5
:100D50009C83DF91CF91089560E00E9488060895FA
:100D60001F920F920FB60F9211242F933F938F93E0
:100D70009F93AF93BF9380912B0490912C04A091EB
:100D80002D04B0912E0430912F040196A11DB11DA8
:100D9000232F2D5F2D3720F02D570196A11DB11D5A
:100DA00020932F0480932B0490932C04A0932D0464
:100DB000B0932E048091270490912804A0912904D7
:100DC000B0912A040196A11DB11D80932704909330
:100DD0002804A0932904B0932A04BF91AF919F9156
:100DE0008F913F912F910F900FBE0F901F901895EC
:100DF0008FB7F89420912B0430912C0440912D044E
:100E000050912E048FBFB901CA0108959B01AC0116
:100E10007FB7F8948091270490912804A091290429
:100E2000B0912A0466B5A89B05C06F3F19F00196E2
:100E3000A11DB11D7FBFBA2FA92F982F8827860F1C
:100E4000911DA11DB11D62E0880F991FAA1FBB1F34
:100E50006A95D1F7BC012DC0FFB7F89480912704A3
:100E600090912804A0912904B0912A04E6B5A89B8A
:100E700005C0EF3F19F00196A11DB11DFFBFBA2FAC
:100E8000A92F982F88278E0F911DA11DB11DE2E07B
:100E9000880F991FAA1FBB1FEA95D1F7861B970BD6
:100EA000885E9340C8F22150304040405040685125
:100EB0007C4F211531054105510571F608950197C3
:100EC00039F0880F991F880F991F02970197F1F742
:100ED0000895789484B5826084BD84B5816084BDB2
:100EE00085B5826085BD85B5816085BDEEE6F0E0A3
:100EF000808181608083E1E8F0E0108280818260FF
:100F00008083808181608083E0E8F0E0808181607F
:100F10008083E1EBF0E0808184608083E0EBF0E0AF
:100F2000808181608083EAE7F0E080818460808353
:100F300080818260808380818160808380818068FD
:100F400080831092C1000895CF93DF93482F50E023
:100F5000CA0186569F4FFC0134914A575F4FFA01F0
:100F60008491882369F190E0880F991FFC01E8596A
:100F7000FF4FA591B491FC01EE58FF4FC591D4915C
:100F8000662351F42FB7F8948C91932F9095892371
:100F90008C93888189230BC0623061F42FB7F89459
:100FA0008C91932F909589238C938881832B8883B0
:100FB0002FBF06C09FB7F8948C91832B8C939FBF53
:100FC000DF91CF910895482F50E0CA0182559F4F7D
:100FD000FC012491CA0186569F4FFC0194914A5707
:100FE0005F4FFA013491332309F440C0222351F1B9
:100FF000233071F0243028F42130A1F0223011F593
:1010000014C02630B1F02730C1F02430D9F404C028
:10101000809180008F7703C0809180008F7D8093C6
:10102000800010C084B58F7702C084B58F7D84BDE9
:1010300009C08091B0008F7703C08091B0008F7D90
:101040008093B000E32FF0E0EE0FFF1FEE58FF4F4C
:10105000A591B4912FB7F894662321F48C919095C3
:10106000892302C08C91892B8C932FBF0895682F00
:1010700070E0CB0182559F4FFC012491CB01865635
:101080009F4FFC0144916A577F4FFB019491992334
:1010900019F420E030E03CC0222351F1233071F0FC
:1010A000243028F42130A1F0223011F514C026306C
:1010B000B1F02730C1F02430D9F404C08091800011
:1010C0008F7703C0809180008F7D8093800010C057
:1010D00084B58F7702C084B58F7D84BD09C08091AF
:1010E000B0008F7703C08091B0008F7D8093B000F7
:1010F000892F90E0880F991F84589F4FFC01A5917C
:10110000B4918C9120E030E0842311F021E030E0B4
:10111000C901089508951F920F920FB60F921124DE
:101120002F933F934F938F939F93EF93FF938091D0
:10113000C00082FD1DC04091C60020917004309116
:1011400071042F5F3F4F2F73307080917204909124
:1011500073042817390771F0E0917004F09171045D
:10116000E05DFB4F4083309371042093700402C014
:101170008091C600FF91EF919F918F914F913F9188
:101180002F910F900FBE0F901F901895E091C404FF
:10119000F091C504E05CFF4F8191919120813181F4
:1011A000821B930B8F739070892B11F00E948A0819
:1011B00008951F920F920FB60F9211242F933F9311
:1011C0008F939F93EF93FF932091B4043091B504D4
:1011D0008091B6049091B7042817390731F48091B3
:1011E000C1008F7D8093C10014C0E091B604F091DE
:1011F000B704EC58FB4F20818091B6049091B7045E
:1012000001968F7390709093B7048093B6042093E7
:10121000C600FF91EF919F918F913F912F910F9079
:101220000FBE0F901F901895AF92BF92DF92EF9272
:10123000FF920F931F93CF93DF93EC017A018B0101
:10124000DD24403081EE580780E0680780E07807B1
:1012500011F0DD24D39491E0A92EB12CEC89FD8905
:10126000DD2069F0C50108A002C0880F991F0A940B
:10127000E2F7808360E079E08DE390E005C01082C2
:1012800060E874E88EE190E0A80197010E941D0CCF
:10129000215030404040504056954795379527950E
:1012A00080E12030380720F0DD2011F0DD24D6CF9A
:1012B000E889F9893083EA89FB89208319A2EE89BC
:1012C000FF89408121E030E0C9010C8C02C0880F09
:1012D000991F0A94E2F7482B4083EE89FF894081E9
:1012E000C9010D8C02C0880F991F0A94E2F7482BA0
:1012F0004083EE89FF894081C9010E8C02C0880FAE
:10130000991F0A94E2F7482B4083EE89FF89808178
:101310000F8C02C0220F331F0A94E2F72095282376
:101320002083DF91CF911F910F91FF90EF90DF907D
:10133000BF90AF900895DC011C96ED91FC911D9734
:10134000E05CFF4F2191319180819181281B390B05
:101350002F733070C9010895DC011C96ED91FC914A
:101360001D97E05CFF4F20813181E054F040DF01A8
:10137000AE5BBF4F8D919C9111972817390719F4D7
:101380002FEF3FEF07C08D919C91E80FF91F8081EF
:10139000282F30E0C9010895DC011C96ED91FC91E5
:1013A0001D97E05CFF4F20813181E054F040DF0168
:1013B000AE5BBF4F8D919C9111972817390719F497
:1013C0002FEF3FEF10C08D919C911197E80FF91FFF
:1013D00020818D919C91119701968F739070119639
:1013E0009C938E9330E0C9010895DC0191968C9115
:1013F0009197882339F05496ED91FC91559780810F
:1014000086FFF9CF91961C920895CF93DF93EC015C
:10141000EE85FF85E05CFF4F20813181E054F04094
:101420002F5F3F4F2F733070DF01AE5BBF4F8D9149
:101430009C91119728173907D1F3E05CFF4F808109
:101440009181E054F040E80FF91F6083EE85FF853D
:10145000E05CFF4F31832083EE89FF89208181E0AA
:1014600090E00F8C02C0880F991F0A94E2F7282B96
:10147000208381E089A3EC89FD8980818064808359
:1014800081E090E0DF91CF9108951092BB0410921B
:10149000BA0488EE93E0A0E0B0E08093BC0490939F
:1014A000BD04A093BE04B093BF048AEE91E0909374
:1014B000B9048093B80480E394E09093C5048093CA
:1014C000C40484E794E09093C7048093C60485EC39
:1014D00090E09093C9048093C80484EC90E09093CA
:1014E000CB048093CA0480EC90E09093CD04809369
:1014F000CC0481EC90E09093CF048093CE0482ECF6
:1015000090E09093D1048093D00486EC90E0909387
:10151000D3048093D20484E08093D40483E0809346
:10152000D50487E08093D60485E08093D70481E0DA
:101530008093D8040895CF93DF930E9469070E9497
:101540008104C6ECD8E00E9425042097E1F30E94B4
:10155000C608F9CFCF92DF92EF92FF920F931F93BD
:10156000CF93DF937C016B018A01C0E0D0E00FC014
:10157000D6016D916D01D701ED91FC910190F08143
:10158000E02DC7010995C80FD91F01501040011562
:10159000110571F7CE01DF91CF911F910F91FF904F
:1015A000EF90DF90CF900895EF92FF920F931F93EB
:1015B0008C01DC01ED91FC910190F081E02D6DE05A
:1015C00009957C01D801ED91FC910190F081E02D0D
:1015D000C8016AE009959C012E0D3F1DC9011F91AC
:1015E0000F91FF90EF900895CF93DF93EC01611579
:1015F000710519F420E030E00FC0DB010D900020F0
:10160000E9F71197A61BB70BE881F9810280F381F6
:10161000E02DAD0109959C01C901DF91CF9108959D
:101620004F925F927F928F929F92AF92BF92CF9292
:10163000DF92EF92FF920F931F93DF93CF93CDB77B
:10164000DEB7A1970FB6F894DEBF0FBECDBF2C0159
:10165000742ECB01223008F42AE019A231E2C32E05
:10166000D12CCC0EDD1E822E9924AA24BB24672DFA
:10167000752FA50194010E941D0C79018A01C801F2
:10168000B701A50194010E94FE0B472D461B08944B
:10169000C108D1084A3014F4405D01C0495CF6012C
:1016A0004083E114F1040105110521F07E2C5F2D2A
:1016B000C801DDCFC201B6010E94F40AA1960FB69F
:1016C000F894DEBF0FBECDBFCF91DF911F910F9178
:1016D000FF90EF90DF90CF90BF90AF909F908F9052
:1016E0007F905F904F900895DC012115310541F402
:1016F000ED91FC910190F081E02D642F0995089502
:101700000E94100B0895EF92FF920F931F939A017E
:10171000E62EFF2400E010E0B801A7010E94740B40
:101720001F910F91FF90EF900895CF92DF92EF926B
:10173000FF920F931F93CF93DF93EC016A017B011C
:101740002115310541F4E881F9810190F081E02D06
:10175000642F09951FC02A303105D1F477FF17C0D7
:10176000E881F9810190F081E02D6DE209958C010D
:1017700044275527BA014C195D096E097F09CE012E
:101780002AE00E94100B9801280F391F04C02AE09C
:101790000E94100B9C01C901DF91CF911F910F9105
:1017A000FF90EF90DF90CF900895EF92FF920F930C
:1017B0001F937B019A010027F7FC0095102FB801B9
:1017C000A7010E94950B1F910F91FF90EF90089534
:1017D0000E94F40A0895EF92FF920F931F937C01E9
:1017E0000E94F40A8C01C7010E94D40A080F191F35
:1017F000C8011F910F91FF90EF900895629FD00153
:10180000739FF001829FE00DF11D649FE00DF11DBB
:10181000929FF00D839FF00D749FF00D659FF00D6A
:101820009927729FB00DE11DF91F639FB00DE11D57
:10183000F91FBD01CF0111240895A1E21A2EAA1BA0
:10184000BB1BFD010DC0AA1FBB1FEE1FFF1FA21770
:10185000B307E407F50720F0A21BB30BE40BF50B6D
:10186000661F771F881F991F1A9469F760957095F6
:10187000809590959B01AC01BD01CF010895EE0FBD
:0E188000FF1F0590F491E02D0994F894FFCF1E
:10188E00564D4450455F39005F564D445045005605
:10189E004D4450455F3800564D4450455F35007CF1
:1018AE0000564D4450455F3600564D4450455F3707
:1018BE0000564D4450455F3300564D4450455F34FD
:1018CE0000564D4450455F3200496E746572727514
:1018DE007074212100564D4450525F007C005F56BB
:1018EE004D44505200564D4450565F317C315F5638
:1018FE004D44505600564D4450455F31005F564D95
:10190E00445045004572726F723A20417474656D91
:10191E00707420746F207365742061207265616429
:10192E002D6F6E6C79207661726961626C65206FC5
:10193E007220646174612074797065206E6F7420FA
:10194E00737570706F72746564003A00564D445032
:10195E00435F005F564D445043000401010A0000EE
:10196E00000094037C0300000000050AAA0A9B09EC
:06197E00CC09AC09F509DB
:00000001FF
