:100000000C9464000C94A9050C94D6050C948C00F7
:100010000C948C000C948C000C948C000C948C0030
:100020000C948C000C948C000C948C000C948C0020
:100030000C948C000C948C000C948C000C948C0010
:100040000C9403060C948C000C948B070C94D90729
:100050000C948C000C948C000C948C000C948C00F0
:100060000C948C000C948C000000000024002700ED
:100070002A0000000000250028002B0000000000DE
:1000800023002600290004040404040404040202DA
:100090000202020203030303030301020408102007
:1000A0004080010204081020010204081020000012
:1000B0000007000201000003040600000000000029
:1000C0000000C003C504450911241FBECFEFD8E0CE
:1000D000DEBFCDBF11E0A0E0B1E0E8EEF5E102C087
:1000E00005900D92A03CB107D9F715E0A0ECB1E066
:1000F00001C01D92AD3AB107E1F710E0C8ECD0E0C5
:1001000004C02297FE010E94EE0AC23CD107C9F743
:100110000E949B090C94F20A0C9400008AE060E0B3
:100120000E94360708958AE061E00E94360708952C
:100130001F93CF93DF93EC01162F0E948E001EBDFC
:100140000DB407FEFDCF8EB5CE010E949300DF9166
:10015000CF911F91089588E060E00E9436070895CE
:1001600088E061E00E94360708950F931F938C0189
:100170008AE061E00E94F70686E061E00E94F706EF
:1001800089E061E00E94F70688E061E00E94F706DE
:1001900082E060E00E94F70682E061E00E9436079C
:1001A000C8010E949300C8010E94AB0061E070E0AA
:1001B00080E090E00E9459061F910F910895EF9200
:1001C000FF920F931F938C017B010E94B500C80121
:1001D000F70109951F910F91FF90EF9008950F93EC
:1001E0001F93CF93DF93EC01162F042F0E948E00F4
:1001F00010641EBD0DB407FEFDCF8EB585E090E006
:100200000E94B2061EBC0DB407FEFDCF8EB585E080
:1002100090E00E94B2060EBD0DB407FEFDCF8EB574
:1002200081E090E00E94B206CE010E949300DF912F
:10023000CF911F910F9108951F93CF93DF93EC01FE
:10024000162F0E948E0010621EBD0DB407FEFDCF5A
:100250008EB585E090E00E94B2061EBC0DB407FE8C
:10026000FDCF8EB585E090E00E94B2061EBC0DB4B5
:1002700007FEFDCF1EB581E090E00E94B206CE01E0
:100280000E949300812FDF91CF911F9108958F924B
:100290009F92AF92BF92CF92DF92FF920F931F93E4
:1002A000CF93DF93EC01C35DDE4F8881CD52D14007
:1002B000882309F043C09E01265D3E4FF9018081ED
:1002C0008823E1F1DE01A45DBE4F1C92FE01E55DD5
:1002D000FE4F1082FF24F39449015D016F012AC093
:1002E00081E090E00E94B2060F2D10E0B8016C5F33
:1002F0007F4FCE010E941C0120E030E087708130EA
:1003000011F021E030E0002E02C0220F331F0A94CA
:10031000E2F7F5018081822B808390E002C0959501
:1003200087950A95E2F780FF04C0F60180818F5F10
:100330008083F394F40180818F1590F6DF91CF9143
:100340001F910F91FF90DF90CF90BF90AF909F9043
:100350008F9008950F931F93CF93DF93EC0161E08B
:1003600070E080E090E00E945906CE0161E10E94B9
:1003700098006AE070E080E090E00E945906CE01AB
:1003800060E070E00E941C01C75DDE4F8883C952A7
:10039000D14090E08F7190708131910581F0823170
:1003A00091051CF44097A1F406C08231910559F0E3
:1003B0004E9771F408C0C65DDE4F84E007C0C65D8D
:1003C000DE4F86E003C0C65DDE4F88E0888303C051
:1003D000C65DDE4F1882CA52D140CE0164E170E0A2
:1003E00040E00E94EF00CE0163E070E040EC0E942C
:1003F000EF00CE0161E070E045E80E94EF0005E00B
:1004000010E0CE01B80140E60E94EF000F5F1F4FE1
:100410000D301105B1F7CE010E944701CE010E94B7
:10042000B000DF91CF911F910F910895CF92DF928D
:10043000EF92FF920F931F938C017B016A01B90128
:100440000E948F03075F1E4FF801F182E0820B5D6F
:100450001F4FF801D182C0821F910F91FF90EF9042
:10046000DF90CF9008950F931F938C01BC016C5FB8
:100470007F4F0E941D03C80162E30E943103FC010B
:10048000D8015F969C938E935E978489811181E059
:100490001F910F9108950E9418030895FC01CB014C
:1004A0002BEA31E031832083758F648F178E168E8F
:1004B00040E052EC61E070E00E9414080895FC01F5
:1004C000558344837183608333A322A30895FC0181
:1004D000738362830895CF93DF93EB012FB7F89472
:1004E000E881F981E657FE4F808191812FBF6A5FD5
:1004F0007F4F892B29F0888199810E94AE02BC012F
:10050000EC81FD81A081B181EB014991BE01129680
:100510002D913C911397CF0150E0F9010995DF919E
:10052000CF910895FB01833079F0843018F4813045
:10053000A0F005C0863068F0863079F405C082A14D
:1005400093A10E94C104089582A193A10E94BE04B8
:10055000089582A193A10E94BA040895BF92CF92F8
:10056000DF92EF92FF920F931F93CF93DF93AC0133
:10057000CB010196FC018AE1DF011D928A95E9F722
:100580002FB7F894FA01E657FE4F808191812FBF73
:100590004A9708F442C086E8E82E81E0F82EE40E7F
:1005A000F51EC42EB52EEB0130E0DA01A857BE4F80
:1005B0008F01ED91FC911197D1901196FC93EE93E0
:1005C000EE15FF0521F4CC921196BC9211972FB72E
:1005D000F894F801808191810197918380832FBFE6
:1005E000D9823F5F21963A3121F7FA01E857FE4F51
:1005F000808191810196918380838E159F0511F4EE
:10060000C082B1822FB7F894FA01E657FE4F80817D
:1006100091810197918380832FBFCB01DF91CF918F
:100620001F910F91FF90EF90DF90CF90BF900895B2
:10063000FC017683658344830895CF93DF93FC01A7
:10064000A281B3818D919C911197658176814481BE
:10065000EC01EA81FB81CD0150E00995DF91CF915A
:1006600008950F931F93CF93DF93EC01062F10E0B3
:1006700026C0AA81BB81ED91FC9111970680F7817C
:10068000E02DCD010995FE01E10FF11D87838B8DD2
:100690008F5F8B8F1F5FEA81FB81A081B1811496F0
:1006A0002D913C911597CF01F9010995892B09F7F7
:1006B00064E670E080E090E00E945906015000235B
:1006C00051F79E01295F3F4FC901DF91CF911F91E3
:1006D0000F910895FF920F931F93CF93DF93082FED
:1006E000EB01F42E60E00E94360710E00CC0888118
:1006F000810F8EBD0DB407FEFDCF8EB581E090E079
:100700000E94B2061F5F1F1590F3802F61E00E94C8
:100710003607DF91CF911F910F91FF9008951F939E
:10072000CF93DF93EB01DC01A050BF4FFB0189E0C9
:1007300001900D928150E1F710E009C0EF81F8853A
:10074000E10FF11D808161E00E94F7061F5F8E813D
:100750001817A0F30E9494048C810E949B048D8141
:100760000E94A9048B810E94A4048881813019F41D
:100770008CB580688CBDDF91CF911F91089508954D
:10078000EF92FF920F931F9381ECE82E81E0F82EF9
:100790000BE815E08DE493E0B701A80120EC31E00F
:1007A0000E945F0281E793E0B8010E944E0281E956
:1007B00093E0B7014FE751E020E831E00E941602D4
:1007C0001F910F91FF90EF9008951F938BE895E094
:1007D00060E071E00E94980A1092B8048AE06CE927
:1007E00074E04BE10E946A031BE125C083EC94E0B6
:1007F0000E9482058091F4049091F5046CE071E010
:100800000E94950A8091F4049091F50464E171E0EE
:100810000E94980A65E070E080E090E00E9459062E
:100820006AE070E080E090E00E94590683EC94E07A
:1008300061E00E94EB041150C8F640919A04509177
:100840009B04FA01EA57FE4FA081B18180919E0579
:100850008C93A081B181CD010196918380838E1705
:100860009F0721F412965C934E9311972FB7F8943B
:10087000FA01E657FE4F8081918101969183808332
:100880002FBF1F9108950F931F9303EC14E0C8012D
:100890006BE875E020E032EC41E050E00E94550545
:1008A00060ED77E080E090E00E945906C8010E9468
:1008B00082058091F4049091F5046BE171E00E944F
:1008C000980A6AE070E080E090E00E945906C80152
:1008D00061E041E00E944305F8942FB7F89481EC61
:1008E00091E0909348038093470390934A03809349
:1008F00049032FBF81E993E06AEA71E00E94DF00BB
:1009000080E065EE73E042E050E00E9486058DE4F1
:1009100093E069E871E00E946702789481E0809337
:10092000C0011F910F9108958CB580618CBD8CB56D
:1009300080648CBD0895882319F48CB5806202C050
:100940008CB58F7D8CBD08959CB5937F982B9CBDF5
:1009500008952CB5382F33702C7F322B3CBD2DB52C
:1009600090E0959587959595879581702E7F822B40
:100970008DBD0895FC0181E080830895FC01108203
:100980000895E0E0F0E0099508950895FF920F932F
:100990001F938C01F62EFC0181A992A961E771E0F9
:1009A0000E94950AF80181A992A96F2D4AE050E0B2
:1009B0000E94830AF80181A992A968E771E00E9468
:1009C000980A62E370E080E090E00E9459061F916F
:1009D0000F91FF900895FF920F931F93CF93DF9392
:1009E0008C01F62EDC0115968C91882309F442C007
:1009F000D801D196ED91FC91D297A081B181149646
:100A00002D913C911597CF01F9010995892B81F31F
:100A100020C0D801D196ED91FC91D297A081B181EF
:100A200016962D913C911797CF01F9010995EC018C
:100A30008336910539F086379105F1F088359105B7
:100A400041F405C0C8016F2D0E94C60415C0F8010D
:100A50001582D801D196ED91FC91D297A081B181F8
:100A600014962D913C911597CF01F901099518160F
:100A700019067CF2C3E6D0E0CE01DF91CF911F9141
:100A80000F91FF9008951F93CF93DF93EC01142FE4
:100A9000662331F081E08D83CE0160E00E94EB049B
:100AA0001D83DF91CF911F910895FC0172AB61AB63
:100AB000CB01BA01A9010E9414080895CF93DF93D6
:100AC000EC01662339F015C063E070E080E090E04F
:100AD0000E9459060E944B0629813A814B815C8114
:100AE000621B730B840B950B6233710581059105B5
:100AF00058F30E944B0669837A838B839C83DF9132
:100B0000CF91089560E00E945E050895823000F55F
:100B1000E82FF0E0EE0FFF1FEA50FB4F7183608378
:100B2000882319F08130A1F408C0809169008C7F7E
:100B3000842B80936900E89A089580916900440F9E
:100B4000551F440F551F837F842B80936900E99ABA
:100B500008951F920F920FB60F9211242F933F9377
:100B60004F935F936F937F938F939F93AF93BF93B5
:100B7000EF93FF938091F6049091F704892B29F06D
:100B8000E091F604F091F7040995FF91EF91BF9180
:100B9000AF919F918F917F916F915F914F913F9115
:100BA0002F910F900FBE0F901F9018951F920F92CC
:100BB0000FB60F9211242F933F934F935F936F9330
:100BC0007F938F939F93AF93BF93EF93FF93809106
:100BD000F8049091F904892B29F0E091F804F09140
:100BE000F9040995FF91EF91BF91AF919F918F917A
:100BF0007F916F915F914F913F912F910F900FBE19
:100C00000F901F9018951F920F920FB60F921124FC
:100C10002F933F938F939F93AF93BF938091FE0445
:100C20009091FF04A0910005B0910105309102055B
:100C30000196A11DB11D232F2D5F2D3720F02D57BB
:100C40000196A11DB11D209302058093FE0490938F
:100C5000FF04A0930005B09301058091FA049091E0
:100C6000FB04A091FC04B091FD040196A11DB11DEF
:100C70008093FA049093FB04A093FC04B093FD04CA
:100C8000BF91AF919F918F913F912F910F900FBE88
:100C90000F901F9018958FB7F8942091FE04309113
:100CA000FF0440910005509101058FBFB901CA01B1
:100CB00008959B01AC017FB7F8948091FA0490915C
:100CC000FB04A091FC04B091FD0466B5A89B05C08F
:100CD0006F3F19F00196A11DB11D7FBFBA2FA92F3B
:100CE000982F8827860F911DA11DB11D62E0880FE6
:100CF000991FAA1FBB1F6A95D1F7BC012DC0FFB772
:100D0000F8948091FA049091FB04A091FC04B091B6
:100D1000FD04E6B5A89B05C0EF3F19F00196A11DA3
:100D2000B11DFFBFBA2FA92F982F88278E0F911DB5
:100D3000A11DB11DE2E0880F991FAA1FBB1FEA95F4
:100D4000D1F7861B970B885E9340C8F22150304044
:100D50004040504068517C4F2115310541055105F7
:100D600071F60895019739F0880F991F880F991F20
:100D700002970197F1F70895789484B5826084BD55
:100D800084B5816084BD85B5826085BD85B581608F
:100D900085BDEEE6F0E0808181608083E1E8F0E0EF
:100DA0001082808182608083808181608083E0E81E
:100DB000F0E0808181608083E1EBF0E080818460FD
:100DC0008083E0EBF0E0808181608083EAE7F0E0FF
:100DD0008081846080838081826080838081816063
:100DE00080838081806880831092C1000895CF93B2
:100DF000DF93482F50E0CA0186569F4FFC01349183
:100E00004A575F4FFA018491882369F190E0880F77
:100E1000991FFC01E859FF4FA591B491FC01EE58D0
:100E2000FF4FC591D491662351F42FB7F8948C915C
:100E3000932F909589238C93888189230BC06230EE
:100E400061F42FB7F8948C91932F909589238C930C
:100E50008881832B88832FBF06C09FB7F8948C911D
:100E6000832B8C939FBFDF91CF910895482F50E043
:100E7000CA0182559F4FFC012491CA0186569F4F9B
:100E8000FC0194914A575F4FFA013491332309F4DE
:100E900040C0222351F1233071F0243028F4213056
:100EA000A1F0223011F514C02630B1F02730C1F086
:100EB0002430D9F404C0809180008F7703C08091E2
:100EC00080008F7D8093800010C084B58F7702C032
:100ED00084B58F7D84BD09C08091B0008F7703C039
:100EE0008091B0008F7D8093B000E32FF0E0EE0F93
:100EF000FF1FEE58FF4FA591B4912FB7F8946623CA
:100F000021F48C919095892302C08C91892B8C932C
:100F10002FBF089508951F920F920FB60F921124BC
:100F20002F933F934F938F939F93EF93FF938091D2
:100F3000C00082FD1DC04091C60020914305309144
:100F400044052F5F3F4F2F7330708091450590917E
:100F500046052817390771F0E0914305F0914405E3
:100F6000ED5FFA4F4083309344052093430502C060
:100F70008091C600FF91EF919F918F914F913F918A
:100F80002F910F900FBE0F901F901895E09197052D
:100F9000F0919805E05CFF4F819191912081318122
:100FA000821B930B8F739070892B11F00E948A071C
:100FB00008951F920F920FB60F9211242F933F9313
:100FC0008F939F93EF93FF9320918705309188052E
:100FD0008091890590918A052817390731F480910D
:100FE000C1008F7D8093C10014C0E0918905F0910C
:100FF0008A05E95BFA4F20818091890590918A05E5
:1010000001968F73907090938A0580938905209341
:10101000C600FF91EF919F918F913F912F910F907B
:101020000FBE0F901F901895AF92BF92DF92EF9274
:10103000FF920F931F93CF93DF93EC017A018B0103
:10104000DD24403081EE580780E0680780E07807B3
:1010500011F0DD24D39491E0A92EB12CEC89FD8907
:10106000DD2069F0C50108A002C0880F991F0A940D
:10107000E2F7808360E079E08DE390E005C01082C4
:1010800060E874E88EE190E0A80197010E94CA0A26
:101090002150304040405040569547953795279510
:1010A00080E12030380720F0DD2011F0DD24D6CF9C
:1010B000E889F9893083EA89FB89208319A2EE89BE
:1010C000FF89408121E030E0C9010C8C02C0880F0B
:1010D000991F0A94E2F7482B4083EE89FF894081EB
:1010E000C9010D8C02C0880F991F0A94E2F7482BA2
:1010F0004083EE89FF894081C9010E8C02C0880FB0
:10110000991F0A94E2F7482B4083EE89FF8980817A
:101110000F8C02C0220F331F0A94E2F72095282378
:101120002083DF91CF911F910F91FF90EF90DF907F
:10113000BF90AF900895DC011C96ED91FC911D9736
:10114000E05CFF4F2191319180819181281B390B07
:101150002F733070C9010895DC011C96ED91FC914C
:101160001D97E05CFF4F20813181E054F040DF01AA
:10117000AE5BBF4F8D919C9111972817390719F4D9
:101180002FEF3FEF07C08D919C91E80FF91F8081F1
:10119000282F30E0C9010895DC011C96ED91FC91E7
:1011A0001D97E05CFF4F20813181E054F040DF016A
:1011B000AE5BBF4F8D919C9111972817390719F499
:1011C0002FEF3FEF10C08D919C911197E80FF91F01
:1011D00020818D919C91119701968F73907011963B
:1011E0009C938E9330E0C9010895DC0191968C9117
:1011F0009197882339F05496ED91FC915597808111
:1012000086FFF9CF91961C920895CF93DF93EC015E
:10121000EE85FF85E05CFF4F20813181E054F04096
:101220002F5F3F4F2F733070DF01AE5BBF4F8D914B
:101230009C91119728173907D1F3E05CFF4F80810B
:101240009181E054F040E80FF91F6083EE85FF853F
:10125000E05CFF4F31832083EE89FF89208181E0AC
:1012600090E00F8C02C0880F991F0A94E2F7282B98
:10127000208381E089A3EC89FD898081806480835B
:1012800081E090E0DF91CF91089510928E05109249
:101290008D0588EE93E0A0E0B0E080938F059093F9
:1012A0009005A0939105B093920583EB91E0909304
:1012B0008C0580938B0583E095E09093980580934F
:1012C000970587E495E090939A058093990585ECBE
:1012D00090E090939C0580939B0584EC90E0909324
:1012E0009E0580939D0580EC90E09093A0058093EF
:1012F0009F0581EC90E09093A2058093A10582EC7C
:1013000090E09093A4058093A30586EC90E09093E1
:10131000A6058093A50584E08093A70583E08093CC
:10132000A80587E08093A90585E08093AA0581E060
:101330008093AB050895CF93DF930E94BC060E9473
:101340004304C6ECD7E00E94BF032097E1F30E945C
:10135000C607F9CFCF92DF92EF92FF920F931F93C0
:10136000CF93DF937C016B018A01C0E0D0E00FC016
:10137000D6016D916D01D701ED91FC910190F08145
:10138000E02DC7010995C80FD91F01501040011564
:10139000110571F7CE01DF91CF911F910F91FF9051
:1013A000EF90DF90CF900895EF92FF920F931F93ED
:1013B0008C01DC01ED91FC910190F081E02D6DE05C
:1013C00009957C01D801ED91FC910190F081E02D0F
:1013D000C8016AE009959C012E0D3F1DC9011F91AE
:1013E0000F91FF90EF900895CF93DF93EC0161157B
:1013F000710519F420E030E00FC0DB010D900020F2
:10140000E9F71197A61BB70BE881F9810280F381F8
:10141000E02DAD0109959C01C901DF91CF9108959F
:101420004F925F927F928F929F92AF92BF92CF9294
:10143000DF92EF92FF920F931F93DF93CF93CDB77D
:10144000DEB7A1970FB6F894DEBF0FBECDBF2C015B
:10145000742ECB01223008F42AE019A231E2C32E07
:10146000D12CCC0EDD1E822E9924AA24BB24672DFC
:10147000752FA50194010E94CA0A79018A01C80149
:10148000B701A50194010E94AB0A472D461B0894A1
:10149000C108D1084A3014F4405D01C0495CF6012E
:1014A0004083E114F1040105110521F07E2C5F2D2C
:1014B000C801DDCFC201B6010E94F409A1960FB6A2
:1014C000F894DEBF0FBECDBFCF91DF911F910F917A
:1014D000FF90EF90DF90CF90BF90AF909F908F9054
:1014E0007F905F904F900895DC012115310541F404
:1014F000ED91FC910190F081E02D642F0995089504
:101500000E94100A0895EF92FF920F931F939A0181
:10151000E62EFF2400E010E0B801A7010E94740A43
:101520001F910F91FF90EF9008950E94F409089584
:10153000EF92FF920F931F937C010E94F4098C019C
:10154000C7010E94D409080F191FC8011F910F91EC
:10155000FF90EF900895629FD001739FF001829FEA
:10156000E00DF11D649FE00DF11D929FF00D839F32
:10157000F00D749FF00D659FF00D9927729FB00DCF
:10158000E11DF91F639FB00DE11DF91FBD01CF01E2
:1015900011240895A1E21A2EAA1BBB1BFD010DC048
:1015A000AA1FBB1FEE1FFF1FA217B307E407F50713
:1015B00020F0A21BB30BE40BF50B661F771F881FEF
:1015C000991F1A9469F760957095809590959B0185
:1015D000AC01BD01CF010895EE0FFF1F0590F491FE
:0815E000E02D0994F894FFCFFF
:1015E800496E74657272757074212100564D4450AD
:1015F800455F31005F564D44504500564D445056A6
:101608005F317C315F564D445056004572726F729F
:101618003A20417474656D707420746F207365741A
:10162800206120726561642D6F6E6C79207661721D
:101638006961626C65206F722064617461207479DD
:101648007065206E6F7420737570706F7274656446
:1016580000564D4450435F005F564D445043000AC6
:10166800000000040101017F015292024D03029221
:10167800024D030392024D030492024D03059202A8
:101688004D03106B024D03000000004B02330200B3
:101698000000000509AA099B08CC08AC08F5080059
:00000001FF
