:100000000C9464000C94C4060C94F1060C948C00BF
:100010000C948C000C948C000C948C000C948C0030
:100020000C948C000C948C000C948C000C948C0020
:100030000C948C000C948C000C948C000C948C0010
:100040000C941E070C948C000C94A6080C94F408D5
:100050000C948C000C948C000C948C000C948C00F0
:100060000C948C000C948C000000000024002700ED
:100070002A0000000000250028002B0000000000DE
:1000800023002600290004040404040404040202DA
:100090000202020203030303030301020408102007
:1000A0004080010204081020010204081020000012
:1000B0000007000201000003040600000000000029
:1000C00000004E03D005600A11241FBECFEFD8E018
:1000D000DEBFCDBF11E0A0E0B1E0E8E7F9E102C08A
:1000E00005900D92AE3DB107D9F714E0AEEDB1E049
:1000F00001C01D92A33DB107E1F710E0C8ECD0E0CC
:1001000004C02297FE010E94B60CC23CD107C9F779
:100110000E94B60A0C94BA0C0C940000FC01718386
:10012000608350A747A308951F93162F8AE060E0CD
:100130000E9451081EBD0DB407FEFDCF8EB58AE0AA
:1001400061E00E9451081F91089568E00E949400A8
:1001500088E061E00E94510808951F93CF93DF93D8
:10016000EC0110E01EBC0DB407FEFDCF8EB58A83F6
:1001700085E090E00E94CD071F5F21961E3191F728
:10018000DF91CF911F9108950F931F93162F042F86
:100190008AE060E00E94510810641EBD0DB407FEA5
:1001A000FDCF8EB585E090E00E94CD071EBC0DB45A
:1001B00007FEFDCF8EB585E090E00E94CD070EBD15
:1001C0000DB407FEFDCF8EB581E090E00E94CD0713
:1001D0008AE061E00E9451081F910F9108951F93DA
:1001E000162F8AE060E00E94510810621EBD0DB417
:1001F00007FEFDCF8EB585E090E00E94CD071EBCC6
:100200000DB407FEFDCF8EB585E090E00E94CD07CE
:100210001EBC0DB407FEFDCF1EB581E090E00E942C
:10022000CD078AE061E00E945108812F1F91089557
:10023000FF920F931F93CF93DF93EC018CA1882340
:1002400099F589A1882381F11BA21AA2FF24F394B6
:1002500028C081E090E00E94CD070F2D10E0B8018A
:100260006C5F7F4FCE010E94EF0020E030E087708E
:10027000813011F021E030E0002E02C0220F331F48
:100280000A94E2F78BA1822B8BA390E002C0959594
:1002900087950A95E2F780FF03C08AA18F5F8AA342
:1002A000F39489A18F15A8F6DF91CF911F910F913B
:1002B000FF9008950F931F93CF93DF93EC011CA23F
:1002C00061E070E080E090E00E947407CE0166E09B
:1002D0000E9494008AE090E00E94CD07CE0161E187
:1002E0000E9494006AE070E080E090E00E94740751
:1002F000CE0161E070E045EE0E94C400CE0164E1F1
:1003000070E040E00E94C400CE0163E070E040EC89
:100310000E94C400CE0160E070E00E94EF0088A35C
:1003200090E08F7190708131910589F08231910553
:100330001CF4409781F406C08231910551F04E972C
:1003400051F407C084E089A305E010E006C086E010
:10035000FACF88E0F8CF19A2F7CFCE01B80140E676
:100360000E94C40085E090E00E94CD070F5F1F4F00
:100370000D30110591F7CE010E941801CE010E94A7
:10038000A500CE0160E10E949400DF91CF911F9102
:100390000F91089568EE73E080E090E00E9474078A
:1003A0008AE061E00E94120886E061E00E94120883
:1003B00089E061E00E94120888E061E00E94120872
:1003C00083E060E00E94120883E061E00E9451082F
:1003D0008AE061E00E9451080895EF92FF920F9326
:1003E0001F938C017B010E94CA010E947C05D801E9
:1003F0009796ED91FC91989781810E945D05D801B7
:100400009796ED91FC91989782810E946B05D80197
:100410009796ED91FC91989780810E946605C8019E
:10042000F70109951F910F91FF90EF9008950F9399
:100430001F938C01BC016C5F7F4F0E940103C801B8
:1004400062E30E941503FC01D8015F969C938E9392
:100450005E978489811181E01F910F9108950E9418
:10046000FC020895FC01CB012AEC31E031832083AA
:10047000758F648F178E168E40E052EC61E070E04D
:100480000E942F090895FC01558344837183608382
:1004900033A322A30895FC01738362830895CF934D
:1004A000DF93EB012FB7F894E881F981E657FE4F0F
:1004B000808191812FBF6A5F7F4F892B29F08881CE
:1004C00099810E949202BC01EC81FD81A081B181E1
:1004D000EB014991BE0112962D913C911397CF01EA
:1004E00050E0F9010995DF91CF910895FB01833028
:1004F00079F0843018F48130A0F005C0863068F0BF
:10050000863079F405C082A193A10E949A050895CE
:1005100082A193A10E949705089582A193A10E94B0
:1005200093050895BF92CF92DF92EF92FF920F93BF
:100530001F93CF93DF93AC01CB010196FC018AE1BD
:10054000DF011D928A95E9F72FB7F894FA01E65773
:10055000FE4F808191812FBF4A9708F442C086E800
:10056000E82E81E0F82EE40EF51EC42EB52EEB0128
:1005700030E0DA01A857BE4F8F01ED91FC91119741
:10058000D1901196FC93EE93EE15FF0521F4CC92D9
:100590001196BC9211972FB7F894F8018081918140
:1005A0000197918380832FBFD9823F5F21963A3193
:1005B00021F7FA01E857FE4F8081918101969183DE
:1005C00080838E159F0511F4C082B1822FB7F894F5
:1005D000FA01E657FE4F80819181019791838083D4
:1005E0002FBFCB01DF91CF911F910F91FF90EF9023
:1005F000DF90CF90BF900895FC017683658344839C
:100600000895CF93DF93FC01A281B3818D919C91DA
:100610001197658176814481EC01EA81FB81CD01EE
:1006200050E00995DF91CF9108950F931F93CF93D9
:10063000DF93EC01062F10E026C0AA81BB81ED916B
:10064000FC9111970680F781E02DCD010995FE01FF
:10065000E10FF11D87838B8D8F5F8B8F1F5FEA8189
:10066000FB81A081B18114962D913C911597CF010A
:10067000F9010995892B09F764E670E080E090E0C4
:100680000E9474070150002351F79E01295F3F4FDC
:10069000C901DF91CF911F910F910895EF92FF92C1
:1006A0000F931F938CEEE82E81E0F82E0DEA14E0F4
:1006B00088E793E0B701A8012BEE31E00E944302E6
:1006C0008CE993E0B8010E9432028CEB93E0B70111
:1006D00044EA51E00E948E001F910F91FF90EF902D
:1006E00008958DEA94E060E071E00E94600C109241
:1006F000DA038AE060E00E9451088CEB93E062E14B
:100700000E949400EEEBF3E01EBC0DB407FEFDCF9B
:100710008EB5819383E0E93DF807B1F76BE1615055
:100720004091BC035091BD03DA01AA57BE4F2D91F1
:100730003C911197E62FF0E0E454FC4F8581F901DC
:100740008083ED91FC911197CF01019611969C93B6
:100750008E938A179B0711F4528341832FB7F89425
:10076000FA01E657FE4F8081918101969183808343
:100770002FBF6623A1F68AE061E00E945108089528
:10078000EF92FF920F931F93CF93DF930E94660720
:100790002091DE013091DF014091E0015091E101B3
:1007A000621B730B840B950B6639710581059105EE
:1007B00008F443C00E9466076093DE017093DF0176
:1007C0008093E0019093E10185EE93E061E00E9467
:1007D000790680911604909117046CE071E00E94F4
:1007E0005D0C809116049091170463E171E00E9402
:1007F0005D0C809116049091170463E171E00E94F2
:100800005D0C809116049091170463E171E00E94E1
:100810005D0C85EE93E00E94D105809116049091C5
:10082000170463E171E00E945D0C809116049091C1
:10083000170465E171E00E94600C0E946607611573
:1008400071058105910541F40E94660762307105CA
:100850008105910508F47EC00E9466079B01AC01EA
:100860006093E7017093E8018093E9019093EA01B6
:100870008091E2019091E301A091E401B091E50142
:10088000281739074A075B0740F42093E2013093A9
:10089000E3014093E4015093E5018091E2019091DE
:1008A000E301A091E401B091E50179018A01E81A20
:1008B000F90A0A0B1B0BD801C7018A3F9105A10554
:1008C000B10508F447C08091E601882309F042C0D1
:1008D0002093E2013093E3014093E4015093E5015A
:1008E00085EE93E00E949D06809116049091170476
:1008F0006CE171E00E945D0C8091160490911704E8
:1009000063E171E00E945D0C0091160410911704E0
:100910000E946607AB01BC01C8012AE030E00E94DA
:100920008F0B809116049091170464E271E00E948D
:10093000600C65E070E080E090E00E9474076AE07F
:1009400070E080E090E00E94740785EE93E061E043
:100950000E94060685E060E00E9451088CEB93E05F
:1009600062E10E9494008CEB93E00E94AD008C0148
:100970008DEA94E06BE271E00E94600CC0E0D0E090
:10098000F801EC0FFD1F8DEA94E060814AE050E031
:100990000E94CD0B2196CB31D10591F78DEA94E0E1
:1009A0006BE271E00E94600C8DEA94E06BE170E014
:1009B0004AE050E00E943E0C8FB7F894E091BC03EF
:1009C000F091BD03E657FE4F608171818FBF8DEAC4
:1009D00094E04AE050E00E949E0B8DEA94E06BE2C6
:1009E00071E00E94600C85E061E00E945108DF9197
:1009F000CF911F910F91FF90EF9008950F931F9348
:100A000005EE13E0C8016DEA74E020E032EC41E04D
:100A100050E00E94700660ED77E080E090E00E9478
:100A20007407C8010E949D068091160490911704D6
:100A300060E471E00E94600C6AE070E080E090E0A9
:100A40000E947407C80161E041E00E945E062FB772
:100A5000F8948CEE91E090937303809372039093DB
:100A60007503809374032FBF8DEA94E040E052EC4D
:100A700061E070E00E942F0985E061E00E941208A9
:100A800085E061E00E94510888E793E068EA71E040
:100A90000E944B028CEB93E06AE571E00E94ED014D
:100AA00081E061E773E041E050E00E94A10681E04F
:100AB0008093EB011F910F910895882319F48CB551
:100AC000806202C08CB58F7D8CBD08959CB5937FEC
:100AD000982B9CBD08952CB5382F33702C7F322B6A
:100AE0003CBD2DB590E0959587959595879581703E
:100AF0002E7F822B8DBD08958AE061E00E9451080F
:100B00008AE061E00E9412088CB580618CBD8CB5D2
:100B100080648CBD8DE061E00E9412088BE061E092
:100B20000E9412080895FC0181E080830895FC0171
:100B300010820895E0E0F0E009950895DF93CF93E7
:100B400000D0CDB7DEB72091CF043091D004CE01D4
:100B500001962115310529F4835D94409A83898398
:100B600018C0AC01421B530BE091D104F091D204A8
:100B700020E030E008C0808191810296280F391F63
:100B80000280F381E02D3097B1F7240F351F3A83AF
:100B9000298389819A810F900F90CF91DF910895D9
:100BA00008950F931F93FC0101A912A90E949E05AD
:100BB000BC01C8014AE050E00E942B0C1F910F912C
:100BC0000895FF920F931F938C01F62EFC0181A9CB
:100BD00092A966E971E00E945D0CF80181A992A9D1
:100BE0006F2D4AE050E00E94BB0BF80181A992A949
:100BF0006DE971E00E94600C62E370E080E090E0DB
:100C00000E9474071F910F91FF900895FF920F9318
:100C10001F93CF93DF938C01F62EDC0115968C91F8
:100C2000882309F442C0D801D196ED91FC91D29766
:100C3000A081B18114962D913C911597CF01F901B6
:100C40000995892B81F320C0D801D196ED91FC91B3
:100C5000D297A081B18116962D913C911797CF0123
:100C6000F9010995EC018336910539F08637910534
:100C7000F1F08835910541F405C0C8016F2D0E943F
:100C8000E10515C0F8011582D801D196ED91FC91CE
:100C9000D297A081B18114962D913C911597CF01E7
:100CA000F9010995181619067CF2C3E6D0E0CE01C9
:100CB000DF91CF911F910F91FF9008951F93CF93D4
:100CC000DF93EC01142F662331F081E08D83CE0198
:100CD00060E00E9406061D83DF91CF911F91089569
:100CE000FC0172AB61ABCB01BA01A9010E942F09D3
:100CF0000895CF93DF93EC01662339F015C063E0CC
:100D000070E080E090E00E9474070E9466072981ED
:100D10003A814B815C81621B730B840B950B6233B0
:100D200071058105910558F30E94660769837A83EE
:100D30008B839C83DF91CF91089560E00E947906B8
:100D40000895823000F5E82FF0E0EE0FFF1FE85E17
:100D5000FB4F71836083882319F08130A1F408C0B0
:100D6000809169008C7F842B80936900E89A0895B4
:100D700080916900440F551F440F551F837F842BBA
:100D800080936900E99A08951F920F920FB60F920F
:100D900011242F933F934F935F936F937F938F9380
:100DA0009F93AF93BF93EF93FF938091180490911B
:100DB0001904892B29F0E0911804F0911904099580
:100DC000FF91EF91BF91AF919F918F917F916F9123
:100DD0005F914F913F912F910F900FBE0F901F90F9
:100DE00018951F920F920FB60F9211242F933F93D5
:100DF0004F935F936F937F938F939F93AF93BF9323
:100E0000EF93FF9380911A0490911B04892B29F092
:100E1000E0911A04F0911B040995FF91EF91BF91A5
:100E2000AF919F918F917F916F915F914F913F9182
:100E30002F910F900FBE0F901F9018951F920F9239
:100E40000FB60F9211242F933F938F939F93AF93DD
:100E5000BF938091200490912104A0912204B0912D
:100E60002304309124040196A11DB11D232F2D5F71
:100E70002D3720F02D570196A11DB11D209324047C
:100E80008093200490932104A0932204B093230420
:100E900080911C0490911D04A0911E04B0911F0428
:100EA0000196A11DB11D80931C0490931D04A09375
:100EB0001E04B0931F04BF91AF919F918F913F91FA
:100EC0002F910F900FBE0F901F9018958FB7F89429
:100ED0002091200430912104409122045091230458
:100EE0008FBFB901CA0108959B01AC017FB7F89487
:100EF00080911C0490911D04A0911E04B0911F04C8
:100F000066B5A89B05C06F3F19F00196A11DB11DE4
:100F10007FBFBA2FA92F982F8827860F911DA11D5B
:100F2000B11D62E0880F991FAA1FBB1F6A95D1F7F8
:100F3000BC012DC0FFB7F89480911C0490911D0452
:100F4000A0911E04B0911F04E6B5A89B05C0EF3F19
:100F500019F00196A11DB11DFFBFBA2FA92F982F1F
:100F600088278E0F911DA11DB11DE2E0880F991FEA
:100F7000AA1FBB1FEA95D1F7861B970B885E93408B
:100F8000C8F2215030404040504068517C4F2115FC
:100F900031054105510571F60895019739F0880F23
:100FA000991F880F991F02970197F1F70895789478
:100FB00084B5826084BD84B5816084BD85B582605E
:100FC00085BD85B5816085BDEEE6F0E080818160FC
:100FD0008083E1E8F0E010828081826080838081FC
:100FE00081608083E0E8F0E0808181608083E1EBD4
:100FF000F0E0808184608083E0EBF0E080818160BC
:101000008083EAE7F0E08081846080838081826071
:10101000808380818160808380818068808310925A
:10102000C1000895CF93DF93482F50E0CA01865640
:101030009F4FFC0134914A575F4FFA0184918823F6
:1010400069F190E0880F991FFC01E859FF4FA591C5
:10105000B491FC01EE58FF4FC591D491662351F431
:101060002FB7F8948C91932F909589238C93888136
:1010700089230BC0623061F42FB7F8948C91932FC1
:10108000909589238C938881832B88832FBF06C0FA
:101090009FB7F8948C91832B8C939FBFDF91CF9156
:1010A0000895482F50E0CA0182559F4FFC012491BA
:1010B000CA0186569F4FFC0194914A575F4FFA012F
:1010C0003491332309F440C0222351F1233071F0CD
:1010D000243028F42130A1F0223011F514C026303C
:1010E000B1F02730C1F02430D9F404C080918000E1
:1010F0008F7703C0809180008F7D8093800010C027
:1011000084B58F7702C084B58F7D84BD09C080917E
:10111000B0008F7703C08091B0008F7D8093B000C6
:10112000E32FF0E0EE0FFF1FEE58FF4FA591B491B3
:101130002FB7F894662321F48C919095892302C0EF
:101140008C91892B8C932FBF089508951F920F9235
:101150000FB60F9211242F933F934F938F939F932A
:10116000EF93FF938091C00082FD1DC04091C600A7
:1011700020916504309166042F5F3F4F2F733070CC
:1011800080916704909168042817390771F0E09105
:101190006504F0916604EB5DFB4F40833093660479
:1011A0002093650402C08091C600FF91EF919F914A
:1011B0008F914F913F912F910F900FBE0F901F90E5
:1011C0001895E091B904F091BA04E05CFF4F819169
:1011D000919120813181821B930B8F739070892BA9
:1011E00011F00E94A50808951F920F920FB60F925A
:1011F00011242F933F938F939F93EF93FF9320910D
:10120000A9043091AA048091AB049091AC042817F2
:10121000390731F48091C1008F7D8093C10014C0E3
:10122000E091AB04F091AC04E759FB4F2081809131
:10123000AB049091AC0401968F7390709093AC04C2
:101240008093AB042093C600FF91EF919F918F9103
:101250003F912F910F900FBE0F901F901895AF9256
:10126000BF92DF92EF92FF920F931F93CF93DF9382
:10127000EC017A018B01DD24403081EE580780E0DB
:10128000680780E0780711F0DD24D39491E0A92E5F
:10129000B12CEC89FD89DD2069F0C50108A002C0F0
:1012A000880F991F0A94E2F7808360E079E08DE36C
:1012B00090E005C0108260E874E88EE190E0A8013B
:1012C00097010E94920C215030404040504056956A
:1012D00047953795279580E12030380720F0DD20AD
:1012E00011F0DD24D6CFE889F9893083EA89FB89BA
:1012F000208319A2EE89FF89408121E030E0C901F5
:101300000C8C02C0880F991F0A94E2F7482B408387
:10131000EE89FF894081C9010D8C02C0880F991F99
:101320000A94E2F7482B4083EE89FF894081C90186
:101330000E8C02C0880F991F0A94E2F7482B408355
:10134000EE89FF8980810F8C02C0220F331F0A941F
:10135000E2F7209528232083DF91CF911F910F91F1
:10136000FF90EF90DF90BF90AF900895DC011C9646
:10137000ED91FC911D97E05CFF4F219131918081AF
:101380009181281B390B2F733070C9010895DC013E
:101390001C96ED91FC911D97E05CFF4F20813181FF
:1013A000E054F040DF01AE5BBF4F8D919C911197EF
:1013B0002817390719F42FEF3FEF07C08D919C9143
:1013C000E80FF91F8081282F30E0C9010895DC0162
:1013D0001C96ED91FC911D97E05CFF4F20813181BF
:1013E000E054F040DF01AE5BBF4F8D919C911197AF
:1013F0002817390719F42FEF3FEF10C08D919C91FA
:101400001197E80FF91F20818D919C9111970196FA
:101410008F73907011969C938E9330E0C90108955C
:10142000DC0191968C919197882339F05496ED9137
:10143000FC915597808186FFF9CF91961C92089573
:10144000CF93DF93EC01EE85FF85E05CFF4F2081B9
:101450003181E054F0402F5F3F4F2F733070DF0138
:10146000AE5BBF4F8D919C91119728173907D1F32F
:10147000E05CFF4F80819181E054F040E80FF91F5C
:101480006083EE85FF85E05CFF4F31832083EE892A
:10149000FF89208181E090E00F8C02C0880F991FA6
:1014A0000A94E2F7282B208381E089A3EC89FD8947
:1014B00080818064808381E090E0DF91CF91089506
:1014C0001092B0041092AF0488EE93E0A0E0B0E078
:1014D0008093B1049093B204A093B304B093B40486
:1014E00082ED91E09093AE048093AD0485E294E0A8
:1014F0009093BA048093B90489E694E09093BC0475
:101500008093BB0485EC90E09093BE048093BD046F
:1015100084EC90E09093C0048093BF0480EC90E052
:101520009093C2048093C10481EC90E09093C40432
:101530008093C30482EC90E09093C6048093C5042A
:1015400086EC90E09093C8048093C70484E0809375
:10155000C90483E08093CA0487E08093CB0485E0CC
:101560008093CC0481E08093CD040895CF93DF93E2
:101570000E94D7070E94FE04C1EED8E00E94C0037B
:101580002097E1F30E94E108F9CFCF92DF92EF922A
:10159000FF920F931F93CF93DF937C016B018A011E
:1015A000C0E0D0E00FC0D6016D916D01D701ED9183
:1015B000FC910190F081E02DC7010995C80FD91F5A
:1015C000015010400115110571F7CE01DF91CF9147
:1015D0001F910F91FF90EF90DF90CF900895EF92C1
:1015E000FF920F931F938C01DC01ED91FC91019010
:1015F000F081E02D6DE009957C01D801ED91FC9121
:101600000190F081E02DC8016AE009959C012E0D42
:101610003F1DC9011F910F91FF90EF900895CF9347
:10162000DF93EC016115710519F420E030E00FC083
:10163000DB010D900020E9F71197A61BB70BE8819D
:10164000F9810280F381E02DAD0109959C01C9016A
:10165000DF91CF9108954F925F927F928F929F92E8
:10166000AF92BF92CF92DF92EF92FF920F931F93B0
:10167000DF93CF93CDB7DEB7A1970FB6F894DEBF57
:101680000FBECDBF2C01742ECB01223008F42AE00E
:1016900019A231E2C32ED12CCC0EDD1E822E99244C
:1016A000AA24BB24672D752FA50194010E94920CDA
:1016B00079018A01C801B701A50194010E94730C48
:1016C000472D461B0894C108D1084A3014F4405DE8
:1016D00001C0495CF6014083E114F10401051105E4
:1016E00021F07E2C5F2DC801DDCFC201B6010E9422
:1016F0000F0BA1960FB6F894DEBF0FBECDBFCF91F2
:10170000DF911F910F91FF90EF90DF90CF90BF90EE
:10171000AF909F908F907F905F904F900895DC01E5
:101720002115310541F4ED91FC910190F081E02DFE
:10173000642F099508950E942B0B0895CF92DF9294
:10174000EF92FF920F931F936C017B019A0100E0CF
:1017500010E0B801A7010E948F0B8C01C6010E9406
:10176000EF0A080F191FC8011F910F91FF90EF900A
:10177000DF90CF900895EF92FF920F931F939A01FD
:10178000E62EFF2400E010E0B801A7010E948F0BB5
:101790001F910F91FF90EF900895CF92DF92EF92FB
:1017A000FF920F931F936C01E62E9A01FF2400E035
:1017B00010E0B801A7010E948F0B8C01C6010E94A6
:1017C000EF0A080F191FC8011F910F91FF90EF90AA
:1017D000DF90CF900895CF92DF92EF92FF920F9318
:1017E0001F93CF93DF93EC016A017B012115310533
:1017F00041F4E881F9810190F081E02D642F099591
:101800001FC02A303105D1F477FF17C0E881F98174
:101810000190F081E02D6DE209958C014427552758
:10182000BA014C195D096E097F09CE012AE00E94B8
:101830002B0B9801280F391F04C02AE00E942B0BA4
:101840009C01C901DF91CF911F910F91FF90EF9003
:10185000DF90CF900895EF92FF920F931F937B013B
:101860009A010027F7FC0095102FB801A7010E94EC
:10187000EB0B1F910F91FF90EF900895CF92DF92A5
:10188000EF92FF920F931F936C017B019A01002747
:10189000F7FC0095102FB801A7010E94EB0B8C01FB
:1018A000C6010E94EF0A080F191FC8011F910F916E
:1018B000FF90EF90DF90CF9008950E940F0B089556
:1018C000EF92FF920F931F937C010E940F0B8C01EC
:1018D000C7010E94EF0A080F191FC8011F910F913D
:1018E000FF90EF900895629FD001739FF001829F57
:1018F000E00DF11D649FE00DF11D929FF00D839F9F
:10190000F00D749FF00D659FF00D9927729FB00D3B
:10191000E11DF91F639FB00DE11DF91FBD01CF014E
:1019200011240895A1E21A2EAA1BBB1BFD010DC0B4
:10193000AA1FBB1FEE1FFF1FA217B307E407F5077F
:1019400020F0A21BB30BE40BF50B661F771F881F5B
:10195000991F1A9469F760957095809590959B01F1
:10196000AC01BD01CF010895EE0FFF1F0590F4916A
:08197000E02D0994F894FFCF6B
:10197800496E74657272757074212100564D445019
:10198800525F007C005F564D44505200564D445003
:10199800455F31005F564D445045002D2D2D2D2DAE
:1019A8002D2D2D2D2D2D2D2D2D2D2D2D2D2D2D008C
:1019B800564D4450565F317C315F564D4450560069
:1019C8004572726F723A20417474656D7074207438
:1019D8006F20736574206120726561642D6F6E6C71
:1019E80079207661726961626C65206F722064612A
:1019F80074612074797065206E6F742073757070CF
:101A08006F7274656400564D4450435F005F564DD5
:101A1800445043000401010A527602780302760218
:101A28007803037602780304760278030576027851
:101A380003104F027803000000002F021702000075
:0E1A48000000200AC50AB609E709C709100AFE
:00000001FF
