:100000000C9421010C9449010C9449010C94490170
:100010000C9449010C9449010C9449010C94490138
:100020000C9449010C9449010C9449010C94490128
:100030000C9449010C9449010C9449010C94490118
:100040000C94620B0C9449010C94720C0C94C00C2F
:100050000C9449010C9449010C9449010C944901F8
:100060000C9449010C94490141542B46534D3D00D9
:1000700046534D5F5452414E535F5553425F434F79
:100080004D5F424C450D0A0046534D5F4849445F61
:100090005553425F434F4D5F424C455F41540D0AFB
:1000A0000041542B524F4C453D00524F4C455F434D
:1000B000454E5452414C0D0A00524F4C455F50453D
:1000C000524950484552414C0D0A0041542B4D496C
:1000D0004E5F494E54455256414C3D00313000323E
:1000E000300041542B4D41585F494E5445525641C2
:1000F0004C3D0031300034300041542B55415254B6
:100100003D0041542B42494E443D0041542B434D48
:100110004F44453D00554E495155450D0A00414E4D
:10012000594F4E450D0A0041542B4D41433D3F0D63
:100130000A0041542B4E414D453D0041542B524540
:1001400053544152540D0A0041542B5345545449C1
:100150004E473D0044454641554C540D0A00444528
:10016000465045524950484552414C0D0A004445BD
:100170004643454E5452414C0D0A0041542B4942CE
:100180004541434F4E533D004F4E0D0A004F4646EA
:100190000D0A0041542B56455253494F4E3D3F0DD9
:1001A0000A0041542B525353493D3F0D0A0041541C
:1001B0002B4D414A4F523D0041542B4D494E4F5219
:1001C0003D0041542B50415353574F523D00415431
:1001D0002B5458504F5745523D003F0D0A00415493
:1001E0002B455849540D0A002B2B2B0025730D0A63
:1001F00000E801DA01EC01680070008800A100AAA3
:1002000000B900CB00DC00DF00E200F300F600F9EB
:100210000002010B0115011E01270132013B0148BB
:100220000154015E016E017B0188018D01AE01B8B0
:1002300001CE01A2019301C201DE0100720A300B5E
:100240002C0E11241FBECFEFD8E0DEBFCDBF11E0D2
:10025000A0E0B1E0E0EDF9E202C005900D92A03718
:10026000B107D9F714E0A0E7B1E001C01D92AF35A6
:10027000B107E1F712E0C2E4D2E004C02297FE0128
:100280000E94AB14CC33D107C9F70E94820E0C94A4
:10029000E6140C940000FB01DC0102C001900D92F9
:1002A00041505040D8F70895FB01DC018D91019039
:1002B00080190110D9F3990B0895FB01DC0101901D
:1002C0000D920020E1F70895AEE0B0E0EAE6F1E03B
:1002D0000C94BD140D891E8986E08C831A830983D2
:1002E0008FEF9FE79E838D839E01275E3F4FCE0158
:1002F00001966F89788DA9010E9488012F81388528
:10030000020F131FF80110822E96E4E00C94D9140A
:10031000ABE0B0E0EEE8F1E00C94AF143C012B014F
:100320005A01FC0117821682838181FD03C06FEFA1
:100330007FEFC6C19AE0892E1E010894211C311C52
:10034000F3012381F20123FD859123FF81912F0188
:10035000882309F4B2C1853239F423FD859123FF46
:1003600081912F01853229F490E0B3010E947B0333
:10037000E7CF982FFF24EE249924FFE1FF15D0F05A
:100380009B3269F09C3228F4903259F0933291F408
:100390000EC09D3249F0903369F441E024C052E030
:1003A000F52A84E0F82A28C098E0F92A25C0E0E17F
:1003B000FE2A22C0F7FC29C0892F80538A3070F4AE
:1003C000F6FE05C0989C902C1124980E15C0E89C50
:1003D000E02C1124E80EF0E2FF2A0EC09E3229F430
:1003E000F6FC6BC140E4F42A07C09C3619F450E8CF
:1003F000F52A02C0983649F4F20123FD959123FFB6
:1004000091912F01992309F0B8CF892F855483301A
:1004100018F08052833038F444E050E0A40EB51E4A
:100420005FE359830FC0933631F0933779F09335FA
:1004300009F056C020C0F5018081898342E050E078
:10044000A40EB51E610101E010E012C0F501C080EC
:10045000D180F6FC03C06FEF7FEF02C0692D70E022
:1004600042E050E0A40EB51EC6010E9470038C014C
:100470005FE7F52214C0F501C080D180F6FC03C00F
:100480006FEF7FEF02C0692D70E042E050E0A40EF4
:10049000B51EC6010E9465038C0150E8F52AF3FEE3
:1004A00007C01AC080E290E0B3010E947B03EA9487
:1004B0008E2D90E008171907A8F30EC0F601F7FC7F
:1004C0008591F7FE81916F0190E0B3010E947B035B
:1004D000E110EA94015010400115110579F7EAC0C6
:1004E000943611F0993669F5F7FE08C0F5012081C0
:1004F00031814281538184E090E00AC0F50180811E
:1005000091819C01442737FD4095542F82E090E073
:10051000A80EB91E9FE6F92257FF09C050954095D5
:10052000309521953F4F4F4F5F4FE0E8FE2ACA01BB
:10053000B901A1012AE030E00E94A703D82ED21809
:1005400040C0953729F41F2D1F7E2AE030E01DC0E2
:100550001F2D197F9F3661F0903720F4983509F0F0
:10056000ACC00FC0903739F0983709F0A6C004C06E
:1005700028E030E00AC0106114FD146020E130E092
:1005800004C014FD166020E132E017FF08C0F50139
:10059000608171818281938144E050E008C0F5015F
:1005A00080819181BC0180E090E042E050E0A40EA7
:1005B000B51EA1010E94A703D82ED2188FE7F82EEE
:1005C000F122F6FE0BC05EEFF522D91438F4F4FEEA
:1005D00007C0F2FC05C08FEEF82202C01D2D01C03D
:1005E000192DF4FE0DC0FE01ED0DF11D808180334B
:1005F00019F499EEF92208C01F5FF2FE05C003C08E
:100600008F2D867809F01F5F0F2DF3FC14C0F0FECC
:100610000FC01E1510F09D2C0BC09D2C9E0C911A26
:100620001E2D06C080E290E0B3010E947B031F5F95
:100630001E15C0F304C01E1510F4E11A01C0EE240B
:1006400004FF0FC080E390E0B3010E947B0302FF30
:100650001DC001FD03C088E790E00EC088E590E072
:100660000BC0802F867891F001FF02C08BE201C0A1
:1006700080E2F7FC8DE290E0B3010E947B0306C0AC
:1006800080E390E0B3010E947B039A94D914C0F3F5
:10069000DA94F101ED0DF11D808190E0B3010E942B
:1006A0007B03DD20A9F706C080E290E0B3010E9441
:1006B0007B03EA94EE20C1F743CEF3016681778194
:1006C000CB012B96E2E10C94CB14FC010590615018
:1006D00070400110D8F7809590958E0F9F1F089558
:1006E000FC016150704001900110D8F78095909501
:1006F0008E0F9F1F08950F931F93CF93DF938C014D
:10070000EB018B8181FF1BC082FF0DC02E813F81D9
:100710008C819D812817390764F4E881F981019360
:10072000F983E88306C0E885F985802F0995892B30
:1007300031F48E819F8101969F838E8302C00FEFDB
:100740001FEFC801DF91CF911F910F910895FA011A
:10075000AA27283051F1203181F1E8946F936E7F00
:100760006E5F7F4F8F4F9F4FAF4FB1E03ED0B4E0F1
:100770003CD0670F781F891F9A1FA11D680F791F32
:100780008A1F911DA11D6A0F711D811D911DA11D43
:1007900020D009F468943F912AE0269F1124301953
:1007A000305D3193DEF6CF010895462F4770405DEE
:1007B0004193B3E00FD0C9F7F6CF462F4F70405D9D
:1007C0004A3318F0495D31FD4052419302D0A9F7F8
:1007D000EACFB4E0A6959795879577956795BA95F2
:1007E000C9F700976105710508959B01AC010A2EB8
:1007F00006945795479537952795BA95C9F7620F8F
:10080000731F841F951FA01D0895CF92DF92EF9252
:10081000FF920F931F936C01FC01E68AF78A008F09
:10082000118F718360835383428335832483C8018E
:10083000B70120E030E040E251E40E949B12F60153
:10084000628F738F848F958FC801B70120E030E0ED
:1008500040E05FE30E94EA13F601668377838087B6
:10086000918780EE9EE2A5E6B2E482A393A3A4A3BF
:10087000B5A31F910F91FF90EF90DF90CF90089557
:100880008F929F92AF92BF92CF92DF92EF92FF92A0
:100890000F931F938C01882777FD8095982F0E94D6
:1008A0003613F80126893789408D518D0E94EA134D
:1008B00020E030E040E85AE30E94EA13F801268184
:1008C0003781408551850E943212F801228D338D87
:1008D000448D558D0E949B126B017C01F801868C22
:1008E000978CA0A0B1A0A50194010E949712882323
:1008F0009CF4A50194015058C701B6010E94E6136B
:10090000181654F40F2EF0E0CF2EF0E0DF2EF0E0BA
:10091000EF2EF0E0FF2EF02DB601C7011F910F91D1
:10092000FF90EF90DF90CF90BF90AF909F908F900F
:100930000895FC012285338544855585B901CA0196
:100940000895FC012685378540895189B901CA017E
:100950000895FC012289338944895589B901CA0166
:100960000895DF92EF92FF920F931F93CF93DF933F
:10097000D62E862F0E944F0C61E070E080E090E060
:100980000E94B80BEE24FF248701C0E0D0E08D2D3B
:100990000E944F0CAA2797FDA095BA2FE80EF91ECA
:1009A0000A1F1B1F2196C530D10589F7C801B70161
:1009B00025E030E040E050E00E948E14C901DF9154
:1009C000CF911F910F91FF90EF90DF9008950F93BB
:1009D0001F938C01FC01608171810E94B104BC01F4
:1009E000C8010E944004F801628773878487958755
:1009F00062817381C8010E94B104BC01C8010E94D8
:100A00004004F80166877787808B918B64817581BC
:100A1000C8010E94B104BC01C8010E944004F80151
:100A2000628B738B848B958B1F910F910895FC01C2
:100A30007183608324833583468357830895AF92FF
:100A4000BF92CF92DF92EF92FF920F931F9300D04D
:100A500000D0882777FD8095982F24E630E040E08D
:100A600050E0EDB7FEB7218332834383548328E8F7
:100A70003FEF4FEF5FEFF8E7EF2EF12C012D112D37
:100A8000ECE9AE2EEFEFBE2EEFEFCE2EEFEFDE2E27
:100A90000E940D0F0F900F900F900F90CB011F91A0
:100AA0000F91FF90EF90DF90CF90BF90AF9008959F
:100AB0000F931F93CF93DF938C01EB01FC01828195
:100AC00093810E94E704C130D10571F0C230D10595
:100AD00089F0CD2B19F020E030E020C0F8018281B0
:100AE00093810E9499040BC0F801828193810E9436
:100AF000A10405C0F801828193810E94A90420E02D
:100B000030E048EC52E40E94EA130E9403139B0178
:100B1000AC01C801B9010E941F059C01C901DF9108
:100B2000CF911F910F910895BF92CF92DF92EF92D4
:100B3000FF920F931F93DF93CF93CDB7DEB7279725
:100B40000FB6F894DEBF0FBECDBF8C017B0160E015
:100B500070E00E945805C82E6AE070E080E090E0E6
:100B60000E94B80BC80161E070E00E945805D82EC1
:100B70006AE070E080E090E00E94B80BC80162E09B
:100B800070E00E945805182F6AE070E080E090E065
:100B90000E94B80BFE01319687E0DF011D928A9515
:100BA000E9F7C982DA821B8387010A571E4FBE2CE0
:100BB0003F2DAF01D801B70166577E4F88E0C82EA0
:100BC000D12CCC0EDD1EED90FC901197FA018081A6
:100BD000F70180838D919C911197019611969C93BA
:100BE0008E938017910721F4BC9211963C93119734
:100BF0002FB7F894FB0180819181019691838083C6
:100C00002FBF4F5F5F4F4C155D05E9F627960FB676
:100C1000F894DEBF0FBECDBFCF91DF911F910F9132
:100C2000FF90EF90DF90CF90BF900895AF92BF926A
:100C3000CF92DF92EF92FF920F931F936C0186E2A7
:100C400090E00E94910EB82EA92ED601ED91FC9154
:100C500011976181428123811496ED90FD900D9151
:100C60001C91179770E050E030E00E940504F601F7
:100C7000B282A3821F910F91FF90EF90DF90CF90EF
:100C8000BF90AF900895FC01868D978D08950F93C6
:100C90001F938C01BC016C5F7F4F0E94250AC80125
:100CA00062E30E94390AFC01D8015F969C938E93FF
:100CB0005E978489811181E01F910F9108950E94B0
:100CC000200A0895FC01CB012DE431E0318320831B
:100CD000758F648F178E168E40E052EC61E070E0E5
:100CE0000E94FB0C0895DC011D96ED91FC911E976E
:100CF000A081B18112962D913C911397CF0150E0C4
:100D0000F901099508951F93CF93DF93EC011AE041
:100D10001CC0ED85FE85A081B18114962D913C917A
:100D20001597CF01F9010995892B79F0ED85FE859D
:100D3000A081B18116962D913C911797CF01F901B1
:100D40000995803411F481E003C0115010F780E060
:100D5000DF91CF911F9108950F931F93DF93CF934E
:100D600000D0CDB7DEB78C018BE289836A83D801CE
:100D70001D96ED91FC911E97A081B18112962D9147
:100D80003C911397CF01BE016F5F7F4F42E050E06F
:100D9000F9010995C8010E9483060F900F90CF9129
:100DA000DF911F910F91089564E40E94AC060895AD
:100DB00063E40E94AC0608950F931F93CF93DF93D3
:100DC000EC016B8B0E948306882339F100E01AE066
:100DD0001CC0ED85FE85A081B18114962D913C91BA
:100DE0001597CF01F9010995892B79F0AD85BE855D
:100DF000ED91FC9111970680F781E02DCD010995C9
:100E0000FE01E00FF11D848B0F5F115010F78C89EC
:100E10008B3219F481E08B8F01C01B8E9E012D5EF9
:100E20003F4FC901DF91CF911F910F910895CF934B
:100E3000DF93EC018FB7F894E989FA89E657FE4F02
:100E4000208131818FBF232B51F049895A899E011E
:100E50002A5D3F4F81E090E061E40E94B109E881A2
:100E6000F9810084F185E02DCE01A696BE0143E113
:100E70000995DF91CF910895FC01848D958D01979F
:100E800029F4868D978D0E943D090895CF010E9417
:100E9000170708950F931F938C0162E50E94AC061B
:100EA000F80180A191A10E942B0B1F910F91089531
:100EB000AF92BF92CF92DF92EF92FF920F931F9368
:100EC0006C01CB015A0145E551E0F60151834083A5
:100ED00012A213A214A215A276876587B382A282FA
:100EE000328B218B178F068FF1A2E0A240E052ECEB
:100EF00061E070E00E94FB0CF601A585B685ED91DE
:100F0000FC9111970284F385E02DCD010995F6013E
:100F1000B58EA48E1F910F91FF90EF90DF90CF9030
:100F2000BF90AF9008950F931F93FC0151834083AE
:100F30007383628335832483F80109951F910F9190
:100F40000895CF93DF93EC01EC81FD81A081B18105
:100F500012962D913C911397CF01F90109958823A1
:100F600069F08C819D810E94430660E071E00E94DF
:100F700054019C0180E0232B09F481E0DF91CF91A3
:100F80000895DF93CF93CDB7DEB76E970FB6F89481
:100F9000DEBF0FBECDBF9C01DE0111968EE1FD01CB
:100FA00011928A95E9F7F90180819181860F911D4F
:100FB000FC0125913491F90184918D933196882318
:100FC000D9F7CE0101966E960FB6F894DEBF0FBE2C
:100FD000CDBFCF91DF910895EF92FF920F931F93B2
:100FE000DF93CF93CDB7DEB727970FB6F894DEBF68
:100FF0000FBECDBF8C0164E20E94C107BC017E011F
:101000000894E11CF11CC7010E94FC0FF801A481A7
:10101000B581ED91FC91119769817A810190F08100
:10102000E02DCD014D810995C8010E94A107182F1F
:10103000C7010E941610812F27960FB6F894DEBFC5
:101040000FBECDBFCF91DF911F910F91FF90EF9019
:101050000895DF92EF92FF920F931F93DF93CF9348
:10106000CDB7DEB727970FB6F894DEBF0FBECDBF62
:101070008C01D62E67E10E94C107BC017E01089455
:10108000E11CF11CC7010E94FC0FC8016D2D0E94DC
:10109000C107BC01C7010E94B90FF801A481B58145
:1010A000ED91FC91119769817A810190F081E02D99
:1010B000CD014D810995C8010E94A107182FC701D4
:1010C0000E941610812F27960FB6F894DEBF0FBE30
:1010D000CDBFCF91DF911F910F91FF90EF90DF90E7
:1010E0000895AF92BF92CF92DF92EF92FF920F934B
:1010F0001F93DF93CF93CDB7DEB761970FB6F89408
:10110000DEBF0FBECDBF7C015B0165E10E94C10760
:10111000BC016E010894C11CD11CC6010E94FC0FC9
:10112000C70162E00E94C10700D000D000D0EDB737
:10113000FEB731968E01085F1F4FADB7BEB712964E
:101140001C930E93119793838283B582A4820E948D
:101150006401EDB7FEB736960FB6F894FEBF0FBE2A
:10116000EDBFC601B8010E94B90FF701A481B58196
:10117000ED91FC91119769817A810190F081E02DC8
:10118000CD014D810995C7010E94A107182FC60105
:101190000E941610812F61960FB6F894DEBF0FBE25
:1011A000CDBFCF91DF911F910F91FF90EF90DF9016
:1011B000CF90BF90AF900895EF92FF920F931F933F
:1011C000DF93CF93CDB7DEB727970FB6F894DEBF86
:1011D0000FBECDBF8C0160E00E94C107BC017E0143
:1011E0000894E11CF11CC7010E94FC0FF801A481C6
:1011F000B581ED91FC91119769817A810190F0811F
:10120000E02DCD014D810995C8010E94A107182F3D
:10121000C7010E941610812F27960FB6F894DEBFE3
:101220000FBECDBFCF91DF911F910F91FF90EF9037
:101230000895CF93DF93EC010E94DC086A817B81E3
:10124000CE010E947108882349F0CE0168E10E9416
:101250002908882319F0CE010E94EC07DF91CF9175
:101260000895FC015583448371836083308B278705
:101270000895FC01738362830895FF920F931F9377
:10128000CF93DF93EC01EC81FD81A081B1811496B5
:101290002D913C911597CF01F9010995892B21F1E9
:1012A000EC81FD81A081B18116962D913C9117971B
:1012B000CF01F9010995082F10E085E0F82E0AC04A
:1012C000801739F4638174810180F281E02D802FD1
:1012D00009951F5F1F9DC0011124EA81FB81E80F62
:1012E000F91F80818F3F61F7DF91CF911F910F919F
:1012F000FF900895CB010E9417070895FB018330EA
:1013000079F0843018F48130A0F005C0863068F0A0
:10131000863079F405C0878590890E942B0B08954B
:10132000878590890E94280B0895878590890E945F
:10133000240B08950F931F938A01FA016783918705
:10134000808781E082830E94AA0BF8016383748303
:10135000858396838AE090E0918380831F910F912B
:101360000895CF92DF92EF92FF920F931F93CF9346
:10137000DF938A01E901A9010E949A09CE010B9627
:10138000FC0183E0DF011D928A95E9F7198A2FB7E6
:10139000F894F801E657FE4F808191812FBF08979E
:1013A00008F445C086E8E82E81E0F82EE00EF11E34
:1013B000D02EC12EBE01655F7F4FD801A857BE4F0A
:1013C000AF016396ED91FC91119731911196FC93C9
:1013D000EE93EE15FF0521F4DC921196CC92119755
:1013E0002FB7F894FA0180819181019791838083CE
:1013F0002FBFFB013193BF01EC17FD0719F7F8016F
:10140000E857FE4F808191810196918380838E15EC
:101410009F0511F4D082C1822FB7F894F801E657E6
:10142000FE4F808191810197918380832FBFDF914F
:10143000CF911F910F91FF90EF90DF90CF90089583
:10144000FC017683658344830895CF93DF93FC0189
:10145000A281B3818D919C911197658176814481A0
:10146000EC01EA81FB81CD0150E00995DF91CF913C
:1014700008950F931F93CF93DF93EC01062F10E095
:1014800026C0AA81BB81ED91FC9111970680F7815E
:10149000E02DCD010995FE01E10FF11D87838B8DB4
:1014A0008F5F8B8F1F5FEA81FB81A081B1811496D2
:1014B0002D913C911597CF01F9010995892B09F7D9
:1014C00064E670E080E090E00E94B80B01500023D9
:1014D00051F79E01295F3F4FC901DF91CF911F91C5
:1014E0000F9108958F929F92AF92BF92CF92DF9209
:1014F000EF92FF920F931F933DEF832E32E0932ED6
:1015000021E7C22E21E0D22E99E3E92E94E0F92EB4
:1015100080E7A82E81E0B82EC401B601A70195018D
:101520000E9431090EE013E0C801B7010E94620673
:101530008EE293E060E271E020E030E040EA50E4C7
:101540000E94170586E393E063E071E041EF51E00C
:10155000980109E119E00E9493078CE393E0B70139
:1015600041E050E09601840175010E9458071F91E7
:101570000F91FF90EF90DF90CF90BF90AF909F9032
:101580008F9008958EE293E061E771E00E949405E8
:1015900080917001882321F08CE393E00E943C0746
:1015A00064E670E080E090E00E94B80B08950F932D
:1015B0001F9305E713E0C80169E374E020E032EC13
:1015C00041E050E00E94310B60ED77E080E090E078
:1015D0000E94B80BC8010E945E0B8091A6039091F7
:1015E000A70361E171E00E94FA0E6AE070E080E01A
:1015F00090E00E94B80BC80160E040E00E942F0B11
:101600002FB7F89481E791E09093F8028093F70266
:101610009093FA028093F9022FBF81E00E944C0C54
:101620008EE293E00E9416068DEF92E064E271E094
:101630000E9439098CE393E00E94D80681E08093F0
:1016400070011F910F910895FC0181E0808308953E
:10165000FC0110820895E0E0F0E0099508950895F6
:101660000895FC0172AB61ABCB01BA01A9010E94E4
:10167000FB0C0895CF93DF93EC01662339F015C07E
:1016800063E070E080E090E00E94B80B0E94AA0B3B
:1016900029813A814B815C81621B730B840B950B12
:1016A000623371058105910558F30E94AA0B698385
:1016B0007A838B839C83DF91CF91089560E00E94B1
:1016C0003A0B08951F920F920FB60F9211242F9389
:1016D0003F938F939F93AF93BF938091AC0390916F
:1016E000AD03A091AE03B091AF033091B00301966A
:1016F000A11DB11D232F2D5F2D3720F02D570196F1
:10170000A11DB11D2093B0038093AC039093AD0352
:10171000A093AE03B093AF038091A8039091A90367
:10172000A091AA03B091AB030196A11DB11D8093B6
:10173000A8039093A903A093AA03B093AB03BF910E
:10174000AF919F918F913F912F910F900FBE0F906E
:101750001F9018958FB7F8942091AC033091AD038A
:101760004091AE035091AF038FBFB901CA010895F4
:101770009B01AC017FB7F8948091A8039091A903D5
:10178000A091AA03B091AB0366B5A89B05C06F3FBB
:1017900019F00196A11DB11D7FBFBA2FA92F982F57
:1017A0008827860F911DA11DB11D62E0880F991F2A
:1017B000AA1FBB1F6A95D1F7BC012DC0FFB7F894D3
:1017C0008091A8039091A903A091AA03B091AB03C3
:1017D000E6B5A89B05C0EF3F19F00196A11DB11D0C
:1017E000FFBFBA2FA92F982F88278E0F911DA11DFB
:1017F000B11DE2E0880F991FAA1FBB1FEA95D1F720
:10180000861B970B885E9340C8F2215030404040C1
:10181000504068517C4F211531054105510571F645
:101820000895789484B5826084BD84B5816084BD58
:1018300085B5826085BD85B5816085BDEEE6F0E049
:10184000808181608083E1E8F0E0108280818260A5
:101850008083808181608083E0E8F0E08081816026
:101860008083E1EBF0E0808184608083E0EBF0E056
:10187000808181608083EAE7F0E0808184608083FA
:1018800080818260808380818160808380818068A4
:1018900080831092C1000895809342010895982F8B
:1018A0008E3008F09E509770809142018295880F8B
:1018B000880F807C892B80937C0080917A008064E3
:1018C00080937A0080917A0086FDFCCF2091780089
:1018D00040917900942F80E030E0282B392BC9010A
:1018E000089508951F920F920FB60F9211242F930F
:1018F0003F934F938F939F93EF93FF938091C000FB
:1019000082FD1DC04091C6002091F1033091F20389
:101910002F5F3F4F2F7330708091F3039091F4034A
:101920002817390771F0E091F103F091F203EF54B9
:10193000FC4F40833093F2032093F10302C0809167
:10194000C600FF91EF919F918F914F913F912F9101
:101950000F900FBE0F901F901895E0914504F091E5
:101960004604E05CFF4F8191919120813181821B7F
:10197000930B8F739070892B11F00E94710C089556
:101980001F920F920FB60F9211242F933F938F93B4
:101990009F93EF93FF93209135043091360480910B
:1019A0003704909138042817390731F48091C10029
:1019B0008F7D8093C10014C0E0913704F09138040A
:1019C000EB50FC4F208180913704909138040196B0
:1019D0008F73907090933804809337042093C600DF
:1019E000FF91EF919F918F913F912F910F900FBE9B
:1019F0000F901F901895AF92BF92DF92EF92FF92D7
:101A00000F931F93CF93DF93EC017A018B01DD24B9
:101A1000403081EE580780E0680780E0780711F0D9
:101A2000DD24D39491E0A92EB12CEC89FD89DD2031
:101A300069F0C50108A002C0880F991F0A94E2F757
:101A4000808360E079E08DE390E005C0108260E87B
:101A500074E88EE190E0A80197010E946C14215077
:101A6000304040405040569547953795279580E146
:101A70002030380720F0DD2011F0DD24D6CFE889B2
:101A8000F9893083EA89FB89208319A2EE89FF89CD
:101A9000408121E030E0C9010C8C02C0880F991F01
:101AA0000A94E2F7482B4083EE89FF894081C901FF
:101AB0000D8C02C0880F991F0A94E2F7482B4083CF
:101AC000EE89FF894081C9010E8C02C0880F991FE1
:101AD0000A94E2F7482B4083EE89FF8980810F8CBE
:101AE00002C0220F331F0A94E2F720952823208397
:101AF000DF91CF911F910F91FF90EF90DF90BF90FA
:101B0000AF900895DC011C96ED91FC911D97E05C6F
:101B1000FF4F2191319180819181281B390B2F73C7
:101B20003070C9010895DC011C96ED91FC911D9760
:101B3000E05CFF4F20813181E054F040DF01AE5B7B
:101B4000BF4F8D919C9111972817390719F42FEFEA
:101B50003FEF07C08D919C91E80FF91F8081282FDE
:101B600030E0C9010895DC011C96ED91FC911D97B0
:101B7000E05CFF4F20813181E054F040DF01AE5B3B
:101B8000BF4F8D919C9111972817390719F42FEFAA
:101B90003FEF10C08D919C911197E80FF91F2081A4
:101BA0008D919C91119701968F73907011969C93D3
:101BB0008E9330E0C9010895DC0191968C91919744
:101BC000882339F05496ED91FC915597808186FFDA
:101BD000F9CF91961C920895CF93DF93EC01EE8597
:101BE000FF85E05CFF4F20813181E054F0402F5FA2
:101BF0003F4F2F733070DF01AE5BBF4F8D919C91D3
:101C0000119728173907D1F3E05CFF4F808191814C
:101C1000E054F040E80FF91F6083EE85FF85E05C3B
:101C2000FF4F31832083EE89FF89208181E090E09E
:101C30000F8C02C0880F991F0A94E2F7282B20838B
:101C400081E089A3EC89FD8980818064808381E0C3
:101C500090E0DF91CF91089510923C0410923B04E4
:101C600088EE93E0A0E0B0E080933D0490933E04C2
:101C7000A0933F04B093400483E691E090933A042C
:101C80008093390481EB93E090934604809345045C
:101C900085EF93E0909348048093470485EC90E0AF
:101CA00090934A048093490484EC90E090934C0410
:101CB00080934B0480EC90E090934E0480934D040D
:101CC00081EC90E09093500480934F0482EC90E07C
:101CD000909352048093510486EC90E090935404C6
:101CE0008093530484E08093550483E080935604EA
:101CF00087E08093570485E08093580481E08093C7
:101D000059040895CF93DF930E94110C0E94D70AC3
:101D1000CDEADCE00E94C20A2097E1F30E94AD0CFC
:101D2000F9CF0E941C100895CF92DF92EF92FF929C
:101D30000F931F93CF93DF937C016B018A01C0E067
:101D4000D0E00FC0D6016D916D01D701ED91FC91EE
:101D50000190F081E02DC7010995C80FD91F0150EE
:101D600010400115110571F7CE01DF91CF911F9140
:101D70000F91FF90EF90DF90CF900895EF92FF9238
:101D80000F931F938C01DC01ED91FC910190F08188
:101D9000E02D6DE009957C01D801ED91FC91019059
:101DA000F081E02DC8016AE009959C012E0D3F1DD0
:101DB000C9011F910F91FF90EF900895CF93DF938A
:101DC000EC016115710519F420E030E00FC0DB0172
:101DD0000D900020E9F71197A61BB70BE881F98158
:101DE0000280F381E02DAD0109959C01C901DF91CD
:101DF000CF910895EF92FF920F931F937C010E9461
:101E0000DE0E8C01C7010E94BE0E080F191FC8010B
:101E10001F910F91FF90EF9008952F923F924F9254
:101E20005F926F927F928F929F92AF92BF92CF926A
:101E3000DF92EF92FF920F931F93DF93CF93CDB773
:101E4000DEB73B014C0119012A016D897E898F891A
:101E5000988D6A197B098C099D09621A730A840A94
:101E6000950AA40193010E944D14E218F308040995
:101E70001509A80197010E948E142A0D3B1D4C1DC7
:101E80005D1DB901CA01CF91DF911F910F91FF90A4
:101E9000EF90DF90CF90BF90AF909F908F907F900A
:101EA0006F905F904F903F902F9008950F931F93E6
:101EB000CF93DF93EC018B016F5F7F4F8881998116
:101EC0000E945111009711F480E005C09983888326
:101ED0001B830A8381E0DF91CF911F910F910895B9
:101EE000CF93DF93EC0188819981892B29F08A8136
:101EF0009B818617970760F4CE010E94560F8823B6
:101F000041F08C819D81892B19F4E881F98110823F
:101F100081E0DF91CF910895EF92FF920F931F938D
:101F2000CF93DF93EC017B016C817D81E114F1049F
:101F3000C1F04115510599F08A01060F171FB8012C
:101F40000E94700F882369F0888199812C813D81DE
:101F5000820F931FB7010E945D011D830C8381E0F6
:101F600001C080E0DF91CF911F910F91FF90EF9022
:101F700008956115710511F480E00895DB010D905D
:101F80000020E9F71197A61BB70BAD010E948C0F3B
:101F90000895CF93DF93EC0188819981009711F028
:101FA0000E94B910198218821D821C821B821A821B
:101FB000DF91CF910895EF92FF920F931F93CF93EC
:101FC000DF93EC017B018A01BA010E94700F882324
:101FD00021F4CE010E94C90F07C01D830C838881A4
:101FE0009981B7010E945D01CE01DF91CF911F91D0
:101FF0000F91FF90EF900895CF93DF93EC0119823A
:1020000018821B821A821D821C821E826115710534
:1020100051F0DB010D900020E9F71197A61BB70BDB
:10202000AD010E94DB0FDF91CF910895FC0180810B
:1020300091810E94B91008950F931F93CF93DF935E
:10204000BC018230910510F462E070E0E0915D0423
:10205000F0915E0440E050E0A0E0B0E024C0808158
:10206000918186179707D0F08617970771F48281C0
:102070009381109729F013969C938E9312972CC0FE
:1020800090935E0480935D0427C04115510519F0BB
:102090008417950718F48D01AC01EF01DF018281EF
:1020A00093819C01F9013097D1F641155105F9F062
:1020B000CA01861B970B8430910580F48A819B812D
:1020C0000115110521F0F8019383828304C09093D8
:1020D0005E0480935D04FE01329645C0FE01E80F68
:1020E000F91F619371930297998388833CC0809113
:1020F0005B0490915C04892B41F48091450190919F
:10210000460190935C0480935B0440914701509199
:1021100048014115510541F44DB75EB78091430127
:1021200090914401481B590B20915B0430915C0451
:1021300024173507B0F4CA01821B930B8617970743
:1021400080F0AB014E5F5F4F8417950750F0420F50
:10215000531F50935C0440935B04F90161937193A6
:1021600002C0E0E0F0E0CF01DF91CF911F910F912D
:102170000895CF93DF939C01009709F48FC0EC0181
:1021800022971B821A8260915D0470915E04611532
:10219000710581F488819981820F931F20915B04DE
:1021A00030915C042817390739F5D0935C04C0934B
:1021B0005B0474C0DB0140E050E0AC17BD0708F1E0
:1021C000BB83AA83FE0121913191E20FF31FAE1769
:1021D000BF0779F48D919C911197280F391F2E5FBD
:1021E0003F4F3983288312968D919C9113979B833F
:1021F0008A834115510571F4D0935E04C0935D0448
:102200004DC012968D919C911397AD01009711F0DE
:10221000DC01D3CFDA011396DC93CE931297FA0147
:1022200021913191E20FF31FCE17DF0769F4888106
:102230009981280F391F2E5F3F4FFA013183208388
:102240008A819B8193838283E0E0F0E0DB01129638
:102250008D919C911397009719F0BC01FD01F6CF69
:10226000AB014E5F5F4FDB018D919C91840F951FF9
:1022700020915B0430915C042817390779F430977A
:1022800029F410925E0410925D0402C0138212823F
:102290004250504050935C0440935B04DF91CF91D7
:1022A00008956F927F928F929F92AF92BF92CF923A
:1022B000DF92EF92FF920F931F93CF93DF938C01E6
:1022C000009729F4CB010E941C108C01BBC08EEF3B
:1022D000E82E8FEFF82EE00EF11E4801860E971EB5
:1022E0008E149F0408F4ACC0D7014D915C911197F6
:1022F00046175707B8F04530510508F4A3C0CA0186
:1023000004978617970708F49DC042505040461B1B
:10231000570BF401419351936D937C93CF010E942D
:10232000B91090C05B01A41AB50A3801640E751E7D
:10233000A0915D04B0915E04E0E0F0E0CC24DD24E7
:1023400047C0A615B705A9F5CD91DC911197CE012F
:1023500002968A159B0568F1CE018A199B0902969F
:1023600012962C91129713963C91059758F0F40110
:1023700022833383CA19DB09D183C083D7016D93CC
:102380007C9309C04E5F5F4F4C0F5D1FF701518377
:102390004083C901FC01C114D10431F0D601139668
:1023A000FC93EE9312974EC0F0935E04E0935D04AD
:1023B00049C08D919C911197E817F90708F4FC0129
:1023C0006D0112968C91129713969C919C01D901E4
:1023D000109709F0B6CF80915B0490915C0486154C
:1023E0009705E9F4E617F707D0F4209147013091FB
:1023F00048012115310541F42DB73EB780914301C5
:1024000090914401281B390B82169306C8F49092D0
:102410005C0480925B04F7017183608313C0CB017D
:102420000E941C10EC01009759F0D7014D915C916E
:10243000B8010E944B01C8010E94B9108E0102C070
:1024400000E010E0C801DF91CF911F910F91FF9044
:10245000EF90DF90CF90BF90AF909F908F907F9044
:102460006F9008955058BB27AA270ED075C166D12A
:1024700030F06BD120F031F49F3F11F41EF45BC1BA
:102480000EF4E095E7FB51C1E92F77D180F3BA173D
:10249000620773078407950718F071F49EF58FC1E2
:1024A0000EF4E0950B2EBA2FA02D0B01B90190016F
:1024B0000C01CA01A0011124FF27591B99F0593FB3
:1024C00050F4503E68F11A16F040A22F232F342FFB
:1024D0004427585FF3CF469537952795A795F04049
:1024E0005395C9F77EF41F16BA0B620B730B840B5E
:1024F000BAF09150A1F0FF0FBB1F661F771F881F16
:10250000C2F70EC0BA0F621F731F841F48F487956D
:1025100077956795B795F7959E3F08F0B3CF93955C
:10252000880F08F09927EE0F979587950895D9D0D1
:1025300008F481E008950CD00FC107D140F0FED01F
:1025400030F021F45F3F19F0F0C0511139C1F3C0F0
:1025500014D198F39923C9F35523B1F3951B550B67
:10256000BB27AA2762177307840738F09F5F5F4F66
:10257000220F331F441FAA1FA9F333D00E2E3AF0A7
:10258000E0E830D091505040E695001CCAF729D0C1
:10259000FE2F27D0660F771F881FBB1F2617370710
:1025A0004807AB07B0E809F0BB0B802DBF01FF2740
:1025B00093585F4F2AF09E3F510568F0B6C000C1A6
:1025C0005F3FECF3983EDCF3869577956795B7957A
:1025D000F7959F5FC9F7880F911D9695879597F995
:1025E0000895E1E0660F771F881FBB1F621773070E
:1025F0008407BA0720F0621B730B840BBA0BEE1F23
:1026000088F7E095089504D06894B111D9C0089571
:10261000BCD088F09F5790F0B92F9927B751A0F000
:10262000D1F0660F771F881F991F1AF0BA95C9F766
:1026300012C0B13081F0C3D0B1E00895C0C0672F9F
:10264000782F8827B85F39F0B93FCCF38695779516
:102650006795B395D9F73EF49095809570956195FF
:102660007F4F8F4F9F4F0895E89409C097FB3EF42A
:1026700090958095709561957F4F8F4F9F4F9923CF
:10268000A9F0F92F96E9BB279395F695879577954D
:102690006795B795F111F8CFFAF4BB0F11F460FF0D
:1026A0001BC06F5F7F4F8F4F9F4F16C0882311F065
:1026B00096E911C0772321F09EE8872F762F05C079
:1026C000662371F096E8862F70E060E02AF09A9514
:1026D000660F771F881FDAF7880F9695879597F909
:1026E0000895990F0008550FAA0BE0E8FEEF1616A3
:1026F0001706E807F907C0F012161306E407F507F6
:1027000098F0621B730B840B950B39F40A2661F069
:10271000232B242B252B21F408950A2609F4A1400C
:10272000A6958FEF811D811D089597F99F6780E819
:1027300070E060E008959FEF80EC089500240A9413
:102740001616170618060906089500240A9412168C
:102750001306140605060895092E0394000C11F4BF
:10276000882352F0BB0F40F4BF2B11F460FF04C06C
:102770006F5F7F4F8F4F9F4F089557FD9058440FC5
:10278000551F59F05F3F71F04795880F97FB991FD0
:1027900061F09F3F79F0879508951216130614068D
:1027A000551FF2CF4695F1DF08C01616170618061A
:1027B000991FF1CF86957105610508940895E894F5
:1027C000BB2766277727CB0197F908958ADF08F49E
:1027D0008FEF08950BD0C0CFB1DF28F0B6DF18F02F
:1027E000952309F0A2CFA7CF1124EACFC6DFA0F32B
:1027F000959FD1F3950F50E0551F629FF001729F96
:10280000BB27F00DB11D639FAA27F00DB11DAA1FB4
:10281000649F6627B00DA11D661F829F2227B00D01
:10282000A11D621F739FB00DA11D621F839FA00D8C
:10283000611D221F749F3327A00D611D231F849FDC
:10284000600D211D822F762F6A2F11249F57504033
:102850008AF0E1F088234AF0EE0FFF1FBB1F661FCE
:10286000771F881F91505040A9F79E3F510570F087
:102870005CCFA6CF5F3FECF3983EDCF3869577956F
:102880006795B795F795E7959F5FC1F7FE2B880F82
:10289000911D9695879597F90895629FD001739F32
:1028A000F001829FE00DF11D649FE00DF11D929FEC
:1028B000F00D839FF00D749FF00D659FF00D99272B
:1028C000729FB00DE11DF91F639FB00DE11DF91F4F
:1028D000BD01CF0111240895A1E21A2EAA1BBB1B32
:1028E000FD010DC0AA1FBB1FEE1FFF1FA217B307DC
:1028F000E407F50720F0A21BB30BE40BF50B661FF2
:10290000771F881F991F1A9469F7609570958095B5
:1029100090959B01AC01BD01CF01089597FB092E55
:1029200005260ED057FD04D0D7DF0AD0001C38F49E
:1029300050954095309521953F4F4F4F5F4F0895EB
:10294000F6F790958095709561957F4F8F4F9F4FCB
:102950000895EE0FFF1F0590F491E02D09942F923A
:102960003F924F925F926F927F928F929F92AF921F
:10297000BF92CF92DF92EF92FF920F931F93CF936C
:10298000DF93CDB7DEB7CA1BDB0B0FB6F894DEBF03
:102990000FBECDBF09942A88398848885F846E8429
:1029A0007D848C849B84AA84B984C884DF80EE8073
:1029B000FD800C811B81AA81B981CE0FD11D0FB67C
:1029C000F894DEBF0FBECDBFED010895F894FFCFA0
:1029D0004F4B00414343454C45524F4D45544552A2
:1029E00000564D4450565F317C5F564D4450560062
:1029F00003000102527E09FD02027E09FD02037EF0
:102A000009FD02047E09FD02057E09FD02107A0916
:102A10003C030180005F040000000000005F0647E7
:102A20000600000000D806D4064A07DC067306003C
:102A3000000000EC0D940E820DB30D930DDC0D0023
:00000001FF
