S0170000434C4153535F4A4F59535449434B312E7372656397
S1130000C0C00000DAC00000D8C00000D6C00000A4
S1130010D4C00000D2C00000D0C00000CEC0000098
S1130020CCC00000CAC00000C8C000000C94610924
S1130030C4C00000C2C00000C0C00000BEC00000B8
S1130040BCC00000BAC00000B8C00000B6C00000C8
S1130050B4C00000B2C00000B0C0000036C200004E
S1130060ACC00000AAC00000A8C00000A6C00000E8
S1130070A4C000002C0A540A410B540A410B930AF1
S1130080B60A410B0E0B1E0B26034A006F007900C3
S113009073007400690063006B0020002B002000D3
S11300A0530065007200690061006C0000002203C7
S11300B04600720061006E00630069007300200056
S11300C050006100700069006E00650061007500F9
S11300D000000403090409025F00030100C032099F
S11300E00400000103000000092111010001223A6B
S11300F00007058103080005080B01020202010044
S11301000904010001020201000524001001042475
S113011002060524060102070584030800FF0904FA
S11301200200020A0000000705030210000507058B
S1130130820210000512010002EF020108EB0343E2
S11301402000010102DC0105010904A1010901A14A
S1130150000930093109321618FC26E80336FFFF7E
S1130160460100950375108102C00509190129088B
S1130170150025017501950881027500950181011D
S1130180C00011241FBECFEFD2E0DEBFCDBF11E00F
S1130190A0E0B1E0E4EAF8E102C005900D92A033DA
S11301A0B107D9F722E0A0E3B1E001C01D92A03667
S11301B0B207E1F76AD10C94500C22CF292F3327D0
S11301C023303105C9F044F42130310509F439C034
S11301D02230310561F006C02132310541F122326D
S11301E0310551F180E090E020E030E033C08FE54C
S11301F090E026ED30E02EC099278130910559F02A
S11302008230910571F0892B09F5E2EDF0E08491DB
S113021090E09F011FC0EEEAF0E0849190E09F011E
S113022019C0E8E8F0E0849190E09F0113C089E0F0
S113023090E028EE30E00EC08AE390E027E431E05D
S113024009C082E190E025E331E004C080E090E061
S113025020E030E0FA01318320830895CF93DF93C7
S11302606115710579F0DC01860F971FE8ECF0E069
S1130270CEECD0E03D91208125FFFDCF3883A81737
S1130280B907C1F7DF91CF910895CF93DF9384B776
S1130290877F84BF88E10FB6F89480936000109242
S11302A060000FBE579A5F9A8FEC90E09093CD0058
S11302B08093CC0086E08093CA0082E08093C800DB
S11302C0C9ECD0E088E18883539A5A9AEAD788E93E
S11302D08883DF91CF9108950895089580E091E097
S11302E02DD18BE191E0FFD3E2EEF0E080818460D8
S11302F08083089580E091E013D28BE191E0AFC256
S113030008958091290190912A01009729F001977D
S113031090932A01809329010895AF92BF92DF92AE
S1130320EF92FF920F931F93CF93DF93CDB7DEB776
S113033027970FB6F894DEBF0FBECDBF9FB7F894D2
S1130340809152029FBF883008F45DC060E070E085
S113035080E090E0A0E5B2E00F2EFFE4EF2EF1E0A4
S1130360FF2EF02D42E552E0AA24A394B12CAC0E4A
S1130370BD1EA60EB71EED91FC911197D19011965A
S1130380FC93EE93EE54F24019F41196FC92EE9223
S11303906FB7F894FA017081715070836FBFF501E3
S11303A0D0820196BC0187309105F1F68F8180934C
S11303B04B0189819A8190934601809345018B81F9
S11303C09C8190934801809347018D819E819093F5
S11303D04A0180934901E0E5F2E080819181019630
S11303E0918380838E54924031F48FE491E0909312
S11303F05102809350028FB7F894E2E5F2E09081C5
S1130400915090838FBF87E0E5E4F1E0D90101903A
S11304100D928A95E1F787E090E0F801918380835B
S113042080E027960FB6F894DEBF0FBECDBFDF91F4
S1130430CF911F910F91FF90EF90DF90BF90AF90FD
S1130440089508958BB11BB88FE39CE90197F1F7E8
S113045000C000005F9A089520E331E043E050E0DB
S113046061E070E08CE491E00E94AE0B6BE271E01D
S11304708CE491E00E94A50B892B09F4E3DF63E08F
S113048070E08CE491E0EACE0895FFDE2FB7F89493
S11304908FE491E090934F0280934E029093510227
S11304A0809350022FBF789460E371E080E091E084
S11304B023D18BE191E02BD380E091E0C7D080E0A1
S11304C091E0CADF0E94670BF4CF1F920F920FB620
S11304D00F9211242F938F939F93AF93BF93EF9316
S11304E0FF939091CE00809157028430D9F4EEE4CA
S11304F0F2E0A081B1819C938081918101969183E6
S113050080838E179F0731F48FE491E090934F021C
S113051080934E028FB7F894E2E5F2E090819F5FFA
S113052090838FBFFF91EF91BF91AF919F918F9176
S11305302F910F900FBE0F901F901895CF93DF93BC
S1130540EC01FC0170968BE0DF011D928A95E9F7BE
S113055082E08C83898783E08E8761E0CE010196F7
S1130560AAD5882351F061E0CE010696A4D588234C
S113057021F061E0CE010B969ED5DF91CF910895D5
S1130580CF93C62F209157022430E9F4FC0144890B
S1130590558966897789452B462B472BB1F0818194
S11305A08F708093E9008091E80085FD08C0E8EE33
S11305B0F0E080818E778083FFD5811107C0C093DE
S11305C0F10080E003C082E001C082E0CF91089591
S11305D0FB01682F84859585D3DF21E030E081110C
S11305E002C020E030E088279927821B930B0895EE
S11305F020915702243011F5FC01448955896689FC
S11306007789452B462B472BD9F081818F708093B6
S1130610E9008091F2008823A9F0E8EEF0E08081FF
S113062090819E77908385FD0FC0C6D581110DC042
S1130630E8EEF0E090819E779083089582E008953B
S113064082E0089580E0089580E0089520915702A3
S1130650243089F4FC014489558966897789452BBE
S1130660462B472B41F021812F702093E9002091E4
S1130670E80020FDBDCF089520915702243039F5BC
S1130680FC014489558966897789452B462B472B7C
S113069009F186818F708093E9008091E80082FFE0
S11306A01CC08091F200882321F02091F10030E0F9
S11306B002C02FEF3FEF8091F200811111C0E8EEEC
S11306C0F0E080818B778083822F932F08958FEFC2
S11306D09FEF08958FEF9FEF08958FEF9FEF089599
S11306E0822F932F0895FC0184859585C5DF992376
S11306F014F48EEF9FEF0895FB012EE0DB011D92B1
S11307002A95E9F723E0238328EE32E03187208716
S113071023E733E0338722879587848708950895F4
S1130720CF93DF93EC018091E80083FF95C088812B
S113073090E020915C0230915D022817390709F09E
S11307408BC080915902813259F018F48032B9F18A
S113075083C0823209F45FC0833209F46FC07CC065
S113076080915802813A09F077C0E8EEF0E0808188
S1130770877F8083808180FFFDCF4C895D896E896E
S11307807F89E1EFF0E04083BB27A72F962F852FC9
S11307908083CB01AA27BB278083472F5527662751
S11307A077274083888D8083898D80838A8D808399
S11307B0E8EEF0E080818E778083DAD44DC08091BA
S11307C05802813209F048C0E8EEF0E08081877F6A
S11307D0808305C080915702882309F43DC080813D
S11307E082FFF8CFE1EFF0E03081208190818081B9
S11307F03C8B2D8B9E8B8F8B8081888F8081898F02
S113080080818A8FE8EEF0E080818B778083B0D49A
S1130810CE0185DF21C0809158028132E9F4E8EEEF
S1130820F0E08081877F8083A3D480915A029091E5
S11308305B02998B888BCE0172DF0EC080915802C7
S1130840813251F4E8EEF0E08081877F808390D498
S113085060915A02CE0163DFDF91CF9108953F92F8
S11308604F925F926F927F928F929F92AF92BF92BC
S1130870CF92DF92EF92FF920F931F93CF93DF9368
S113088000D01F92CDB7DEB76C01EDB6FEB68091F5
S1130890E80083FF0EC1F601808190E020915C02A4
S11308A030915D022817390709F003C1809159027C
S11308B0833009F49BC030F4813071F0823009F444
S11308C0DDC0F7C08A3009F4BDC08B3009F4A6C07E
S11308D0893009F0EEC04CC080915802813A09F089
S11308E0E8C08DB69EB61A821982EAE5F2E08081EC
S11308F011818B83F601408550E08DB79EB7841B30
S1130900950B0FB6F8949EBF0FBE8DBFEDB7FEB723
S113091031965F0160E070E0CF0110D74FEF410FD7
S11309208E010F5F1F4F9501BE016D5F7F4FC601A2
S1130930F4DCF60186819781009721F0408550E030
S1130940B501F3D61092E90008EE10E0F8018081B9
S1130950877F808369817A81C501F3D1F801808121
S11309608B7780830FB6F8949EBE0FBE8DBEA1C058
S113097080915802813209F09CC06DB67EB6A09079
S11309805E02B0905F02EAE5F2E0508041808DB7EC
S11309909EB78A199B090FB6F8949EBF0FBE8DBFF0
S11309A0EDB7FEB731964F0108EE10E0F8018081F3
S11309B0877F8083B501C40138D2F80180818E77A6
S11309C0808321E0511001C020E030E08501021B4A
S11309D0130B280D391D4FEF440D652DC60131DD74
S11309E00FB6F8947EBE0FBE6DBE63C080915802F0
S11309F0813A09F05EC0E8EEF0E08081877F808371
S1130A00808180FFFDCFF60181858093F100E8EEBF
S1130A10F0E080818E778083ABD34BC08091580205
S1130A20813209F046C0E8EEF0E08081877F808360
S1130A309FD390915A0281E0911101C080E0F601A8
S1130A40818737C080915802813299F5E8EEF0E051
S1130A508081877F80838CD380915A0290915B023E
S1130A6088270024880F991F001C880F991F001CD9
S1130A70892F902DF601958784871BC08091580299
S1130A80813AB9F4E8EEF0E08081877F8083808149
S1130A9080FFFDCFF601848595859695879596957B
S1130AA087958093F100E8EEF0E080818E77808373
S1130AB05FD30FB6F894FEBE0FBEEDBE0F900F903D
S1130AC00F90DF91CF911F910F91FF90EF90DF90E6
S1130AD0CF90BF90AF909F908F907F906F905F90DA
S1130AE04F903F900895FC01399627E0DF011D9255
S1130AF02A95E9F721E0FC01218724EF31E03587CD
S1130B00248723E0248361E00196D5C208955F928F
S1130B106F927F928F929F92AF92BF92CF92DF9209
S1130B20EF92FF920F931F93CF93DF9300D01F9206
S1130B30CDB7DEB77C01CDB6DEB6809157028430E6
S1130B4009F08AC08091E4009091E500F7012285C4
S1130B5033852817390709F47FC081818F7080930A
S1130B60E9008091E80085FF77C08DB69EB6408588
S1130B7050E08DB79EB7841B950B0FB6F8949EBFBB
S1130B800FBE8DBFEDB7FEB731965F011B821A828F
S1130B90198260E070E0CF01D1D58E010F5F1F4F45
S1130BA0950140E0BE016D5F7F4FC701B6DB682E43
S1130BB0F70124853585232B41F021E0868597852F
S1130BC0892B09F020E0522E01C0512CF701068137
S1130BD017810115110589F049815A81B801C501B0
S1130BE097D577247394892B09F4712CF7014085E8
S1130BF050E0B501C80199D501C0712C29813A8111
S1130C00232BF1F0611004C0711002C050FE18C013
S1130C10F701848595859787868781818F70809376
S1130C20E9008B8181118093F10069817A8140E030
S1130C3050E0C50129D0E8EEF0E080818E77808312
S1130C408091E4009091E500F701938782870FB6C5
S1130C50F8949EBE0FBE8DBE0FB6F894DEBE0FBED6
S1130C60CDBE0F900F900F90DF91CF911F910F91F8
S1130C70FF90EF90DF90CF90BF90AF909F908F90B8
S1130C807F906F905F9008958F929F92AF92BF92E2
S1130C90CF92DF92EF92FF920F931F93CF93DF9344
S1130CA07C01EB015A0188D281113EC0A114B10428
S1130CB039F0F50180819181C81BD90BE80EF91E2A
S1130CC0209779F100E010E00F2EF8EE8F2E912C92
S1130CD0F02D0F2EF1EFCF2ED12CF02DF4018081C9
S1130CE085FD14C080818E778083F1D4A114B10472
S1130CF049F0F50180819181080F191F1183008348
S1130D0085E012C059D2882349F00EC0F7018191C1
S1130D107F01F601808321970F5F1F4F2097F1F623
S1130D2002C080E001C080E0DF91CF911F910F915C
S1130D30FF90EF90DF90CF90BF90AF909F908F90F7
S1130D4008950F931F93CF93DF9320915E02309108
S1130D505F022617370758F06115710539F4E8EE7C
S1130D60F0E020812E7720839B0101C09B01A0E04D
S1130D70E8EEF0E062EF70E0C1EFD0E011E000E0F7
S1130D8035C040915702442309F441C0453009F469
S1130D9040C0408143FD3FC0408142FF03C0E8EEB4
S1130DA0F0E030C0408140FF21C0DB014C9150E0B5
S1130DB02115310599F04830510580F4A82FB92F39
S1130DC08D9188838A2F9B2F215031094F5F5F4F6C
S1130DD02115310519F04830510591F7A12F4830FC
S1130DE0510509F0A02F40814E774083211531052C
S1130DF041F6A111C6CFD3CF80915702882369F061
S1130E00853069F0808182FFF7CF80E009C082E0FD
S1130E1007C083E005C081E003C082E001C083E035
S1130E20DF91CF911F910F9108950F931F93CF934B
S1130E30DF936115710529F4E8EEF0E020812B774A
S1130E402083E8EEF0E002EF10E021EF30E01EC076
S1130E50409157024423C1F14530C1F1408143FD23
S1130E6037C0408142FFF4CF3FC0E90188818D93B0
S1130E708A2F9B2F615071096115710521F0E801DA
S1130E8048814111F2CF40814B7740836115710550
S1130E9019F4E8EEF0E013C0409157024423D1F076
S1130EA04530D1F0408143FD19C0408142FD1CC052
S1130EB0CFCF80915702882399F0853099F08081B3
S1130EC080FFF7CF80E017C082E015C083E013C035
S1130ED081E011C082E00FC083E00DC081E00BC04F
S1130EE082E009C083E007C0D8014C91442359F241
S1130EF0A82FB92FBACFDF91CF911F910F910895E9
S1130F00EF92FF921F93CF93DF9320915E02309173
S1130F105F022617370758F06115710539F4E8EEBA
S1130F20F0E020812E7720839B0101C09B01E82FF4
S1130F30F92F60E0A8EEB0E042EF50E00F2EF1EFA1
S1130F40EF2EF12CF02D71E010E031C080915702AA
S1130F50882309F43DC0853009F43CC08C9183FD9D
S1130F603BC08C9182FF03C0E8EEF0E02CC08C9172
S1130F7080FF1DC0EA01888190E02115310581F0D0
S1130F808830910568F46491E701688331962150B3
S1130F90310901962115310519F08830910599F729
S1130FA0672F089709F0612F8C918E778C93211508
S1130FB0310561F66111CACFD7CF809157028823DA
S1130FC069F0853069F0808182FFF7CF80E009C045
S1130FD082E007C083E005C081E003C082E001C075
S1130FE083E0DF91CF911F91FF90EF9008958F924E
S1130FF09F92BF92CF92DF92EF92FF920F931F9333
S1131000CF93DF93853070F126C0592F5F70E801CC
S11310105883891731F0E901D8805081E40178813F
S113102003C05B2DD62E7C2D51FF12C04C914E7FF8
S11310304C9340814D7F40834C9141604C93E90136
S1131040D8825083E4017883E7015881552344F41E
S11310509F5F9530D1F68F708093E90081E01FC0C7
S113106080E01DC0982F9F709093E900982F542F13
S1131070D62E70E0ABEEB0E0EDEEF0E02CEE30E01A
S11310800F2EF0EF8F2E912CF02D0F2EFEEEEF2E63
S1131090F12CF02D09EE10E0B42EC12CC5CFDF9158
S11310A0CF911F910F91FF90EF90DF90CF90BF9061
S11310B09F908F900895BF92CF92DF92EF92FF920C
S11310C00F931F93CF93DF93062F662309F441C038
S11310D0C82FD92F10E0F12C6894DD24D3F8E12C2B
S11310E06894BB24B1F80F2EF6E0CF2EF02D588172
S11310F0552351F19C81E981FA817B81852F8F7081
S1131100853048F5923010F04C2D01C04B2DE9305C
S1131110F10550F02D2D3E2D9F2D9F5F220F331F83
S11311202E173F07D0F301C09F2D9295907F492B36
S1131130551F5527551F7295770F770F707C672FB2
S1131140652B55DF882351F01F5F25961013CFCFF1
S113115004C081E003C080E001C081E0DF91CF9151
S11311601F910F91FF90EF90DF90CF90BF90089563
S11311708091580288231CF0E8EEF0E014C0E8EEF9
S1131180F0E004C0809157028823A9F0808182FF97
S1131190F9CFE8EEF0E080818B7780830895809129
S11311A05702882341F0808180FFF9CFE8EEF0E018
S11311B080818E77808308950F931F93CF93DF935D
S11311C02091E4003091E50065E6ACEEB0E0E8EE95
S11311D0F0E00BEE10E044EE50E08C9180FD21C075
S11311E024C080915702882381F0853081F0E80182
S11311F0888185FD0EC0EA01888199812817390705
S113120061F3615041F09C01E8CF82E012C083E0B9
S113121010C081E00EC084E00CC080E00AC080E011
S113122008C0808180FFDDCFF8CF808182FFD9CFD5
S1131230F6CFDF91CF911F910F9108953CD03ED00E
S1131240E8EDF0E080818F778083808180688083FF
S113125080818F7D808384E089BD86E089BD09B467
S113126000FEFDCF109257021092530210925502C5
S11312701092540242E060E080E0B9DEE1EEF0E07A
S113128080818E7F8083E2EEF0E0808181608083C4
S1131290808188608083E0EEF0E080818E7F8083AF
S11312A00895E3E6F0E080818E7F808381E080937F
S11312B05602C4CF08951092E20008951092E100FE
S11312C008951F920F920FB60F9211242F933F93FC
S11312D04F935F936F937F938F939F93AF93BF933A
S11312E0EF93FF938091E10082FF0AC08091E200B6
S11312F082FF06C0E1EEF0E080818B7F808301D81D
S11313008091E10080FF16C08091E20080FF12C04E
S1131310E2EEF0E080818E7F808380818061808333
S1131320E8EDF0E080818062808319BC109257025E
S11313300E946D018091E10084FF30C08091E20041
S113134084FF2CC084E089BD86E089BD09B400FE19
S1131350FDCFE8EDF0E080818F7D8083E1EEF0E069
S113136080818F7E8083E2EEF0E080818F7E8083B7
S113137080818160808380915302882321F084E0FE
S11313808093570209C08091E300882314F483E01A
S113139001C081E0809357020E946C018091E100BA
S11313A083FF1EC08091E20083FF1AC0E1EEF0E0EB
S11313B08081877F808382E080935702109253025A
S11313C080818E7F8083E2EEF0E080818E7F808357
S11313D080818061808342E060E080E008DE76D135
S11313E0FF91EF91BF91AF919F918F917F916F91F9
S11313F05F914F913F912F910F900FBE0F901F90CF
S113140018950F931F93CF93DF93CDB7DEB7AA97A9
S11314100FB6F894DEBF0FBECDBFE8E5F2E080E67C
S113142092E0A1EFB0E02C912193E817F907D9F7E6
S11314300E947A018091E80083FF23C13091580211
S113144020915902822F90E08A30910508F019C149
S1131450FC01E65CFF4F56C1303821F0323809F008
S113146010C108C08091540290915502992371F0E3
S113147082600CC080915C028F70E9EEF0E08083A2
S11314808091EB0085FB882780F91082E8EEF0E07C
S11314909081977F9083A1EFB0E08C931C92808120
S11314A08E77808365DEEDC0332309F4F9C03230D2
S11314B009F0E7C0FAC081E0233009F080E08093AE
S11314C0550228C020915C022F7009F4DAC02093E1
S11314D0E9008091EB0080FF1DC0809159028330A8
S11314E031F4EBEEF0E080818062808313C0EBEE98
S11314F0F0E080818061808381E090E002C0880F09
S1131500991F2A95E2F7AAEEB0E08C931C92808191
S1131510886080831092E900E8EEF0E08081877FA4
S1131520808326DEAEC03111ACC010915A021F7701
S1131530E3EEF0E080818078812B8083E8EEF0E0B8
S11315408081877F808314DEE8EEF0E0808180FF75
S1131550FDCFE3EEF0E0808180688083112311F0F9
S113156083E001C082E0809357028BC03058323050
S113157008F087C080915A0290915B028C3D23E071
S1131580920799F583E08A838AE289835FB7F894A6
S1131590DE01139620E03EE041E2E32FF0E04093C9
S11315A05700849120FF03C082958F703F5F8F7036
S11315B08A3018F090E0C79602C090E0C0968D93F0
S11315C09D932F5F243149F75FBF08EE10E0F801C7
S11315D08081877F80836AE270E0CE010196B1DB6F
S11315E0F80180818B7780834CC0AE014F5F5F4FE1
S11315F060915C020E94DE00009709F442C008EE8C
S113160010E0F8012081277F2083BC0189819A8121
S113161077DCF80180818B77808333C0303889F59B
S1131620E8EEF0E08081877F80838091530280938D
S1131630F10080818E7780839BDD23C0311121C02E
S113164080915A028230E8F4E8EEF0E08081877FEE
S1131650808380915A02809353028ADD80915302E1
S1131660882321F084E08093570209C08091E3002D
S1131670882314F484E001C081E0809357020E941F
S11316806E018091E80083FF16C0E8EEF0E08081EF
S1131690877F8083EBEEF0E08081806280830BC0E3
S11316A080915A02813069F706CF80915A028823CB
S11316B009F408CF2FCFAA960FB6F894DEBF0FBE59
S11316C0CDBFDF91CF911F910F9108950895CF93CE
S11316D0809157028823A1F0C091E900CF708091D6
S11316E0EC0080FF02C080E801C080E0C82B1092AB
S11316F0E9008091E80083FD84DECF70C093E900A7
S1131700CF910895EE0FFF1F0590F491E02D0994F9
S1131710FB01DC0104C08D910190801921F441503A
S11317205040C8F7881B990B0895FB01DC0102C0E7
S113173001900D9241505040D8F70895DC0101C04A
S11317406D9341505040E0F70895FB01DC018D9109
S1131750019080190110D9F3990B0895A0E0B0E02D
S1131760E3EBFBE06CC06B014A017901F9012381D1
S113177020FF19C0C0E0D0E0C815D905B9F08C012C
S11317805C01AC0CBD1CC8010A151B0551F0C70156
S113179012D08F3FFFEF9F0749F0F80181938F012B
S11317A0F2CF2196E9CF80E090E001C0CE01CDB721
S11317B0DEB7ECE060C0CF93DF93EC012B8120FF18
S11317C033C026FF0AC02F7B2B838E819F81019615
S11317D09F838E838A8190E029C022FF0FC0E88115
S11317E0F9818081992787FD9095009719F42062EB
S11317F02B831AC03196F983E8830EC0EA85FB85F2
S1131800099597FF09C02B81019611F480E101C06D
S113181080E2822B8B8308C02E813F812F5F3F4F54
S11318203F832E83992702C08FEF9FEFDF91CF91E3
S113183008952F923F924F925F926F927F928F9270
S11318409F92AF92BF92CF92DF92EF92FF920F934B
S11318501F93CF93DF93CDB7DEB7CA1BDB0B0FB655
S1131860F894DEBF0FBECDBF09942A883988488812
S11318705F846E847D848C849B84AA84B984C884A8
S1131880DF80EE80FD800C811B81AA81B981CE0F9F
S1131890D11D0FB6F894DEBF0FBECDBFED01089584
S10718A0F894FFCFE6
S11318A401821000000103100000018408000001FB
S11318B40000000000000000000000008108000097
S11318C4013E010700000000000000212121000066
S9030000FC
