S0170000434C4153535F4A4F59535449434B312E7372656397
S1130000C0C00000DAC00000D8C00000D6C00000A4
S1130010D4C00000D2C00000D0C00000CEC0000098
S1130020CCC00000CAC00000C8C000000C94850900
S1130030C4C00000C2C00000C0C00000BEC00000B8
S1130040BCC00000BAC00000B8C00000B6C00000C8
S1130050B4C00000B2C00000B0C0000086C20000FE
S1130060ACC00000AAC00000A8C00000A6C00000E8
S1130070A4C00000510A790A660B790A660BB80A13
S1130080DB0A660B330B430B26034A006F0079002F
S113009073007400690063006B0020002B002000D3
S11300A0530065007200690061006C0000001803D1
S11300B04600720061006E00630069007300200056
S11300C050006100700069006E00650061007500F9
S11300D000000403090409025F00030100C032099F
S11300E00400000103000000092111010001223A6B
S11300F00007058103080005080B01020202010044
S11301000904010001020201000524001001042475
S113011002060524060102070583030800FF0904FB
S11301200200020A0000000705020210000507058C
S113013081021000051201100100000008EB0343C6
S11301402001000102000105010904A1010901A126
S113015000093009310932169CFF26640036FFFF7E
S1130160460100950375088102C005091901290893
S1130170150025017501950881027500950181011D
S1130180C00011241FBECFEFD2E0DEBFCDBF11E00F
S1130190A0E0B1E0E8E9F7E102C005900D92AC32CD
S11301A0B107D9F722E0ACE2B1E001C01D92AB3453
S11301B0B207E1F716D10C94CA0B22CF292F3327AB
S11301C023303105C9F044F42130310509F439C034
S11301D02230310561F006C02132310541F122326D
S11301E0310551F180E090E020E030E033C08FE54C
S11301F090E026ED30E02EC099278130910559F02A
S11302008230910571F0892B09F5E2EDF0E08491DB
S113021090E09F011FC0EEEAF0E0849190E09F011E
S113022019C0E8E8F0E0849190E09F0113C089E0F0
S113023090E028EE30E00EC08AE390E027E431E05D
S113024009C082E190E025E331E004C080E090E061
S113025020E030E0FA01318320830895CF93DF93C7
S113026084B7877F84BF88E10FB6F89480936000D9
S1130270109260000FBE8FEC90E09093CD008093BD
S1130280CC0086E08093CA0082E08093C800C9EC69
S1130290D0E088E18883539A5A9A0E94750988E9C4
S11302A08883DF91CF9108950895089580E091E0C7
S11302B095D18BE191E03BD4E2EEF0E08081846063
S11302C08083089580E091E04FD28BE191E0EBC20E
S11302D008958091290190912A01009729F00197AE
S11302E090932A018093290108950895E0913B0297
S11302F0F0913C0291E02081281390E0892F089529
S1130300AF92BF92CF92DF92EF92FF920F931F931F
S1130310CF93DF93EC018BE2E9DF882309F456C025
S1130320EBE3F2E08081918101969183808389538C
S1130330924031F48AE391E090933C0280933B0233
S11303408FB7F894EDE3F2E09081915090838FBFE2
S1130350ABE3B2E0ED91FC911197B190ED93FC9376
S1130360E953F24031F48AE391E090933C028093A4
S11303703B028FB7F894EDE3F2E0908191509083C3
S11303808FBFBB2019F1A12C0BE312E00F2EFAE36F
S1130390CF2EF1E0DF2EF02D7F01D801ED91FC91FD
S11303A011976191ED93FC93E953F24019F4F8012C
S11303B0D182C0828FB7F894D7019C9191509C93BD
S11303C08FBFCE012DD1A394AB10E7CFDF91CF9196
S11303D01F910F91FF90EF90DF90CF90BF90AF905F
S11303E008953CDF2FB7F8948AE391E090933A02A2
S11303F08093390290933C0280933B022FBF789400
S1130400C8ECD0E00EEC10E080E091E075D19923C7
S11304102CF0288125FFFDCFF801808380E091E056
S11304206FDF80E091E052D18BE191E094D30E94A0
S11304308C0BEACFAF92BF92DF92EF92FF920F93B1
S11304401F93CF93DF93CDB7DEB727970FB6F894FA
S1130450DEBF0FBECDBF79018BE248DF882319F0E0
S113046080E091E04DDF9FB7F89480913D029FBFFB
S1130470883008F45CC040E050E080E090E0ABE3FA
S1130480B2E00F2EFAE3AF2EF1E0BF2EF02D2DE3F4
S113049032E061E070E06C0F7D1F460F571FED9155
S11304A0FC911197D1901196FC93EE93E953F2408D
S11304B019F41196BC92AE926FB7F894F901708159
S11304C0715070836FBFFA01D0820196AC018730FE
S11304D09105F9F68F818093390189819A819093EE
S11304E03401809333018B819C81909336018093F6
S11304F035018D819E819093380180933701EBE320
S1130500F2E08081918101969183808389539240A6
S113051031F48AE391E090933C0280933B028FB7DD
S1130520F894EDE3F2E09081915090838FBF87E0DF
S1130530E3E3F1E0D70101900D928A95E1F787E0BA
S113054090E0F8019183808380E027960FB6F894B9
S1130550DEBF0FBECDBFDF91CF911F910F91FF90F2
S1130560EF90DF90BF90AF9008951F920F920FB657
S11305700F9211242F938F939F93AF93BF93EF9375
S1130580FF939091CE00809142028430D9F4E9E344
S1130590F2E0A081B1819C93808191810196918345
S11305A080838E179F0731F48AE391E090933A0297
S11305B0809339028FB7F894EDE3F2E090819F5F66
S11305C090838FBFFF91EF91BF91AF919F918F91D6
S11305D02F910F900FBE0F901F901895CF93DF931C
S11305E0EC01FC0170968BE0DF011D928A95E9F71E
S11305F082E08C83898783E08E8761E0CE01019657
S11306007ED5882351F061E0CE01069678D5882303
S113061021F061E0CE010B9672D5DF91CF91089560
S1130620CF93C62F209142022430E9F4FC0144897F
S1130630558966897789452B462B472BB1F08181F3
S11306408F708093E9008091E80085FD08C0E8EE92
S1130650F0E080818E778083D3D5811107C0C09369
S1130660F10080E003C082E001C082E0CF910895F0
S113067020914202243011F5FC0144895589668990
S11306807789452B462B472BD9F081818F70809336
S1130690E9008091F2008823A9F0E8EEF0E080817F
S11306A090819E77908385FD0FC0AAD581110DC0DE
S11306B0E8EEF0E090819E779083089582E00895BB
S11306C082E0089580E0089580E008952091420238
S11306D0243089F4FC014489558966897789452B3E
S11306E0462B472B41F021812F702093E900209164
S11306F0E80020FDBDCF089520914202243039F551
S1130700FC014489558966897789452B462B472BFB
S113071009F186818F708093E9008091E80082FF5F
S11307201CC08091F200882321F02091F10030E078
S113073002C02FEF3FEF8091F200811111C0E8EE6B
S1130740F0E080818B778083822F932F08958FEF41
S11307509FEF08958FEF9FEF08958FEF9FEF089518
S1130760822F932F08950895CF93DF93EC01809106
S1130770E80083FF95C0888190E020914702309182
S113078048022817390709F08BC08091440281324E
S113079059F018F48032B9F183C0823209F45FC091
S11307A0833209F46FC07CC080914302813A09F01E
S11307B077C0E8EEF0E08081877F8083808180FFCE
S11307C0FDCF4C895D896E897F89E1EFF0E040833C
S11307D0BB27A72F962F852F8083CB01AA27BB2762
S11307E08083472F5527662777274083888D80830A
S11307F0898D80838A8D8083E8EEF0E080818E7716
S11308008083DAD44DC080914302813209F048C01C
S1130810E8EEF0E08081877F808305C0809142020A
S1130820882309F43DC0808182FFF8CFE1EFF0E036
S113083030812081908180813C8B2D8B9E8B8F8B8E
S11308408081888F8081898F80818A8FE8EEF0E0B3
S113085080818B778083B0D4CE0185DF21C08091E5
S113086043028132E9F4E8EEF0E08081877F8083FF
S1130870A3D48091450290914602998B888BCE0136
S113088072DF0EC080914302813251F4E8EEF0E051
S11308908081877F808390D460914502CE0163DF9D
S11308A0DF91CF9108953F924F925F926F927F9222
S11308B08F929F92AF92BF92CF92DF92EF92FF926C
S11308C00F931F93CF93DF9300D01F92CDB7DEB762
S11308D06C01EDB6FEB68091E80083FF0EC1F6010F
S11308E0808190E02091470230914802281739070F
S11308F009F003C180914402833009F49BC030F4B1
S1130900813071F0823009F4DDC0F7C08A3009F417
S1130910BDC08B3009F4A6C0893009F0EEC04CC0CC
S113092080914302813A09F0E8C08DB69EB61A82DE
S11309301982E5E4F2E0808111818B83F601408520
S113094050E08DB79EB7841B950B0FB6F8949EBFED
S11309500FBE8DBFEDB7FEB731965F0160E070E06A
S1130960CF0111D74FEF410F8E010F5F1F4F95013C
S1130970BE016D5F7F4FC6015DDDF6018681978103
S1130980009721F0408550E0B501F4D61092E900BB
S113099008EE10E0F8018081877F808369817A8185
S11309A0C501F3D1F80180818B7780830FB6F89469
S11309B09EBE0FBE8DBEA1C080914302813209F05C
S11309C09CC06DB67EB6A0904902B0904A02E5E4A0
S11309D0F2E0508041808DB79EB78A199B090FB60B
S11309E0F8949EBF0FBE8DBFEDB7FEB731964F0191
S11309F008EE10E0F8018081877F8083B501C4018F
S1130A0038D2F80180818E77808321E0511001C0B3
S1130A1020E030E08501021B130B280D391D4FEF38
S1130A20440D652DC60161DC0FB6F8947EBE0FBE81
S1130A306DBE63C080914302813A09F05EC0E8EE66
S1130A40F0E08081877F8083808180FFFDCFF60185
S1130A5081858093F100E8EEF0E080818E778083D9
S1130A60ABD34BC080914302813209F046C0E8EE1B
S1130A70F0E08081877F80839FD39091450281E05D
S1130A80911101C080E0F601818737C08091430253
S1130A90813299F5E8EEF0E08081877F80838CD302
S1130AA0809145029091460288270024880F991F5F
S1130AB0001C880F991F001C892F902DF601958723
S1130AC084871BC080914302813AB9F4E8EEF0E0D8
S1130AD08081877F8083808180FFFDCFF6018485BC
S1130AE0958596958795969587958093F100E8EE80
S1130AF0F0E080818E7780835FD30FB6F894FEBEDA
S1130B000FBEEDBE0F900F900F90DF91CF911F910C
S1130B100F91FF90EF90DF90CF90BF90AF909F9098
S1130B208F907F906F905F904F903F900895FC015D
S1130B30399627E0DF011D922A95E9F721E0FC01AF
S1130B40218724EF31E03587248723E0248361E083
S1130B500196D5C208955F926F927F928F929F9271
S1130B60AF92BF92CF92DF92EF92FF920F931F93B7
S1130B70CF93DF9300D01F92CDB7DEB77C01CDB603
S1130B80DEB680914202843009F08AC08091E4008C
S1130B909091E500F701228533852817390709F478
S1130BA07FC081818F708093E9008091E80085FF88
S1130BB077C08DB69EB6408550E08DB79EB7841B36
S1130BC0950B0FB6F8949EBF0FBE8DBFEDB7FEB761
S1130BD031965F011B821A82198260E070E0CF01B6
S1130BE0D2D58E010F5F1F4F950140E0BE016D5FAE
S1130BF07F4FC7011FDC682EF70124853585232B21
S1130C0041F021E086859785892B09F020E0522E5A
S1130C1001C0512CF701068117810115110589F0D6
S1130C2049815A81B801C50198D577247394892BD9
S1130C3009F4712CF701408550E0B501C8019AD53B
S1130C4001C0712C29813A81232BF1F0611004C079
S1130C50711002C050FE18C0F701848595859787EE
S1130C60868781818F708093E9008B8181118093C5
S1130C70F10069817A8140E050E0C50129D0E8EEB5
S1130C80F0E080818E7780838091E4009091E5008C
S1130C90F701938782870FB6F8949EBE0FBE8DBE70
S1130CA00FB6F894DEBE0FBECDBE0F900F900F901E
S1130CB0DF91CF911F910F91FF90EF90DF90CF9034
S1130CC0BF90AF909F908F907F906F905F900895AA
S1130CD08F929F92AF92BF92CF92DF92EF92FF9248
S1130CE00F931F93CF93DF937C01EB015A0188D2BA
S1130CF081113EC0A114B10439F0F50180819181C4
S1130D00C81BD90BE80EF91E209779F100E010E01A
S1130D100F2EF8EE8F2E912CF02D0F2EF1EFCF2EFB
S1130D20D12CF02DF401808185FD14C080818E7753
S1130D308083F2D4A114B10449F0F501808191813A
S1130D40080F191F1183008385E012C059D288232C
S1130D5049F00EC0F70181917F01F601808321974C
S1130D600F5F1F4F2097F1F602C080E001C080E0C2
S1130D70DF91CF911F910F91FF90EF90DF90CF9073
S1130D80BF90AF909F908F9008950F931F93CF9330
S1130D90DF932091490230914A022617370758F011
S1130DA06115710539F4E8EEF0E020812E77208397
S1130DB09B0101C09B01A0E0E8EEF0E062EF70E06F
S1130DC0C1EFD0E011E000E035C04091420244237D
S1130DD009F441C0453009F440C0408143FD3FC09F
S1130DE0408142FF03C0E8EEF0E030C0408140FFA4
S1130DF021C0DB014C9150E02115310599F04830B8
S1130E00510580F4A82FB92F8D9188838A2F9B2FA9
S1130E10215031094F5F5F4F2115310519F04830DA
S1130E20510591F7A12F4830510509F0A02F4081B9
S1130E304E7740832115310541F6A111C6CFD3CF9A
S1130E4080914202882369F0853069F0808182FFB5
S1130E50F7CF80E009C082E007C083E005C081E0ED
S1130E6003C082E001C083E0DF91CF911F910F9115
S1130E7008950F931F93CF93DF936115710529F4A0
S1130E80E8EEF0E020812B772083E8EEF0E002EF3B
S1130E9010E021EF30E01EC0409142024423C1F132
S1130EA04530C1F1408143FD37C0408142FFF4CF5A
S1130EB03FC0E90188818D938A2F9B2F615071096E
S1130EC06115710521F0E80148814111F2CF40819B
S1130ED04B7740836115710519F4E8EEF0E013C017
S1130EE0409142024423D1F04530D1F0408143FD8A
S1130EF019C0408142FD1CC0CFCF8091420288239B
S1130F0099F0853099F0808180FFF7CF80E017C099
S1130F1082E015C083E013C081E011C082E00FC0FD
S1130F2083E00DC081E00BC082E009C083E007C00C
S1130F30D8014C91442359F2A82FB92FBACFDF918D
S1130F40CF911F910F910895EF92FF921F93CF932A
S1130F50DF932091490230914A022617370758F04F
S1130F606115710539F4E8EEF0E020812E772083D5
S1130F709B0101C09B01E82FF92F60E0A8EEB0E0CF
S1130F8042EF50E00F2EF1EFEF2EF12CF02D71E037
S1130F9010E031C080914202882309F43DC08530BD
S1130FA009F43CC08C9183FD3BC08C9182FF03C04B
S1130FB0E8EEF0E02CC08C9180FF1DC0EA0188812E
S1130FC090E02115310581F08830910568F4649131
S1130FD0E7016883319621503109019621153105C5
S1130FE019F08830910599F7672F089709F0612F58
S1130FF08C918E778C932115310561F66111CACFDE
S1131000D7CF80914202882369F0853069F08081CE
S113101082FFF7CF80E009C082E007C083E005C00B
S113102081E003C082E001C083E0DF91CF911F9192
S1131030FF90EF9008958F929F92BF92CF92DF928C
S1131040EF92FF920F931F93CF93DF93853070F14C
S113105026C0592F5F70E8015883891731F0E901E0
S1131060D8805081E401788103C05B2DD62E7C2D7D
S113107051FF12C04C914E7F4C9340814D7F408371
S11310804C9141604C93E901D8825083E401788308
S1131090E7015881552344F49F5F9530D1F68F7052
S11310A08093E90081E01FC080E01DC0982F9F70ED
S11310B09093E900982F542FD62E70E0ABEEB0E059
S11310C0EDEEF0E02CEE30E00F2EF0EF8F2E912CB1
S11310D0F02D0F2EFEEEEF2EF12CF02D09EE10E088
S11310E0B42EC12CC5CFDF91CF911F910F91FF90EA
S11310F0EF90DF90CF90BF909F908F900895BF9214
S1131100CF92DF92EF92FF920F931F93CF93DF93CF
S1131110062F662309F441C0C82FD92F10E0F12C03
S11311206894DD24D3F8E12C6894BB24B1F80F2E25
S1131130F6E0CF2EF02D5881552351F19C81E981A1
S1131140FA817B81852F8F70853048F5923010F0BD
S11311504C2D01C04B2DE930F10550F02D2D3E2DC5
S11311609F2D9F5F220F331F2E173F07D0F301C01F
S11311709F2D9295907F492B551F5527551F72958A
S1131180770F770F707C672F652B55DF882351F01D
S11311901F5F25961013CFCF04C081E003C080E009
S11311A001C081E0DF91CF911F910F91FF90EF90EB
S11311B0DF90CF90BF9008958091430288231CF064
S11311C0E8EEF0E014C0E8EEF0E004C080914202E2
S11311D08823A9F0808182FFF9CFE8EEF0E08081D6
S11311E08B778083089580914202882341F0808127
S11311F080FFF9CFE8EEF0E080818E778083089558
S11312000F931F93CF93DF932091E4003091E50077
S113121065E6ACEEB0E0E8EEF0E00BEE10E044EE94
S113122050E08C9180FD21C024C08091420288232B
S113123081F0853081F0E801888185FD0EC0EA01E6
S1131240888199812817390761F3615041F09C0125
S1131250E8CF82E012C083E010C081E00EC084E0D9
S11312600CC080E00AC080E008C0808180FFDDCF30
S1131270F8CF808182FFD9CFF6CFDF91CF911F9134
S11312800F9108953CD03ED0E8EDF0E080818F7757
S1131290808380818068808380818F7D808384E0E7
S11312A089BD86E089BD09B400FEFDCF10924202DB
S11312B010923E021092400210923F0242E060E01F
S11312C080E0B9DEE1EEF0E080818E7F8083E2EEA3
S11312D0F0E0808181608083808188608083E0EE9B
S11312E0F0E080818E7F80830895E3E6F0E08081E2
S11312F08E7F808381E080934102C4CF0895109251
S1131300E20008951092E10008951F920F920FB623
S11313100F9211242F933F934F935F936F937F9377
S11313208F939F93AF93BF93EF93FF938091E100CB
S113133082FF0BC08091E20082FF07C0E1EEF0E083
S113134080818B7F80830E9469018091E10080FF0E
S113135016C08091E20080FF12C0E2EEF0E08081CE
S11313608E7F8083808180618083E8EDF0E08081DE
S11313708062808319BC109242020E9455018091C0
S1131380E10084FF30C08091E20084FF2CC084E03F
S113139089BD86E089BD09B400FEFDCFE8EDF0E02B
S11313A080818F7D8083E1EEF0E080818F7E808379
S11313B0E2EEF0E080818F7E808380818160808393
S11313C080913E02882321F084E08093420209C088
S11313D08091E300882314F483E001C081E08093CA
S11313E042020E9454018091E10083FF1EC080915B
S11313F0E20083FF1AC0E1EEF0E08081877F808302
S113140082E08093420210923E0280818E7F80832C
S1131410E2EEF0E080818E7F808380818061808332
S113142042E060E080E007DE76D1FF91EF91BF916A
S1131430AF919F918F917F916F915F914F913F9168
S11314402F910F900FBE0F901F9018950F931F931D
S1131450CF93DF93CDB7DEB7AA970FB6F894DEBF6C
S11314600FBECDBFE3E4F2E08BE492E0A1EFB0E085
S11314702C912193E817F907D9F70E946201809112
S1131480E80083FF23C13091430220914402822F5C
S113149090E08A30910508F019C1FC01E65CFF4F29
S11314A056C1303821F0323809F010C108C080919B
S11314B03F0290914002992371F082600CC08091A8
S11314C047028F70E9EEF0E080838091EB0085FBAA
S11314D0882780F91082E8EEF0E09081977F90836E
S11314E0A1EFB0E08C931C9280818E77808364DEC0
S11314F0EDC0332309F4F9C0323009F0E7C0FAC073
S113150081E0233009F080E08093400228C02091DC
S113151047022F7009F4DAC02093E9008091EB00B0
S113152080FF1DC080914402833031F4EBEEF0E083
S113153080818062808313C0EBEEF0E08081806163
S1131540808381E090E002C0880F991F2A95E2F71A
S1131550AAEEB0E08C931C92808188608083109204
S1131560E900E8EEF0E08081877F808325DEAEC06D
S11315703111ACC0109145021F77E3EEF0E0808199
S11315808078812B8083E8EEF0E08081877F808300
S113159013DEE8EEF0E0808180FFFDCFE3EEF0E0C3
S11315A0808180688083112311F083E001C082E090
S11315B0809342028BC03058323008F087C080914B
S11315C04502909146028C3D23E0920799F583E011
S11315D08A838AE289835FB7F894DE01139620E058
S11315E03EE041E2E32FF0E040935700849120FF76
S11315F003C082958F703F5F8F708A3018F090E03F
S1131600C79602C090E0C0968D939D932F5F2431BE
S113161049F75FBF08EE10E0F8018081877F80837F
S11316206AE270E0CE010196B0DBF80180818B772D
S113163080834CC0AE014F5F5F4F609147020E94B0
S1131640DE00009709F442C008EE10E0F8012081A2
S1131650277F2083BC0189819A8176DCF80180810F
S11316608B77808333C0303889F5E8EEF0E08081F1
S1131670877F808380913E028093F10080818E7702
S113168080839ADD23C0311121C0809145028230CC
S1131690E8F4E8EEF0E08081877F80838091450262
S11316A080933E0289DD80913E02882321F084E00C
S11316B08093420209C08091E300882314F484E0FB
S11316C001C081E0809342020E9456018091E800AB
S11316D083FF16C0E8EEF0E08081877F8083EBEE25
S11316E0F0E08081806280830BC08091450281306C
S11316F069F706CF80914502882309F408CF2FCFDC
S1131700AA960FB6F894DEBF0FBECDBFDF91CF917E
S11317101F910F9108950895CF93809142028823D9
S1131720A1F0C091E900CF708091EC0080FF02C06D
S113173080E801C080E0C82B1092E9008091E800A5
S113174083FD84DECF70C093E900CF910895EE0F3E
S1131750FF1F0590F491E02D0994FB01DC0104C006
S11317608D910190801921F441505040C8F7881B95
S1131770990B0895FB01DC0102C001900D924150C8
S11317805040D8F70895DC0101C06D93415050409A
S10B1790E0F70895F894FFCF7F
S1131798018110000001021000000183080000010B
S11317A800000000000000000000000081080000A4
S10F17B8012C01070000000000000000EC
S9030000FC
