:100000000C9464000C94EF070C941C080C948C0066
:100010000C948C000C948C000C948C000C948C0030
:100020000C948C000C948C000C948C000C948C0020
:100030000C948C000C948C000C948C000C948C0010
:100040000C9449080C948C000C94D1090C941F0A50
:100050000C948C000C948C000C948C000C948C00F0
:100060000C948C000C948C000000000024002700ED
:100070002A0000000000250028002B0000000000DE
:1000800023002600290004040404040404040202DA
:100090000202020203030303030301020408102007
:1000A0004080010204081020010204081020000012
:1000B0000007000201000003040600000000000029
:1000C0000000B904FB068B0B11241FBECFEFD8E054
:1000D000DEBFCDBF11E0A0E0B1E0EAE1FBE102C08C
:1000E00005900D92AC3DB107D9F715E0ACEDB1E04C
:1000F00001C01D92A931B107E1F710E0C8ECD0E0D2
:1001000004C02297FE010E94870DC23CD107C9F7A7
:100110000E94E10B0C948B0D0C940000FC01718388
:10012000608350A747A308951F93162F8AE060E0CD
:100130000E947C091EBD0DB407FEFDCF8EB58AE07E
:1001400061E00E947C091F91089568E00E9494007C
:1001500088E061E00E947C0908950F931F93162F99
:10016000042F8AE060E00E947C0910641EBD0DB47B
:1001700007FEFDCF8EB585E090E00E94F8081EBC1A
:100180000DB407FEFDCF8EB585E090E00E94F80823
:100190000EBD0DB407FEFDCF8EB581E090E00E944C
:1001A000F8088AE061E00E947C091F910F91089590
:1001B0001F93162F8AE060E00E947C0910621EBD2A
:1001C0000DB407FEFDCF8EB585E090E00E94F808E3
:1001D0001EBC0DB407FEFDCF8EB585E090E00E94F9
:1001E000F8081EBC0DB407FEFDCF1EB581E090E0FF
:1001F0000E94F8088AE061E00E947C09812F1F912B
:100200000895FF920F931F93CF93DF93EC018CA17E
:10021000882399F589A1882381F11BA21AA2FF24C2
:10022000F39428C081E090E00E94F8080F2D10E0C0
:10023000B8016C5F7F4FCE010E94D80020E030E013
:100240008770813011F021E030E0002E02C0220FD3
:10025000331F0A94E2F78BA1822B8BA390E002C09C
:10026000959587950A95E2F780FF03C08AA18F5F75
:100270008AA3F39489A18F15A8F6DF91CF911F91DE
:100280000F91FF9008950F931F93CF93DF93EC018D
:100290001CA261E070E080E090E00E949F08CE0127
:1002A00066E00E9494008AE090E00E94F808CE0187
:1002B00061E10E9494006AE070E080E090E00E94BA
:1002C0009F08CE0161E070E045EE0E94AD00CE01D6
:1002D00064E170E040E00E94AD00CE0163E070E0B8
:1002E00040EC0E94AD00CE0160E070E00E94D800BA
:1002F00088A390E08F7190708131910589F08231EF
:1003000091051CF4409781F406C08231910551F0AB
:100310004E9751F407C084E089A305E010E006C0C1
:1003200086E0FACF88E0F8CF19A2F7CFCE01B80166
:1003300040E60E94AD0085E090E00E94F8080F5F63
:100340001F4F0D30110591F7CE010E940101CE0122
:100350000E94A500CE0160E10E949400DF91CF9140
:100360001F910F91089568EE73E080E090E00E9485
:100370009F088AE061E00E943D0986E061E00E94FA
:100380003D0989E061E00E943D0988E061E00E944A
:100390003D0983E060E00E943D0983E061E00E9446
:1003A0007C098AE061E00E947C090895EF92FF9247
:1003B0000F931F938C017B010E94B3010E94A7063B
:1003C000D8019796ED91FC91989781810E948806BB
:1003D000D8019796ED91FC91989782810E9496069C
:1003E000D8019796ED91FC91989780810E94910693
:1003F000C801F70109951F910F91FF90EF900895A3
:100400000F931F938C01BC016C5F7F4F0E946C04A3
:10041000C80162E30E948004FC01D8015F969C93AE
:100420008E935E978489811181E01F910F910895C9
:100430000E9467040895FC01CB012AEB31E031836F
:100440002083758F648F178E168E40E052EC61E02A
:1004500070E00E945A0A08951F93CF93DF93EC0136
:100460001AE01CC0E8A1F9A1A081B18114962D91D8
:100470003C911597CF01F9010995892B79F0E8A1F5
:10048000F9A1A081B18116962D913C911797CF01CA
:10049000F9010995803411F481E003C0115010F77F
:1004A00080E0DF91CF911F9108950E942C02089562
:1004B0000E942C0208950F931F93CF93DF93EC01BA
:1004C0006EA30E942C02882319F000E01AE023C0DA
:1004D000CF5BDF4F18829E012B5130402BC0E8A12B
:1004E000F9A1A081B18114962D913C911597CF016E
:1004F000F9010995892B79F0A8A1B9A1ED91FC9199
:1005000011970680F781E02DCD010995FE01E00FDE
:10051000F11D87A30F5F115010F78FA1FE01EF5B54
:10052000FF4F833219F481E0808301C010829E0165
:100530002A5D3F4FC901DF91CF911F910F9108951F
:10054000CF93DF93EC018FB7F894ECA1FDA1E657B0
:10055000FE4F208131818FBFBE016A5D7F4F232B0B
:1005600029F08CA19DA10E94F10301C0CB01BC0127
:10057000E881F9810084F185E02DCE010995DF91B4
:10058000CF910895CF93DF93EC0183EF94E060E087
:1005900071E00E94310DCE5BDF4F88819981C2549A
:1005A000D040019761F58BE294E00E94C8078091EA
:1005B0005C0490915D0462E071E00E942E0D8091D8
:1005C0005C0490915D046AE071E00E94310D65E089
:1005D00070E080E090E00E949F086AE070E080E0B8
:1005E00090E00E949F088BE294E062E00E94310755
:1005F000CC5BDF4F888199810E94710303C0CE01DB
:100600000E94A002DF91CF910895CF93DF93EB0179
:100610004881442341F06F5F7F4F83EF94E050E0C7
:100620000E94F00B1882DF91CF9108950F931F93D2
:100630008C010E942C020A5B1F4FF801808191817E
:100640000E94C5061F910F910895AF92BF92CF925D
:10065000DF92EF92FF920F931F936C01DB015A011F
:1006600082EC91E0F6019183808371A360A35383B0
:10067000428335A324A384E490E0C80ED91EF6017A
:10068000019311936F01F182E082ED91FC9102845C
:10069000F385E02DCB0109958CEF9FEFC80ED91E95
:1006A000D601AD92BC92E5EEFFEFCE0EDF1E8BE1E0
:1006B000D6011D928A95E9F71F910F91FF90EF9057
:1006C000DF90CF90BF90AF900895FC015583448395
:1006D0007183608333A322A30895FC017383628333
:1006E0000895FF920F931F93CF93DF93EC01EC815A
:1006F000FD81A081B18114962D913C911597CF0178
:10070000F9010995892B21F1EC81FD81A081B1814D
:1007100016962D913C911797CF01F9010995082F55
:1007200010E085E0F82E0AC0801739F463817481E7
:100730000180F281E02D802F09951F5F1F9DC00170
:100740001124EA81FB81E80FF91F80818F3F61F757
:10075000DF91CF911F910F91FF900895CF93DF9379
:10076000EB012FB7F894E881F981E657FE4F8081BD
:1007700091812FBF6A5F7F4F892B29F088819981F2
:100780000E94F103BC01EC81FD81A081B181EB01EC
:100790004991BE0112962D913C911397CF0150E0E3
:1007A000F9010995DF91CF910895FB01833079F02C
:1007B000843018F48130A0F005C0863068F08630AF
:1007C00079F405C082A193A10E94C506089582A173
:1007D00093A10E94C206089582A193A10E94BE0621
:1007E0000895AF92BF92CF92DF92EF92FF920F9354
:1007F0001F93CF93DF93AC01EB01CB010196FC017A
:100800008BE1DF011D928A95E9F72FB7F894FA0181
:10081000E657FE4F808191812FBF4B9708F44BC064
:1008200096E8E92E91E0F92EE40EF51EB42EA52EE1
:10083000DA01A857BE4F8F018AE1C82ED12CCC0E09
:10084000DD1EED91FC91119791911196FC93EE9321
:10085000EE15FF0521F4BC921196AC9211978FB75B
:10086000F894F80120813181215030403183208378
:100870008FBFFB01918388818F5F88836F5F7F4F7C
:100880006C157D05F1F6FA01E857FE4F80819181E4
:100890000196918380838E159F0511F4B082A18209
:1008A0002FB7F894FA01E657FE4F808191810197A6
:1008B000918380832FBFCE01DF91CF911F910F9144
:1008C000FF90EF90DF90CF90BF90AF900895FC0124
:1008D0007683658344830895CF93DF93FC01A281DF
:1008E000B3818D919C911197658176814481EC0152
:1008F000EA81FB81CD0150E00995DF91CF91089508
:100900000F931F93CF93DF93EC01062F10E026C0C7
:10091000AA81BB81ED91FC9111970680F781E02DB2
:10092000CD010995FE01E10FF11D87838B8D8F5F4E
:100930008B8F1F5FEA81FB81A081B18114962D917D
:100940003C911597CF01F9010995892B09F764E6C8
:1009500070E080E090E00E949F080150002351F772
:100960009E01295F3F4FC901DF91CF911F910F91E8
:100970000895AF92BF92CF92DF92EF92FF920F93C2
:100980001F9306E713E02AEEC22E21E0D22E93EF4A
:10099000E92E94E0F92E89EEA82E81E0B82EC80148
:1009A000B601A70195010E9465038AE993E0B701AA
:1009B0000E941B028AEB93E0B60144E951E00E94D9
:1009C0008E0083EE93E0B70140E050E096017501A0
:1009D0000E9425031F910F91FF90EF90DF90CF9021
:1009E000BF90AF9008951092D8038AE060E00E9413
:1009F0007C098AEB93E062E10E949400ECEBF3E067
:100A00001EBC0DB407FEFDCF8EB5819383E0E73D9C
:100A1000F807B1F76BE161504091BA035091BB0305
:100A2000DA01AA57BE4F2D913C911197E62FF0E0C5
:100A3000E654FC4F8581F9018083ED91FC9111977B
:100A4000CF01019611969C938E938A179B0711F400
:100A5000528341832FB7F894FA01E657FE4F808105
:100A600091810196918380832FBF6623A1F68AE04E
:100A700061E00E947C090895EF92FF920F931F930B
:100A80000E9491082091DC013091DD014091DE014E
:100A90005091DF01621B730B840B950B6639710556
:100AA0008105910508F443C00E9491086093DC0120
:100AB0007093DD018093DE019093DF018BE294E07F
:100AC00061E00E94A40780915C0490915D0461E163
:100AD00071E00E942E0D80915C0490915D0468E1AC
:100AE00071E00E942E0D80915C0490915D0468E19C
:100AF00071E00E942E0D80915C0490915D0468E18C
:100B000071E00E942E0D8BE294E00E94FC06809121
:100B10005C0490915D0468E171E00E942E0D80916B
:100B20005C0490915D046AE171E00E94310D0E94C5
:100B30009108611571058105910541F40E949108A4
:100B4000623071058105910508F47EC00E9491080C
:100B50009B01AC016093E5017093E6018093E7018E
:100B60009093E8018091E0019091E101A091E20170
:100B7000B091E301281739074A075B0740F4209337
:100B8000E0013093E1014093E2015093E301809151
:100B9000E0019091E101A091E201B091E3017901BE
:100BA0008A01E81AF90A0A0B1B0BD801C7018A3F10
:100BB0009105A105B10508F447C08091E40188239F
:100BC00009F042C02093E0013093E1014093E2013B
:100BD0005093E3018BE294E00E94C80780915C048B
:100BE00090915D0461E271E00E942E0D80915C04A1
:100BF00090915D0468E171E00E942E0D00915C040B
:100C000010915D040E949108AB01BC01C8012AE06B
:100C100030E00E94BA0C80915C0490915D0469E21E
:100C200071E00E94310D65E070E080E090E00E948C
:100C30009F086AE070E080E090E00E949F088BE2ED
:100C400094E061E00E9431078091E901882321F05E
:100C500083EE93E00E94C2021F910F91FF90EF90EC
:100C600008950F931F930BE214E0C80163EF74E043
:100C700020E032EC41E050E00E949B0760ED77E01D
:100C800080E090E00E949F08C8010E94C807809100
:100C90005C0490915D0460E371E00E94310D6AE0B4
:100CA00070E080E090E00E949F08C80161E041E0B0
:100CB0000E9489072FB7F8948AEE91E09093710310
:100CC0008093700390937303809372032FBF83EF1D
:100CD00094E040E052EC61E070E00E945A0A86E73E
:100CE00093E068E971E00E946D038AEB93E063E4AE
:100CF00071E00E94D60181E063EF74E042E050E0D1
:100D00000E94CC0781E08093E9011F910F91089523
:100D1000882319F48CB5806202C08CB58F7D8CBDA0
:100D200008959CB5937F982B9CBD08952CB5382FC2
:100D300033702C7F322B3CBD2DB590E09595879577
:100D40009595879581702E7F822B8DBD08958AE0C1
:100D500061E00E947C098AE061E00E943D098CB557
:100D600080618CBD8CB580648CBD8DE061E00E949B
:100D70003D098BE061E00E943D090895FC0181E09E
:100D800080830895FC0110820895E0E0F0E0099569
:100D90000895DF93CF9300D0CDB7DEB7209115052E
:100DA00030911605CE0101962115310529F489519E
:100DB00095409A83898318C0AC01421B530BE09184
:100DC0001705F091180520E030E008C0808191817E
:100DD0000296280F391F0280F381E02D3097B1F77A
:100DE000240F351F3A83298389819A810F900F90B0
:100DF000CF91DF91089508950F931F93FC0101A9EE
:100E000012A90E94C906BC01C8014AE050E00E9434
:100E10001B0D1F910F910895FF920F931F938C014B
:100E2000F62EFC0181A992A966E871E00E942E0DC0
:100E3000F80181A992A96F2D4AE050E00E94C90CE7
:100E4000F80181A992A96DE871E00E94310D62E379
:100E500070E080E090E00E949F081F910F91FF904A
:100E60000895FF920F931F93CF93DF938C01F62E7B
:100E7000DC0115968C91882309F442C0D801D196E3
:100E8000ED91FC91D297A081B18114962D913C9166
:100E90001597CF01F9010995892B81F320C0D8015D
:100EA000D196ED91FC91D297A081B18116962D91AA
:100EB0003C911797CF01F9010995EC018336910513
:100EC00039F086379105F1F08835910541F405C078
:100ED000C8016F2D0E940C0715C0F8011582D801BA
:100EE000D196ED91FC91D297A081B18114962D916C
:100EF0003C911597CF01F9010995181619067CF256
:100F0000C3E6D0E0CE01DF91CF911F910F91FF900A
:100F100008951F93CF93DF93EC01142F662331F0D4
:100F200081E08D83CE0160E00E9431071D83DF9157
:100F3000CF911F910895FC0172AB61ABCB01BA0157
:100F4000A9010E945A0A0895CF93DF93EC0166230A
:100F500039F015C063E070E080E090E00E949F08E7
:100F60000E94910829813A814B815C81621B730B3D
:100F7000840B950B623371058105910558F30E942E
:100F8000910869837A838B839C83DF91CF91089545
:100F900060E00E94A4070895823000F5E82FF0E099
:100FA000EE0FFF1FE25AFB4F71836083882319F015
:100FB0008130A1F408C0809169008C7F842B8093DC
:100FC0006900E89A089580916900440F551F440F05
:100FD000551F837F842B80936900E99A08951F929F
:100FE0000F920FB60F9211242F933F934F935F935D
:100FF0006F937F938F939F93AF93BF93EF93FF93E1
:1010000080915E0490915F04892B29F0E0915E0449
:10101000F0915F040995FF91EF91BF91AF919F917E
:101020008F917F916F915F914F913F912F910F9091
:101030000FBE0F901F9018951F920F920FB60F9230
:1010400011242F933F934F935F936F937F938F93CD
:101050009F93AF93BF93EF93FF9380916004909120
:101060006104892B29F0E0916004F09161040995F5
:10107000FF91EF91BF91AF919F918F917F916F9170
:101080005F914F913F912F910F900FBE0F901F9046
:1010900018951F920F920FB60F9211242F933F9322
:1010A0008F939F93AF93BF93809166049091670451
:1010B000A0916804B091690430916A040196A11D61
:1010C000B11D232F2D5F2D3720F02D570196A11D27
:1010D000B11D20936A048093660490936704A093E3
:1010E0006804B09369048091620490916304A091B4
:1010F0006404B09165040196A11DB11D8093620442
:1011000090936304A0936404B0936504BF91AF917E
:101110009F918F913F912F910F900FBE0F901F9035
:1011200018958FB7F8942091660430916704409128
:101130006804509169048FBFB901CA0108959B01E9
:10114000AC017FB7F8948091620490916304A09100
:101150006404B091650466B5A89B05C06F3F19F0A3
:101160000196A11DB11D7FBFBA2FA92F982F8827E7
:10117000860F911DA11DB11D62E0880F991FAA1F46
:10118000BB1F6A95D1F7BC012DC0FFB7F8948091C1
:10119000620490916304A0916404B0916504E6B583
:1011A000A89B05C0EF3F19F00196A11DB11DFFBF1F
:1011B000BA2FA92F982F88278E0F911DA11DB11D21
:1011C000E2E0880F991FAA1FBB1FEA95D1F7861B83
:1011D000970B885E9340C8F2215030404040504009
:1011E00068517C4F211531054105510571F608956F
:1011F000019739F0880F991F880F991F029701975F
:10120000F1F70895789484B5826084BD84B58160D7
:1012100084BD85B5826085BD85B5816085BDEEE6FE
:10122000F0E0808181608083E1E8F0E010828081DD
:1012300082608083808181608083E0E8F0E080814B
:1012400081608083E1EBF0E0808184608083E0EB6B
:10125000F0E0808181608083EAE7F0E08081846053
:1012600080838081826080838081816080838081AF
:10127000806880831092C1000895CF93DF93482F38
:1012800050E0CA0186569F4FFC0134914A575F4F88
:10129000FA018491882369F190E0880F991FFC017D
:1012A000E859FF4FA591B491FC01EE58FF4FC5914D
:1012B000D491662351F42FB7F8948C91932F909585
:1012C00089238C93888189230BC0623061F42FB706
:1012D000F8948C91932F909589238C938881832BFC
:1012E00088832FBF06C09FB7F8948C91832B8C9373
:1012F0009FBFDF91CF910895482F50E0CA018255DA
:101300009F4FFC012491CA0186569F4FFC01949186
:101310004A575F4FFA013491332309F440C0222326
:1013200051F1233071F0243028F42130A1F0223023
:1013300011F514C02630B1F02730C1F02430D9F4B3
:1013400004C0809180008F7703C0809180008F7DE2
:101350008093800010C084B58F7702C084B58F7DE4
:1013600084BD09C08091B0008F7703C08091B00028
:101370008F7D8093B000E32FF0E0EE0FFF1FEE585B
:10138000FF4FA591B4912FB7F894662321F48C9167
:101390009095892302C08C91892B8C932FBF08953F
:1013A00008951F920F920FB60F9211242F933F931F
:1013B0004F938F939F93EF93FF938091C00082FD93
:1013C0001DC04091C6002091AB043091AC042F5F4A
:1013D0003F4F2F7330708091AD049091AE04281769
:1013E000390771F0E091AB04F091AC04E559FB4F83
:1013F00040833093AC042093AB0402C08091C600BC
:10140000FF91EF919F918F914F913F912F910F906D
:101410000FBE0F901F901895E091FF04F09100050A
:10142000E05CFF4F8191919120813181821B930B70
:101430008F739070892B11F00E94D00908951F922C
:101440000F920FB60F9211242F933F938F939F9378
:10145000EF93FF932091EF043091F0048091F10419
:101460009091F2042817390731F48091C1008F7DE3
:101470008093C10014C0E091F104F091F204E155B1
:10148000FB4F20818091F1049091F20401968F73BB
:1014900090709093F2048093F1042093C600FF9122
:1014A000EF919F918F913F912F910F900FBE0F90D1
:1014B0001F901895AF92BF92DF92EF92FF920F9319
:1014C0001F93CF93DF93EC017A018B01DD24403031
:1014D00081EE580780E0680780E0780711F0DD248E
:1014E000D39491E0A92EB12CEC89FD89DD2069F01F
:1014F000C50108A002C0880F991F0A94E2F78083F3
:1015000060E079E08DE390E005C0108260E874E867
:101510008EE190E0A80197010E94630D21503040B8
:1015200040405040569547953795279580E12030AB
:10153000380720F0DD2011F0DD24D6CFE889F989C5
:101540003083EA89FB89208319A2EE89FF894081D3
:1015500021E030E0C9010C8C02C0880F991F0A9469
:10156000E2F7482B4083EE89FF894081C9010D8C49
:1015700002C0880F991F0A94E2F7482B4083EE8936
:10158000FF894081C9010E8C02C0880F991F0A94FF
:10159000E2F7482B4083EE89FF8980810F8C02C0DF
:1015A000220F331F0A94E2F7209528232083DF912E
:1015B000CF911F910F91FF90EF90DF90BF90AF9070
:1015C0000895DC011C96ED91FC911D97E05CFF4FA6
:1015D0002191319180819181281B390B2F733070BB
:1015E000C9010895DC011C96ED91FC911D97E05C0A
:1015F000FF4F20813181E054F040DF01AE5BBF4FEF
:101600008D919C9111972817390719F42FEF3FEF0F
:1016100007C08D919C91E80FF91F8081282F30E041
:10162000C9010895DC011C96ED91FC911D97E05CC9
:10163000FF4F20813181E054F040DF01AE5BBF4FAE
:101640008D919C9111972817390719F42FEF3FEFCF
:1016500010C08D919C911197E80FF91F20818D91F9
:101660009C91119701968F73907011969C938E9315
:1016700030E0C9010895DC0191968C9191978823FF
:1016800039F05496ED91FC915597808186FFF9CF02
:1016900091961C920895CF93DF93EC01EE85FF8520
:1016A000E05CFF4F20813181E054F0402F5F3F4FDD
:1016B0002F733070DF01AE5BBF4F8D919C911197FE
:1016C00028173907D1F3E05CFF4F80819181E05406
:1016D000F040E80FF91F6083EE85FF85E05CFF4F67
:1016E00031832083EE89FF89208181E090E00F8C97
:1016F00002C0880F991F0A94E2F7282B208381E00B
:1017000089A3EC89FD8980818064808381E090E0F9
:10171000DF91CF9108951092F6041092F50488EEAF
:1017200093E0A0E0B0E08093F7049093F804A093D6
:10173000F904B093FA0480ED91E09093F40480935F
:10174000F3048BE694E0909300058093FF048FEA06
:1017500094E0909302058093010585EC90E09093CE
:1017600004058093030584EC90E090930605809334
:10177000050580EC90E0909308058093070581ECC7
:1017800090E090930A058093090582EC90E0909395
:101790000C0580930B0586EC90E090930E058093EA
:1017A0000D0584E080930F0583E08093100587E0AA
:1017B0008093110585E08093120581E080931305E5
:1017C0000895CF93DF930E9402090E943106CCE076
:1017D000DAE00E943C052097E1F30E940C0AF9CF61
:1017E000CF92DF92EF92FF920F931F93CF93DF93ED
:1017F0007C016B018A01C0E0D0E00FC0D6016D9181
:101800006D01D701ED91FC910190F081E02DC701B0
:101810000995C80FD91F015010400115110571F726
:10182000CE01DF91CF911F910F91FF90EF90DF904C
:10183000CF900895EF92FF920F931F938C01DC01DC
:10184000ED91FC910190F081E02D6DE009957C0116
:10185000D801ED91FC910190F081E02DC8016AE082
:1018600009959C012E0D3F1DC9011F910F91FF90FD
:10187000EF900895CF93DF93EC016115710519F492
:1018800020E030E00FC0DB010D900020E9F7119758
:10189000A61BB70BE881F9810280F381E02DAD0131
:1018A00009959C01C901DF91CF9108954F925F92F4
:1018B0007F928F929F92AF92BF92CF92DF92EF92E0
:1018C000FF920F931F93DF93CF93CDB7DEB7A1970E
:1018D0000FB6F894DEBF0FBECDBF2C01742ECB0126
:1018E000223008F42AE019A231E2C32ED12CCC0E0A
:1018F000DD1E822E9924AA24BB24672D752FA501F5
:1019000094010E94630D79018A01C801B701A50104
:1019100094010E94440D472D461B0894C108D1082C
:101920004A3014F4405D01C0495CF6014083E11483
:10193000F1040105110521F07E2C5F2DC801DDCFDA
:10194000C201B6010E943A0CA1960FB6F894DEBF10
:101950000FBECDBFCF91DF911F910F91FF90EF9000
:10196000DF90CF90BF90AF909F908F907F905F90CF
:101970004F900895DC012115310541F4ED91FC9162
:101980000190F081E02D642F099508950E94560C76
:101990000895EF92FF920F931F939A01E62EFF2472
:1019A00000E010E0B801A7010E94BA0C1F910F914E
:1019B000FF90EF900895CF92DF92EF92FF920F93F6
:1019C0001F93CF93DF93EC016A017B012115310551
:1019D00041F4E881F9810190F081E02D642F0995AF
:1019E0001FC02A303105D1F477FF17C0E881F98193
:1019F0000190F081E02D6DE209958C014427552777
:101A0000BA014C195D096E097F09CE012AE00E94D6
:101A1000560C9801280F391F04C02AE00E94560C6A
:101A20009C01C901DF91CF911F910F91FF90EF9021
:101A3000DF90CF900895EF92FF920F931F937B0159
:101A40009A010027F7FC0095102FB801A7010E940A
:101A5000DB0C1F910F91FF90EF9008950E943A0CBC
:101A60000895EF92FF920F931F937C010E943A0C0E
:101A70008C01C7010E941A0C080F191FC8011F9181
:101A80000F91FF90EF900895629FD001739FF00136
:101A9000829FE00DF11D649FE00DF11D929FF00DFE
:101AA000839FF00D749FF00D659FF00D9927729F35
:101AB000B00DE11DF91F639FB00DE11DF91FBD01C0
:101AC000CF0111240895A1E21A2EAA1BBB1BFD0110
:101AD0000DC0AA1FBB1FEE1FFF1FA217B307E4070D
:101AE000F50720F0A21BB30BE40BF50B661F771F65
:101AF000881F991F1A9469F7609570958095909545
:101B00009B01AC01BD01CF010895EE0FFF1F0590B1
:0A1B1000F491E02D0994F894FFCF42
:101B1A004000564D4450455F32005F564D44504593
:101B2A0000564D4450525F007C005F564D4450525F
:101B3A0000564D4450455F31005F564D44504500B4
:101B4A00564D4450565F317C315F564D44505600D5
:101B5A004572726F723A20417474656D70742074A4
:101B6A006F20736574206120726561642D6F6E6CDD
:101B7A0079207661726961626C65206F7220646196
:101B8A0074612074797065206E6F7420737570703B
:101B9A006F7274656400564D4450435F005F564D42
:101BAA00445043000401010A52D503760302D503C7
:101BBA00760303D503760304D503760305D50376A6
:101BCA000310AE03760300000000180200020000B2
:101BDA0000005802550216035B02050300000000CC
:0C1BEA004B0BF00BE10A120BF20A3B0B54
:00000001FF
