:10000000A9C00000C3C00000C1C00000BFC0000004
:10001000BDC00000BBC00000B9C00000B7C00000F8
:10002000B5C00000B3C00000B1C000004CC7000064
:10003000ADC00000ABC00000A9C00000A7C0000018
:10004000A5C00000A3C00000A1C000009FC0000028
:100050009DC000009BC0000099C00000C9C1000005
:1000600095C0000093C0000091C000008FC0000048
:100070008DC000002B0853083F0953083F09920820
:10008000B5083F090D091D0926034A006F007900D4
:1000900073007400690063006B00000018034600E1
:1000A000720061006E006300690073002000500060
:1000B0006100700069006E0065006100750000005D
:1000C0000403090409022200010100C032090400EE
:1000D000000103000000092111010001225B00075B
:1000E0000581030800051201100100000008EB0360
:1000F0004320010001020001050115000904A101CE
:10010000050209BB1581257F75089501810205014E
:100110000901A100093009310932093009310932D8
:1001200009300931093295028102C00939150025CB
:10013000033500460E016514750495018102050919
:100140001901291E1500250175019504550065004A
:100150008102C00011241FBECFEFD2E0DEBFCDBFB1
:1001600011E0A0E0B1E0EAE4F3E102C005900D92F5
:10017000A031B107D9F721E0A0E1B1E001C01D92A3
:10018000A63BB207E1F778D00C94A30939CF292F09
:10019000332723303105C9F044F42130310509F407
:1001A00039C02230310561F006C02132310541F1FC
:1001B0002232310551F180E090E020E030E033C0A0
:1001C00082E290E024EC30E02EC099278130910546
:1001D00059F08230910571F0892B09F5E0ECF0E0DF
:1001E000849190E09F011FC0ECE9F0E0849190E0E1
:1001F0009F0119C0E8E8F0E0849190E09F0113C0EE
:1002000089E090E026ED30E00EC08BE590E028EF2D
:1002100030E009C082E190E026EE30E004C080E0EA
:1002200090E020E030E0FA01318320830895CF93FD
:10023000DF9384B7877F84BF88E10FB6F8948093FB
:100240006000109260000FBE80E190E09093CD00BE
:100250008093CC0086E08093CA0082E08093C8003F
:10026000C9ECD0E088E18883539A5A9A1CD688E971
:100270008883DF91CF910895DADF2FB7F89484E275
:1002800091E09093A5018093A4019093A70180939E
:10029000A6012FBF789480E091E03BD20E946509CF
:1002A000FACF0895089580E091E01FD2E2EEF0E0E9
:1002B000808184608083089580E091E0D2C00895B9
:1002C00080910E0190910F01009729F00197909372
:1002D0000F0180930E0108958F929F92BF92CF924B
:1002E000DF92EF92FF920F931F93CF93DF93CDB7DF
:1002F000DEB72A970FB6F894DEBF0FBECDBF9FB70B
:10030000F8948091A8019FBF8A3008F450C040E063
:1003100050E080E090E0A6EAB1E00F2EF4E2EF2E8C
:10032000F1E0FF2EF02D0F2EF8EA8F2EF1E09F2E38
:10033000F02DCC24C394D12CCC0EDD1EC40ED51EC2
:10034000ED91FC911197B1901196FC93EE93E45AC4
:10035000F14019F41196FC92EE926FB7F894F40103
:100360007081715070836FBFF601B082FA01E65E52
:10037000FE4FB0820196AC018A309105D1F6E6EAD3
:10038000F1E080819181019691838083845A91402C
:1003900031F484E291E09093A7018093A6018FB796
:1003A000F894E8EAF1E09081915090838FBF8AE061
:1003B000EAE1F1E0D90101900D928A95E1F78AE036
:1003C00090E0F8019183808380E02A960FB6F8943C
:1003D000DEBF0FBECDBFDF91CF911F910F91FF9078
:1003E000EF90DF90CF90BF909F908F9008950895E9
:1003F0001F920F920FB60F9211242F938F939F93FA
:10040000AF93BF93EF93FF939091CE008091AD0196
:100410008430D9F4E4EAF1E0A081B1819C93808139
:1004200091810196918380838E179F0731F484E236
:1004300091E09093A5018093A4018FB7F894E8EA26
:10044000F1E090819F5F90838FBFFF91EF91BF910B
:10045000AF919F918F912F910F900FBE0F901F9092
:1004600018953F924F925F926F927F928F929F92D8
:10047000AF92BF92CF92DF92EF92FF920F931F93B2
:10048000CF93DF9300D01F92CDB7DEB76C01EDB6EE
:10049000FEB68091E80083FF0EC1F601808190E0F6
:1004A0002091B2013091B3012817390709F003C137
:1004B0008091AF01833009F49BC030F4813071F03A
:1004C000823009F4DDC0F7C08A3009F4BDC08B303A
:1004D00009F4A6C0893009F0EEC04CC08091AE018D
:1004E000813A09F0E8C08DB69EB61A821982E0EB17
:1004F000F1E0808111818B83F601408550E08DB75A
:100500009EB7841B950B0FB6F8949EBF0FBE8DBF90
:10051000EDB7FEB731965F0160E070E0CF010CD718
:100520004FEF410F8E010F5F1F4F9501BE016D5FB1
:100530007F4FC601D1DEF60186819781009721F0B9
:10054000408550E0B501EFD61092E90008EE10E0CA
:10055000F8018081877F808369817A81C501F3D129
:10056000F80180818B7780830FB6F8949EBE0FBE12
:100570008DBEA1C08091AE01813209F09CC06DB6E4
:100580007EB6A090B401B090B501E0EBF1E05080F0
:1005900041808DB79EB78A199B090FB6F8949EBF0C
:1005A0000FBE8DBFEDB7FEB731964F0108EE10E0DC
:1005B000F8018081877F8083B501C40138D2F801BA
:1005C00080818E77808321E0511001C020E030E0EF
:1005D0008501021B130B280D391D4FEF440D652DAE
:1005E000C60105DF0FB6F8947EBE0FBE6DBE63C0B8
:1005F0008091AE01813A09F05EC0E8EEF0E08081C2
:10060000877F8083808180FFFDCFF6018185809385
:10061000F100E8EEF0E080818E778083ABD34BC0B1
:100620008091AE01813209F046C0E8EEF0E08081B1
:10063000877F80839FD39091B00181E0911101C0A9
:1006400080E0F601818737C08091AE01813299F553
:10065000E8EEF0E08081877F80838CD38091B001C9
:100660009091B10188270024880F991F001C880FE2
:10067000991F001C892F902DF601958784871BC038
:100680008091AE01813AB9F4E8EEF0E08081877F95
:100690008083808180FFFDCFF601848595859695C6
:1006A0008795969587958093F100E8EEF0E080813C
:1006B0008E7780835FD30FB6F894FEBE0FBEEDBE7B
:1006C0000F900F900F90DF91CF911F910F91FF909E
:1006D000EF90DF90CF90BF90AF909F908F907F90E2
:1006E0006F905F904F903F900895FC01399627E0FE
:1006F000DF011D922A95E9F721E0FC01218724EF13
:1007000031E03587248723E0248361E00196D5C258
:1007100008955F926F927F928F929F92AF92BF9255
:10072000CF92DF92EF92FF920F931F93CF93DF93BD
:1007300000D01F92CDB7DEB77C01CDB6DEB680917A
:10074000AD01843009F08AC08091E4009091E50009
:10075000F701228533852817390709F47FC0818185
:100760008F708093E9008091E80085FF77C08DB697
:100770009EB6408550E08DB79EB7841B950B0FB693
:10078000F8949EBF0FBE8DBFEDB7FEB731965F01E7
:100790001B821A82198260E070E0CF01CDD58E01F4
:1007A0000F5F1F4F950140E0BE016D5F7F4FC70196
:1007B00093DD682EF70124853585232B41F021E058
:1007C00086859785892B09F020E0522E01C0512C97
:1007D000F701068117810115110589F049815A81B8
:1007E000B801C50193D577247394892B09F4712C32
:1007F000F701408550E0B501C80195D501C0712CC5
:1008000029813A81232BF1F0611004C0711002C0DC
:1008100050FE18C0F701848595859787868781816A
:100820008F708093E9008B8181118093F100698141
:100830007A8140E050E0C50129D0E8EEF0E0808107
:100840008E7780838091E4009091E500F701938793
:1008500082870FB6F8949EBE0FBE8DBE0FB6F89479
:10086000DEBE0FBECDBE0F900F900F90DF91CF91E7
:100870001F910F91FF90EF90DF90CF90BF90AF90BE
:100880009F908F907F906F905F9008958F929F922E
:10089000AF92BF92CF92DF92EF92FF920F931F938E
:1008A000CF93DF937C01EB015A0188D281113EC0C6
:1008B000A114B10439F0F50180819181C81BD90BD5
:1008C000E80EF91E209779F100E010E00F2EF8EE07
:1008D0008F2E912CF02D0F2EF1EFCF2ED12CF02D4D
:1008E000F401808185FD14C080818E778083EDD4F2
:1008F000A114B10449F0F50180819181080F191FFD
:100900001183008385E012C059D2882349F00EC0BC
:10091000F70181917F01F601808321970F5F1F4FBF
:100920002097F1F602C080E001C080E0DF91CF9116
:100930001F910F91FF90EF90DF90CF90BF90AF90FD
:100940009F908F9008950F931F93CF93DF932091E3
:10095000B4013091B5012617370758F061157105BC
:1009600039F4E8EEF0E020812E7720839B0101C06E
:100970009B01A0E0E8EEF0E062EF70E0C1EFD0E0B4
:1009800011E000E035C04091AD01442309F441C0BD
:10099000453009F440C0408143FD3FC0408142FFE3
:1009A00003C0E8EEF0E030C0408140FF21C0DB0131
:1009B0004C9150E02115310599F04830510580F4F3
:1009C000A82FB92F8D9188838A2F9B2F2150310911
:1009D0004F5F5F4F2115310519F04830510591F7F0
:1009E000A12F4830510509F0A02F40814E77408358
:1009F0002115310541F6A111C6CFD3CF8091AD01AC
:100A0000882369F0853069F0808182FFF7CF80E02C
:100A100009C082E007C083E005C081E003C082E036
:100A200001C083E0DF91CF911F910F9108950F9343
:100A30001F93CF93DF936115710529F4E8EEF0E081
:100A400020812B772083E8EEF0E002EF10E021EF29
:100A500030E01EC04091AD014423C1F14530C1F1E9
:100A6000408143FD37C0408142FFF4CF3FC0E901E0
:100A700088818D938A2F9B2F6150710961157105B3
:100A800021F0E80148814111F2CF40814B7740834A
:100A90006115710519F4E8EEF0E013C04091AD0165
:100AA0004423D1F04530D1F0408143FD19C040814D
:100AB00042FD1CC0CFCF8091AD01882399F08530D5
:100AC00099F0808180FFF7CF80E017C082E015C0E9
:100AD00083E013C081E011C082E00FC083E00DC04D
:100AE00081E00BC082E009C083E007C0D8014C91CF
:100AF000442359F2A82FB92FBACFDF91CF911F917C
:100B00000F910895EF92FF921F93CF93DF9320915F
:100B1000B4013091B5012617370758F061157105FA
:100B200039F4E8EEF0E020812E7720839B0101C0AC
:100B30009B01E82FF92F60E0A8EEB0E042EF50E013
:100B40000F2EF1EFEF2EF12CF02D71E010E031C0FF
:100B50008091AD01882309F43DC0853009F43CC083
:100B60008C9183FD3BC08C9182FF03C0E8EEF0E0E6
:100B70002CC08C9180FF1DC0EA01888190E0211576
:100B8000310581F08830910568F46491E70168834C
:100B900031962150310901962115310519F088301F
:100BA000910599F7672F089709F0612F8C918E773F
:100BB0008C932115310561F66111CACFD7CF809191
:100BC000AD01882369F0853069F0808182FFF7CF1D
:100BD00080E009C082E007C083E005C081E003C077
:100BE00082E001C083E0DF91CF911F91FF90EF90F1
:100BF00008958F929F92BF92CF92DF92EF92FF92D1
:100C00000F931F93CF93DF93853070F126C0592F38
:100C10005F70E8015883891731F0E901D88050816D
:100C2000E401788103C05B2DD62E7C2D51FF12C0CC
:100C30004C914E7F4C9340814D7F40834C9141605D
:100C40004C93E901D8825083E4017883E70158810D
:100C5000552344F49F5F9530D1F68F708093E9005F
:100C600081E01FC080E01DC0982F9F709093E90025
:100C7000982F542FD62E70E0ABEEB0E0EDEEF0E002
:100C80002CEE30E00F2EF0EF8F2E912CF02D0F2E4A
:100C9000FEEEEF2EF12CF02D09EE10E0B42EC12C5B
:100CA000C5CFDF91CF911F910F91FF90EF90DF9013
:100CB000CF90BF909F908F900895BF92CF92DF9278
:100CC000EF92FF920F931F93CF93DF93062F66232C
:100CD00009F441C0C82FD92F10E0F12C6894DD240D
:100CE000D3F8E12C6894BB24B1F80F2EF6E0CF2E98
:100CF000F02D5881552351F19C81E981FA817B8146
:100D0000852F8F70853048F5923010F04C2D01C042
:100D10004B2DE930F10550F02D2D3E2D9F2D9F5F7D
:100D2000220F331F2E173F07D0F301C09F2D92953E
:100D3000907F492B551F5527551F7295770F770FB9
:100D4000707C672F652B55DF882351F01F5F259638
:100D50001013CFCF04C081E003C080E001C081E068
:100D6000DF91CF911F910F91FF90EF90DF90CF9087
:100D7000BF9008958091AE0188231CF0E8EEF0E06A
:100D800014C0E8EEF0E004C08091AD018823A9F022
:100D9000808182FFF9CFE8EEF0E080818B7780835D
:100DA00008958091AD01882341F0808180FFF9CFC3
:100DB000E8EEF0E080818E77808308950F931F9393
:100DC000CF93DF932091E4003091E50065E6ACEE2F
:100DD000B0E0E8EEF0E00BEE10E044EE50E08C9175
:100DE00080FD21C024C08091AD01882381F0853031
:100DF00081F0E801888185FD0EC0EA018881998132
:100E00002817390761F3615041F09C01E8CF82E077
:100E100012C083E010C081E00EC084E00CC080E00E
:100E20000AC080E008C0808180FFDDCFF8CF8081DC
:100E300082FFD9CFF6CFDF91CF911F910F91089507
:100E40003CD03ED0E8EDF0E080818F7780838081D8
:100E50008068808380818F7D808384E089BD86E087
:100E600089BD09B400FEFDCF1092AD011092A90119
:100E70001092AB011092AA0142E060E080E0B9DE7E
:100E8000E1EEF0E080818E7F8083E2EEF0E0808111
:100E900081608083808188608083E0EEF0E08081E3
:100EA0008E7F80830895E3E6F0E080818E7F8083EB
:100EB00081E08093AC01C4CF08951092E2000895C0
:100EC0001092E10008951F920F920FB60F92112415
:100ED0002F933F934F935F936F937F938F939F9342
:100EE000AF93BF93EF93FF938091E10082FF0AC01D
:100EF0008091E20082FF06C0E1EEF0E080818B7F0E
:100F00008083DED98091E10080FF15C08091E200EE
:100F100080FF11C0E2EEF0E080818E7F80838081CF
:100F200080618083E8EDF0E080818062808319BC7D
:100F30001092AD01B7D98091E10084FF2FC080915C
:100F4000E20084FF2BC084E089BD86E089BD09B43E
:100F500000FEFDCFE8EDF0E080818F7D8083E1EE43
:100F6000F0E080818F7E8083E2EEF0E080818F7EF2
:100F700080838081816080838091A901882321F012
:100F800084E08093AD0109C08091E300882314F4CC
:100F900083E001C081E08093AD0183D98091E100BD
:100FA00083FF1EC08091E20083FF1AC0E1EEF0E0F3
:100FB0008081877F808382E08093AD011092A901B8
:100FC00080818E7F8083E2EEF0E080818E7F80835F
:100FD00080818061808342E060E080E00ADE74D13D
:100FE000FF91EF91BF91AF919F918F917F916F9101
:100FF0005F914F913F912F910F900FBE0F901F90D7
:1010000018950F931F93CF93DF93CDB7DEB7AA97B1
:101010000FB6F894DEBF0FBECDBFEEEAF1E086EB6F
:1010200091E0A1EFB0E02C912193E817F907D9F7EF
:1010300043D98091E80083FF22C13091AE01209115
:10104000AF01822F90E08A30910508F018C1FC01B1
:10105000E65CFF4F55C1303821F0323809F00FC13E
:1010600008C08091AA019091AB01992371F0826030
:101070000CC08091B2018F70E9EEF0E08083809126
:10108000EB0085FB882780F91082E8EEF0E0908184
:10109000977F9083A1EFB0E08C931C9280818E7734
:1010A000808368DEECC0332309F4F8C0323009F0E5
:1010B000E6C0F9C081E0233009F080E08093AB0105
:1010C00028C02091B2012F7009F4D9C02093E90003
:1010D0008091EB0080FF1DC08091AF01833031F41F
:1010E000EBEEF0E080818062808313C0EBEEF0E0F5
:1010F00080818061808381E090E002C0880F991F29
:101100002A95E2F7AAEEB0E08C931C928081886069
:1011100080831092E900E8EEF0E08081877F808391
:1011200029DEADC03111ABC01091B0011F77E3EEE5
:10113000F0E080818078812B8083E8EEF0E0808190
:10114000877F808317DEE8EEF0E0808180FFFDCFAF
:10115000E3EEF0E0808180688083112311F083E06A
:1011600001C082E08093AD018AC03058323008F06F
:1011700086C08091B0019091B1018C3D23E092072F
:1011800099F583E08A838AE289835FB7F894DE0168
:10119000139620E03EE041E2E32FF0E04093570059
:1011A000849120FF03C082958F703F5F8F708A30DB
:1011B00018F090E0C79602C090E0C0968D939D9382
:1011C0002F5F243149F75FBF08EE10E0F8018081FE
:1011D000877F80836AE270E0CE010196B4DBF8017C
:1011E00080818B7780834BC0AE014F5F5F4F6091F2
:1011F000B2010E94C700009709F441C008EE10E058
:10120000F8012081277F2083BC0189819A817ADCC3
:10121000F80180818B77808332C0303881F5E8EE29
:10122000F0E08081877F80838091A9018093F10025
:1012300080818E7780839EDD22C0311120C0809115
:10124000B0018230E0F4E8EEF0E08081877F8083B7
:101250008091B0018093A9018DDD8091A90188233F
:1012600021F084E08093AD0109C08091E3008823E0
:1012700014F484E001C081E08093AD0114D8809122
:10128000E80083FF16C0E8EEF0E08081877F80836E
:10129000EBEEF0E08081806280830BC08091B00132
:1012A000813069F707CF8091B001882309F409CF15
:1012B00030CFAA960FB6F894DEBF0FBECDBFDF9138
:1012C000CF911F910F9108950895CF938091AD0113
:1012D0008823A1F0C091E900CF708091EC0080FFDD
:1012E00002C080E801C080E0C82B1092E900809124
:1012F000E80083FD86DECF70C093E900CF910895AA
:10130000EE0FFF1F0590F491E02D0994FB01DC0125
:1013100004C08D910190801921F441505040C8F7CC
:10132000881B990B0895FB01DC0102C001900D920E
:1013300041505040D8F70895DC0101C06D934150F1
:0A1340005040E0F70895F894FFCF45
:10134A0000810800000110010A00000000000000EE
:00000001FF
